{
  "_format": "hh-sol-artifact-1",
  "contractName": "ReserveInterestRateStrategy",
  "sourceName": "contracts/protocol/lendingpool/ReserveInterestRateStrategy.sol",
  "abi": [
    {
      "inputs": [
        {
          "internalType": "contract IAddressesProviderFactory",
          "name": "provider",
          "type": "address"
        },
        {
          "internalType": "uint256",
          "name": "optimalUtilizationRate",
          "type": "uint256"
        },
        {
          "internalType": "uint256",
          "name": "baseVariableBorrowRate",
          "type": "uint256"
        },
        {
          "internalType": "uint256",
          "name": "variableRateSlope1",
          "type": "uint256"
        },
        {
          "internalType": "uint256",
          "name": "variableRateSlope2",
          "type": "uint256"
        }
      ],
      "stateMutability": "nonpayable",
      "type": "constructor"
    },
    {
      "inputs": [],
      "name": "EXCESS_UTILIZATION_RATE",
      "outputs": [
        {
          "internalType": "uint256",
          "name": "",
          "type": "uint256"
        }
      ],
      "stateMutability": "view",
      "type": "function"
    },
    {
      "inputs": [],
      "name": "OPTIMAL_UTILIZATION_RATE",
      "outputs": [
        {
          "internalType": "uint256",
          "name": "",
          "type": "uint256"
        }
      ],
      "stateMutability": "view",
      "type": "function"
    },
    {
      "inputs": [],
      "name": "addressesProvider",
      "outputs": [
        {
          "internalType": "contract IAddressesProviderFactory",
          "name": "",
          "type": "address"
        }
      ],
      "stateMutability": "view",
      "type": "function"
    },
    {
      "inputs": [],
      "name": "baseVariableBorrowRate",
      "outputs": [
        {
          "internalType": "uint256",
          "name": "",
          "type": "uint256"
        }
      ],
      "stateMutability": "view",
      "type": "function"
    },
    {
      "inputs": [
        {
          "internalType": "address",
          "name": "reserve",
          "type": "address"
        },
        {
          "internalType": "uint256",
          "name": "availableLiquidity",
          "type": "uint256"
        },
        {
          "internalType": "uint256",
          "name": "totalVariableDebt",
          "type": "uint256"
        },
        {
          "internalType": "uint256",
          "name": "reserveFactor",
          "type": "uint256"
        }
      ],
      "name": "calculateInterestRates",
      "outputs": [
        {
          "internalType": "uint256",
          "name": "",
          "type": "uint256"
        },
        {
          "internalType": "uint256",
          "name": "",
          "type": "uint256"
        }
      ],
      "stateMutability": "view",
      "type": "function"
    },
    {
      "inputs": [
        {
          "internalType": "address",
          "name": "reserve",
          "type": "address"
        },
        {
          "internalType": "address",
          "name": "tToken",
          "type": "address"
        },
        {
          "internalType": "uint256",
          "name": "liquidityAdded",
          "type": "uint256"
        },
        {
          "internalType": "uint256",
          "name": "liquidityTaken",
          "type": "uint256"
        },
        {
          "internalType": "uint256",
          "name": "totalVariableDebt",
          "type": "uint256"
        },
        {
          "internalType": "uint256",
          "name": "reserveFactor",
          "type": "uint256"
        }
      ],
      "name": "calculateInterestRates",
      "outputs": [
        {
          "internalType": "uint256",
          "name": "",
          "type": "uint256"
        },
        {
          "internalType": "uint256",
          "name": "",
          "type": "uint256"
        }
      ],
      "stateMutability": "view",
      "type": "function"
    },
    {
      "inputs": [],
      "name": "getMaxVariableBorrowRate",
      "outputs": [
        {
          "internalType": "uint256",
          "name": "",
          "type": "uint256"
        }
      ],
      "stateMutability": "view",
      "type": "function"
    },
    {
      "inputs": [],
      "name": "variableRateSlope1",
      "outputs": [
        {
          "internalType": "uint256",
          "name": "",
          "type": "uint256"
        }
      ],
      "stateMutability": "view",
      "type": "function"
    },
    {
      "inputs": [],
      "name": "variableRateSlope2",
      "outputs": [
        {
          "internalType": "uint256",
          "name": "",
          "type": "uint256"
        }
      ],
      "stateMutability": "view",
      "type": "function"
    }
  ],
  "bytecode": "0x61014060405234801561001157600080fd5b50604051610bff380380610bff833981810160405260a081101561003457600080fd5b5080516020808301516040840151606085015160809586015195839052939491939092909190610083908590610071906105c56100ad821b17901c565b6100bd60201b6105d51790919060201c565b60a05260609490941b6001600160601b03191660c05260e0919091526101005250610120526101a3565b6b033b2e3c9fd0803ce800000090565b600061010583836040518060400160405280601e81526020017f536166654d6174683a207375627472616374696f6e206f766572666c6f77000081525061010c60201b60201c565b9392505050565b6000818484111561019b5760405162461bcd60e51b81526004018080602001828103825283818151815260200191508051906020019080838360005b83811015610160578181015183820152602001610148565b50505050905090810190601f16801561018d5780820380516001836020036101000a031916815260200191505b509250505060405180910390fd5b505050900390565b60805160a05160c05160601c60e05161010051610120516109d461022b600039806101bd52806102bd5280610439525080610308528061037a5280610410528061047e5250806102e752806103a0528061045d528061057f5250806105a3525080610199528061025752508061022b528061027b528061034b528061055b52506109d46000f3fe608060405234801561001057600080fd5b50600436106100935760003560e01c806380031e371161006657806380031e371461011357806381c8c9721461011b578063a15f30ac14610163578063b25895441461016b578063c72c4d101461017357610093565b8063173198731461009857806365614f81146100b25780636ee082ca146100ba5780637b832f581461010b575b600080fd5b6100a0610197565b60408051918252519081900360200190f35b6100a06101bb565b6100f2600480360360808110156100d057600080fd5b506001600160a01b0381351690602081013590604081013590606001356101df565b6040805192835260208301919091528051918290030190f35b6100a061040e565b6100a0610432565b6100f2600480360360c081101561013157600080fd5b506001600160a01b03813581169160208101359091169060408101359060608101359060808101359060a001356104a7565b6100a0610559565b6100a061057d565b61017b6105a1565b604080516001600160a01b039092168252519081900360200190f35b7f000000000000000000000000000000000000000000000000000000000000000081565b7f000000000000000000000000000000000000000000000000000000000000000090565b6000806101ea610976565b8481526000602082018190526040820152841561021f57805161021a90610212908890610620565b82519061067a565b610222565b60005b606082018190527f0000000000000000000000000000000000000000000000000000000000000000101561033d5760006102b37f00000000000000000000000000000000000000000000000000000000000000006102ad7f000000000000000000000000000000000000000000000000000000000000000085606001516105d590919063ffffffff16565b9061067a565b90506103326102e27f0000000000000000000000000000000000000000000000000000000000000000836107be565b61032c7f00000000000000000000000000000000000000000000000000000000000000007f0000000000000000000000000000000000000000000000000000000000000000610620565b90610620565b6020830152506103cc565b606081015160009061036f907f000000000000000000000000000000000000000000000000000000000000000061067a565b90506103c561039e827f00000000000000000000000000000000000000000000000000000000000000006107be565b7f000000000000000000000000000000000000000000000000000000000000000090610620565b6020830152505b6103f46103db612710866105d5565b606083015160208401516103ee916107be565b9061087f565b604082018190526020909101519097909650945050505050565b7f000000000000000000000000000000000000000000000000000000000000000090565b60006104a27f000000000000000000000000000000000000000000000000000000000000000061032c7f00000000000000000000000000000000000000000000000000000000000000007f0000000000000000000000000000000000000000000000000000000000000000610620565b905090565b6000806000886001600160a01b03166370a08231896040518263ffffffff1660e01b815260040180826001600160a01b0316815260200191505060206040518083038186803b1580156104f957600080fd5b505afa15801561050d573d6000803e3d6000fd5b505050506040513d602081101561052357600080fd5b5051905061053b86610535838a610620565b906105d5565b9050610549898287876101df565b9250925050965096945050505050565b7f000000000000000000000000000000000000000000000000000000000000000081565b7f000000000000000000000000000000000000000000000000000000000000000090565b7f000000000000000000000000000000000000000000000000000000000000000081565b6b033b2e3c9fd0803ce800000090565b600061061783836040518060400160405280601e81526020017f536166654d6174683a207375627472616374696f6e206f766572666c6f77000081525061091c565b90505b92915050565b600082820183811015610617576040805162461bcd60e51b815260206004820152601b60248201527f536166654d6174683a206164646974696f6e206f766572666c6f770000000000604482015290519081900360640190fd5b604080518082019091526002815261035360f41b60208201526000908261071f5760405162461bcd60e51b81526004018080602001828103825283818151815260200191508051906020019080838360005b838110156106e45781810151838201526020016106cc565b50505050905090810190601f1680156107115780820380516001836020036101000a031916815260200191505b509250505060405180910390fd5b5060408051808201909152600280825261068760f31b60208301528304906b033b2e3c9fd0803ce800000082190485111561079b5760405162461bcd60e51b81526020600482018181528351602484015283519092839260449091019190850190808383600083156106e45781810151838201526020016106cc565b5082816b033b2e3c9fd0803ce8000000860201816107b557fe5b04949350505050565b60008215806107cb575081155b156107d85750600061061a565b816b019d971e4fe8401e7400000019816107ee57fe5b0483111560405180604001604052806002815260200161068760f31b815250906108595760405162461bcd60e51b81526020600482018181528351602484015283519092839260449091019190850190808383600083156106e45781810151838201526020016106cc565b506b033b2e3c9fd0803ce80000006002815b04838502018161087757fe5b049392505050565b600082158061088c575081155b156108995750600061061a565b8161138819816108a557fe5b0483111560405180604001604052806002815260200161068760f31b815250906109105760405162461bcd60e51b81526020600482018181528351602484015283519092839260449091019190850190808383600083156106e45781810151838201526020016106cc565b5061271060028161086b565b6000818484111561096e5760405162461bcd60e51b81526020600482018181528351602484015283519092839260449091019190850190808383600083156106e45781810151838201526020016106cc565b505050900390565b604051806080016040528060008152602001600081526020016000815260200160008152509056fea2646970667358221220ab5700a176620aee8753d09e5b3b8f719203370372e038b879d439a05c06b10464736f6c634300060c0033",
  "linkReferences": {},
  "deployedLinkReferences": {}
}