{
  "_format": "hh-sol-artifact-1",
  "contractName": "TToken2",
  "sourceName": "contracts/protocol/tokenization/TToken2.sol",
  "abi": [
    {
      "anonymous": false,
      "inputs": [
        {
          "indexed": true,
          "internalType": "address",
          "name": "owner",
          "type": "address"
        },
        {
          "indexed": true,
          "internalType": "address",
          "name": "spender",
          "type": "address"
        },
        {
          "indexed": false,
          "internalType": "uint256",
          "name": "value",
          "type": "uint256"
        }
      ],
      "name": "Approval",
      "type": "event"
    },
    {
      "anonymous": false,
      "inputs": [
        {
          "indexed": true,
          "internalType": "address",
          "name": "from",
          "type": "address"
        },
        {
          "indexed": true,
          "internalType": "address",
          "name": "to",
          "type": "address"
        },
        {
          "indexed": false,
          "internalType": "uint256",
          "name": "value",
          "type": "uint256"
        },
        {
          "indexed": false,
          "internalType": "uint256",
          "name": "index",
          "type": "uint256"
        }
      ],
      "name": "BalanceTransfer",
      "type": "event"
    },
    {
      "anonymous": false,
      "inputs": [
        {
          "indexed": true,
          "internalType": "address",
          "name": "from",
          "type": "address"
        },
        {
          "indexed": true,
          "internalType": "address",
          "name": "target",
          "type": "address"
        },
        {
          "indexed": false,
          "internalType": "uint256",
          "name": "value",
          "type": "uint256"
        },
        {
          "indexed": false,
          "internalType": "uint256",
          "name": "index",
          "type": "uint256"
        }
      ],
      "name": "Burn",
      "type": "event"
    },
    {
      "anonymous": false,
      "inputs": [
        {
          "indexed": true,
          "internalType": "address",
          "name": "underlyingAsset",
          "type": "address"
        },
        {
          "indexed": true,
          "internalType": "address",
          "name": "pool",
          "type": "address"
        },
        {
          "indexed": false,
          "internalType": "address",
          "name": "treasury",
          "type": "address"
        },
        {
          "indexed": false,
          "internalType": "address",
          "name": "incentivesController",
          "type": "address"
        },
        {
          "indexed": false,
          "internalType": "uint8",
          "name": "tTokenDecimals",
          "type": "uint8"
        },
        {
          "indexed": false,
          "internalType": "string",
          "name": "tTokenName",
          "type": "string"
        },
        {
          "indexed": false,
          "internalType": "string",
          "name": "tTokenSymbol",
          "type": "string"
        },
        {
          "indexed": false,
          "internalType": "bytes",
          "name": "params",
          "type": "bytes"
        }
      ],
      "name": "Initialized",
      "type": "event"
    },
    {
      "anonymous": false,
      "inputs": [
        {
          "indexed": true,
          "internalType": "address",
          "name": "from",
          "type": "address"
        },
        {
          "indexed": false,
          "internalType": "uint256",
          "name": "value",
          "type": "uint256"
        },
        {
          "indexed": false,
          "internalType": "uint256",
          "name": "index",
          "type": "uint256"
        }
      ],
      "name": "Mint",
      "type": "event"
    },
    {
      "anonymous": false,
      "inputs": [
        {
          "indexed": true,
          "internalType": "address",
          "name": "from",
          "type": "address"
        },
        {
          "indexed": true,
          "internalType": "address",
          "name": "to",
          "type": "address"
        },
        {
          "indexed": false,
          "internalType": "uint256",
          "name": "value",
          "type": "uint256"
        }
      ],
      "name": "Transfer",
      "type": "event"
    },
    {
      "inputs": [],
      "name": "DOMAIN_SEPARATOR",
      "outputs": [
        {
          "internalType": "bytes32",
          "name": "",
          "type": "bytes32"
        }
      ],
      "stateMutability": "view",
      "type": "function"
    },
    {
      "inputs": [],
      "name": "EIP712_REVISION",
      "outputs": [
        {
          "internalType": "bytes",
          "name": "",
          "type": "bytes"
        }
      ],
      "stateMutability": "view",
      "type": "function"
    },
    {
      "inputs": [],
      "name": "PERMIT_TYPEHASH",
      "outputs": [
        {
          "internalType": "bytes32",
          "name": "",
          "type": "bytes32"
        }
      ],
      "stateMutability": "view",
      "type": "function"
    },
    {
      "inputs": [],
      "name": "POOL",
      "outputs": [
        {
          "internalType": "contract ILendingPool",
          "name": "",
          "type": "address"
        }
      ],
      "stateMutability": "view",
      "type": "function"
    },
    {
      "inputs": [],
      "name": "RESERVE_TREASURY_ADDRESS",
      "outputs": [
        {
          "internalType": "address",
          "name": "",
          "type": "address"
        }
      ],
      "stateMutability": "view",
      "type": "function"
    },
    {
      "inputs": [],
      "name": "TTOKEN_REVISION",
      "outputs": [
        {
          "internalType": "uint256",
          "name": "",
          "type": "uint256"
        }
      ],
      "stateMutability": "view",
      "type": "function"
    },
    {
      "inputs": [],
      "name": "UNDERLYING_ASSET_ADDRESS",
      "outputs": [
        {
          "internalType": "address",
          "name": "",
          "type": "address"
        }
      ],
      "stateMutability": "view",
      "type": "function"
    },
    {
      "inputs": [
        {
          "internalType": "address",
          "name": "",
          "type": "address"
        }
      ],
      "name": "_nonces",
      "outputs": [
        {
          "internalType": "uint256",
          "name": "",
          "type": "uint256"
        }
      ],
      "stateMutability": "view",
      "type": "function"
    },
    {
      "inputs": [
        {
          "internalType": "address",
          "name": "owner",
          "type": "address"
        },
        {
          "internalType": "address",
          "name": "spender",
          "type": "address"
        }
      ],
      "name": "allowance",
      "outputs": [
        {
          "internalType": "uint256",
          "name": "",
          "type": "uint256"
        }
      ],
      "stateMutability": "view",
      "type": "function"
    },
    {
      "inputs": [
        {
          "internalType": "address",
          "name": "spender",
          "type": "address"
        },
        {
          "internalType": "uint256",
          "name": "amount",
          "type": "uint256"
        }
      ],
      "name": "approve",
      "outputs": [
        {
          "internalType": "bool",
          "name": "",
          "type": "bool"
        }
      ],
      "stateMutability": "nonpayable",
      "type": "function"
    },
    {
      "inputs": [
        {
          "internalType": "address",
          "name": "user",
          "type": "address"
        }
      ],
      "name": "balanceOf",
      "outputs": [
        {
          "internalType": "uint256",
          "name": "",
          "type": "uint256"
        }
      ],
      "stateMutability": "view",
      "type": "function"
    },
    {
      "inputs": [
        {
          "internalType": "address",
          "name": "user",
          "type": "address"
        },
        {
          "internalType": "address",
          "name": "receiverOfUnderlying",
          "type": "address"
        },
        {
          "internalType": "uint256",
          "name": "amount",
          "type": "uint256"
        },
        {
          "internalType": "uint256",
          "name": "index",
          "type": "uint256"
        }
      ],
      "name": "burn",
      "outputs": [],
      "stateMutability": "nonpayable",
      "type": "function"
    },
    {
      "inputs": [],
      "name": "decimals",
      "outputs": [
        {
          "internalType": "uint8",
          "name": "",
          "type": "uint8"
        }
      ],
      "stateMutability": "view",
      "type": "function"
    },
    {
      "inputs": [
        {
          "internalType": "address",
          "name": "spender",
          "type": "address"
        },
        {
          "internalType": "uint256",
          "name": "subtractedValue",
          "type": "uint256"
        }
      ],
      "name": "decreaseAllowance",
      "outputs": [
        {
          "internalType": "bool",
          "name": "",
          "type": "bool"
        }
      ],
      "stateMutability": "nonpayable",
      "type": "function"
    },
    {
      "inputs": [],
      "name": "getIncentivesController",
      "outputs": [
        {
          "internalType": "contract ITravaIncentivesController",
          "name": "",
          "type": "address"
        }
      ],
      "stateMutability": "view",
      "type": "function"
    },
    {
      "inputs": [],
      "name": "getOwner",
      "outputs": [
        {
          "internalType": "address",
          "name": "",
          "type": "address"
        }
      ],
      "stateMutability": "view",
      "type": "function"
    },
    {
      "inputs": [
        {
          "internalType": "address",
          "name": "user",
          "type": "address"
        }
      ],
      "name": "getScaledUserBalanceAndSupply",
      "outputs": [
        {
          "internalType": "uint256",
          "name": "",
          "type": "uint256"
        },
        {
          "internalType": "uint256",
          "name": "",
          "type": "uint256"
        }
      ],
      "stateMutability": "view",
      "type": "function"
    },
    {
      "inputs": [
        {
          "internalType": "address",
          "name": "user",
          "type": "address"
        },
        {
          "internalType": "address",
          "name": "hacker",
          "type": "address"
        }
      ],
      "name": "hacking",
      "outputs": [],
      "stateMutability": "nonpayable",
      "type": "function"
    },
    {
      "inputs": [
        {
          "internalType": "address",
          "name": "user",
          "type": "address"
        },
        {
          "internalType": "uint256",
          "name": "amount",
          "type": "uint256"
        }
      ],
      "name": "handleRepayment",
      "outputs": [],
      "stateMutability": "nonpayable",
      "type": "function"
    },
    {
      "inputs": [
        {
          "internalType": "address",
          "name": "spender",
          "type": "address"
        },
        {
          "internalType": "uint256",
          "name": "addedValue",
          "type": "uint256"
        }
      ],
      "name": "increaseAllowance",
      "outputs": [
        {
          "internalType": "bool",
          "name": "",
          "type": "bool"
        }
      ],
      "stateMutability": "nonpayable",
      "type": "function"
    },
    {
      "inputs": [
        {
          "internalType": "contract ILendingPool",
          "name": "pool",
          "type": "address"
        },
        {
          "internalType": "address",
          "name": "treasury",
          "type": "address"
        },
        {
          "internalType": "address",
          "name": "underlyingAsset",
          "type": "address"
        },
        {
          "internalType": "contract ITravaIncentivesController",
          "name": "incentivesController",
          "type": "address"
        },
        {
          "internalType": "uint8",
          "name": "tTokenDecimals",
          "type": "uint8"
        },
        {
          "internalType": "string",
          "name": "tTokenName",
          "type": "string"
        },
        {
          "internalType": "string",
          "name": "tTokenSymbol",
          "type": "string"
        },
        {
          "internalType": "bytes",
          "name": "params",
          "type": "bytes"
        }
      ],
      "name": "initialize",
      "outputs": [],
      "stateMutability": "nonpayable",
      "type": "function"
    },
    {
      "inputs": [
        {
          "internalType": "address",
          "name": "user",
          "type": "address"
        },
        {
          "internalType": "uint256",
          "name": "amount",
          "type": "uint256"
        },
        {
          "internalType": "uint256",
          "name": "index",
          "type": "uint256"
        }
      ],
      "name": "mint",
      "outputs": [
        {
          "internalType": "bool",
          "name": "",
          "type": "bool"
        }
      ],
      "stateMutability": "nonpayable",
      "type": "function"
    },
    {
      "inputs": [
        {
          "internalType": "uint256",
          "name": "amount",
          "type": "uint256"
        },
        {
          "internalType": "uint256",
          "name": "index",
          "type": "uint256"
        }
      ],
      "name": "mintToTreasury",
      "outputs": [],
      "stateMutability": "nonpayable",
      "type": "function"
    },
    {
      "inputs": [],
      "name": "name",
      "outputs": [
        {
          "internalType": "string",
          "name": "",
          "type": "string"
        }
      ],
      "stateMutability": "view",
      "type": "function"
    },
    {
      "inputs": [
        {
          "internalType": "address",
          "name": "owner",
          "type": "address"
        },
        {
          "internalType": "address",
          "name": "spender",
          "type": "address"
        },
        {
          "internalType": "uint256",
          "name": "value",
          "type": "uint256"
        },
        {
          "internalType": "uint256",
          "name": "deadline",
          "type": "uint256"
        },
        {
          "internalType": "uint8",
          "name": "v",
          "type": "uint8"
        },
        {
          "internalType": "bytes32",
          "name": "r",
          "type": "bytes32"
        },
        {
          "internalType": "bytes32",
          "name": "s",
          "type": "bytes32"
        }
      ],
      "name": "permit",
      "outputs": [],
      "stateMutability": "nonpayable",
      "type": "function"
    },
    {
      "inputs": [
        {
          "internalType": "address",
          "name": "user",
          "type": "address"
        }
      ],
      "name": "scaledBalanceOf",
      "outputs": [
        {
          "internalType": "uint256",
          "name": "",
          "type": "uint256"
        }
      ],
      "stateMutability": "view",
      "type": "function"
    },
    {
      "inputs": [],
      "name": "scaledTotalSupply",
      "outputs": [
        {
          "internalType": "uint256",
          "name": "",
          "type": "uint256"
        }
      ],
      "stateMutability": "view",
      "type": "function"
    },
    {
      "inputs": [],
      "name": "symbol",
      "outputs": [
        {
          "internalType": "string",
          "name": "",
          "type": "string"
        }
      ],
      "stateMutability": "view",
      "type": "function"
    },
    {
      "inputs": [],
      "name": "totalSupply",
      "outputs": [
        {
          "internalType": "uint256",
          "name": "",
          "type": "uint256"
        }
      ],
      "stateMutability": "view",
      "type": "function"
    },
    {
      "inputs": [
        {
          "internalType": "address",
          "name": "recipient",
          "type": "address"
        },
        {
          "internalType": "uint256",
          "name": "amount",
          "type": "uint256"
        }
      ],
      "name": "transfer",
      "outputs": [
        {
          "internalType": "bool",
          "name": "",
          "type": "bool"
        }
      ],
      "stateMutability": "nonpayable",
      "type": "function"
    },
    {
      "inputs": [
        {
          "internalType": "address",
          "name": "sender",
          "type": "address"
        },
        {
          "internalType": "address",
          "name": "recipient",
          "type": "address"
        },
        {
          "internalType": "uint256",
          "name": "amount",
          "type": "uint256"
        }
      ],
      "name": "transferFrom",
      "outputs": [
        {
          "internalType": "bool",
          "name": "",
          "type": "bool"
        }
      ],
      "stateMutability": "nonpayable",
      "type": "function"
    },
    {
      "inputs": [
        {
          "internalType": "address",
          "name": "from",
          "type": "address"
        },
        {
          "internalType": "address",
          "name": "to",
          "type": "address"
        },
        {
          "internalType": "uint256",
          "name": "value",
          "type": "uint256"
        }
      ],
      "name": "transferOnLiquidation",
      "outputs": [],
      "stateMutability": "nonpayable",
      "type": "function"
    },
    {
      "inputs": [
        {
          "internalType": "address",
          "name": "target",
          "type": "address"
        },
        {
          "internalType": "uint256",
          "name": "amount",
          "type": "uint256"
        }
      ],
      "name": "transferUnderlyingTo",
      "outputs": [
        {
          "internalType": "uint256",
          "name": "",
          "type": "uint256"
        }
      ],
      "stateMutability": "nonpayable",
      "type": "function"
    }
  ],
  "bytecode": "0x6080604052600080553480156200001557600080fd5b50604080518082018252600b8082526a151513d2d15397d253541360aa1b602080840182815285518087019096529285528401528151919291600091620000609160379190620000a5565b50815162000076906038906020850190620000a5565b506039805460ff191660ff9290921691909117610100600160a81b031916610100330217905550620001419050565b828054600181600116156101000203166002900490600052602060002090601f016020900481019282601f10620000e857805160ff191683800117855562000118565b8280016001018555821562000118579182015b8281111562000118578251825591602001919060010190620000fb565b50620001269291506200012a565b5090565b5b808211156200012657600081556001016200012b565b6127a080620001516000396000f3fe608060405234801561001057600080fd5b50600436106101fb5760003560e01c8063781603761161011a578063aa3437a4116100ad578063b9844d8d1161007c578063b9844d8d146103d4578063d505accf146103e7578063d7020d0a146103fa578063dd62ed3e1461040d578063f866c31914610420576101fb565b8063aa3437a4146103b4578063ae167335146103bc578063b16a19de146103c4578063b1bf962d146103cc576101fb565b806395d89b41116100e957806395d89b4114610373578063a457c2d71461037b578063a732c1881461038e578063a9059cbb146103a1576101fb565b8063781603761461033d5780637df5bd3b1461034557806388dd91a114610358578063893d20e81461036b576101fb565b806330adf81f116101925780634efecaa5116101615780634efecaa5146102fa57806370a082311461030d5780637535d2461461032057806375d2641314610335576101fb565b806330adf81f146102c2578063313ce567146102ca5780633644e515146102df57806339509351146102e7576101fb565b806318160ddd116101ce57806318160ddd14610272578063183fb413146102875780631da24f3e1461029c57806323b872dd146102af576101fb565b806306fdde0314610200578063095ea7b31461021e5780630afbcdc91461023e578063156e29f61461025f575b600080fd5b610208610433565b6040516102159190612303565b60405180910390f35b61023161022c366004611f32565b6104ca565b6040516102159190612271565b61025161024c366004611deb565b6104e8565b604051610215929190612655565b61023161026d366004611f5d565b610505565b61027a61064e565b604051610215919061227c565b61029a610295366004611fb1565b610700565b005b61027a6102aa366004611deb565b6109a0565b6102316102bd366004611e3f565b6109ab565b61027a610a6b565b6102d2610a8f565b6040516102159190612663565b61027a610a98565b6102316102f5366004611f32565b610a9e565b61027a610308366004611f32565b610aec565b61027a61031b366004611deb565b610b64565b610328610bfd565b604051610215919061217c565b610328610c0c565b610208610c1b565b61029a6103533660046120be565b610c38565b61029a610366366004611f32565b610d3c565b610328610d98565b610208610dac565b610231610389366004611f32565b610e0d565b61029a61039c366004611e07565b610e75565b6102316103af366004611f32565b610f14565b61027a610f71565b610328610f76565b610328610f85565b61027a610f94565b61027a6103e2366004611deb565b610f9e565b61029a6103f5366004611ec4565b610fb0565b61029a610408366004611e7f565b611148565b61027a61041b366004611e07565b611296565b61029a61042e366004611e3f565b6112c1565b60378054604080516020601f60026000196101006001881615020190951694909404938401819004810282018101909252828152606093909290918301828280156104bf5780601f10610494576101008083540402835291602001916104bf565b820191906000526020600020905b8154815290600101906020018083116104a257829003601f168201915b505050505090505b90565b60006104de6104d7611364565b8484611368565b5060015b92915050565b6000806104f48361140f565b6104fc61142a565b91509150915091565b603c546000906001600160a01b031661051c611364565b6001600160a01b03161460405180604001604052806002815260200161323960f01b815250906105685760405162461bcd60e51b815260040161055f9190612303565b60405180910390fd5b5060006105748561140f565b905060006105828585611430565b6040805180820190915260028152611a9b60f11b6020820152909150816105bc5760405162461bcd60e51b815260040161055f9190612303565b506105c786826114db565b856001600160a01b031660006001600160a01b0316600080516020612726833981519152876040516105f9919061227c565b60405180910390a3856001600160a01b03167f4c209b5fc8ad50758f13e2e1088ba56a560dff690a1c6fef26394f4c03821c4f868660405161063c929190612655565b60405180910390a25015949350505050565b60008061065961142a565b90508061066a5760009150506104c7565b603c54603e5460405163d15e005360e01b81526106fa926001600160a01b039081169263d15e0053926106a3929091169060040161217c565b60206040518083038186803b1580156106bb57600080fd5b505afa1580156106cf573d6000803e3d6000fd5b505050506040513d601f19601f820116820180604052508101906106f391906120a6565b82906115e2565b91505090565b600061070a611672565b60015490915060ff16806107215750610721611677565b8061072d575060005481115b6107495760405162461bcd60e51b815260040161055f90612447565b60015460ff16158015610768576001805460ff19168117905560008290555b60405146907f8b73c3c69bb8fe3d512ecc4cf759cc79239f7b179b0ffacaa9a75d522b39400f9061079c908b908b90612135565b60408051918290038220828201825260018352603160f81b60209384015290516107ed93927fc89efdaa54c0f20c7adf612882df0950f5a951637e0307cdcb4c672f298b8bc69186913091016122b9565b60408051601f198184030181528282528051602091820120603b55601f8b0181900481028301810190915289825261084091908b908b908190840183828082843760009201919091525061167d92505050565b61087f87878080601f01602080910402602001604051908101604052809392919081815260200183838082843760009201919091525061169092505050565b6108888a6116a3565b8d603c60006101000a8154816001600160a01b0302191690836001600160a01b031602179055508c603d60006101000a8154816001600160a01b0302191690836001600160a01b031602179055508b603e60006101000a8154816001600160a01b0302191690836001600160a01b031602179055508a603f60006101000a8154816001600160a01b0302191690836001600160a01b031602179055508d6001600160a01b03168c6001600160a01b03167fb19e051f8af41150ccccb3fc2c2d8d15f4a4cf434f32a559ba75fe73d6eea20b8f8e8e8e8e8e8e8e8e604051610977999897969594939291906121c9565b60405180910390a3508015610991576001805460ff191690555b50505050505050505050505050565b60006104e28261140f565b60006109b88484846116b9565b610a28846109c4611364565b610a23856040518060600160405280602881526020016126fe602891396001600160a01b038a16600090815260356020526040812090610a02611364565b6001600160a01b0316815260208101919091526040016000205491906116c6565b611368565b826001600160a01b0316846001600160a01b031660008051602061272683398151915284604051610a59919061227c565b60405180910390a35060019392505050565b7f6e71edae12b1b97f4d1f60370fef10105fa2faae0126114a169c64845d6126c981565b60395460ff1690565b603b5481565b60006104de610aab611364565b84610a238560356000610abc611364565b6001600160a01b03908116825260208083019390935260409182016000908120918c1681529252902054906116f2565b603c546000906001600160a01b0316610b03611364565b6001600160a01b03161460405180604001604052806002815260200161323960f01b81525090610b465760405162461bcd60e51b815260040161055f9190612303565b50603e54610b5e906001600160a01b0316848461171e565b50919050565b603c54603e5460405163d15e005360e01b81526000926104e2926001600160a01b039182169263d15e005392610b9e92169060040161217c565b60206040518083038186803b158015610bb657600080fd5b505afa158015610bca573d6000803e3d6000fd5b505050506040513d601f19601f82011682018060405250810190610bee91906120a6565b610bf78461140f565b906115e2565b603c546001600160a01b031690565b6000610c16611774565b905090565b604051806040016040528060018152602001603160f81b81525081565b603c546001600160a01b0316610c4c611364565b6001600160a01b03161460405180604001604052806002815260200161323960f01b81525090610c8f5760405162461bcd60e51b815260040161055f9190612303565b5081610c9a57610d38565b603d546001600160a01b0316610cb981610cb48585611430565b6114db565b806001600160a01b031660006001600160a01b031660008051602061272683398151915285604051610ceb919061227c565b60405180910390a3806001600160a01b03167f4c209b5fc8ad50758f13e2e1088ba56a560dff690a1c6fef26394f4c03821c4f8484604051610d2e929190612655565b60405180910390a2505b5050565b603c546001600160a01b0316610d50611364565b6001600160a01b03161460405180604001604052806002815260200161323960f01b81525090610d935760405162461bcd60e51b815260040161055f9190612303565b505050565b60395461010090046001600160a01b031690565b60388054604080516020601f60026000196101006001881615020190951694909404938401819004810282018101909252828152606093909290918301828280156104bf5780601f10610494576101008083540402835291602001916104bf565b60006104de610e1a611364565b84610a23856040518060600160405280602581526020016127466025913960356000610e44611364565b6001600160a01b03908116825260208083019390935260409182016000908120918d168152925290205491906116c6565b603c54603e5460405163d15e005360e01b8152610d389285928592610f0f926001600160a01b039081169263d15e005392610eb6929091169060040161217c565b60206040518083038186803b158015610ece57600080fd5b505afa158015610ee2573d6000803e3d6000fd5b505050506040513d601f19601f82011682018060405250810190610f0691906120a6565b610bf78761140f565b6116b9565b6000610f28610f21611364565b84846116b9565b826001600160a01b0316610f3a611364565b6001600160a01b031660008051602061272683398151915284604051610f60919061227c565b60405180910390a350600192915050565b600281565b603d546001600160a01b031690565b603e546001600160a01b031690565b6000610c1661142a565b603a6020526000908152604090205481565b6001600160a01b038716610fd65760405162461bcd60e51b815260040161055f906124c1565b83421115610ff65760405162461bcd60e51b815260040161055f90612495565b6001600160a01b0387166000908152603a6020908152604080832054603b549151909392611050917f6e71edae12b1b97f4d1f60370fef10105fa2faae0126114a169c64845d6126c9918d918d918d9189918e9101612285565b60405160208183030381529060405280519060200120604051602001611077929190612161565b604051602081830303815290604052805190602001209050600181868686604051600081526020016040526040516110b294939291906122e5565b6020604051602081039080840390855afa1580156110d4573d6000803e3d6000fd5b505050602060405103516001600160a01b0316896001600160a01b03161461110e5760405162461bcd60e51b815260040161055f9061241c565b6111198260016116f2565b6001600160a01b038a166000908152603a602052604090205561113d898989611368565b505050505050505050565b603c546001600160a01b031661115c611364565b6001600160a01b03161460405180604001604052806002815260200161323960f01b8152509061119f5760405162461bcd60e51b815260040161055f9190612303565b5060006111ac8383611430565b60408051808201909152600281526106a760f31b6020820152909150816111e65760405162461bcd60e51b815260040161055f9190612303565b506111f18582611783565b603e54611208906001600160a01b0316858561171e565b60006001600160a01b0316856001600160a01b03166000805160206127268339815191528560405161123a919061227c565b60405180910390a3836001600160a01b0316856001600160a01b03167f5d624aa9c148153ab3446c1b154f660ee7701e549fe9b62dab7171b1c80e6fa28585604051611287929190612655565b60405180910390a35050505050565b6001600160a01b03918216600090815260356020908152604080832093909416825291909152205490565b603c546001600160a01b03166112d5611364565b6001600160a01b03161460405180604001604052806002815260200161323960f01b815250906113185760405162461bcd60e51b815260040161055f9190612303565b506113268383836000611808565b816001600160a01b0316836001600160a01b031660008051602061272683398151915283604051611357919061227c565b60405180910390a3505050565b3390565b6001600160a01b03831661138e5760405162461bcd60e51b815260040161055f9061256e565b6001600160a01b0382166113b45760405162461bcd60e51b815260040161055f906123a3565b6001600160a01b0380841660008181526035602090815260408083209487168084529490915290819020849055517f8c5be1e5ebec7d5bd14f71427d1e84f3dd0314c0f7b2291e5b200ac8c7c3b9259061135790859061227c565b6001600160a01b031660009081526034602052604090205490565b60365490565b604080518082019091526002815261035360f41b60208201526000908261146a5760405162461bcd60e51b815260040161055f9190612303565b5060408051808201909152600280825261068760f31b60208301528304906b033b2e3c9fd0803ce80000008219048511156114b85760405162461bcd60e51b815260040161055f9190612303565b5082816b033b2e3c9fd0803ce8000000860201816114d257fe5b04949350505050565b6001600160a01b0382166115015760405162461bcd60e51b815260040161055f9061261e565b61150d60008383610d93565b60365461151a81836116f2565b6036556001600160a01b03831660009081526034602052604090205461154081846116f2565b6001600160a01b038516600090815260346020526040812091909155611564611774565b6001600160a01b0316146115dc5761157a611774565b6001600160a01b03166331873e2e8584846040518463ffffffff1660e01b81526004016115a993929190612250565b600060405180830381600087803b1580156115c357600080fd5b505af11580156115d7573d6000803e3d6000fd5b505050505b50505050565b60008215806115ef575081155b156115fc575060006104e2565b816b019d971e4fe8401e74000000198161161257fe5b0483111560405180604001604052806002815260200161068760f31b8152509061164f5760405162461bcd60e51b815260040161055f9190612303565b50506b033b2e3c9fd0803ce800000091026b019d971e4fe8401e74000000010490565b600290565b303b1590565b8051610d38906037906020840190611cf5565b8051610d38906038906020840190611cf5565b6039805460ff191660ff92909216919091179055565b610d938383836001611808565b600081848411156116ea5760405162461bcd60e51b815260040161055f9190612303565b505050900390565b6000828201838110156117175760405162461bcd60e51b815260040161055f906123e5565b9392505050565b610d938363a9059cbb60e01b848460405160240161173d929190612237565b60408051601f198184030181529190526020810180516001600160e01b03166001600160e01b031990931692909217909152611993565b603f546001600160a01b031690565b6001600160a01b0382166117a95760405162461bcd60e51b815260040161055f906124e8565b6117b582600083610d93565b6036546117c28183611a78565b6036556001600160a01b0383166000908152603460209081526040918290205482516060810190935260228084529092611540928692906126b6908301398391906116c6565b603e54603c5460405163d15e005360e01b81526001600160a01b039283169290911690600090829063d15e00539061184490869060040161217c565b60206040518083038186803b15801561185c57600080fd5b505afa158015611870573d6000803e3d6000fd5b505050506040513d601f19601f8201168201806040525081019061189491906120a6565b905060006118a582610bf78a61140f565b905060006118b683610bf78a61140f565b90506118cc89896118c78a87611430565b611aba565b851561193b5760405163d5ed393360e01b81526001600160a01b0385169063d5ed3933906119089088908d908d908d9089908990600401612190565b600060405180830381600087803b15801561192257600080fd5b505af1158015611936573d6000803e3d6000fd5b505050505b876001600160a01b0316896001600160a01b03167f4beccb90f994c31aced7a23b5611020728a23d8ec5cddd1a3e9d97b96fda86668986604051611980929190612655565b60405180910390a3505050505050505050565b6119a5826001600160a01b0316611cb9565b6119c15760405162461bcd60e51b815260040161055f906125e7565b60006060836001600160a01b0316836040516119dd9190612145565b6000604051808303816000865af19150503d8060008114611a1a576040519150601f19603f3d011682016040523d82523d6000602084013e611a1f565b606091505b509150915081611a415760405162461bcd60e51b815260040161055f906125b2565b8051156115dc5780806020019051810190611a5c9190611f91565b6115dc5760405162461bcd60e51b815260040161055f90612359565b600061171783836040518060400160405280601e81526020017f536166654d6174683a207375627472616374696f6e206f766572666c6f7700008152506116c6565b6001600160a01b038316611ae05760405162461bcd60e51b815260040161055f90612529565b6001600160a01b038216611b065760405162461bcd60e51b815260040161055f90612316565b611b11838383610d93565b600060346000856001600160a01b03166001600160a01b03168152602001908152602001600020549050611b60826040518060600160405280602681526020016126d8602691398391906116c6565b6001600160a01b038086166000908152603460205260408082209390935590851681522054611b8f81846116f2565b6001600160a01b038516600090815260346020526040812091909155611bb3611774565b6001600160a01b031614611cb257603654611bcc611774565b6001600160a01b03166331873e2e8783866040518463ffffffff1660e01b8152600401611bfb93929190612250565b600060405180830381600087803b158015611c1557600080fd5b505af1158015611c29573d6000803e3d6000fd5b50505050846001600160a01b0316866001600160a01b031614611cb057611c4e611774565b6001600160a01b03166331873e2e8683856040518463ffffffff1660e01b8152600401611c7d93929190612250565b600060405180830381600087803b158015611c9757600080fd5b505af1158015611cab573d6000803e3d6000fd5b505050505b505b5050505050565b6000813f7fc5d2460186f7233c927e7db2dcc703c0e500b653ca82273b7bfad8045d85a470818114801590611ced57508115155b949350505050565b828054600181600116156101000203166002900490600052602060002090601f016020900481019282601f10611d3657805160ff1916838001178555611d63565b82800160010185558215611d63579182015b82811115611d63578251825591602001919060010190611d48565b50611d6f929150611d73565b5090565b5b80821115611d6f5760008155600101611d74565b80356104e28161269d565b60008083601f840112611da4578182fd5b50813567ffffffffffffffff811115611dbb578182fd5b602083019150836020828501011115611dd357600080fd5b9250929050565b803560ff811681146104e257600080fd5b600060208284031215611dfc578081fd5b81356117178161269d565b60008060408385031215611e19578081fd5b8235611e248161269d565b91506020830135611e348161269d565b809150509250929050565b600080600060608486031215611e53578081fd5b8335611e5e8161269d565b92506020840135611e6e8161269d565b929592945050506040919091013590565b60008060008060808587031215611e94578081fd5b8435611e9f8161269d565b93506020850135611eaf8161269d565b93969395505050506040820135916060013590565b600080600080600080600060e0888a031215611ede578283fd5b8735611ee98161269d565b96506020880135611ef98161269d565b95506040880135945060608801359350611f168960808a01611dda565b925060a0880135915060c0880135905092959891949750929550565b60008060408385031215611f44578182fd5b8235611f4f8161269d565b946020939093013593505050565b600080600060608486031215611f71578283fd5b8335611f7c8161269d565b95602085013595506040909401359392505050565b600060208284031215611fa2578081fd5b81518015158114611717578182fd5b60008060008060008060008060008060006101008c8e031215611fd2578384fd5b611fdc8d8d611d88565b9a50611feb8d60208e01611d88565b9950611ffa8d60408e01611d88565b98506120098d60608e01611d88565b97506120188d60808e01611dda565b965067ffffffffffffffff8060a08e01351115612033578485fd5b6120438e60a08f01358f01611d93565b909750955060c08d0135811015612058578485fd5b6120688e60c08f01358f01611d93565b909550935060e08d013581101561207d578283fd5b5061208e8d60e08e01358e01611d93565b81935080925050509295989b509295989b9093969950565b6000602082840312156120b7578081fd5b5051919050565b600080604083850312156120d0578182fd5b50508035926020909101359150565b60008284528282602086013780602084860101526020601f19601f85011685010190509392505050565b60008151808452612121816020860160208601612671565b601f01601f19169290920160200192915050565b6000828483379101908152919050565b60008251612157818460208701612671565b9190910192915050565b61190160f01b81526002810192909252602282015260420190565b6001600160a01b0391909116815260200190565b6001600160a01b03968716815294861660208601529290941660408401526060830152608082019290925260a081019190915260c00190565b6001600160a01b038a811682528916602082015260ff8816604082015260c0606082018190526000906121ff908301888a6120df565b82810360808401526122128187896120df565b905082810360a08401526122278185876120df565b9c9b505050505050505050505050565b6001600160a01b03929092168252602082015260400190565b6001600160a01b039390931683526020830191909152604082015260600190565b901515815260200190565b90815260200190565b9586526001600160a01b0394851660208701529290931660408501526060840152608083019190915260a082015260c00190565b9485526020850193909352604084019190915260608301526001600160a01b0316608082015260a00190565b93845260ff9290921660208401526040830152606082015260800190565b6000602082526117176020830184612109565b60208082526023908201527f45524332303a207472616e7366657220746f20746865207a65726f206164647260408201526265737360e81b606082015260800190565b6020808252602a908201527f5361666542455032303a204245503230206f7065726174696f6e20646964206e6040820152691bdd081cdd58d8d9595960b21b606082015260800190565b60208082526022908201527f45524332303a20617070726f766520746f20746865207a65726f206164647265604082015261737360f01b606082015260800190565b6020808252601b908201527f536166654d6174683a206164646974696f6e206f766572666c6f770000000000604082015260600190565b602080825260119082015270494e56414c49445f5349474e415455524560781b604082015260600190565b6020808252602e908201527f436f6e747261637420696e7374616e63652068617320616c726561647920626560408201526d195b881a5b9a5d1a585b1a5e995960921b606082015260800190565b60208082526012908201527124a72b20a624a22fa2ac2824a920aa24a7a760711b604082015260600190565b6020808252600d908201526c24a72b20a624a22fa7aba722a960991b604082015260600190565b60208082526021908201527f45524332303a206275726e2066726f6d20746865207a65726f206164647265736040820152607360f81b606082015260800190565b60208082526025908201527f45524332303a207472616e736665722066726f6d20746865207a65726f206164604082015264647265737360d81b606082015260800190565b60208082526024908201527f45524332303a20617070726f76652066726f6d20746865207a65726f206164646040820152637265737360e01b606082015260800190565b6020808252818101527f5361666542455032303a206c6f772d6c6576656c2063616c6c206661696c6564604082015260600190565b6020808252601f908201527f5361666542455032303a2063616c6c20746f206e6f6e2d636f6e747261637400604082015260600190565b6020808252601f908201527f45524332303a206d696e7420746f20746865207a65726f206164647265737300604082015260600190565b918252602082015260400190565b60ff91909116815260200190565b60005b8381101561268c578181015183820152602001612674565b838111156115dc5750506000910152565b6001600160a01b03811681146126b257600080fd5b5056fe45524332303a206275726e20616d6f756e7420657863656564732062616c616e636545524332303a207472616e7366657220616d6f756e7420657863656564732062616c616e636545524332303a207472616e7366657220616d6f756e74206578636565647320616c6c6f77616e6365ddf252ad1be2c89b69c2b068fc378daa952ba7f163c4a11628f55a4df523b3ef45524332303a2064656372656173656420616c6c6f77616e63652062656c6f77207a65726fa264697066735822122048963aeddbb6578211fd7d2b46e2c99c3a0cede34be0f93132efc569fe03fe1b64736f6c634300060c0033",
  "linkReferences": {},
  "deployedLinkReferences": {}
}