{
  "_format": "hh-sol-artifact-1",
  "contractName": "AirdropToken",
  "sourceName": "contracts/airdropNoRequire/airdropToken.sol",
  "abi": [
    {
      "inputs": [
        {
          "internalType": "contract IBEP20",
          "name": "rewardToken",
          "type": "address"
        },
        {
          "internalType": "address",
          "name": "rewardsVault",
          "type": "address"
        },
        {
          "internalType": "address",
          "name": "governance",
          "type": "address"
        }
      ],
      "stateMutability": "nonpayable",
      "type": "constructor"
    },
    {
      "anonymous": false,
      "inputs": [
        {
          "indexed": true,
          "internalType": "address",
          "name": "user",
          "type": "address"
        }
      ],
      "name": "Cooldown",
      "type": "event"
    },
    {
      "anonymous": false,
      "inputs": [
        {
          "indexed": false,
          "internalType": "address",
          "name": "user",
          "type": "address"
        },
        {
          "indexed": false,
          "internalType": "uint256",
          "name": "amount",
          "type": "uint256"
        }
      ],
      "name": "RewardsAccrued",
      "type": "event"
    },
    {
      "anonymous": false,
      "inputs": [
        {
          "indexed": true,
          "internalType": "address",
          "name": "from",
          "type": "address"
        },
        {
          "indexed": true,
          "internalType": "address",
          "name": "to",
          "type": "address"
        },
        {
          "indexed": false,
          "internalType": "uint256",
          "name": "amount",
          "type": "uint256"
        }
      ],
      "name": "RewardsClaimed",
      "type": "event"
    },
    {
      "inputs": [],
      "name": "DOMAIN_SEPARATOR",
      "outputs": [
        {
          "internalType": "bytes32",
          "name": "",
          "type": "bytes32"
        }
      ],
      "stateMutability": "view",
      "type": "function"
    },
    {
      "inputs": [],
      "name": "EIP712_REVISION",
      "outputs": [
        {
          "internalType": "bytes",
          "name": "",
          "type": "bytes"
        }
      ],
      "stateMutability": "view",
      "type": "function"
    },
    {
      "inputs": [],
      "name": "GOVERNANCE",
      "outputs": [
        {
          "internalType": "address",
          "name": "",
          "type": "address"
        }
      ],
      "stateMutability": "view",
      "type": "function"
    },
    {
      "inputs": [],
      "name": "REVISION",
      "outputs": [
        {
          "internalType": "uint256",
          "name": "",
          "type": "uint256"
        }
      ],
      "stateMutability": "view",
      "type": "function"
    },
    {
      "inputs": [],
      "name": "REWARDS_VAULT",
      "outputs": [
        {
          "internalType": "address",
          "name": "",
          "type": "address"
        }
      ],
      "stateMutability": "view",
      "type": "function"
    },
    {
      "inputs": [],
      "name": "REWARD_TOKEN",
      "outputs": [
        {
          "internalType": "contract IBEP20",
          "name": "",
          "type": "address"
        }
      ],
      "stateMutability": "view",
      "type": "function"
    },
    {
      "inputs": [],
      "name": "START_TIME_CLAIM",
      "outputs": [
        {
          "internalType": "uint256",
          "name": "",
          "type": "uint256"
        }
      ],
      "stateMutability": "view",
      "type": "function"
    },
    {
      "inputs": [],
      "name": "VESTING_TIME_INTERVAL",
      "outputs": [
        {
          "internalType": "uint256",
          "name": "",
          "type": "uint256"
        }
      ],
      "stateMutability": "view",
      "type": "function"
    },
    {
      "inputs": [
        {
          "internalType": "address",
          "name": "reserve",
          "type": "address"
        },
        {
          "internalType": "address",
          "name": "to",
          "type": "address"
        },
        {
          "internalType": "uint256",
          "name": "amount",
          "type": "uint256"
        }
      ],
      "name": "claimRewards",
      "outputs": [],
      "stateMutability": "nonpayable",
      "type": "function"
    },
    {
      "inputs": [
        {
          "internalType": "address",
          "name": "userAddress",
          "type": "address"
        },
        {
          "internalType": "address",
          "name": "reserve",
          "type": "address"
        }
      ],
      "name": "getClaimedReward",
      "outputs": [
        {
          "internalType": "uint256",
          "name": "claimedBalance",
          "type": "uint256"
        }
      ],
      "stateMutability": "view",
      "type": "function"
    },
    {
      "inputs": [
        {
          "internalType": "address",
          "name": "userAddress",
          "type": "address"
        },
        {
          "internalType": "address",
          "name": "reserve",
          "type": "address"
        }
      ],
      "name": "getTotalReward",
      "outputs": [
        {
          "internalType": "uint256",
          "name": "rewardBalance",
          "type": "uint256"
        }
      ],
      "stateMutability": "view",
      "type": "function"
    },
    {
      "inputs": [],
      "name": "initialize",
      "outputs": [],
      "stateMutability": "nonpayable",
      "type": "function"
    },
    {
      "inputs": [
        {
          "internalType": "address",
          "name": "_gov",
          "type": "address"
        }
      ],
      "name": "setGovernance",
      "outputs": [],
      "stateMutability": "nonpayable",
      "type": "function"
    },
    {
      "inputs": [
        {
          "internalType": "contract IBEP20",
          "name": "_trava",
          "type": "address"
        }
      ],
      "name": "setRewardToken",
      "outputs": [],
      "stateMutability": "nonpayable",
      "type": "function"
    },
    {
      "inputs": [
        {
          "internalType": "address",
          "name": "_reward_vault",
          "type": "address"
        }
      ],
      "name": "setRewardVault",
      "outputs": [],
      "stateMutability": "nonpayable",
      "type": "function"
    },
    {
      "inputs": [
        {
          "internalType": "address",
          "name": "reserve",
          "type": "address"
        },
        {
          "components": [
            {
              "internalType": "address",
              "name": "userAddress",
              "type": "address"
            },
            {
              "internalType": "uint256",
              "name": "rewardBalance",
              "type": "uint256"
            }
          ],
          "internalType": "struct AirdropToken.UserRewardInput[]",
          "name": "userRewardInput",
          "type": "tuple[]"
        }
      ],
      "name": "setRewards",
      "outputs": [],
      "stateMutability": "nonpayable",
      "type": "function"
    },
    {
      "inputs": [
        {
          "internalType": "address",
          "name": "",
          "type": "address"
        },
        {
          "internalType": "address",
          "name": "",
          "type": "address"
        }
      ],
      "name": "stakerRewardClaimed",
      "outputs": [
        {
          "internalType": "uint256",
          "name": "",
          "type": "uint256"
        }
      ],
      "stateMutability": "view",
      "type": "function"
    },
    {
      "inputs": [
        {
          "internalType": "address",
          "name": "",
          "type": "address"
        },
        {
          "internalType": "address",
          "name": "",
          "type": "address"
        }
      ],
      "name": "stakerRewardsToClaim",
      "outputs": [
        {
          "internalType": "uint256",
          "name": "",
          "type": "uint256"
        }
      ],
      "stateMutability": "view",
      "type": "function"
    }
  ],
  "bytecode": "0x6080604052600080553480156200001557600080fd5b5060405162001c5f38038062001c5f83398181016040528101906200003b919062000135565b82603460006101000a81548173ffffffffffffffffffffffffffffffffffffffff021916908373ffffffffffffffffffffffffffffffffffffffff16021790555081603560006101000a81548173ffffffffffffffffffffffffffffffffffffffff021916908373ffffffffffffffffffffffffffffffffffffffff16021790555080603860006101000a81548173ffffffffffffffffffffffffffffffffffffffff021916908373ffffffffffffffffffffffffffffffffffffffff16021790555050505062000207565b6000815190506200011881620001d3565b92915050565b6000815190506200012f81620001ed565b92915050565b6000806000606084860312156200014b57600080fd5b60006200015b868287016200011e565b93505060206200016e8682870162000107565b9250506040620001818682870162000107565b9150509250925092565b60006200019882620001b3565b9050919050565b6000620001ac826200018b565b9050919050565b600073ffffffffffffffffffffffffffffffffffffffff82169050919050565b620001de816200018b565b8114620001ea57600080fd5b50565b620001f8816200019f565b81146200020457600080fd5b50565b611a4880620002176000396000f3fe608060405234801561001057600080fd5b50600436106101165760003560e01c80638aee8127116100a2578063d9e7135d11610071578063d9e7135d14610297578063dde43cba146102c7578063e5d72cb5146102e5578063e8a22a8a14610315578063f3621e431461034557610116565b80638aee812714610223578063946776cd1461023f57806399248ea71461025d578063ab033ea91461027b57610116565b8063497495d2116100e9578063497495d21461019357806378160376146101af5780637c7c1942146101cd5780638125dd10146101fd5780638129fc1c1461021957610116565b8063146278341461011b5780633644e51514610139578063390b0ff614610157578063445e243a14610175575b600080fd5b610123610361565b60405161013091906116e0565b60405180910390f35b610141610387565b60405161014e9190611732565b60405180910390f35b61015f61038d565b60405161016c919061188c565b60405180910390f35b61017d610393565b60405161018a919061188c565b60405180910390f35b6101ad60048036038101906101a89190611334565b610399565b005b6101b7610503565b6040516101c4919061174d565b60405180910390f35b6101e760048036038101906101e291906112a9565b61053c565b6040516101f4919061188c565b60405180910390f35b61021760048036038101906102129190611280565b610561565b005b610221610635565b005b61023d600480360381019061023891906113b5565b61070e565b005b6102476107e2565b60405161025491906116e0565b60405180910390f35b610265610808565b604051610272919061176f565b60405180910390f35b61029560048036038101906102909190611280565b61082e565b005b6102b160048036038101906102ac91906112a9565b610902565b6040516102be919061188c565b60405180910390f35b6102cf610989565b6040516102dc919061188c565b60405180910390f35b6102ff60048036038101906102fa91906112a9565b61098e565b60405161030c919061188c565b60405180910390f35b61032f600480360381019061032a91906112a9565b6109b3565b60405161033c919061188c565b60405180910390f35b61035f600480360381019061035a91906112e5565b610a3a565b005b603860009054906101000a900473ffffffffffffffffffffffffffffffffffffffff1681565b603b5481565b60365481565b60375481565b603860009054906101000a900473ffffffffffffffffffffffffffffffffffffffff1673ffffffffffffffffffffffffffffffffffffffff163373ffffffffffffffffffffffffffffffffffffffff1614610429576040517f08c379a00000000000000000000000000000000000000000000000000000000081526004016104209061180c565b60405180910390fd5b60005b828290508110156104fd5782828281811061044357fe5b90506040020160200135603960008673ffffffffffffffffffffffffffffffffffffffff1673ffffffffffffffffffffffffffffffffffffffff168152602001908152602001600020600085858581811061049a57fe5b90506040020160000160208101906104b29190611280565b73ffffffffffffffffffffffffffffffffffffffff1673ffffffffffffffffffffffffffffffffffffffff16815260200190815260200160002081905550808060010191505061042c565b50505050565b6040518060400160405280600181526020017f310000000000000000000000000000000000000000000000000000000000000081525081565b6039602052816000526040600020602052806000526040600020600091509150505481565b603860009054906101000a900473ffffffffffffffffffffffffffffffffffffffff1673ffffffffffffffffffffffffffffffffffffffff163373ffffffffffffffffffffffffffffffffffffffff16146105f1576040517f08c379a00000000000000000000000000000000000000000000000000000000081526004016105e89061180c565b60405180910390fd5b80603560006101000a81548173ffffffffffffffffffffffffffffffffffffffff021916908373ffffffffffffffffffffffffffffffffffffffff16021790555050565b600061063f610e88565b9050600160009054906101000a900460ff1680610660575061065f610e91565b5b8061066c575060005481115b6106ab576040517f08c379a00000000000000000000000000000000000000000000000000000000081526004016106a2906117ec565b60405180910390fd5b6000600160009054906101000a900460ff1615905080156106e85760018060006101000a81548160ff021916908315150217905550816000819055505b801561070a576000600160006101000a81548160ff0219169083151502179055505b5050565b603860009054906101000a900473ffffffffffffffffffffffffffffffffffffffff1673ffffffffffffffffffffffffffffffffffffffff163373ffffffffffffffffffffffffffffffffffffffff161461079e576040517f08c379a00000000000000000000000000000000000000000000000000000000081526004016107959061180c565b60405180910390fd5b80603460006101000a81548173ffffffffffffffffffffffffffffffffffffffff021916908373ffffffffffffffffffffffffffffffffffffffff16021790555050565b603560009054906101000a900473ffffffffffffffffffffffffffffffffffffffff1681565b603460009054906101000a900473ffffffffffffffffffffffffffffffffffffffff1681565b603860009054906101000a900473ffffffffffffffffffffffffffffffffffffffff1673ffffffffffffffffffffffffffffffffffffffff163373ffffffffffffffffffffffffffffffffffffffff16146108be576040517f08c379a00000000000000000000000000000000000000000000000000000000081526004016108b59061180c565b60405180910390fd5b80603860006101000a81548173ffffffffffffffffffffffffffffffffffffffff021916908373ffffffffffffffffffffffffffffffffffffffff16021790555050565b6000603a60008373ffffffffffffffffffffffffffffffffffffffff1673ffffffffffffffffffffffffffffffffffffffff16815260200190815260200160002060008473ffffffffffffffffffffffffffffffffffffffff1673ffffffffffffffffffffffffffffffffffffffff16815260200190815260200160002054905092915050565b600181565b603a602052816000526040600020602052806000526040600020600091509150505481565b6000603960008373ffffffffffffffffffffffffffffffffffffffff1673ffffffffffffffffffffffffffffffffffffffff16815260200190815260200160002060008473ffffffffffffffffffffffffffffffffffffffff1673ffffffffffffffffffffffffffffffffffffffff16815260200190815260200160002054905092915050565b6000603960008573ffffffffffffffffffffffffffffffffffffffff1673ffffffffffffffffffffffffffffffffffffffff16815260200190815260200160002060003373ffffffffffffffffffffffffffffffffffffffff1673ffffffffffffffffffffffffffffffffffffffff1681526020019081526020016000205411610af9576040517f08c379a0000000000000000000000000000000000000000000000000000000008152600401610af09061186c565b60405180910390fd5b6000603960008573ffffffffffffffffffffffffffffffffffffffff1673ffffffffffffffffffffffffffffffffffffffff16815260200190815260200160002060003373ffffffffffffffffffffffffffffffffffffffff1673ffffffffffffffffffffffffffffffffffffffff1681526020019081526020016000205490506000818311610b895782610b8b565b815b9050610c1c81603a60008873ffffffffffffffffffffffffffffffffffffffff1673ffffffffffffffffffffffffffffffffffffffff16815260200190815260200160002060003373ffffffffffffffffffffffffffffffffffffffff1673ffffffffffffffffffffffffffffffffffffffff16815260200190815260200160002054610ea290919063ffffffff16565b603a60008773ffffffffffffffffffffffffffffffffffffffff1673ffffffffffffffffffffffffffffffffffffffff16815260200190815260200160002060003373ffffffffffffffffffffffffffffffffffffffff1673ffffffffffffffffffffffffffffffffffffffff16815260200190815260200160002081905550610d2b81603960008873ffffffffffffffffffffffffffffffffffffffff1673ffffffffffffffffffffffffffffffffffffffff16815260200190815260200160002060003373ffffffffffffffffffffffffffffffffffffffff1673ffffffffffffffffffffffffffffffffffffffff16815260200190815260200160002054610ef790919063ffffffff16565b603960008773ffffffffffffffffffffffffffffffffffffffff1673ffffffffffffffffffffffffffffffffffffffff16815260200190815260200160002060003373ffffffffffffffffffffffffffffffffffffffff1673ffffffffffffffffffffffffffffffffffffffff16815260200190815260200160002081905550610e1c603560009054906101000a900473ffffffffffffffffffffffffffffffffffffffff168583603460009054906101000a900473ffffffffffffffffffffffffffffffffffffffff1673ffffffffffffffffffffffffffffffffffffffff16610f41909392919063ffffffff16565b8373ffffffffffffffffffffffffffffffffffffffff163373ffffffffffffffffffffffffffffffffffffffff167f9310ccfcb8de723f578a9e4282ea9f521f05ae40dc08f3068dfad528a65ee3c783604051610e79919061188c565b60405180910390a35050505050565b60006001905090565b600080303b90506000811491505090565b600080828401905083811015610eed576040517f08c379a0000000000000000000000000000000000000000000000000000000008152600401610ee4906117cc565b60405180910390fd5b8091505092915050565b6000610f3983836040518060400160405280601e81526020017f536166654d6174683a207375627472616374696f6e206f766572666c6f770000815250610fca565b905092915050565b610fc4846323b872dd60e01b858585604051602401610f62939291906116fb565b604051602081830303815290604052907bffffffffffffffffffffffffffffffffffffffffffffffffffffffff19166020820180517bffffffffffffffffffffffffffffffffffffffffffffffffffffffff8381831617835250505050611025565b50505050565b6000838311158290611012576040517f08c379a0000000000000000000000000000000000000000000000000000000008152600401611009919061178a565b60405180910390fd5b5060008385039050809150509392505050565b6110448273ffffffffffffffffffffffffffffffffffffffff16611197565b611083576040517f08c379a000000000000000000000000000000000000000000000000000000000815260040161107a9061184c565b60405180910390fd5b600060608373ffffffffffffffffffffffffffffffffffffffff16836040516110ac91906116c9565b6000604051808303816000865af19150503d80600081146110e9576040519150601f19603f3d011682016040523d82523d6000602084013e6110ee565b606091505b509150915081611133576040517f08c379a000000000000000000000000000000000000000000000000000000000815260040161112a9061182c565b60405180910390fd5b6000815111156111915780806020019051810190611151919061138c565b611190576040517f08c379a0000000000000000000000000000000000000000000000000000000008152600401611187906117ac565b60405180910390fd5b5b50505050565b60008060007fc5d2460186f7233c927e7db2dcc703c0e500b653ca82273b7bfad8045d85a47060001b9050833f91508082141580156111d957506000801b8214155b92505050919050565b6000813590506111f1816119b6565b92915050565b60008083601f84011261120957600080fd5b8235905067ffffffffffffffff81111561122257600080fd5b60208301915083604082028301111561123a57600080fd5b9250929050565b600081519050611250816119cd565b92915050565b600081359050611265816119e4565b92915050565b60008135905061127a816119fb565b92915050565b60006020828403121561129257600080fd5b60006112a0848285016111e2565b91505092915050565b600080604083850312156112bc57600080fd5b60006112ca858286016111e2565b92505060206112db858286016111e2565b9150509250929050565b6000806000606084860312156112fa57600080fd5b6000611308868287016111e2565b9350506020611319868287016111e2565b925050604061132a8682870161126b565b9150509250925092565b60008060006040848603121561134957600080fd5b6000611357868287016111e2565b935050602084013567ffffffffffffffff81111561137457600080fd5b611380868287016111f7565b92509250509250925092565b60006020828403121561139e57600080fd5b60006113ac84828501611241565b91505092915050565b6000602082840312156113c757600080fd5b60006113d584828501611256565b91505092915050565b6113e7816118ea565b82525050565b6113f681611908565b82525050565b6000611407826118a7565b61141181856118bd565b9350611421818560208601611972565b61142a816119a5565b840191505092915050565b6000611440826118a7565b61144a81856118ce565b935061145a818560208601611972565b80840191505092915050565b61146f8161194e565b82525050565b6000611480826118b2565b61148a81856118d9565b935061149a818560208601611972565b6114a3816119a5565b840191505092915050565b60006114bb602a836118d9565b91507f5361666542455032303a204245503230206f7065726174696f6e20646964206e60008301527f6f742073756363656564000000000000000000000000000000000000000000006020830152604082019050919050565b6000611521601b836118d9565b91507f536166654d6174683a206164646974696f6e206f766572666c6f7700000000006000830152602082019050919050565b6000611561602e836118d9565b91507f436f6e747261637420696e7374616e63652068617320616c726561647920626560008301527f656e20696e697469616c697a65640000000000000000000000000000000000006020830152604082019050919050565b60006115c7600f836118d9565b91507f4f4e4c595f474f5645524e414e434500000000000000000000000000000000006000830152602082019050919050565b60006116076020836118d9565b91507f5361666542455032303a206c6f772d6c6576656c2063616c6c206661696c65646000830152602082019050919050565b6000611647601f836118d9565b91507f5361666542455032303a2063616c6c20746f206e6f6e2d636f6e7472616374006000830152602082019050919050565b6000611687600e836118d9565b91507f494e56414c494420414d4f554e540000000000000000000000000000000000006000830152602082019050919050565b6116c381611944565b82525050565b60006116d58284611435565b915081905092915050565b60006020820190506116f560008301846113de565b92915050565b600060608201905061171060008301866113de565b61171d60208301856113de565b61172a60408301846116ba565b949350505050565b600060208201905061174760008301846113ed565b92915050565b6000602082019050818103600083015261176781846113fc565b905092915050565b60006020820190506117846000830184611466565b92915050565b600060208201905081810360008301526117a48184611475565b905092915050565b600060208201905081810360008301526117c5816114ae565b9050919050565b600060208201905081810360008301526117e581611514565b9050919050565b6000602082019050818103600083015261180581611554565b9050919050565b60006020820190508181036000830152611825816115ba565b9050919050565b60006020820190508181036000830152611845816115fa565b9050919050565b600060208201905081810360008301526118658161163a565b9050919050565b600060208201905081810360008301526118858161167a565b9050919050565b60006020820190506118a160008301846116ba565b92915050565b600081519050919050565b600081519050919050565b600082825260208201905092915050565b600081905092915050565b600082825260208201905092915050565b60006118f582611924565b9050919050565b60008115159050919050565b6000819050919050565b600061191d826118ea565b9050919050565b600073ffffffffffffffffffffffffffffffffffffffff82169050919050565b6000819050919050565b600061195982611960565b9050919050565b600061196b82611924565b9050919050565b60005b83811015611990578082015181840152602081019050611975565b8381111561199f576000848401525b50505050565b6000601f19601f8301169050919050565b6119bf816118ea565b81146119ca57600080fd5b50565b6119d6816118fc565b81146119e157600080fd5b50565b6119ed81611912565b81146119f857600080fd5b50565b611a0481611944565b8114611a0f57600080fd5b5056fea26469706673582212209d2512806c99a653b62ab4ec0e87ceb75314b135c1008b8f60d0ef0a2278d0c164736f6c634300060c0033",
  "linkReferences": {},
  "deployedLinkReferences": {}
}