{
  "_format": "hh-sol-artifact-1",
  "contractName": "BNBGateway",
  "sourceName": "contracts/protocol/lendingpool/bnbGateway.sol",
  "abi": [
    {
      "inputs": [
        {
          "internalType": "address",
          "name": "wbnb",
          "type": "address"
        }
      ],
      "stateMutability": "nonpayable",
      "type": "constructor"
    },
    {
      "anonymous": false,
      "inputs": [
        {
          "indexed": true,
          "internalType": "address",
          "name": "previousOwner",
          "type": "address"
        },
        {
          "indexed": true,
          "internalType": "address",
          "name": "newOwner",
          "type": "address"
        }
      ],
      "name": "OwnershipTransferred",
      "type": "event"
    },
    {
      "stateMutability": "payable",
      "type": "fallback"
    },
    {
      "inputs": [
        {
          "internalType": "address",
          "name": "lendingPool",
          "type": "address"
        }
      ],
      "name": "authorizeLendingPool",
      "outputs": [],
      "stateMutability": "nonpayable",
      "type": "function"
    },
    {
      "inputs": [
        {
          "internalType": "address",
          "name": "lendingPool",
          "type": "address"
        },
        {
          "internalType": "uint256",
          "name": "amount",
          "type": "uint256"
        },
        {
          "internalType": "uint16",
          "name": "referralCode",
          "type": "uint16"
        }
      ],
      "name": "borrowBNB",
      "outputs": [],
      "stateMutability": "nonpayable",
      "type": "function"
    },
    {
      "inputs": [
        {
          "internalType": "address",
          "name": "lendingPool",
          "type": "address"
        },
        {
          "internalType": "address",
          "name": "onBehalfOf",
          "type": "address"
        },
        {
          "internalType": "uint16",
          "name": "referralCode",
          "type": "uint16"
        }
      ],
      "name": "depositBNB",
      "outputs": [],
      "stateMutability": "payable",
      "type": "function"
    },
    {
      "inputs": [
        {
          "internalType": "address",
          "name": "to",
          "type": "address"
        },
        {
          "internalType": "uint256",
          "name": "amount",
          "type": "uint256"
        }
      ],
      "name": "emergencyBNBTransfer",
      "outputs": [],
      "stateMutability": "nonpayable",
      "type": "function"
    },
    {
      "inputs": [
        {
          "internalType": "address",
          "name": "token",
          "type": "address"
        },
        {
          "internalType": "address",
          "name": "to",
          "type": "address"
        },
        {
          "internalType": "uint256",
          "name": "amount",
          "type": "uint256"
        }
      ],
      "name": "emergencyTokenTransfer",
      "outputs": [],
      "stateMutability": "nonpayable",
      "type": "function"
    },
    {
      "inputs": [],
      "name": "getWBNBAddress",
      "outputs": [
        {
          "internalType": "address",
          "name": "",
          "type": "address"
        }
      ],
      "stateMutability": "view",
      "type": "function"
    },
    {
      "inputs": [],
      "name": "owner",
      "outputs": [
        {
          "internalType": "address",
          "name": "",
          "type": "address"
        }
      ],
      "stateMutability": "view",
      "type": "function"
    },
    {
      "inputs": [],
      "name": "renounceOwnership",
      "outputs": [],
      "stateMutability": "nonpayable",
      "type": "function"
    },
    {
      "inputs": [
        {
          "internalType": "address",
          "name": "lendingPool",
          "type": "address"
        },
        {
          "internalType": "uint256",
          "name": "amount",
          "type": "uint256"
        },
        {
          "internalType": "address",
          "name": "onBehalfOf",
          "type": "address"
        }
      ],
      "name": "repayBNB",
      "outputs": [],
      "stateMutability": "payable",
      "type": "function"
    },
    {
      "inputs": [
        {
          "internalType": "address",
          "name": "newOwner",
          "type": "address"
        }
      ],
      "name": "transferOwnership",
      "outputs": [],
      "stateMutability": "nonpayable",
      "type": "function"
    },
    {
      "inputs": [
        {
          "internalType": "address",
          "name": "lendingPool",
          "type": "address"
        },
        {
          "internalType": "uint256",
          "name": "amount",
          "type": "uint256"
        },
        {
          "internalType": "address",
          "name": "to",
          "type": "address"
        }
      ],
      "name": "withdrawBNB",
      "outputs": [],
      "stateMutability": "nonpayable",
      "type": "function"
    },
    {
      "stateMutability": "payable",
      "type": "receive"
    }
  ],
  "bytecode": "0x60a060405234801561001057600080fd5b5060405161146f38038061146f83398101604081905261002f9161009c565b6000610039610098565b600080546001600160a01b0319166001600160a01b0383169081178255604051929350917f8be0079c531659141344cd1fd0a4f28419497f9722a3daafe3b4186f6b6457e0908290a35060601b6001600160601b0319166080526100ca565b3390565b6000602082840312156100ad578081fd5b81516001600160a01b03811681146100c3578182fd5b9392505050565b60805160601c61134d6101226000398060b0528061026f52806102e45280610383528061053752806105cd5280610648528061066c528061070252806109c05280610a815280610b175280610bfd525061134d6000f3fe6080604052600436106100a05760003560e01c80638da5cb5b116100645780638da5cb5b146101a3578063a3d5b255146101b8578063e9ad7a58146101d8578063f2fde38b146101f8578063f82d7d9114610218578063fd1495291461022b576100f8565b80631a443f5314610110578063374ce0bd1461013057806356fa50d0146101505780636b2125821461017b578063715018a61461018e576100f8565b366100f857336001600160a01b037f000000000000000000000000000000000000000000000000000000000000000016146100f65760405162461bcd60e51b81526004016100ed906111e9565b60405180910390fd5b005b60405162461bcd60e51b81526004016100ed90611175565b34801561011c57600080fd5b506100f661012b366004610f29565b61024b565b34801561013c57600080fd5b506100f661014b366004610ef3565b61035c565b34801561015c57600080fd5b50610165610646565b60405161017291906110a5565b60405180910390f35b6100f6610189366004610e3e565b61066a565b34801561019a57600080fd5b506100f6610767565b3480156101af57600080fd5b506101656107e6565b3480156101c457600080fd5b506100f66101d3366004610e88565b6107f5565b3480156101e457600080fd5b506100f66101f3366004610ec8565b6108b0565b34801561020457600080fd5b506100f6610213366004610e1b565b6108f3565b6100f6610226366004610ef3565b6109a9565b34801561023757600080fd5b506100f6610246366004610e1b565b610bb1565b604051631d5d723760e01b81526001600160a01b03841690631d5d72379061029d907f000000000000000000000000000000000000000000000000000000000000000090869086903390600401611146565b600060405180830381600087803b1580156102b757600080fd5b505af11580156102cb573d6000803e3d6000fd5b5050604051632e1a7d4d60e01b81526001600160a01b037f0000000000000000000000000000000000000000000000000000000000000000169250632e1a7d4d915061031b9085906004016112bf565b600060405180830381600087803b15801561033557600080fd5b505af1158015610349573d6000803e3d6000fd5b505050506103573383610c88565b505050565b6040516335ea6a7560e01b81526000906001600160a01b038516906335ea6a75906103ab907f0000000000000000000000000000000000000000000000000000000000000000906004016110a5565b6101406040518083038186803b1580156103c457600080fd5b505afa1580156103d8573d6000803e3d6000fd5b505050506040513d601f19601f820116820180604052508101906103fc9190610f7f565b60c0015190506000816001600160a01b03166370a08231336040518263ffffffff1660e01b815260040161043091906110a5565b60206040518083038186803b15801561044857600080fd5b505afa15801561045c573d6000803e3d6000fd5b505050506040513d601f19601f820116820180604052508101906104809190611054565b9050836000198114156104905750805b6040516323b872dd60e01b81526001600160a01b038416906323b872dd906104c0903390309086906004016110b9565b602060405180830381600087803b1580156104da57600080fd5b505af11580156104ee573d6000803e3d6000fd5b505050506040513d601f19601f820116820180604052508101906105129190610f5f565b50604051631a4ca37b60e21b81526001600160a01b038716906369328dec90610563907f000000000000000000000000000000000000000000000000000000000000000090859030906004016110f6565b602060405180830381600087803b15801561057d57600080fd5b505af1158015610591573d6000803e3d6000fd5b505050506040513d601f19601f820116820180604052508101906105b59190611054565b50604051632e1a7d4d60e01b81526001600160a01b037f00000000000000000000000000000000000000000000000000000000000000001690632e1a7d4d906106029084906004016112bf565b600060405180830381600087803b15801561061c57600080fd5b505af1158015610630573d6000803e3d6000fd5b5050505061063e8482610c88565b505050505050565b7f000000000000000000000000000000000000000000000000000000000000000090565b7f00000000000000000000000000000000000000000000000000000000000000006001600160a01b031663d0e30db0346040518263ffffffff1660e01b81526004016000604051808303818588803b1580156106c557600080fd5b505af11580156106d9573d6000803e3d6000fd5b505060405163e8eda9df60e01b81526001600160a01b038716935063e8eda9df925061073091507f000000000000000000000000000000000000000000000000000000000000000090349087908790600401611119565b600060405180830381600087803b15801561074a57600080fd5b505af115801561075e573d6000803e3d6000fd5b50505050505050565b61076f610d15565b6000546001600160a01b0390811691161461079c5760405162461bcd60e51b81526004016100ed90611243565b600080546040516001600160a01b03909116907f8be0079c531659141344cd1fd0a4f28419497f9722a3daafe3b4186f6b6457e0908390a3600080546001600160a01b0319169055565b6000546001600160a01b031690565b6107fd610d15565b6000546001600160a01b0390811691161461082a5760405162461bcd60e51b81526004016100ed90611243565b60405163a9059cbb60e01b81526001600160a01b0384169063a9059cbb9061085890859085906004016110dd565b602060405180830381600087803b15801561087257600080fd5b505af1158015610886573d6000803e3d6000fd5b505050506040513d601f19601f820116820180604052508101906108aa9190610f5f565b50505050565b6108b8610d15565b6000546001600160a01b039081169116146108e55760405162461bcd60e51b81526004016100ed90611243565b6108ef8282610c88565b5050565b6108fb610d15565b6000546001600160a01b039081169116146109285760405162461bcd60e51b81526004016100ed90611243565b6001600160a01b03811661094e5760405162461bcd60e51b81526004016100ed906111a3565b600080546040516001600160a01b03808516939216917f8be0079c531659141344cd1fd0a4f28419497f9722a3daafe3b4186f6b6457e091a3600080546001600160a01b0319166001600160a01b0392909216919091179055565b6000610a5182856001600160a01b03166335ea6a757f00000000000000000000000000000000000000000000000000000000000000006040518263ffffffff1660e01b81526004016109fb91906110a5565b6101406040518083038186803b158015610a1457600080fd5b505afa158015610a28573d6000803e3d6000fd5b505050506040513d601f19601f82011682018060405250810190610a4c9190610f7f565b610d19565b90508080841015610a5f5750825b80341015610a7f5760405162461bcd60e51b81526004016100ed90611278565b7f00000000000000000000000000000000000000000000000000000000000000006001600160a01b031663d0e30db0826040518263ffffffff1660e01b81526004016000604051808303818588803b158015610ada57600080fd5b505af1158015610aee573d6000803e3d6000fd5b505060405163173aba7160e21b81526001600160a01b0389169350635ceae9c49250610b4391507f000000000000000000000000000000000000000000000000000000000000000090349088906004016110f6565b602060405180830381600087803b158015610b5d57600080fd5b505af1158015610b71573d6000803e3d6000fd5b505050506040513d601f19601f82011682018060405250810190610b959190611054565b5080341115610baa57610baa33823403610c88565b5050505050565b610bb9610d15565b6000546001600160a01b03908116911614610be65760405162461bcd60e51b81526004016100ed90611243565b60405163095ea7b360e01b81526001600160a01b037f0000000000000000000000000000000000000000000000000000000000000000169063095ea7b390610c36908490600019906004016110dd565b602060405180830381600087803b158015610c5057600080fd5b505af1158015610c64573d6000803e3d6000fd5b505050506040513d601f19601f820116820180604052508101906108ef9190610f5f565b604080516000808252602082019092526001600160a01b038416908390604051610cb2919061106c565b60006040518083038185875af1925050503d8060008114610cef576040519150601f19603f3d011682016040523d82523d6000602084013e610cf4565b606091505b50509050806103575760405162461bcd60e51b81526004016100ed90611216565b3290565b60e08101516040516370a0823160e01b81526000916001600160a01b0316906370a0823190610d4c9086906004016110a5565b60206040518083038186803b158015610d6457600080fd5b505afa158015610d78573d6000803e3d6000fd5b505050506040513d601f19601f82011682018060405250810190610d9c9190611054565b90505b92915050565b8051610d9f816112ef565b600060208284031215610dc1578081fd5b610dcb60206112c8565b9151825250919050565b80516fffffffffffffffffffffffffffffffff81168114610d9f57600080fd5b805164ffffffffff81168114610d9f57600080fd5b805160ff81168114610d9f57600080fd5b600060208284031215610e2c578081fd5b8135610e37816112ef565b9392505050565b600080600060608486031215610e52578182fd5b8335610e5d816112ef565b92506020840135610e6d816112ef565b91506040840135610e7d81611307565b809150509250925092565b600080600060608486031215610e9c578283fd5b8335610ea7816112ef565b92506020840135610eb7816112ef565b929592945050506040919091013590565b60008060408385031215610eda578182fd5b8235610ee5816112ef565b946020939093013593505050565b600080600060608486031215610f07578283fd5b8335610f12816112ef565b9250602084013591506040840135610e7d816112ef565b600080600060608486031215610f3d578283fd5b8335610f48816112ef565b9250602084013591506040840135610e7d81611307565b600060208284031215610f70578081fd5b81518015158114610e37578182fd5b6000610140808385031215610f92578182fd5b610f9b816112c8565b9050610fa78484610db0565b8152610fb68460208501610dd5565b6020820152610fc88460408501610dd5565b6040820152610fda8460608501610dd5565b6060820152610fec8460808501610dd5565b6080820152610ffe8460a08501610df5565b60a08201526110108460c08501610da5565b60c08201526110228460e08501610da5565b60e082015261010061103685828601610da5565b9082015261012061104985858301610e0a565b908201529392505050565b600060208284031215611065578081fd5b5051919050565b60008251815b8181101561108c5760208186018101518583015201611072565b8181111561109a5782828501525b509190910192915050565b6001600160a01b0391909116815260200190565b6001600160a01b039384168152919092166020820152604081019190915260600190565b6001600160a01b03929092168252602082015260400190565b6001600160a01b0393841681526020810192909252909116604082015260600190565b6001600160a01b03948516815260208101939093529216604082015261ffff909116606082015260800190565b6001600160a01b039485168152602081019390935261ffff919091166040830152909116606082015260800190565b60208082526014908201527311985b1b189858dac81b9bdd08185b1b1bddd95960621b604082015260600190565b60208082526026908201527f4f776e61626c653a206e6577206f776e657220697320746865207a65726f206160408201526564647265737360d01b606082015260800190565b602080825260139082015272149958d95a5d99481b9bdd08185b1b1bddd959606a1b604082015260600190565b60208082526013908201527210939097d514905394d1915497d19052531151606a1b604082015260600190565b6020808252818101527f4f776e61626c653a2063616c6c6572206973206e6f7420746865206f776e6572604082015260600190565b60208082526027908201527f6d73672e76616c7565206973206c657373207468616e2072657061796d656e7460408201526608185b5bdd5b9d60ca1b606082015260800190565b90815260200190565b60405181810167ffffffffffffffff811182821017156112e757600080fd5b604052919050565b6001600160a01b038116811461130457600080fd5b50565b61ffff8116811461130457600080fdfea2646970667358221220c91d97277997153a6f7ac119657141a7005e9190990c0940ae9fb9cdf2ed90da64736f6c634300060c0033",
  "linkReferences": {},
  "deployedLinkReferences": {}
}