{
  "_format": "hh-sol-artifact-1",
  "contractName": "CreditScoring",
  "sourceName": "contracts/protocol/lendingpool/CreditScoring.sol",
  "abi": [
    {
      "anonymous": false,
      "inputs": [
        {
          "indexed": false,
          "internalType": "address",
          "name": "oldCreditScoreAdmin",
          "type": "address"
        },
        {
          "indexed": false,
          "internalType": "address",
          "name": "newCreditScoreAdmin",
          "type": "address"
        }
      ],
      "name": "ChangeCreditScoreAdmin",
      "type": "event"
    },
    {
      "anonymous": false,
      "inputs": [
        {
          "indexed": false,
          "internalType": "address",
          "name": "oldGovernance",
          "type": "address"
        },
        {
          "indexed": false,
          "internalType": "address",
          "name": "newGovernance",
          "type": "address"
        }
      ],
      "name": "ChangeGovernance",
      "type": "event"
    },
    {
      "inputs": [],
      "name": "CreditScoreAdmin",
      "outputs": [
        {
          "internalType": "address",
          "name": "",
          "type": "address"
        }
      ],
      "stateMutability": "view",
      "type": "function"
    },
    {
      "inputs": [],
      "name": "GOVERNANCE",
      "outputs": [
        {
          "internalType": "address",
          "name": "",
          "type": "address"
        }
      ],
      "stateMutability": "view",
      "type": "function"
    },
    {
      "inputs": [],
      "name": "REVISION",
      "outputs": [
        {
          "internalType": "uint256",
          "name": "",
          "type": "uint256"
        }
      ],
      "stateMutability": "view",
      "type": "function"
    },
    {
      "inputs": [
        {
          "internalType": "address",
          "name": "user",
          "type": "address"
        },
        {
          "internalType": "address",
          "name": "asset",
          "type": "address"
        }
      ],
      "name": "getMultiplier",
      "outputs": [
        {
          "internalType": "uint256",
          "name": "",
          "type": "uint256"
        },
        {
          "internalType": "uint256",
          "name": "",
          "type": "uint256"
        }
      ],
      "stateMutability": "view",
      "type": "function"
    },
    {
      "inputs": [
        {
          "internalType": "address",
          "name": "asset",
          "type": "address"
        }
      ],
      "name": "getMultiplierConfiguration",
      "outputs": [
        {
          "components": [
            {
              "internalType": "uint256",
              "name": "data",
              "type": "uint256"
            }
          ],
          "internalType": "struct DataTypes.MultiplierConfigurationMap",
          "name": "",
          "type": "tuple"
        },
        {
          "components": [
            {
              "internalType": "uint256",
              "name": "data",
              "type": "uint256"
            }
          ],
          "internalType": "struct DataTypes.MultiplierConfigurationMap",
          "name": "",
          "type": "tuple"
        }
      ],
      "stateMutability": "view",
      "type": "function"
    },
    {
      "inputs": [
        {
          "internalType": "address",
          "name": "user",
          "type": "address"
        }
      ],
      "name": "getUserRank",
      "outputs": [
        {
          "internalType": "uint256",
          "name": "",
          "type": "uint256"
        }
      ],
      "stateMutability": "view",
      "type": "function"
    },
    {
      "inputs": [
        {
          "internalType": "address",
          "name": "governance",
          "type": "address"
        },
        {
          "internalType": "address",
          "name": "_CreditScoreAdmin",
          "type": "address"
        }
      ],
      "name": "initialize",
      "outputs": [],
      "stateMutability": "nonpayable",
      "type": "function"
    },
    {
      "inputs": [
        {
          "internalType": "address",
          "name": "asset",
          "type": "address"
        },
        {
          "internalType": "uint256[]",
          "name": "rank",
          "type": "uint256[]"
        },
        {
          "internalType": "uint256[]",
          "name": "ltvMultiplierValue",
          "type": "uint256[]"
        },
        {
          "internalType": "uint256[]",
          "name": "ltMultiplierValue",
          "type": "uint256[]"
        }
      ],
      "name": "setBatchMultiplier",
      "outputs": [],
      "stateMutability": "nonpayable",
      "type": "function"
    },
    {
      "inputs": [
        {
          "internalType": "address[]",
          "name": "user",
          "type": "address[]"
        },
        {
          "internalType": "uint256[]",
          "name": "rank",
          "type": "uint256[]"
        }
      ],
      "name": "setBatchUserRank",
      "outputs": [],
      "stateMutability": "nonpayable",
      "type": "function"
    },
    {
      "inputs": [
        {
          "internalType": "address",
          "name": "_CreditScoreAdmin",
          "type": "address"
        }
      ],
      "name": "setCreditScoreAdmin",
      "outputs": [],
      "stateMutability": "nonpayable",
      "type": "function"
    },
    {
      "inputs": [
        {
          "internalType": "address",
          "name": "governance",
          "type": "address"
        }
      ],
      "name": "setGovernance",
      "outputs": [],
      "stateMutability": "nonpayable",
      "type": "function"
    },
    {
      "inputs": [
        {
          "internalType": "address",
          "name": "asset",
          "type": "address"
        },
        {
          "internalType": "uint256",
          "name": "rank",
          "type": "uint256"
        },
        {
          "internalType": "uint256",
          "name": "ltvMultiplierValue",
          "type": "uint256"
        },
        {
          "internalType": "uint256",
          "name": "ltMultiplierValue",
          "type": "uint256"
        }
      ],
      "name": "setMultiplier",
      "outputs": [],
      "stateMutability": "nonpayable",
      "type": "function"
    },
    {
      "inputs": [
        {
          "internalType": "address",
          "name": "user",
          "type": "address"
        },
        {
          "internalType": "uint256",
          "name": "rank",
          "type": "uint256"
        }
      ],
      "name": "setUserRank",
      "outputs": [],
      "stateMutability": "nonpayable",
      "type": "function"
    },
    {
      "inputs": [
        {
          "internalType": "address",
          "name": "",
          "type": "address"
        }
      ],
      "name": "userRank",
      "outputs": [
        {
          "internalType": "uint256",
          "name": "",
          "type": "uint256"
        }
      ],
      "stateMutability": "view",
      "type": "function"
    }
  ],
  "bytecode": "0x60806040526000805534801561001457600080fd5b50610fd1806100246000396000f3fe608060405234801561001057600080fd5b50600436106100ea5760003560e01c80636f30d8e91161008c578063b2d1573f11610066578063b2d1573f146101cb578063b6dbe9f5146101eb578063dde43cba146101fe578063edc1eed014610206576100ea565b80636f30d8e91461019d57806373c6bb9e146101b0578063ab033ea9146101b8576100ea565b806346625815116100c85780634662581514610143578063485cc955146101565780634f8528151461016957806362fdc21a1461017c576100ea565b80630a9eedb9146100ef57806314627834146101045780632219b76b14610122575b600080fd5b6101026100fd366004610bf7565b610219565b005b61010c610382565b6040516101199190610d8d565b60405180910390f35b610135610130366004610ba1565b610391565b604051610119929190610f5c565b610102610151366004610ca0565b6103df565b610102610164366004610bc3565b610445565b610102610177366004610ba1565b610540565b61018f61018a366004610bc3565b6105e8565b604051610119929190610f75565b6101026101ab366004610cca565b610709565b61010c6107f9565b6101026101c6366004610ba1565b610808565b6101de6101d9366004610ba1565b6108a5565b6040516101199190610f6c565b6101026101f9366004610d04565b6108c0565b6101de6109c6565b6101de610214366004610ba1565b6109cb565b6034546001600160a01b0316331461024c5760405162461bcd60e51b815260040161024390610eb5565b60405180910390fd5b848314801561025a57508281145b6102765760405162461bcd60e51b815260040161024390610f36565b61027e610b35565b506001600160a01b0387166000908152603560209081526040918290208251918201909252905481526102af610b35565b506001600160a01b03881660009081526036602090815260408083208151928301909152548152905b87811015610376576103198989838181106102ef57fe5b9050602002013588888481811061030257fe5b90506020020135856109dd9092919063ffffffff16565b61035289898381811061032857fe5b9050602002013586868481811061033b57fe5b90506020020135846109dd9092919063ffffffff16565b6103608a8460000151610a34565b61036e8a8360000151610a7a565b6001016102d8565b50505050505050505050565b6034546001600160a01b031681565b610399610b35565b6103a1610b35565b50506001600160a01b031660009081526035602090815260408083206036835292819020815180840183529354845281519283019091525481529091565b6038546001600160a01b031633146104095760405162461bcd60e51b815260040161024390610e0a565b600581106104295760405162461bcd60e51b815260040161024390610dbb565b6001600160a01b03909116600090815260376020526040902055565b600061044f610ac0565b60015490915060ff16806104665750610466610ac5565b80610472575060005481115b61048e5760405162461bcd60e51b815260040161024390610e41565b60015460ff161580156104ad576001805460ff19168117905560008290555b6001600160a01b0384166104d35760405162461bcd60e51b815260040161024390610de1565b6001600160a01b0383166104f95760405162461bcd60e51b815260040161024390610de1565b603480546001600160a01b038087166001600160a01b0319928316179092556038805492861692909116919091179055801561053a576001805460ff191690555b50505050565b6038546001600160a01b0316331461056a5760405162461bcd60e51b815260040161024390610e0a565b6001600160a01b0381166105905760405162461bcd60e51b815260040161024390610e8f565b603880546001600160a01b0319166001600160a01b0383161790556040517ff80253a1bf3310fe10eeab71c126080c119894508bb6be5fa669ccfc34997f7e906105dd9033908490610da1565b60405180910390a150565b6000806000336001600160a01b0316636cf5a6946040518163ffffffff1660e01b815260040160206040518083038186803b15801561062657600080fd5b505afa15801561063a573d6000803e3d6000fd5b505050506040513d601f19601f8201168201806040525081019061065e9190610d6d565b6001600160a01b0386166000908152603760205260409020549091501580610684575080155b1561069757612710809250925050610702565b6001600160a01b03808516600090815260356020908152604080832060368352818420948a1684526037909252909120549091906106d6908390610acb565b6001600160a01b0388166000908152603760205260409020546106fa908390610acb565b945094505050505b9250929050565b6034546001600160a01b031633146107335760405162461bcd60e51b815260040161024390610eb5565b8082106107525760405162461bcd60e51b815260040161024390610f36565b61075d838383610b00565b610765610b35565b506001600160a01b038416600090815260356020908152604091829020825191820190925290548152610796610b35565b506001600160a01b0385166000908152603660209081526040918290208251918201909252905481526107ca8286866109dd565b6107d58186856109dd565b6107e3868360000151610a34565b6107f1868260000151610a7a565b505050505050565b6038546001600160a01b031681565b6034546001600160a01b031633146108325760405162461bcd60e51b815260040161024390610eb5565b6001600160a01b0381166108585760405162461bcd60e51b815260040161024390610e8f565b603480546001600160a01b0319166001600160a01b0383161790556040517f95b941bbbf1347e24e6cbb14f7553d49f9244dc4dee558b79dcb1fd8b0434fb5906105dd9033908490610da1565b6001600160a01b031660009081526037602052604090205490565b6038546001600160a01b031633146108ea5760405162461bcd60e51b815260040161024390610e0a565b8281146109095760405162461bcd60e51b815260040161024390610f36565b60005b838110156109bf57600083838381811061092257fe5b90506020020135101580156109495750600583838381811061094057fe5b90506020020135105b6109655760405162461bcd60e51b815260040161024390610dbb565b82828281811061097157fe5b905060200201356037600087878581811061098857fe5b905060200201602081019061099d9190610ba1565b6001600160a01b0316815260208101919091526040016000205560010161090c565b5050505050565b600181565b60376020526000908152604090205481565b61ffff81106109fe5760405162461bcd60e51b815260040161024390610ede565b60108210610a1e5760405162461bcd60e51b815260040161024390610dbb565b825161ffff601090930292831b1916911b179052565b6034546001600160a01b03163314610a5e5760405162461bcd60e51b815260040161024390610eb5565b6001600160a01b03909116600090815260356020526040902055565b6034546001600160a01b03163314610aa45760405162461bcd60e51b815260040161024390610eb5565b6001600160a01b03909116600090815260366020526040902055565b600190565b303b1590565b600060108210610aed5760405162461bcd60e51b815260040161024390610dbb565b508154601082021c61ffff165b92915050565b6127108210158015610b1457506127108110155b610b305760405162461bcd60e51b815260040161024390610f0a565b505050565b6040518060200160405280600081525090565b80356001600160a01b0381168114610afa57600080fd5b60008083601f840112610b70578182fd5b50813567ffffffffffffffff811115610b87578182fd5b602083019150836020808302850101111561070257600080fd5b600060208284031215610bb2578081fd5b610bbc8383610b48565b9392505050565b60008060408385031215610bd5578081fd5b610bdf8484610b48565b9150610bee8460208501610b48565b90509250929050565b60008060008060008060006080888a031215610c11578283fd5b8735610c1c81610f83565b9650602088013567ffffffffffffffff80821115610c38578485fd5b610c448b838c01610b5f565b909850965060408a0135915080821115610c5c578485fd5b610c688b838c01610b5f565b909650945060608a0135915080821115610c80578384fd5b50610c8d8a828b01610b5f565b989b979a50959850939692959293505050565b60008060408385031215610cb2578182fd5b610cbc8484610b48565b946020939093013593505050565b60008060008060808587031215610cdf578384fd5b8435610cea81610f83565b966020860135965060408601359560600135945092505050565b60008060008060408587031215610d19578384fd5b843567ffffffffffffffff80821115610d30578586fd5b610d3c88838901610b5f565b90965094506020870135915080821115610d54578384fd5b50610d6187828801610b5f565b95989497509550505050565b600060208284031215610d7e578081fd5b81518015158114610bbc578182fd5b6001600160a01b0391909116815260200190565b6001600160a01b0392831681529116602082015260400190565b6020808252600c908201526b494e56414c49445f52414e4b60a01b604082015260600190565b6020808252600f908201526e494e56414c49445f4144445245535360881b604082015260600190565b60208082526017908201527f4f4e4c595f4352454449542053434f52452041444d494e000000000000000000604082015260600190565b6020808252602e908201527f436f6e747261637420696e7374616e63652068617320616c726561647920626560408201526d195b881a5b9a5d1a585b1a5e995960921b606082015260800190565b6020808252600c908201526b7a65726f206164647265737360a01b604082015260600190565b6020808252600f908201526e4f4e4c595f474f5645524e414e434560881b604082015260600190565b60208082526012908201527124a72b20a624a22fa6aaa62a24a82624a2a960711b604082015260600190565b6020808252601290820152714d756c7469706c69657220746f6f206c6f7760701b604082015260600190565b6020808252600c908201526b494e56414c49445f4441544160a01b604082015260600190565b9151825251602082015260400190565b90815260200190565b918252602082015260400190565b6001600160a01b0381168114610f9857600080fd5b5056fea26469706673582212201ac2e9455af32083083234e38c417b13c5664dae3c7bfea8a7fab672780c999464736f6c634300060c0033",
  "linkReferences": {},
  "deployedLinkReferences": {}
}