{
  "_format": "hh-sol-artifact-1",
  "contractName": "FTMGateway",
  "sourceName": "contracts/protocol/lendingpool/ftmGateway.sol",
  "abi": [
    {
      "inputs": [
        {
          "internalType": "address",
          "name": "wftm",
          "type": "address"
        }
      ],
      "stateMutability": "nonpayable",
      "type": "constructor"
    },
    {
      "anonymous": false,
      "inputs": [
        {
          "indexed": true,
          "internalType": "address",
          "name": "previousOwner",
          "type": "address"
        },
        {
          "indexed": true,
          "internalType": "address",
          "name": "newOwner",
          "type": "address"
        }
      ],
      "name": "OwnershipTransferred",
      "type": "event"
    },
    {
      "stateMutability": "payable",
      "type": "fallback"
    },
    {
      "inputs": [
        {
          "internalType": "address",
          "name": "lendingPool",
          "type": "address"
        }
      ],
      "name": "authorizeLendingPool",
      "outputs": [],
      "stateMutability": "nonpayable",
      "type": "function"
    },
    {
      "inputs": [
        {
          "internalType": "address",
          "name": "lendingPool",
          "type": "address"
        },
        {
          "internalType": "uint256",
          "name": "amount",
          "type": "uint256"
        },
        {
          "internalType": "uint16",
          "name": "referralCode",
          "type": "uint16"
        }
      ],
      "name": "borrowFTM",
      "outputs": [],
      "stateMutability": "nonpayable",
      "type": "function"
    },
    {
      "inputs": [
        {
          "internalType": "address",
          "name": "lendingPool",
          "type": "address"
        },
        {
          "internalType": "address",
          "name": "onBehalfOf",
          "type": "address"
        },
        {
          "internalType": "uint16",
          "name": "referralCode",
          "type": "uint16"
        }
      ],
      "name": "depositFTM",
      "outputs": [],
      "stateMutability": "payable",
      "type": "function"
    },
    {
      "inputs": [
        {
          "internalType": "address",
          "name": "to",
          "type": "address"
        },
        {
          "internalType": "uint256",
          "name": "amount",
          "type": "uint256"
        }
      ],
      "name": "emergencyFTMTransfer",
      "outputs": [],
      "stateMutability": "nonpayable",
      "type": "function"
    },
    {
      "inputs": [
        {
          "internalType": "address",
          "name": "token",
          "type": "address"
        },
        {
          "internalType": "address",
          "name": "to",
          "type": "address"
        },
        {
          "internalType": "uint256",
          "name": "amount",
          "type": "uint256"
        }
      ],
      "name": "emergencyTokenTransfer",
      "outputs": [],
      "stateMutability": "nonpayable",
      "type": "function"
    },
    {
      "inputs": [],
      "name": "getWFTMAddress",
      "outputs": [
        {
          "internalType": "address",
          "name": "",
          "type": "address"
        }
      ],
      "stateMutability": "view",
      "type": "function"
    },
    {
      "inputs": [],
      "name": "owner",
      "outputs": [
        {
          "internalType": "address",
          "name": "",
          "type": "address"
        }
      ],
      "stateMutability": "view",
      "type": "function"
    },
    {
      "inputs": [],
      "name": "renounceOwnership",
      "outputs": [],
      "stateMutability": "nonpayable",
      "type": "function"
    },
    {
      "inputs": [
        {
          "internalType": "address",
          "name": "lendingPool",
          "type": "address"
        },
        {
          "internalType": "uint256",
          "name": "amount",
          "type": "uint256"
        },
        {
          "internalType": "address",
          "name": "onBehalfOf",
          "type": "address"
        }
      ],
      "name": "repayFTM",
      "outputs": [],
      "stateMutability": "payable",
      "type": "function"
    },
    {
      "inputs": [
        {
          "internalType": "address",
          "name": "newOwner",
          "type": "address"
        }
      ],
      "name": "transferOwnership",
      "outputs": [],
      "stateMutability": "nonpayable",
      "type": "function"
    },
    {
      "inputs": [
        {
          "internalType": "address",
          "name": "lendingPool",
          "type": "address"
        },
        {
          "internalType": "uint256",
          "name": "amount",
          "type": "uint256"
        },
        {
          "internalType": "address",
          "name": "to",
          "type": "address"
        }
      ],
      "name": "withdrawFTM",
      "outputs": [],
      "stateMutability": "nonpayable",
      "type": "function"
    },
    {
      "stateMutability": "payable",
      "type": "receive"
    }
  ],
  "bytecode": "0x60a060405234801561001057600080fd5b5060405161146f38038061146f83398101604081905261002f9161009c565b6000610039610098565b600080546001600160a01b0319166001600160a01b0383169081178255604051929350917f8be0079c531659141344cd1fd0a4f28419497f9722a3daafe3b4186f6b6457e0908290a35060601b6001600160601b0319166080526100ca565b3390565b6000602082840312156100ad578081fd5b81516001600160a01b03811681146100c3578182fd5b9392505050565b60805160601c61134d6101226000398060b0528061024d52806102715280610307528061051f52806106d3528061076952806107f952806108ba52806109505280610a0e5280610a835280610bfd525061134d6000f3fe6080604052600436106100a05760003560e01c8063a3d5b25511610064578063a3d5b25514610198578063ba873ad1146101b8578063d7360207146101d8578063e1203203146101eb578063f2fde38b1461020b578063fd1495291461022b576100f8565b80632abc9a18146101105780634f820fa41461013b578063715018a61461014e5780638da5cb5b14610163578063900fe6cb14610178576100f8565b366100f857336001600160a01b037f000000000000000000000000000000000000000000000000000000000000000016146100f65760405162461bcd60e51b81526004016100ed906111e9565b60405180910390fd5b005b60405162461bcd60e51b81526004016100ed90611175565b34801561011c57600080fd5b5061012561024b565b60405161013291906110a5565b60405180910390f35b6100f6610149366004610e3e565b61026f565b34801561015a57600080fd5b506100f661036c565b34801561016f57600080fd5b506101256103eb565b34801561018457600080fd5b506100f6610193366004610ec8565b6103fa565b3480156101a457600080fd5b506100f66101b3366004610e88565b61043d565b3480156101c457600080fd5b506100f66101d3366004610ef3565b6104f8565b6100f66101e6366004610ef3565b6107e2565b3480156101f757600080fd5b506100f6610206366004610f29565b6109ea565b34801561021757600080fd5b506100f6610226366004610e1b565b610afb565b34801561023757600080fd5b506100f6610246366004610e1b565b610bb1565b7f000000000000000000000000000000000000000000000000000000000000000090565b7f00000000000000000000000000000000000000000000000000000000000000006001600160a01b031663d0e30db0346040518263ffffffff1660e01b81526004016000604051808303818588803b1580156102ca57600080fd5b505af11580156102de573d6000803e3d6000fd5b505060405163e8eda9df60e01b81526001600160a01b038716935063e8eda9df925061033591507f000000000000000000000000000000000000000000000000000000000000000090349087908790600401611119565b600060405180830381600087803b15801561034f57600080fd5b505af1158015610363573d6000803e3d6000fd5b50505050505050565b610374610c88565b6000546001600160a01b039081169116146103a15760405162461bcd60e51b81526004016100ed90611216565b600080546040516001600160a01b03909116907f8be0079c531659141344cd1fd0a4f28419497f9722a3daafe3b4186f6b6457e0908390a3600080546001600160a01b0319169055565b6000546001600160a01b031690565b610402610c88565b6000546001600160a01b0390811691161461042f5760405162461bcd60e51b81526004016100ed90611216565b6104398282610c8c565b5050565b610445610c88565b6000546001600160a01b039081169116146104725760405162461bcd60e51b81526004016100ed90611216565b60405163a9059cbb60e01b81526001600160a01b0384169063a9059cbb906104a090859085906004016110dd565b602060405180830381600087803b1580156104ba57600080fd5b505af11580156104ce573d6000803e3d6000fd5b505050506040513d601f19601f820116820180604052508101906104f29190610f5f565b50505050565b6040516335ea6a7560e01b81526000906001600160a01b038516906335ea6a7590610547907f0000000000000000000000000000000000000000000000000000000000000000906004016110a5565b6101406040518083038186803b15801561056057600080fd5b505afa158015610574573d6000803e3d6000fd5b505050506040513d601f19601f820116820180604052508101906105989190610f7f565b60c0015190506000816001600160a01b03166370a08231336040518263ffffffff1660e01b81526004016105cc91906110a5565b60206040518083038186803b1580156105e457600080fd5b505afa1580156105f8573d6000803e3d6000fd5b505050506040513d601f19601f8201168201806040525081019061061c9190611054565b90508360001981141561062c5750805b6040516323b872dd60e01b81526001600160a01b038416906323b872dd9061065c903390309086906004016110b9565b602060405180830381600087803b15801561067657600080fd5b505af115801561068a573d6000803e3d6000fd5b505050506040513d601f19601f820116820180604052508101906106ae9190610f5f565b50604051631a4ca37b60e21b81526001600160a01b038716906369328dec906106ff907f000000000000000000000000000000000000000000000000000000000000000090859030906004016110f6565b602060405180830381600087803b15801561071957600080fd5b505af115801561072d573d6000803e3d6000fd5b505050506040513d601f19601f820116820180604052508101906107519190611054565b50604051632e1a7d4d60e01b81526001600160a01b037f00000000000000000000000000000000000000000000000000000000000000001690632e1a7d4d9061079e9084906004016112bf565b600060405180830381600087803b1580156107b857600080fd5b505af11580156107cc573d6000803e3d6000fd5b505050506107da8482610c8c565b505050505050565b600061088a82856001600160a01b03166335ea6a757f00000000000000000000000000000000000000000000000000000000000000006040518263ffffffff1660e01b815260040161083491906110a5565b6101406040518083038186803b15801561084d57600080fd5b505afa158015610861573d6000803e3d6000fd5b505050506040513d601f19601f820116820180604052508101906108859190610f7f565b610d19565b905080808410156108985750825b803410156108b85760405162461bcd60e51b81526004016100ed9061124b565b7f00000000000000000000000000000000000000000000000000000000000000006001600160a01b031663d0e30db0826040518263ffffffff1660e01b81526004016000604051808303818588803b15801561091357600080fd5b505af1158015610927573d6000803e3d6000fd5b505060405163173aba7160e21b81526001600160a01b0389169350635ceae9c4925061097c91507f000000000000000000000000000000000000000000000000000000000000000090349088906004016110f6565b602060405180830381600087803b15801561099657600080fd5b505af11580156109aa573d6000803e3d6000fd5b505050506040513d601f19601f820116820180604052508101906109ce9190611054565b50803411156109e3576109e333823403610c8c565b5050505050565b604051631d5d723760e01b81526001600160a01b03841690631d5d723790610a3c907f000000000000000000000000000000000000000000000000000000000000000090869086903390600401611146565b600060405180830381600087803b158015610a5657600080fd5b505af1158015610a6a573d6000803e3d6000fd5b5050604051632e1a7d4d60e01b81526001600160a01b037f0000000000000000000000000000000000000000000000000000000000000000169250632e1a7d4d9150610aba9085906004016112bf565b600060405180830381600087803b158015610ad457600080fd5b505af1158015610ae8573d6000803e3d6000fd5b50505050610af63383610c8c565b505050565b610b03610c88565b6000546001600160a01b03908116911614610b305760405162461bcd60e51b81526004016100ed90611216565b6001600160a01b038116610b565760405162461bcd60e51b81526004016100ed906111a3565b600080546040516001600160a01b03808516939216917f8be0079c531659141344cd1fd0a4f28419497f9722a3daafe3b4186f6b6457e091a3600080546001600160a01b0319166001600160a01b0392909216919091179055565b610bb9610c88565b6000546001600160a01b03908116911614610be65760405162461bcd60e51b81526004016100ed90611216565b60405163095ea7b360e01b81526001600160a01b037f0000000000000000000000000000000000000000000000000000000000000000169063095ea7b390610c36908490600019906004016110dd565b602060405180830381600087803b158015610c5057600080fd5b505af1158015610c64573d6000803e3d6000fd5b505050506040513d601f19601f820116820180604052508101906104399190610f5f565b3290565b604080516000808252602082019092526001600160a01b038416908390604051610cb6919061106c565b60006040518083038185875af1925050503d8060008114610cf3576040519150601f19603f3d011682016040523d82523d6000602084013e610cf8565b606091505b5050905080610af65760405162461bcd60e51b81526004016100ed90611292565b60e08101516040516370a0823160e01b81526000916001600160a01b0316906370a0823190610d4c9086906004016110a5565b60206040518083038186803b158015610d6457600080fd5b505afa158015610d78573d6000803e3d6000fd5b505050506040513d601f19601f82011682018060405250810190610d9c9190611054565b90505b92915050565b8051610d9f816112ef565b600060208284031215610dc1578081fd5b610dcb60206112c8565b9151825250919050565b80516fffffffffffffffffffffffffffffffff81168114610d9f57600080fd5b805164ffffffffff81168114610d9f57600080fd5b805160ff81168114610d9f57600080fd5b600060208284031215610e2c578081fd5b8135610e37816112ef565b9392505050565b600080600060608486031215610e52578182fd5b8335610e5d816112ef565b92506020840135610e6d816112ef565b91506040840135610e7d81611307565b809150509250925092565b600080600060608486031215610e9c578283fd5b8335610ea7816112ef565b92506020840135610eb7816112ef565b929592945050506040919091013590565b60008060408385031215610eda578182fd5b8235610ee5816112ef565b946020939093013593505050565b600080600060608486031215610f07578283fd5b8335610f12816112ef565b9250602084013591506040840135610e7d816112ef565b600080600060608486031215610f3d578283fd5b8335610f48816112ef565b9250602084013591506040840135610e7d81611307565b600060208284031215610f70578081fd5b81518015158114610e37578182fd5b6000610140808385031215610f92578182fd5b610f9b816112c8565b9050610fa78484610db0565b8152610fb68460208501610dd5565b6020820152610fc88460408501610dd5565b6040820152610fda8460608501610dd5565b6060820152610fec8460808501610dd5565b6080820152610ffe8460a08501610df5565b60a08201526110108460c08501610da5565b60c08201526110228460e08501610da5565b60e082015261010061103685828601610da5565b9082015261012061104985858301610e0a565b908201529392505050565b600060208284031215611065578081fd5b5051919050565b60008251815b8181101561108c5760208186018101518583015201611072565b8181111561109a5782828501525b509190910192915050565b6001600160a01b0391909116815260200190565b6001600160a01b039384168152919092166020820152604081019190915260600190565b6001600160a01b03929092168252602082015260400190565b6001600160a01b0393841681526020810192909252909116604082015260600190565b6001600160a01b03948516815260208101939093529216604082015261ffff909116606082015260800190565b6001600160a01b039485168152602081019390935261ffff919091166040830152909116606082015260800190565b60208082526014908201527311985b1b189858dac81b9bdd08185b1b1bddd95960621b604082015260600190565b60208082526026908201527f4f776e61626c653a206e6577206f776e657220697320746865207a65726f206160408201526564647265737360d01b606082015260800190565b602080825260139082015272149958d95a5d99481b9bdd08185b1b1bddd959606a1b604082015260600190565b6020808252818101527f4f776e61626c653a2063616c6c6572206973206e6f7420746865206f776e6572604082015260600190565b60208082526027908201527f6d73672e76616c7565206973206c657373207468616e2072657061796d656e7460408201526608185b5bdd5b9d60ca1b606082015260800190565b60208082526013908201527211951357d514905394d1915497d19052531151606a1b604082015260600190565b90815260200190565b60405181810167ffffffffffffffff811182821017156112e757600080fd5b604052919050565b6001600160a01b038116811461130457600080fd5b50565b61ffff8116811461130457600080fdfea2646970667358221220ed85f90b25e7d82bf1c49919057f4607255f1cca7b744911fe5a6407936d7f5264736f6c634300060c0033",
  "linkReferences": {},
  "deployedLinkReferences": {}
}