{
  "_format": "hh-sol-artifact-1",
  "contractName": "FTMToBSCLocker",
  "sourceName": "contracts/bridge/fantom/FantomToBsc.sol",
  "abi": [
    {
      "inputs": [
        {
          "internalType": "contract IBEP20",
          "name": "_trava",
          "type": "address"
        },
        {
          "internalType": "uint256",
          "name": "_maxDailyAmount",
          "type": "uint256"
        },
        {
          "internalType": "uint256",
          "name": "_maxAmountInTx",
          "type": "uint256"
        }
      ],
      "stateMutability": "nonpayable",
      "type": "constructor"
    },
    {
      "anonymous": false,
      "inputs": [
        {
          "indexed": true,
          "internalType": "address",
          "name": "previousOwner",
          "type": "address"
        },
        {
          "indexed": true,
          "internalType": "address",
          "name": "newOwner",
          "type": "address"
        }
      ],
      "name": "OwnershipTransferred",
      "type": "event"
    },
    {
      "anonymous": false,
      "inputs": [
        {
          "indexed": true,
          "internalType": "uint256",
          "name": "bscEpoch",
          "type": "uint256"
        },
        {
          "indexed": false,
          "internalType": "address",
          "name": "receiver",
          "type": "address"
        },
        {
          "indexed": false,
          "internalType": "uint256",
          "name": "amount",
          "type": "uint256"
        },
        {
          "indexed": true,
          "internalType": "uint256",
          "name": "bscIndex",
          "type": "uint256"
        }
      ],
      "name": "Unlock",
      "type": "event"
    },
    {
      "inputs": [],
      "name": "DOMAIN_SEPARATOR",
      "outputs": [
        {
          "internalType": "bytes32",
          "name": "",
          "type": "bytes32"
        }
      ],
      "stateMutability": "view",
      "type": "function"
    },
    {
      "inputs": [],
      "name": "LOCK_TYPE_HASH",
      "outputs": [
        {
          "internalType": "bytes32",
          "name": "",
          "type": "bytes32"
        }
      ],
      "stateMutability": "view",
      "type": "function"
    },
    {
      "inputs": [],
      "name": "MAX_AMOUNT_SWAP",
      "outputs": [
        {
          "internalType": "uint256",
          "name": "",
          "type": "uint256"
        }
      ],
      "stateMutability": "view",
      "type": "function"
    },
    {
      "inputs": [],
      "name": "MAX_DAILY_SWAP",
      "outputs": [
        {
          "internalType": "uint256",
          "name": "",
          "type": "uint256"
        }
      ],
      "stateMutability": "view",
      "type": "function"
    },
    {
      "inputs": [],
      "name": "NAME",
      "outputs": [
        {
          "internalType": "string",
          "name": "",
          "type": "string"
        }
      ],
      "stateMutability": "view",
      "type": "function"
    },
    {
      "inputs": [],
      "name": "UNLOCK_TYPE_HASH",
      "outputs": [
        {
          "internalType": "bytes32",
          "name": "",
          "type": "bytes32"
        }
      ],
      "stateMutability": "view",
      "type": "function"
    },
    {
      "inputs": [],
      "name": "UPDATE_EPOCH_TYPE_HASH",
      "outputs": [
        {
          "internalType": "bytes32",
          "name": "",
          "type": "bytes32"
        }
      ],
      "stateMutability": "view",
      "type": "function"
    },
    {
      "inputs": [],
      "name": "epochs",
      "outputs": [
        {
          "internalType": "uint256",
          "name": "",
          "type": "uint256"
        }
      ],
      "stateMutability": "view",
      "type": "function"
    },
    {
      "inputs": [
        {
          "internalType": "uint256",
          "name": "epoch",
          "type": "uint256"
        }
      ],
      "name": "getSwapDataLength",
      "outputs": [
        {
          "internalType": "uint256",
          "name": "",
          "type": "uint256"
        }
      ],
      "stateMutability": "view",
      "type": "function"
    },
    {
      "inputs": [
        {
          "internalType": "contract IBEP20",
          "name": "token",
          "type": "address"
        },
        {
          "internalType": "address",
          "name": "to",
          "type": "address"
        },
        {
          "internalType": "uint256",
          "name": "amount",
          "type": "uint256"
        }
      ],
      "name": "inCaseStuckToken",
      "outputs": [],
      "stateMutability": "nonpayable",
      "type": "function"
    },
    {
      "inputs": [],
      "name": "isOwner",
      "outputs": [
        {
          "internalType": "bool",
          "name": "",
          "type": "bool"
        }
      ],
      "stateMutability": "view",
      "type": "function"
    },
    {
      "inputs": [
        {
          "internalType": "uint256",
          "name": "",
          "type": "uint256"
        }
      ],
      "name": "isUnlocked",
      "outputs": [
        {
          "internalType": "bool",
          "name": "",
          "type": "bool"
        }
      ],
      "stateMutability": "view",
      "type": "function"
    },
    {
      "inputs": [
        {
          "internalType": "address",
          "name": "bscAddress",
          "type": "address"
        },
        {
          "internalType": "uint256",
          "name": "amount",
          "type": "uint256"
        }
      ],
      "name": "locktrava",
      "outputs": [],
      "stateMutability": "nonpayable",
      "type": "function"
    },
    {
      "inputs": [
        {
          "internalType": "address",
          "name": "sender",
          "type": "address"
        },
        {
          "internalType": "address",
          "name": "bscAddress",
          "type": "address"
        },
        {
          "internalType": "uint256",
          "name": "amount",
          "type": "uint256"
        },
        {
          "internalType": "uint256",
          "name": "deadline",
          "type": "uint256"
        },
        {
          "internalType": "uint8",
          "name": "v",
          "type": "uint8"
        },
        {
          "internalType": "bytes32",
          "name": "r",
          "type": "bytes32"
        },
        {
          "internalType": "bytes32",
          "name": "s",
          "type": "bytes32"
        }
      ],
      "name": "locktravaPermit",
      "outputs": [],
      "stateMutability": "nonpayable",
      "type": "function"
    },
    {
      "inputs": [
        {
          "internalType": "address",
          "name": "",
          "type": "address"
        }
      ],
      "name": "nonces",
      "outputs": [
        {
          "internalType": "uint256",
          "name": "",
          "type": "uint256"
        }
      ],
      "stateMutability": "view",
      "type": "function"
    },
    {
      "inputs": [],
      "name": "owner",
      "outputs": [
        {
          "internalType": "address",
          "name": "",
          "type": "address"
        }
      ],
      "stateMutability": "view",
      "type": "function"
    },
    {
      "inputs": [],
      "name": "renounceOwnership",
      "outputs": [],
      "stateMutability": "nonpayable",
      "type": "function"
    },
    {
      "inputs": [
        {
          "internalType": "uint256",
          "name": "_amount",
          "type": "uint256"
        }
      ],
      "name": "setDailyAmount",
      "outputs": [],
      "stateMutability": "nonpayable",
      "type": "function"
    },
    {
      "inputs": [
        {
          "internalType": "uint256",
          "name": "_amount",
          "type": "uint256"
        }
      ],
      "name": "setMaxAmountInTx",
      "outputs": [],
      "stateMutability": "nonpayable",
      "type": "function"
    },
    {
      "inputs": [
        {
          "internalType": "address",
          "name": "_user",
          "type": "address"
        },
        {
          "internalType": "bool",
          "name": "_result",
          "type": "bool"
        }
      ],
      "name": "setUnlockRoles",
      "outputs": [],
      "stateMutability": "nonpayable",
      "type": "function"
    },
    {
      "inputs": [
        {
          "internalType": "contract IBEP20",
          "name": "_trava",
          "type": "address"
        }
      ],
      "name": "settrava",
      "outputs": [],
      "stateMutability": "nonpayable",
      "type": "function"
    },
    {
      "inputs": [
        {
          "internalType": "uint256",
          "name": "",
          "type": "uint256"
        },
        {
          "internalType": "uint256",
          "name": "",
          "type": "uint256"
        }
      ],
      "name": "swapData",
      "outputs": [
        {
          "internalType": "address",
          "name": "sender",
          "type": "address"
        },
        {
          "internalType": "address",
          "name": "bscAddress",
          "type": "address"
        },
        {
          "internalType": "uint256",
          "name": "amount",
          "type": "uint256"
        }
      ],
      "stateMutability": "view",
      "type": "function"
    },
    {
      "inputs": [
        {
          "internalType": "address",
          "name": "",
          "type": "address"
        }
      ],
      "name": "swapUserData",
      "outputs": [
        {
          "internalType": "uint256",
          "name": "timestamp",
          "type": "uint256"
        },
        {
          "internalType": "uint256",
          "name": "swapAmount",
          "type": "uint256"
        }
      ],
      "stateMutability": "view",
      "type": "function"
    },
    {
      "inputs": [
        {
          "internalType": "address",
          "name": "newOwner",
          "type": "address"
        }
      ],
      "name": "transferOwnership",
      "outputs": [],
      "stateMutability": "nonpayable",
      "type": "function"
    },
    {
      "inputs": [],
      "name": "trava",
      "outputs": [
        {
          "internalType": "contract IBEP20",
          "name": "",
          "type": "address"
        }
      ],
      "stateMutability": "view",
      "type": "function"
    },
    {
      "inputs": [
        {
          "internalType": "address",
          "name": "",
          "type": "address"
        }
      ],
      "name": "unlockedRoles",
      "outputs": [
        {
          "internalType": "bool",
          "name": "",
          "type": "bool"
        }
      ],
      "stateMutability": "view",
      "type": "function"
    },
    {
      "inputs": [
        {
          "internalType": "address[]",
          "name": "receives",
          "type": "address[]"
        },
        {
          "internalType": "uint256[]",
          "name": "amounts",
          "type": "uint256[]"
        },
        {
          "internalType": "uint256",
          "name": "bscEpoch",
          "type": "uint256"
        }
      ],
      "name": "unlocktrava",
      "outputs": [],
      "stateMutability": "nonpayable",
      "type": "function"
    },
    {
      "inputs": [
        {
          "internalType": "address[]",
          "name": "receives",
          "type": "address[]"
        },
        {
          "internalType": "uint256[]",
          "name": "amounts",
          "type": "uint256[]"
        },
        {
          "internalType": "uint256",
          "name": "bscEpoch",
          "type": "uint256"
        },
        {
          "internalType": "uint256",
          "name": "deadline",
          "type": "uint256"
        },
        {
          "internalType": "address",
          "name": "sender",
          "type": "address"
        },
        {
          "internalType": "uint8",
          "name": "v",
          "type": "uint8"
        },
        {
          "internalType": "bytes32",
          "name": "r",
          "type": "bytes32"
        },
        {
          "internalType": "bytes32",
          "name": "s",
          "type": "bytes32"
        }
      ],
      "name": "unlocktravaPermit",
      "outputs": [],
      "stateMutability": "nonpayable",
      "type": "function"
    },
    {
      "inputs": [],
      "name": "updateEpoch",
      "outputs": [],
      "stateMutability": "nonpayable",
      "type": "function"
    },
    {
      "inputs": [
        {
          "internalType": "address",
          "name": "sender",
          "type": "address"
        },
        {
          "internalType": "uint8",
          "name": "v",
          "type": "uint8"
        },
        {
          "internalType": "bytes32",
          "name": "r",
          "type": "bytes32"
        },
        {
          "internalType": "bytes32",
          "name": "s",
          "type": "bytes32"
        }
      ],
      "name": "updateEpochPermit",
      "outputs": [],
      "stateMutability": "nonpayable",
      "type": "function"
    },
    {
      "inputs": [
        {
          "internalType": "bytes32",
          "name": "data",
          "type": "bytes32"
        },
        {
          "internalType": "address",
          "name": "sender",
          "type": "address"
        },
        {
          "internalType": "uint8",
          "name": "v",
          "type": "uint8"
        },
        {
          "internalType": "bytes32",
          "name": "r",
          "type": "bytes32"
        },
        {
          "internalType": "bytes32",
          "name": "s",
          "type": "bytes32"
        }
      ],
      "name": "verify",
      "outputs": [],
      "stateMutability": "nonpayable",
      "type": "function"
    }
  ],
  "bytecode": "0x60806040523480156200001157600080fd5b5060405162001bdd38038062001bdd833981810160405260608110156200003757600080fd5b5080516020820151604092830151600080546001600160a01b031916331780825594519394929391926001600160a01b0316917f8be0079c531659141344cd1fd0a4f28419497f9722a3daafe3b4186f6b6457e0908290a360408051808201909152600c8082526b2a2920ab20902627a1a5a2a960a11b6020909201918252620000c49160029162000209565b506040805180820182526001808252603160f81b60209283015282517f8b73c3c69bb8fe3d512ecc4cf759cc79239f7b179b0ffacaa9a75d522b39400f818401527fc89efdaa54c0f20c7adf612882df0950f5a951637e0307cdcb4c672f298b8bc681850152466060820152306080808301919091528451808303909101815260a0909101845280519083012081557f9726cc8c968c277ff8a0adae283de91c7e01a485cdbb071e8fee5d4b2b88e0506004557f2da7d30cf42f294de06c09268ade0f70fedd55479629ea9821ccad64651c5f396005557f42a5cded9c22c13609dd6ffa54b3430a1637405e9cc70635fdda1289e3a7f954600655600980546001600160a01b0319166001600160a01b039790971696909617909555600892909255600792909255336000908152600a90915220805460ff19169091179055620002a5565b828054600181600116156101000203166002900490600052602060002090601f016020900481019282601f106200024c57805160ff19168380011785556200027c565b828001600101855582156200027c579182015b828111156200027c5782518255916020019190600101906200025f565b506200028a9291506200028e565b5090565b5b808211156200028a57600081556001016200028f565b61192880620002b56000396000f3fe608060405234801561001057600080fd5b50600436106101e55760003560e01c80637ecebe001161010f578063993fdd42116100a2578063bf16fffe11610071578063bf16fffe146107f0578063c9372feb14610816578063f2fde38b1461081e578063feb0f5a814610844576101e5565b8063993fdd42146106e4578063a3f4df7e1461071a578063a40b8fe114610797578063b78919531461079f576101e5565b80638f32d59b116100de5780638f32d59b1461063057806391817a871461063857806392d4d9ac1461067757806395a6f8fc146106b8576101e5565b80637ecebe001461059157806386273749146105b75780638da5cb5b146106045780638f08bbb514610628576101e5565b80633af9c6091161018757806359fdc81f1161015657806359fdc81f146105145780636ab9bd3f1461054f578063715018a61461056c57806372abc8b714610574576101e5565b80633af9c6091461039a578063425ada33146104e757806358152d07146104ef57806358eca9c7146104f7576101e5565b80632b8a421c116101c35780632b8a421c146102465780633644e5151461026357806336f4fb021461026b57806339d3ffec14610275576101e5565b8063098bdb56146101ea57806314d704ee146102245780631844b29e1461023e575b600080fd5b6102106004803603602081101561020057600080fd5b50356001600160a01b0316610872565b604080519115158252519081900360200190f35b61022c610887565b60408051918252519081900360200190f35b61022c61088d565b61022c6004803603602081101561025c57600080fd5b5035610893565b61022c6108a5565b6102736108ab565b005b6102736004803603606081101561028b57600080fd5b810190602081018135600160201b8111156102a557600080fd5b8201836020820111156102b757600080fd5b803590602001918460208302840111600160201b831117156102d857600080fd5b9190808060200260200160405190810160405280939291908181526020018383602002808284376000920191909152509295949360208101935035915050600160201b81111561032757600080fd5b82018360208201111561033957600080fd5b803590602001918460208302840111600160201b8311171561035a57600080fd5b91908080602002602001604051908101604052809392919081815260200183836020028082843760009201919091525092955050913592506108b6915050565b61027360048036036101008110156103b157600080fd5b810190602081018135600160201b8111156103cb57600080fd5b8201836020820111156103dd57600080fd5b803590602001918460208302840111600160201b831117156103fe57600080fd5b9190808060200260200160405190810160405280939291908181526020018383602002808284376000920191909152509295949360208101935035915050600160201b81111561044d57600080fd5b82018360208201111561045f57600080fd5b803590602001918460208302840111600160201b8311171561048057600080fd5b919080806020026020016040519081016040528093929190818152602001838360200280828437600092019190915250929550508235935050506020810135906001600160a01b036040820135169060ff6060820135169060808101359060a001356108c7565b61022c610a36565b61022c610a3c565b6102736004803603602081101561050d57600080fd5b5035610a42565b6102736004803603608081101561052a57600080fd5b506001600160a01b038135169060ff6020820135169060408101359060600135610a8e565b6102736004803603602081101561056557600080fd5b5035610af5565b610273610b41565b6102106004803603602081101561058a57600080fd5b5035610bd2565b61022c600480360360208110156105a757600080fd5b50356001600160a01b0316610be7565b6105da600480360360408110156105cd57600080fd5b5080359060200135610bf9565b604080516001600160a01b0394851681529290931660208301528183015290519081900360600190f35b61060c610c43565b604080516001600160a01b039092168252519081900360200190f35b61060c610c52565b610210610c61565b61065e6004803603602081101561064e57600080fd5b50356001600160a01b0316610c72565b6040805192835260208301919091528051918290030190f35b610273600480360360a081101561068d57600080fd5b508035906001600160a01b036020820135169060ff6040820135169060608101359060800135610c8b565b610273600480360360408110156106ce57600080fd5b506001600160a01b038135169060200135610da9565b610273600480360360608110156106fa57600080fd5b506001600160a01b03813581169160208101359091169060400135610db8565b610722610e13565b6040805160208082528351818301528351919283929083019185019080838360005b8381101561075c578181015183820152602001610744565b50505050905090810190601f1680156107895780820380516001836020036101000a031916815260200191505b509250505060405180910390f35b61022c610e9e565b610273600480360360e08110156107b557600080fd5b506001600160a01b03813581169160208101359091169060408101359060608101359060ff6080820135169060a08101359060c00135610ea4565b6102736004803603602081101561080657600080fd5b50356001600160a01b0316610f78565b61022c610fe1565b6102736004803603602081101561083457600080fd5b50356001600160a01b0316610fe7565b6102736004803603604081101561085a57600080fd5b506001600160a01b038135169060200135151561103a565b600a6020526000908152604090205460ff1681565b60075481565b60065481565b6000908152600d602052604090205490565b60015481565b6108b4336110ac565b565b6108c283838333611166565b505050565b84428111610913576040805162461bcd60e51b8152602060048201526014602482015273444541444c494e455f4f55545f4f465f4441544560601b604482015290519081900360640190fd5b610a1f6004548a8a8a8a600360008c6001600160a01b03166001600160a01b03168152602001908152602001600020600081548092919060010191905055604051602001808781526020018060200180602001868152602001858152602001848152602001838103835288818151815260200191508051906020019060200280838360005b838110156109b0578181015183820152602001610998565b50505050905001838103825287818151815260200191508051906020019060200280838360005b838110156109ef5781810151838201526020016109d7565b50505050905001985050505050505050506040516020818303038152906040528051906020012086868686610c8b565b610a2b89898988611166565b505050505050505050565b60085481565b600b5481565b610a4a610c61565b610a89576040805162461bcd60e51b815260206004820181905260248201526000805160206118d3833981519152604482015290519081900360640190fd5b600755565b6006546001600160a01b0385166000908152600360209081526040918290208054600181019091558251808301949094528383015281518084038301815260609093019091528151910120610ae69085858585610c8b565b610aef846110ac565b50505050565b610afd610c61565b610b3c576040805162461bcd60e51b815260206004820181905260248201526000805160206118d3833981519152604482015290519081900360640190fd5b600855565b610b49610c61565b610b88576040805162461bcd60e51b815260206004820181905260248201526000805160206118d3833981519152604482015290519081900360640190fd5b600080546040516001600160a01b03909116907f8be0079c531659141344cd1fd0a4f28419497f9722a3daafe3b4186f6b6457e0908390a3600080546001600160a01b0319169055565b600c6020526000908152604090205460ff1681565b60036020526000908152604090205481565b600d6020528160005260406000208181548110610c1257fe5b60009182526020909120600390910201805460018201546002909201546001600160a01b0391821694509116915083565b6000546001600160a01b031690565b6009546001600160a01b031681565b6000546001600160a01b0316331490565b600e602052600090815260409020805460019091015482565b600060015486604051602001808061190160f01b81525060020183815260200182815260200192505050604051602081830303815290604052805190602001209050600060018286868660405160008152602001604052604051808581526020018460ff1681526020018381526020018281526020019450505050506020604051602081039080840390855afa158015610d29573d6000803e3d6000fd5b5050604051601f1901519150506001600160a01b03811615801590610d5f5750856001600160a01b0316816001600160a01b0316145b610da0576040805162461bcd60e51b815260206004820152600d60248201526c496e76616c6964206e6f6e636560981b604482015290519081900360640190fd5b50505050505050565b610db4338383611336565b5050565b610dc0610c61565b610dff576040805162461bcd60e51b815260206004820181905260248201526000805160206118d3833981519152604482015290519081900360640190fd5b6108c26001600160a01b03841683836114c5565b6002805460408051602060018416156101000260001901909316849004601f81018490048402820184019092528181529291830182828015610e965780601f10610e6b57610100808354040283529160200191610e96565b820191906000526020600020905b815481529060010190602001808311610e7957829003601f168201915b505050505081565b60045481565b83428111610ef0576040805162461bcd60e51b8152602060048201526014602482015273444541444c494e455f4f55545f4f465f4441544560601b604482015290519081900360640190fd5b6005546001600160a01b03808a16600090815260036020908152604091829020805460018101909155825180830195909552928b1684830152606084018a90526080840189905260a0808501939093528151808503909301835260c090930190528051910120610f639089868686610c8b565b610f6e888888611336565b5050505050505050565b610f80610c61565b610fbf576040805162461bcd60e51b815260206004820181905260248201526000805160206118d3833981519152604482015290519081900360640190fd5b600980546001600160a01b0319166001600160a01b0392909216919091179055565b60055481565b610fef610c61565b61102e576040805162461bcd60e51b815260206004820181905260248201526000805160206118d3833981519152604482015290519081900360640190fd5b61103781611517565b50565b611042610c61565b611081576040805162461bcd60e51b815260206004820181905260248201526000805160206118d3833981519152604482015290519081900360640190fd5b6001600160a01b03919091166000908152600a60205260409020805460ff1916911515919091179055565b6001600160a01b0381166000908152600a602052604090205460ff16611105576040805162461bcd60e51b81526020600482015260096024820152682337b93134b23232b760b91b604482015290519081900360640190fd5b6000611112600b54610893565b1161115a576040805162461bcd60e51b8152602060048201526013602482015272067657453776170446174614c656e6774683d3606c1b604482015290519081900360640190fd5b50600b80546001019055565b6001600160a01b0381166000908152600a602052604090205460ff166111bf576040805162461bcd60e51b81526020600482015260096024820152682337b93134b23232b760b91b604482015290519081900360640190fd5b8251845114611204576040805162461bcd60e51b815260206004820152600c60248201526b496e76616c6964206461746160a01b604482015290519081900360640190fd5b6000828152600c602052604090205460ff1615611253576040805162461bcd60e51b8152602060048201526008602482015267155b9b1bd8dad95960c21b604482015290519081900360640190fd5b6000828152600c60205260408120805460ff191660011790555b845181101561132f576112b785828151811061128557fe5b602002602001015185838151811061129957fe5b60209081029190910101516009546001600160a01b031691906114c5565b80837f0c93b9eaa1d0d374b80a5eaae0d66cb1f2eb8bb85c6dc5155edc99c7e4eb6b568784815181106112e657fe5b60200260200101518785815181106112fa57fe5b602002602001015160405180836001600160a01b031681526020018281526020019250505060405180910390a360010161126d565b5050505050565b6001600160a01b0383166000908152600e60205260409020805442919062015180908303111561136f5781815560018101839055611384565b600181015461137e90846115b7565b60018201555b6008548311156113d1576040805162461bcd60e51b8152602060048201526013602482015272115e18d9595908185b5bdd5b9d081b1a5b5a5d606a1b604482015290519081900360640190fd5b60075481600101541115611421576040805162461bcd60e51b8152602060048201526012602482015271115e18d959590819185a5b1e481b1a5b5a5d60721b604482015290519081900360640190fd5b600954611439906001600160a01b0316863086611618565b611441611862565b5050604080516060810182526001600160a01b0395861681529385166020808601918252858301948552600b546000908152600d8252928320805460018181018355918552919093209551600390910290950180549587166001600160a01b0319968716178155905191810180549290961691909416179093555160029091015550565b604080516001600160a01b038416602482015260448082018490528251808303909101815260649091019091526020810180516001600160e01b031663a9059cbb60e01b1790526108c290849061166e565b6001600160a01b03811661155c5760405162461bcd60e51b81526004018080602001828103825260268152602001806118ad6026913960400191505060405180910390fd5b600080546040516001600160a01b03808516939216917f8be0079c531659141344cd1fd0a4f28419497f9722a3daafe3b4186f6b6457e091a3600080546001600160a01b0319166001600160a01b0392909216919091179055565b600082820183811015611611576040805162461bcd60e51b815260206004820152601b60248201527f536166654d6174683a206164646974696f6e206f766572666c6f770000000000604482015290519081900360640190fd5b9392505050565b604080516001600160a01b0380861660248301528416604482015260648082018490528251808303909101815260849091019091526020810180516001600160e01b03166323b872dd60e01b179052610aef9085905b611680826001600160a01b0316611826565b6116d1576040805162461bcd60e51b815260206004820152601f60248201527f5361666542455032303a2063616c6c20746f206e6f6e2d636f6e747261637400604482015290519081900360640190fd5b60006060836001600160a01b0316836040518082805190602001908083835b6020831061170f5780518252601f1990920191602091820191016116f0565b6001836020036101000a0380198251168184511680821785525050505050509050019150506000604051808303816000865af19150503d8060008114611771576040519150601f19603f3d011682016040523d82523d6000602084013e611776565b606091505b5091509150816117cd576040805162461bcd60e51b815260206004820181905260248201527f5361666542455032303a206c6f772d6c6576656c2063616c6c206661696c6564604482015290519081900360640190fd5b805115610aef578080602001905160208110156117e957600080fd5b5051610aef5760405162461bcd60e51b815260040180806020018281038252602a815260200180611883602a913960400191505060405180910390fd5b6000813f7fc5d2460186f7233c927e7db2dcc703c0e500b653ca82273b7bfad8045d85a470811580159061185a5750808214155b949350505050565b60408051606081018252600080825260208201819052918101919091529056fe5361666542455032303a204245503230206f7065726174696f6e20646964206e6f7420737563636565644f776e61626c653a206e6577206f776e657220697320746865207a65726f20616464726573734f776e61626c653a2063616c6c6572206973206e6f7420746865206f776e6572a2646970667358221220ca9c263138c4a373a8194e1295fcf01fb8ee94a91c0ab760800f67dc19bacb6864736f6c634300060c0033",
  "linkReferences": {},
  "deployedLinkReferences": {}
}