{
  "_format": "hh-sol-artifact-1",
  "contractName": "VestingTrava",
  "sourceName": "contracts/vesting/vesting.sol",
  "abi": [
    {
      "inputs": [
        {
          "internalType": "contract IBEP20",
          "name": "rewardToken",
          "type": "address"
        },
        {
          "internalType": "address",
          "name": "rewardsVault",
          "type": "address"
        },
        {
          "internalType": "address",
          "name": "governance",
          "type": "address"
        }
      ],
      "stateMutability": "nonpayable",
      "type": "constructor"
    },
    {
      "anonymous": false,
      "inputs": [
        {
          "indexed": true,
          "internalType": "address",
          "name": "user",
          "type": "address"
        }
      ],
      "name": "Cooldown",
      "type": "event"
    },
    {
      "anonymous": false,
      "inputs": [
        {
          "indexed": false,
          "internalType": "address",
          "name": "user",
          "type": "address"
        },
        {
          "indexed": false,
          "internalType": "uint256",
          "name": "amount",
          "type": "uint256"
        }
      ],
      "name": "RewardsAccrued",
      "type": "event"
    },
    {
      "anonymous": false,
      "inputs": [
        {
          "indexed": true,
          "internalType": "address",
          "name": "from",
          "type": "address"
        },
        {
          "indexed": true,
          "internalType": "address",
          "name": "to",
          "type": "address"
        },
        {
          "indexed": false,
          "internalType": "uint256",
          "name": "amount",
          "type": "uint256"
        }
      ],
      "name": "RewardsClaimed",
      "type": "event"
    },
    {
      "inputs": [],
      "name": "DOMAIN_SEPARATOR",
      "outputs": [
        {
          "internalType": "bytes32",
          "name": "",
          "type": "bytes32"
        }
      ],
      "stateMutability": "view",
      "type": "function"
    },
    {
      "inputs": [],
      "name": "EIP712_REVISION",
      "outputs": [
        {
          "internalType": "bytes",
          "name": "",
          "type": "bytes"
        }
      ],
      "stateMutability": "view",
      "type": "function"
    },
    {
      "inputs": [],
      "name": "GOVERNANCE",
      "outputs": [
        {
          "internalType": "address",
          "name": "",
          "type": "address"
        }
      ],
      "stateMutability": "view",
      "type": "function"
    },
    {
      "inputs": [],
      "name": "REVISION",
      "outputs": [
        {
          "internalType": "uint256",
          "name": "",
          "type": "uint256"
        }
      ],
      "stateMutability": "view",
      "type": "function"
    },
    {
      "inputs": [],
      "name": "REWARDS_VAULT",
      "outputs": [
        {
          "internalType": "address",
          "name": "",
          "type": "address"
        }
      ],
      "stateMutability": "view",
      "type": "function"
    },
    {
      "inputs": [],
      "name": "REWARD_TOKEN",
      "outputs": [
        {
          "internalType": "contract IBEP20",
          "name": "",
          "type": "address"
        }
      ],
      "stateMutability": "view",
      "type": "function"
    },
    {
      "inputs": [],
      "name": "START_TIME_CLAIM",
      "outputs": [
        {
          "internalType": "uint256",
          "name": "",
          "type": "uint256"
        }
      ],
      "stateMutability": "view",
      "type": "function"
    },
    {
      "inputs": [],
      "name": "VESTING_TIME_INTERVAL",
      "outputs": [
        {
          "internalType": "uint256",
          "name": "",
          "type": "uint256"
        }
      ],
      "stateMutability": "view",
      "type": "function"
    },
    {
      "inputs": [
        {
          "internalType": "address",
          "name": "reserve",
          "type": "address"
        },
        {
          "internalType": "address",
          "name": "to",
          "type": "address"
        }
      ],
      "name": "claimRewards",
      "outputs": [],
      "stateMutability": "nonpayable",
      "type": "function"
    },
    {
      "inputs": [
        {
          "internalType": "address",
          "name": "userAddress",
          "type": "address"
        },
        {
          "internalType": "address",
          "name": "reserve",
          "type": "address"
        }
      ],
      "name": "getClaimableReward",
      "outputs": [
        {
          "internalType": "uint256",
          "name": "claimableReward",
          "type": "uint256"
        }
      ],
      "stateMutability": "view",
      "type": "function"
    },
    {
      "inputs": [
        {
          "internalType": "address",
          "name": "userAddress",
          "type": "address"
        },
        {
          "internalType": "address",
          "name": "reserve",
          "type": "address"
        }
      ],
      "name": "getClaimedReward",
      "outputs": [
        {
          "internalType": "uint256",
          "name": "claimedBalance",
          "type": "uint256"
        }
      ],
      "stateMutability": "view",
      "type": "function"
    },
    {
      "inputs": [
        {
          "internalType": "address",
          "name": "userAddress",
          "type": "address"
        },
        {
          "internalType": "address",
          "name": "reserve",
          "type": "address"
        }
      ],
      "name": "getTotalReward",
      "outputs": [
        {
          "internalType": "uint256",
          "name": "rewardBalance",
          "type": "uint256"
        }
      ],
      "stateMutability": "view",
      "type": "function"
    },
    {
      "inputs": [
        {
          "internalType": "address",
          "name": "userAddress",
          "type": "address"
        },
        {
          "internalType": "address",
          "name": "reserve",
          "type": "address"
        }
      ],
      "name": "getVestingReward",
      "outputs": [
        {
          "internalType": "uint256",
          "name": "vestingBalance",
          "type": "uint256"
        }
      ],
      "stateMutability": "view",
      "type": "function"
    },
    {
      "inputs": [],
      "name": "initialize",
      "outputs": [],
      "stateMutability": "nonpayable",
      "type": "function"
    },
    {
      "inputs": [
        {
          "internalType": "uint256",
          "name": "_startTimeClaim",
          "type": "uint256"
        },
        {
          "internalType": "uint256",
          "name": "_vestingTimeInterval",
          "type": "uint256"
        }
      ],
      "name": "setClaimRewardsTimeline",
      "outputs": [],
      "stateMutability": "nonpayable",
      "type": "function"
    },
    {
      "inputs": [
        {
          "internalType": "address",
          "name": "_gov",
          "type": "address"
        }
      ],
      "name": "setGovernance",
      "outputs": [],
      "stateMutability": "nonpayable",
      "type": "function"
    },
    {
      "inputs": [
        {
          "internalType": "contract IBEP20",
          "name": "_trava",
          "type": "address"
        }
      ],
      "name": "setRewardToken",
      "outputs": [],
      "stateMutability": "nonpayable",
      "type": "function"
    },
    {
      "inputs": [
        {
          "internalType": "address",
          "name": "_reward_vault",
          "type": "address"
        }
      ],
      "name": "setRewardVault",
      "outputs": [],
      "stateMutability": "nonpayable",
      "type": "function"
    },
    {
      "inputs": [
        {
          "internalType": "address",
          "name": "reserve",
          "type": "address"
        },
        {
          "components": [
            {
              "internalType": "address",
              "name": "userAddress",
              "type": "address"
            },
            {
              "internalType": "uint256",
              "name": "rewardBalance",
              "type": "uint256"
            }
          ],
          "internalType": "struct VestingToken.UserRewardInput[]",
          "name": "userRewardInput",
          "type": "tuple[]"
        }
      ],
      "name": "setRewards",
      "outputs": [],
      "stateMutability": "nonpayable",
      "type": "function"
    },
    {
      "inputs": [
        {
          "internalType": "address",
          "name": "reserve",
          "type": "address"
        },
        {
          "internalType": "uint256",
          "name": "_reserveIndex",
          "type": "uint256"
        },
        {
          "internalType": "uint256",
          "name": "_vestingAmount",
          "type": "uint256"
        }
      ],
      "name": "setVestingAmount",
      "outputs": [],
      "stateMutability": "nonpayable",
      "type": "function"
    },
    {
      "inputs": [
        {
          "internalType": "address",
          "name": "",
          "type": "address"
        },
        {
          "internalType": "address",
          "name": "",
          "type": "address"
        }
      ],
      "name": "stakerRewardClaimed",
      "outputs": [
        {
          "internalType": "uint256",
          "name": "",
          "type": "uint256"
        }
      ],
      "stateMutability": "view",
      "type": "function"
    },
    {
      "inputs": [
        {
          "internalType": "address",
          "name": "",
          "type": "address"
        },
        {
          "internalType": "address",
          "name": "",
          "type": "address"
        }
      ],
      "name": "stakerRewardsToClaim",
      "outputs": [
        {
          "internalType": "uint256",
          "name": "",
          "type": "uint256"
        }
      ],
      "stateMutability": "view",
      "type": "function"
    },
    {
      "inputs": [
        {
          "internalType": "address",
          "name": "",
          "type": "address"
        }
      ],
      "name": "vestingAmount",
      "outputs": [
        {
          "internalType": "uint256",
          "name": "reserveIndex",
          "type": "uint256"
        },
        {
          "internalType": "uint256",
          "name": "reserveVesting",
          "type": "uint256"
        }
      ],
      "stateMutability": "view",
      "type": "function"
    }
  ],
  "bytecode": "0x6080604052600080553480156200001557600080fd5b50604051620026db380380620026db83398181016040528101906200003b91906200013b565b82828282603460006101000a81548173ffffffffffffffffffffffffffffffffffffffff021916908373ffffffffffffffffffffffffffffffffffffffff16021790555081603560006101000a81548173ffffffffffffffffffffffffffffffffffffffff021916908373ffffffffffffffffffffffffffffffffffffffff16021790555080603860006101000a81548173ffffffffffffffffffffffffffffffffffffffff021916908373ffffffffffffffffffffffffffffffffffffffff1602179055505050505050506200020d565b6000815190506200011e81620001d9565b92915050565b6000815190506200013581620001f3565b92915050565b6000806000606084860312156200015157600080fd5b6000620001618682870162000124565b935050602062000174868287016200010d565b925050604062000187868287016200010d565b9150509250925092565b60006200019e82620001b9565b9050919050565b6000620001b28262000191565b9050919050565b600073ffffffffffffffffffffffffffffffffffffffff82169050919050565b620001e48162000191565b8114620001f057600080fd5b50565b620001fe81620001a5565b81146200020a57600080fd5b50565b6124be806200021d6000396000f3fe608060405234801561001057600080fd5b506004361061014d5760003560e01c80638125dd10116100c3578063ab033ea91161007c578063ab033ea91461037b578063d9e7135d14610397578063dde43cba146103c7578063e5d72cb5146103e5578063e8a22a8a14610415578063f1e42ccd146104455761014d565b80638125dd10146102cc5780638129fc1c146102e85780638aee8127146102f2578063946776cd1461030e578063976372291461032c57806399248ea71461035d5761014d565b8063390b0ff611610115578063390b0ff61461020a5780633dc1674d14610228578063445e243a14610244578063497495d214610262578063781603761461027e5780637c7c19421461029c5761014d565b8063146278341461015257806321e91dea14610170578063327d96ec146101a05780633644e515146101bc57806337f2c3a0146101da575b600080fd5b61015a610461565b60405161016791906120b3565b60405180910390f35b61018a60048036038101906101859190611bda565b610487565b60405161019791906122af565b60405180910390f35b6101ba60048036038101906101b59190611d0f565b6104a0565b005b6101c4610542565b6040516101d19190612105565b60405180910390f35b6101f460048036038101906101ef9190611bda565b610548565b60405161020191906122af565b60405180910390f35b610212610760565b60405161021f91906122af565b60405180910390f35b610242600480360381019061023d9190611c6e565b610766565b005b61024c610872565b60405161025991906122af565b60405180910390f35b61027c60048036038101906102779190611c16565b610878565b005b6102866109e2565b6040516102939190612120565b60405180910390f35b6102b660048036038101906102b19190611bda565b610a1b565b6040516102c391906122af565b60405180910390f35b6102e660048036038101906102e19190611bb1565b610a40565b005b6102f0610b14565b005b61030c60048036038101906103079190611ce6565b610bed565b005b610316610cc1565b60405161032391906120b3565b60405180910390f35b61034660048036038101906103419190611bb1565b610ce7565b6040516103549291906122ca565b60405180910390f35b610365610d0b565b6040516103729190612142565b60405180910390f35b61039560048036038101906103909190611bb1565b610d31565b005b6103b160048036038101906103ac9190611bda565b610e05565b6040516103be91906122af565b60405180910390f35b6103cf610e8c565b6040516103dc91906122af565b60405180910390f35b6103ff60048036038101906103fa9190611bda565b610e91565b60405161040c91906122af565b60405180910390f35b61042f600480360381019061042a9190611bda565b610eb6565b60405161043c91906122af565b60405180910390f35b61045f600480360381019061045a9190611bda565b610f3d565b005b603860009054906101000a900473ffffffffffffffffffffffffffffffffffffffff1681565b6000806104948484611257565b90508091505092915050565b603860009054906101000a900473ffffffffffffffffffffffffffffffffffffffff1673ffffffffffffffffffffffffffffffffffffffff163373ffffffffffffffffffffffffffffffffffffffff1614610530576040517f08c379a00000000000000000000000000000000000000000000000000000000081526004016105279061224f565b60405180910390fd5b81603681905550806037819055505050565b603c5481565b60008061065960375461064b606461063d603654420361062f603b60008b73ffffffffffffffffffffffffffffffffffffffff1673ffffffffffffffffffffffffffffffffffffffff16815260200190815260200160002060010154603960008c73ffffffffffffffffffffffffffffffffffffffff1673ffffffffffffffffffffffffffffffffffffffff16815260200190815260200160002060008d73ffffffffffffffffffffffffffffffffffffffff1673ffffffffffffffffffffffffffffffffffffffff168152602001908152602001600020546115bf90919063ffffffff16565b6115bf90919063ffffffff16565b61162f90919063ffffffff16565b61162f90919063ffffffff16565b90506000610753826107456064610737603b60008a73ffffffffffffffffffffffffffffffffffffffff1673ffffffffffffffffffffffffffffffffffffffff16815260200190815260200160002060010154603960008b73ffffffffffffffffffffffffffffffffffffffff1673ffffffffffffffffffffffffffffffffffffffff16815260200190815260200160002060008c73ffffffffffffffffffffffffffffffffffffffff1673ffffffffffffffffffffffffffffffffffffffff168152602001908152602001600020546115bf90919063ffffffff16565b61162f90919063ffffffff16565b61167990919063ffffffff16565b9050809250505092915050565b60365481565b603860009054906101000a900473ffffffffffffffffffffffffffffffffffffffff1673ffffffffffffffffffffffffffffffffffffffff163373ffffffffffffffffffffffffffffffffffffffff16146107f6576040517f08c379a00000000000000000000000000000000000000000000000000000000081526004016107ed9061224f565b60405180910390fd5b6107fe611af9565b604051806040016040528084815260200183815250905080603b60008673ffffffffffffffffffffffffffffffffffffffff1673ffffffffffffffffffffffffffffffffffffffff168152602001908152602001600020600082015181600001556020820151816001015590505050505050565b60375481565b603860009054906101000a900473ffffffffffffffffffffffffffffffffffffffff1673ffffffffffffffffffffffffffffffffffffffff163373ffffffffffffffffffffffffffffffffffffffff1614610908576040517f08c379a00000000000000000000000000000000000000000000000000000000081526004016108ff9061224f565b60405180910390fd5b60005b828290508110156109dc5782828281811061092257fe5b90506040020160200135603960008673ffffffffffffffffffffffffffffffffffffffff1673ffffffffffffffffffffffffffffffffffffffff168152602001908152602001600020600085858581811061097957fe5b90506040020160000160208101906109919190611bb1565b73ffffffffffffffffffffffffffffffffffffffff1673ffffffffffffffffffffffffffffffffffffffff16815260200190815260200160002081905550808060010191505061090b565b50505050565b6040518060400160405280600181526020017f310000000000000000000000000000000000000000000000000000000000000081525081565b6039602052816000526040600020602052806000526040600020600091509150505481565b603860009054906101000a900473ffffffffffffffffffffffffffffffffffffffff1673ffffffffffffffffffffffffffffffffffffffff163373ffffffffffffffffffffffffffffffffffffffff1614610ad0576040517f08c379a0000000000000000000000000000000000000000000000000000000008152600401610ac79061224f565b60405180910390fd5b80603560006101000a81548173ffffffffffffffffffffffffffffffffffffffff021916908373ffffffffffffffffffffffffffffffffffffffff16021790555050565b6000610b1e6116c3565b9050600160009054906101000a900460ff1680610b3f5750610b3e6116cc565b5b80610b4b575060005481115b610b8a576040517f08c379a0000000000000000000000000000000000000000000000000000000008152600401610b819061222f565b60405180910390fd5b6000600160009054906101000a900460ff161590508015610bc75760018060006101000a81548160ff021916908315150217905550816000819055505b8015610be9576000600160006101000a81548160ff0219169083151502179055505b5050565b603860009054906101000a900473ffffffffffffffffffffffffffffffffffffffff1673ffffffffffffffffffffffffffffffffffffffff163373ffffffffffffffffffffffffffffffffffffffff1614610c7d576040517f08c379a0000000000000000000000000000000000000000000000000000000008152600401610c749061224f565b60405180910390fd5b80603460006101000a81548173ffffffffffffffffffffffffffffffffffffffff021916908373ffffffffffffffffffffffffffffffffffffffff16021790555050565b603560009054906101000a900473ffffffffffffffffffffffffffffffffffffffff1681565b603b6020528060005260406000206000915090508060000154908060010154905082565b603460009054906101000a900473ffffffffffffffffffffffffffffffffffffffff1681565b603860009054906101000a900473ffffffffffffffffffffffffffffffffffffffff1673ffffffffffffffffffffffffffffffffffffffff163373ffffffffffffffffffffffffffffffffffffffff1614610dc1576040517f08c379a0000000000000000000000000000000000000000000000000000000008152600401610db89061224f565b60405180910390fd5b80603860006101000a81548173ffffffffffffffffffffffffffffffffffffffff021916908373ffffffffffffffffffffffffffffffffffffffff16021790555050565b6000603a60008373ffffffffffffffffffffffffffffffffffffffff1673ffffffffffffffffffffffffffffffffffffffff16815260200190815260200160002060008473ffffffffffffffffffffffffffffffffffffffff1673ffffffffffffffffffffffffffffffffffffffff16815260200190815260200160002054905092915050565b600181565b603a602052816000526040600020602052806000526040600020600091509150505481565b6000603960008373ffffffffffffffffffffffffffffffffffffffff1673ffffffffffffffffffffffffffffffffffffffff16815260200190815260200160002060008473ffffffffffffffffffffffffffffffffffffffff1673ffffffffffffffffffffffffffffffffffffffff16815260200190815260200160002054905092915050565b603654421015610f82576040517f08c379a0000000000000000000000000000000000000000000000000000000008152600401610f79906121ef565b60405180910390fd5b6000610f8e3384611257565b9050610fcf6040518060400160405280601081526020017f636c61696d61626c655265776172643a00000000000000000000000000000000815250826116dd565b61105e81603a60008673ffffffffffffffffffffffffffffffffffffffff1673ffffffffffffffffffffffffffffffffffffffff16815260200190815260200160002060003373ffffffffffffffffffffffffffffffffffffffff1673ffffffffffffffffffffffffffffffffffffffff1681526020019081526020016000205461177990919063ffffffff16565b603a60008573ffffffffffffffffffffffffffffffffffffffff1673ffffffffffffffffffffffffffffffffffffffff16815260200190815260200160002060003373ffffffffffffffffffffffffffffffffffffffff1673ffffffffffffffffffffffffffffffffffffffff1681526020019081526020016000208190555061117c6040518060600160405280602a815260200161245f602a9139603a60008673ffffffffffffffffffffffffffffffffffffffff1673ffffffffffffffffffffffffffffffffffffffff16815260200190815260200160002060003373ffffffffffffffffffffffffffffffffffffffff1673ffffffffffffffffffffffffffffffffffffffff168152602001908152602001600020546116dd565b6111ed603560009054906101000a900473ffffffffffffffffffffffffffffffffffffffff168383603460009054906101000a900473ffffffffffffffffffffffffffffffffffffffff1673ffffffffffffffffffffffffffffffffffffffff166117ce909392919063ffffffff16565b8173ffffffffffffffffffffffffffffffffffffffff163373ffffffffffffffffffffffffffffffffffffffff167f9310ccfcb8de723f578a9e4282ea9f521f05ae40dc08f3068dfad528a65ee3c78360405161124a91906122af565b60405180910390a3505050565b60006112986040518060400160405280601181526020017f626c6f636b2e74696d657374616d703a20000000000000000000000000000000815250426116dd565b6112d96040518060400160405280601181526020017f53544152545f54494d455f434c41494d200000000000000000000000000000008152506036546116dd565b61131a6040518060400160405280601781526020017f56455354494e475f54494d455f494e54455256414c3a200000000000000000008152506037546116dd565b600061142a60375461141c606461140e6036544203611400603b60008b73ffffffffffffffffffffffffffffffffffffffff1673ffffffffffffffffffffffffffffffffffffffff16815260200190815260200160002060010154603960008c73ffffffffffffffffffffffffffffffffffffffff1673ffffffffffffffffffffffffffffffffffffffff16815260200190815260200160002060008d73ffffffffffffffffffffffffffffffffffffffff1673ffffffffffffffffffffffffffffffffffffffff168152602001908152602001600020546115bf90919063ffffffff16565b6115bf90919063ffffffff16565b61162f90919063ffffffff16565b61162f90919063ffffffff16565b905060006115b2603a60008673ffffffffffffffffffffffffffffffffffffffff1673ffffffffffffffffffffffffffffffffffffffff16815260200190815260200160002060008773ffffffffffffffffffffffffffffffffffffffff1673ffffffffffffffffffffffffffffffffffffffff168152602001908152602001600020546115a4846115966064611588603b60008c73ffffffffffffffffffffffffffffffffffffffff1673ffffffffffffffffffffffffffffffffffffffff16815260200190815260200160002060000154603960008d73ffffffffffffffffffffffffffffffffffffffff1673ffffffffffffffffffffffffffffffffffffffff16815260200190815260200160002060008e73ffffffffffffffffffffffffffffffffffffffff1673ffffffffffffffffffffffffffffffffffffffff168152602001908152602001600020546115bf90919063ffffffff16565b61162f90919063ffffffff16565b61177990919063ffffffff16565b61167990919063ffffffff16565b9050809250505092915050565b6000808314156115d25760009050611629565b60008284029050828482816115e357fe5b0414611624576040517f08c379a000000000000000000000000000000000000000000000000000000000815260040161161b9061220f565b60405180910390fd5b809150505b92915050565b600061167183836040518060400160405280601a81526020017f536166654d6174683a206469766973696f6e206279207a65726f000000000000815250611857565b905092915050565b60006116bb83836040518060400160405280601e81526020017f536166654d6174683a207375627472616374696f6e206f766572666c6f7700008152506118b8565b905092915050565b60006001905090565b600080303b90506000811491505090565b61177582826040516024016116f392919061217f565b6040516020818303038152906040527f9710a9d0000000000000000000000000000000000000000000000000000000007bffffffffffffffffffffffffffffffffffffffffffffffffffffffff19166020820180517bffffffffffffffffffffffffffffffffffffffffffffffffffffffff8381831617835250505050611913565b5050565b6000808284019050838110156117c4576040517f08c379a00000000000000000000000000000000000000000000000000000000081526004016117bb906121cf565b60405180910390fd5b8091505092915050565b611851846323b872dd60e01b8585856040516024016117ef939291906120ce565b604051602081830303815290604052907bffffffffffffffffffffffffffffffffffffffffffffffffffffffff19166020820180517bffffffffffffffffffffffffffffffffffffffffffffffffffffffff838183161783525050505061193c565b50505050565b6000808311829061189e576040517f08c379a0000000000000000000000000000000000000000000000000000000008152600401611895919061215d565b60405180910390fd5b5060008385816118aa57fe5b049050809150509392505050565b6000838311158290611900576040517f08c379a00000000000000000000000000000000000000000000000000000000081526004016118f7919061215d565b60405180910390fd5b5060008385039050809150509392505050565b60008151905060006a636f6e736f6c652e6c6f679050602083016000808483855afa5050505050565b61195b8273ffffffffffffffffffffffffffffffffffffffff16611aae565b61199a576040517f08c379a00000000000000000000000000000000000000000000000000000000081526004016119919061228f565b60405180910390fd5b600060608373ffffffffffffffffffffffffffffffffffffffff16836040516119c3919061209c565b6000604051808303816000865af19150503d8060008114611a00576040519150601f19603f3d011682016040523d82523d6000602084013e611a05565b606091505b509150915081611a4a576040517f08c379a0000000000000000000000000000000000000000000000000000000008152600401611a419061226f565b60405180910390fd5b600081511115611aa85780806020019051810190611a689190611cbd565b611aa7576040517f08c379a0000000000000000000000000000000000000000000000000000000008152600401611a9e906121af565b60405180910390fd5b5b50505050565b60008060007fc5d2460186f7233c927e7db2dcc703c0e500b653ca82273b7bfad8045d85a47060001b9050833f9150808214158015611af057506000801b8214155b92505050919050565b604051806040016040528060008152602001600081525090565b600081359050611b2281612402565b92915050565b60008083601f840112611b3a57600080fd5b8235905067ffffffffffffffff811115611b5357600080fd5b602083019150836040820283011115611b6b57600080fd5b9250929050565b600081519050611b8181612419565b92915050565b600081359050611b9681612430565b92915050565b600081359050611bab81612447565b92915050565b600060208284031215611bc357600080fd5b6000611bd184828501611b13565b91505092915050565b60008060408385031215611bed57600080fd5b6000611bfb85828601611b13565b9250506020611c0c85828601611b13565b9150509250929050565b600080600060408486031215611c2b57600080fd5b6000611c3986828701611b13565b935050602084013567ffffffffffffffff811115611c5657600080fd5b611c6286828701611b28565b92509250509250925092565b600080600060608486031215611c8357600080fd5b6000611c9186828701611b13565b9350506020611ca286828701611b9c565b9250506040611cb386828701611b9c565b9150509250925092565b600060208284031215611ccf57600080fd5b6000611cdd84828501611b72565b91505092915050565b600060208284031215611cf857600080fd5b6000611d0684828501611b87565b91505092915050565b60008060408385031215611d2257600080fd5b6000611d3085828601611b9c565b9250506020611d4185828601611b9c565b9150509250929050565b611d5481612336565b82525050565b611d6381612354565b82525050565b6000611d74826122f3565b611d7e8185612309565b9350611d8e8185602086016123be565b611d97816123f1565b840191505092915050565b6000611dad826122f3565b611db7818561231a565b9350611dc78185602086016123be565b80840191505092915050565b611ddc8161239a565b82525050565b6000611ded826122fe565b611df78185612325565b9350611e078185602086016123be565b611e10816123f1565b840191505092915050565b6000611e28602a83612325565b91507f5361666542455032303a204245503230206f7065726174696f6e20646964206e60008301527f6f742073756363656564000000000000000000000000000000000000000000006020830152604082019050919050565b6000611e8e601b83612325565b91507f536166654d6174683a206164646974696f6e206f766572666c6f7700000000006000830152602082019050919050565b6000611ece601283612325565b91507f494e56414c494420434c41494d2054494d4500000000000000000000000000006000830152602082019050919050565b6000611f0e602183612325565b91507f536166654d6174683a206d756c7469706c69636174696f6e206f766572666c6f60008301527f77000000000000000000000000000000000000000000000000000000000000006020830152604082019050919050565b6000611f74602e83612325565b91507f436f6e747261637420696e7374616e63652068617320616c726561647920626560008301527f656e20696e697469616c697a65640000000000000000000000000000000000006020830152604082019050919050565b6000611fda600f83612325565b91507f4f4e4c595f474f5645524e414e434500000000000000000000000000000000006000830152602082019050919050565b600061201a602083612325565b91507f5361666542455032303a206c6f772d6c6576656c2063616c6c206661696c65646000830152602082019050919050565b600061205a601f83612325565b91507f5361666542455032303a2063616c6c20746f206e6f6e2d636f6e7472616374006000830152602082019050919050565b61209681612390565b82525050565b60006120a88284611da2565b915081905092915050565b60006020820190506120c86000830184611d4b565b92915050565b60006060820190506120e36000830186611d4b565b6120f06020830185611d4b565b6120fd604083018461208d565b949350505050565b600060208201905061211a6000830184611d5a565b92915050565b6000602082019050818103600083015261213a8184611d69565b905092915050565b60006020820190506121576000830184611dd3565b92915050565b600060208201905081810360008301526121778184611de2565b905092915050565b600060408201905081810360008301526121998185611de2565b90506121a8602083018461208d565b9392505050565b600060208201905081810360008301526121c881611e1b565b9050919050565b600060208201905081810360008301526121e881611e81565b9050919050565b6000602082019050818103600083015261220881611ec1565b9050919050565b6000602082019050818103600083015261222881611f01565b9050919050565b6000602082019050818103600083015261224881611f67565b9050919050565b6000602082019050818103600083015261226881611fcd565b9050919050565b600060208201905081810360008301526122888161200d565b9050919050565b600060208201905081810360008301526122a88161204d565b9050919050565b60006020820190506122c4600083018461208d565b92915050565b60006040820190506122df600083018561208d565b6122ec602083018461208d565b9392505050565b600081519050919050565b600081519050919050565b600082825260208201905092915050565b600081905092915050565b600082825260208201905092915050565b600061234182612370565b9050919050565b60008115159050919050565b6000819050919050565b600061236982612336565b9050919050565b600073ffffffffffffffffffffffffffffffffffffffff82169050919050565b6000819050919050565b60006123a5826123ac565b9050919050565b60006123b782612370565b9050919050565b60005b838110156123dc5780820151818401526020810190506123c1565b838111156123eb576000848401525b50505050565b6000601f19601f8301169050919050565b61240b81612336565b811461241657600080fd5b50565b61242281612348565b811461242d57600080fd5b50565b6124398161235e565b811461244457600080fd5b50565b61245081612390565b811461245b57600080fd5b5056fe7374616b6572526577617264436c61696d65645b726573657276655d5b6d73672e73656e6465725d3a20a2646970667358221220ff192113292a657a62f9699b26331cb6f4767e7ad5ee0d1dfd73901aba80eaa864736f6c634300060c0033",
  "linkReferences": {},
  "deployedLinkReferences": {}
}