{
  "_format": "hh-sol-artifact-1",
  "contractName": "LendingPoolCollateralManager",
  "sourceName": "contracts/protocol/lendingpool/LendingPoolCollateralManager.sol",
  "abi": [
    {
      "anonymous": false,
      "inputs": [
        {
          "indexed": true,
          "internalType": "address",
          "name": "collateral",
          "type": "address"
        },
        {
          "indexed": true,
          "internalType": "address",
          "name": "principal",
          "type": "address"
        },
        {
          "indexed": true,
          "internalType": "address",
          "name": "user",
          "type": "address"
        },
        {
          "indexed": false,
          "internalType": "uint256",
          "name": "debtToCover",
          "type": "uint256"
        },
        {
          "indexed": false,
          "internalType": "uint256",
          "name": "liquidatedCollateralAmount",
          "type": "uint256"
        },
        {
          "indexed": false,
          "internalType": "address",
          "name": "liquidator",
          "type": "address"
        },
        {
          "indexed": false,
          "internalType": "bool",
          "name": "receiveTToken",
          "type": "bool"
        }
      ],
      "name": "LiquidationCall",
      "type": "event"
    },
    {
      "anonymous": false,
      "inputs": [
        {
          "indexed": true,
          "internalType": "address",
          "name": "reserve",
          "type": "address"
        },
        {
          "indexed": true,
          "internalType": "address",
          "name": "user",
          "type": "address"
        }
      ],
      "name": "ReserveUsedAsCollateralDisabled",
      "type": "event"
    },
    {
      "anonymous": false,
      "inputs": [
        {
          "indexed": true,
          "internalType": "address",
          "name": "reserve",
          "type": "address"
        },
        {
          "indexed": true,
          "internalType": "address",
          "name": "user",
          "type": "address"
        }
      ],
      "name": "ReserveUsedAsCollateralEnabled",
      "type": "event"
    },
    {
      "inputs": [
        {
          "internalType": "address",
          "name": "collateralAsset",
          "type": "address"
        },
        {
          "internalType": "address",
          "name": "debtAsset",
          "type": "address"
        },
        {
          "internalType": "address",
          "name": "user",
          "type": "address"
        },
        {
          "internalType": "uint256",
          "name": "debtToCover",
          "type": "uint256"
        },
        {
          "internalType": "bool",
          "name": "receiveTToken",
          "type": "bool"
        }
      ],
      "name": "liquidationCall",
      "outputs": [
        {
          "internalType": "uint256",
          "name": "",
          "type": "uint256"
        },
        {
          "internalType": "string",
          "name": "",
          "type": "string"
        }
      ],
      "stateMutability": "nonpayable",
      "type": "function"
    }
  ],
  "bytecode": "0x608060405234801561001057600080fd5b506125f8806100206000396000f3fe608060405234801561001057600080fd5b506004361061002a5760003560e01c8062a718a91461002f575b600080fd5b610073600480360360a081101561004557600080fd5b506001600160a01b0381358116916020810135821691604082013516906060810135906080013515156100f2565b6040518083815260200180602001828103825283818151815260200191508051906020019080838360005b838110156100b657818101518382015260200161009e565b50505050905090810190601f1680156100e35780820380516001836020036101000a031916815260200191505b50935050505060405180910390f35b6001600160a01b0380861660009081526002602090815260408083208885168452818420948816845260039092528220919260609261012f61238b565b6101da89600284604051806020016040529081600082015481525050600460055460008054906101000a90046001600160a01b03166001600160a01b0316636909579b6001546040518263ffffffff1660e01b81526004018082815260200191505060206040518083038186803b1580156101a957600080fd5b505afa1580156101bd573d6000803e3d6000fd5b505050506040513d60208110156101d357600080fd5b5051610a52565b610100860152506101f192508b9150859050610e62565b6020820181905261010082015160408051635c26296160e11b815260048101889052602481018790526044810186905260648101929092526084820192909252905173__$de8c0cf1a7d7c36c802af9a64fb9d86036$__9163b84c52c29160a4808301926000929190829003018186803b15801561026e57600080fd5b505af4158015610282573d6000803e3d6000fd5b505050506040513d6000823e601f3d908101601f1916820160409081528110156102ab57600080fd5b8151602083018051604051929492938301929190846401000000008211156102d257600080fd5b9083019060208201858111156102e757600080fd5b825164010000000081118282018810171561030157600080fd5b82525081516020918201929091019080838360005b8381101561032e578181015183820152602001610316565b50505050905090810190601f16801561035b5780820380516001836020036101000a031916815260200191505b506040525050506101c08301526101a08201819052600090600981111561037e57fe5b600981111561038957fe5b146103a757806101a00151816101c001519550955050505050610a48565b60038401546001600160a01b036501000000000090910481166101408301819052604080516370a0823160e01b8152928c1660048401525190916370a08231916024808301926020929190829003018186803b15801561040657600080fd5b505afa15801561041a573d6000803e3d6000fd5b505050506040513d602081101561043057600080fd5b50518152602081015161044590611388610efd565b604082018190528811610458578761045e565b80604001515b60608201819052815161047991869186918f918f9190610fe7565b60e0830181905260c08301919091526060820151111561049e5760e081015160608201525b8661055f5760008b6001600160a01b03166370a082318361014001516040518263ffffffff1660e01b815260040180826001600160a01b0316815260200191505060206040518083038186803b1580156104f757600080fd5b505afa15801561050b573d6000803e3d6000fd5b505050506040513d602081101561052157600080fd5b505160c083015190915081101561055d57600560405180604001604052806002815260200161343560f01b815250965096505050505050610a48565b505b61056883611265565b806060015181602001511061060f576004838101546060830151600186015460408051637a94c56560e11b81526001600160a01b038f8116968201969096526024810193909352600160801b9091046001600160801b0316604483015251929091169163f5298aca9160648082019260009290919082900301818387803b1580156105f257600080fd5b505af1158015610606573d6000803e3d6000fd5b505050506106ad565b6020810151156106ad576004838101546020830151600186015460408051637a94c56560e11b81526001600160a01b038f8116968201969096526024810193909352600160801b9091046001600160801b0316604483015251929091169163f5298aca9160648082019260009290919082900301818387803b15801561069457600080fd5b505af11580156106a8573d6000803e3d6000fd5b505050505b600383015460608201516106d99185918d916501000000000090046001600160a01b0316906000611337565b8615610854578061014001516001600160a01b03166370a08231336040518263ffffffff1660e01b815260040180826001600160a01b0316815260200191505060206040518083038186803b15801561073157600080fd5b505afa158015610745573d6000803e3d6000fd5b505050506040513d602081101561075b57600080fd5b505161012082015261014081015160c08201516040805163f866c31960e01b81526001600160a01b038d8116600483015233602483015260448201939093529051919092169163f866c31991606480830192600092919082900301818387803b1580156107c757600080fd5b505af11580156107db573d6000803e3d6000fd5b505050508061012001516000141561084f573360009081526003602052604090206005850154610818908290600160a01b900460ff166001611627565b60405133906001600160a01b038e16907e058a56ea94653cdf4f152d227ace22d4c00ad99e2a43f58cb7d9e3feb295f290600090a3505b61090a565b61085d84611265565b61014081015160c08201516108799186918e9190600090611337565b61014081015160c0820151600186015460408051636b81068560e11b81526001600160a01b038e8116600483015233602483015260448201949094526001600160801b03909216606483015251919092169163d7020d0a91608480830192600092919082900301818387803b1580156108f157600080fd5b505af1158015610905573d6000803e3d6000fd5b505050505b805160c08201511415610974576005840154610933908390600160a01b900460ff166000611627565b886001600160a01b03168b6001600160a01b03167f44c58d81365b66dd4b1a7f36c25aa97b8c71c361ee4937adc1a00000227db5dd60405160405180910390a35b600383015460608201516109a2916001600160a01b038d8116923392650100000000009004909116906116cb565b886001600160a01b03168a6001600160a01b03168c6001600160a01b03167fe413a321e8681d831f4dbccbca790d2952b56f977908e45be37335533e00528684606001518560c00151338d60405180858152602001848152602001836001600160a01b03168152602001821515815260200194505050505060405180910390a46000604051806040016040528060028152602001611a1b60f11b81525095509550505050505b9550959350505050565b6000806000806000610a62612417565b610a6b8a61172b565b15610a89576000806000806000199550955095509550955050610e54565b600060e08201525b878160e001511015610db35760e0810151610aad908b90611730565b610ab657610da3565b60e0810151600090815260208a81526040808320546001600160a01b03166101e085018190528352908d90529020610aed816117af565b506080860181905260c08601929092525060a0840191909152600a0a6020808401919091526101e08301516040805163b3596f0760e01b81526001600160a01b0392831660048201529051918b169263b3596f0792602480840193829003018186803b158015610b5c57600080fd5b505afa158015610b70573d6000803e3d6000fd5b505050506040513d6020811015610b8657600080fd5b5051825260c082015115801590610ba8575060e0820151610ba8908c906117da565b15610cc9578060030160059054906101000a90046001600160a01b03166001600160a01b03166370a082318e6040518263ffffffff1660e01b815260040180826001600160a01b0316815260200191505060206040518083038186803b158015610c1157600080fd5b505afa158015610c25573d6000803e3d6000fd5b505050506040513d6020811015610c3b57600080fd5b50516040830181905260208301518351600092610c629291610c5c91611860565b906118c0565b610120840151909150610c759082611902565b61012084015260a0830151610c9b90610c8f908390611860565b61016085015190611902565b61016084015260c0830151610cc190610cb5908390611860565b61018085015190611902565b610180840152505b60e0820151610cd9908c9061195c565b15610da1578060040160009054906101000a90046001600160a01b03166001600160a01b03166370a082318e6040518263ffffffff1660e01b815260040180826001600160a01b0316815260200191505060206040518083038186803b158015610d4257600080fd5b505afa158015610d56573d6000803e3d6000fd5b505050506040513d6020811015610d6c57600080fd5b50516060830181905260208301518351610d9a92610d8e9291610c5c91611860565b61014084015190611902565b6101408301525b505b60e0810180516001019052610a91565b600081610120015111610dc7576000610ddc565b610120810151610160820151610ddc916118c0565b610160820152610120810151610df3576000610e08565b610120810151610180820151610e08916118c0565b6101808201819052610120820151610140830151610e25926119db565b610100820181905261012082015161014083015161016084015161018090940151919850965091945090925090505b965096509650965096915050565b60008160040160009054906101000a90046001600160a01b03166001600160a01b03166370a08231846040518263ffffffff1660e01b815260040180826001600160a01b0316815260200191505060206040518083038186803b158015610ec857600080fd5b505afa158015610edc573d6000803e3d6000fd5b505050506040513d6020811015610ef257600080fd5b505190505b92915050565b6000821580610f0a575081155b15610f1757506000610ef7565b816113881981610f2357fe5b0483111560405180604001604052806002815260200161068760f31b81525090610fcb5760405162461bcd60e51b81526004018080602001828103825283818151815260200191508051906020019080838360005b83811015610f90578181015183820152602001610f78565b50505050905090810190601f168015610fbd5780820380516001836020036101000a031916815260200191505b509250505060405180910390fd5b506127106002815b048385020181610fdf57fe5b049392505050565b6000805460015460408051636909579b60e01b815260048101929092525183928392839283926001600160a01b031691636909579b916024808301926020929190829003018186803b15801561103c57600080fd5b505afa158015611050573d6000803e3d6000fd5b505050506040513d602081101561106657600080fd5b505190506110726124b1565b816001600160a01b031663b3596f078b6040518263ffffffff1660e01b815260040180826001600160a01b0316815260200191505060206040518083038186803b1580156110bf57600080fd5b505afa1580156110d3573d6000803e3d6000fd5b505050506040513d60208110156110e957600080fd5b5051604080830191909152805163b3596f0760e01b81526001600160a01b038b8116600483015291519184169163b3596f0791602480820192602092909190829003018186803b15801561113c57600080fd5b505afa158015611150573d6000803e3d6000fd5b505050506040513d602081101561116657600080fd5b505160608201526111768c6117af565b5060c085015260208401525061118d90508b611a07565b60a0820181905260408201516111e0916111aa9190600a0a611860565b610c5c83602001516111da8560c00151600a0a6111d48e886060015161186090919063ffffffff16565b90611860565b90610efd565b6080820181905287101561124957869350611242816020015161123c61121a8460c00151600a0a856060015161186090919063ffffffff16565b610c5c8560a00151600a0a6111d48a886040015161186090919063ffffffff16565b90611a11565b9250611254565b806080015193508792505b50919a909950975050505050505050565b60008160040160009054906101000a90046001600160a01b03166001600160a01b031663b1bf962d6040518163ffffffff1660e01b815260040160206040518083038186803b1580156112b757600080fd5b505afa1580156112cb573d6000803e3d6000fd5b505050506040513d60208110156112e157600080fd5b5051600183015460038401549192506001600160801b03600160801b820481169291169064ffffffffff1660008061131c8787868887611b04565b9150915061132e878787858588611cb4565b50505050505050565b61133f6124ee565b60018601546004808801546040805163b1bf962d60e01b815290516113d094600160801b90046001600160801b0316936001600160a01b039093169263b1bf962d92808201926020929091829003018186803b15801561139e57600080fd5b505afa1580156113b2573d6000803e3d6000fd5b505050506040513d60208110156113c857600080fd5b505190611db6565b6060820181905260058701546001600160a01b0316906381c8c9729087908790879087906113fd8d611e67565b6040518763ffffffff1660e01b815260040180876001600160a01b03168152602001866001600160a01b031681526020018581526020018481526020018381526020018281526020019650505050505050604080518083038186803b15801561146557600080fd5b505afa158015611479573d6000803e3d6000fd5b505050506040513d604081101561148f57600080fd5b50805160209182015160408481019190915283830182905280518082019091526002815261353360f01b928101929092526001600160801b0310156115155760405162461bcd60e51b8152602060048201818152835160248401528351909283926044909101919085019080838360008315610f90578181015183820152602001610f78565b50604080820151815180830190925260028252610d4d60f21b60208301526001600160801b0310156115885760405162461bcd60e51b8152602060048201818152835160248401528351909283926044909101919085019080838360008315610f90578181015183820152602001610f78565b506020808201516002880180546040808601516001600160801b03818116600160801b9081028288166001600160801b03199096169590951782169490941790945560018c015482519586529585015284831684820152930416606082015290516001600160a01b038716917f4063a2df84b66bb796eb32622851d833e57b2c4292900c18f963af8808b13e35919081900360800190a2505050505050565b604080518082019091526002815261373760f01b60208201526080831061168f5760405162461bcd60e51b8152602060048201818152835160248401528351909283926044909101919085019080838360008315610f90578181015183820152602001610f78565b5081600202600101816116a35760006116a6565b60015b60ff16901b826002026001016001901b19846000015416178360000181905550505050565b604080516001600160a01b0380861660248301528416604482015260648082018490528251808303909101815260849091019091526020810180516001600160e01b03166323b872dd60e01b179052611725908590611e72565b50505050565b511590565b60006080821060405180604001604052806002815260200161373760f01b8152509061179d5760405162461bcd60e51b8152602060048201818152835160248401528351909283926044909101919085019080838360008315610f90578181015183820152602001610f78565b50509051600360029092021c16151590565b5461ffff80821692601083901c821692602081901c831692603082901c60ff169260409290921c1690565b60006080821060405180604001604052806002815260200161373760f01b815250906118475760405162461bcd60e51b8152602060048201818152835160248401528351909283926044909101919085019080838360008315610f90578181015183820152602001610f78565b5050815160016002830281019190911c16151592915050565b60008261186f57506000610ef7565b8282028284828161187c57fe5b04146118b95760405162461bcd60e51b81526004018080602001828103825260218152602001806125a26021913960400191505060405180910390fd5b9392505050565b60006118b983836040518060400160405280601a81526020017f536166654d6174683a206469766973696f6e206279207a65726f00000000000081525061202a565b6000828201838110156118b9576040805162461bcd60e51b815260206004820152601b60248201527f536166654d6174683a206164646974696f6e206f766572666c6f770000000000604482015290519081900360640190fd5b60006080821060405180604001604052806002815260200161373760f01b815250906119c95760405162461bcd60e51b8152602060048201818152835160248401528351909283926044909101919085019080838360008315610f90578181015183820152602001610f78565b50509051600160029092021c16151590565b6000826119eb57506000196118b9565b6119ff836119f98685610efd565b9061208f565b949350505050565b5460301c60ff1690565b604080518082019091526002815261035360f41b602082015260009082611a795760405162461bcd60e51b8152602060048201818152835160248401528351909283926044909101919085019080838360008315610f90578181015183820152602001610f78565b5060408051808201909152600280825261068760f31b6020830152830490612710821904851115611aeb5760405162461bcd60e51b8152602060048201818152835160248401528351909283926044909101919085019080838360008315610f90578181015183820152602001610f78565b50828161271086020181611afb57fe5b04949350505050565b600285015460009081906001600160801b031685858215611c8e576000611b2b8488612185565b9050611b37818a611db6565b604080518082019091526002815261353160f01b60208201529093506001600160801b03841115611ba95760405162461bcd60e51b8152602060048201818152835160248401528351909283926044909101919085019080838360008315610f90578181015183820152602001610f78565b5060018b0180546001600160801b0319166001600160801b0385161790558915611c8c5760028b0154600090611bef90600160801b90046001600160801b0316896121c3565b9050611bfb818a611db6565b6040805180820190915260028152611a9960f11b60208201529093506001600160801b03841115611c6d5760405162461bcd60e51b8152602060048201818152835160248401528351909283926044909101919085019080838360008315610f90578181015183820152602001610f78565b505060018b0180546001600160801b03808516600160801b0291161790555b505b600399909901805464ffffffffff19164264ffffffffff16179055989650505050505050565b611cbc612516565b611cc587611e67565b6101208201819052611cd75750611dae565b611ce18686611db6565b6080820152611cf08684611db6565b606082018190526080820151611d0691906121d0565b60e08201819052610120820151611d1d9190610efd565b61010082018190521561132e578660030160059054906101000a90046001600160a01b03166001600160a01b0316637df5bd3b826101000151866040518363ffffffff1660e01b81526004018083815260200182815260200192505050600060405180830381600087803b158015611d9457600080fd5b505af1158015611da8573d6000803e3d6000fd5b50505050505b505050505050565b6000821580611dc3575081155b15611dd057506000610ef7565b816b019d971e4fe8401e740000001981611de657fe5b0483111560405180604001604052806002815260200161068760f31b81525090611e515760405162461bcd60e51b8152602060048201818152835160248401528351909283926044909101919085019080838360008315610f90578181015183820152602001610f78565b506b033b2e3c9fd0803ce8000000600281610fd3565b5460401c61ffff1690565b611e84826001600160a01b0316612212565b611ed5576040805162461bcd60e51b815260206004820152601f60248201527f5361666542455032303a2063616c6c20746f206e6f6e2d636f6e747261637400604482015290519081900360640190fd5b60006060836001600160a01b0316836040518082805190602001908083835b60208310611f135780518252601f199092019160209182019101611ef4565b6001836020036101000a0380198251168184511680821785525050505050509050019150506000604051808303816000865af19150503d8060008114611f75576040519150601f19603f3d011682016040523d82523d6000602084013e611f7a565b606091505b509150915081611fd1576040805162461bcd60e51b815260206004820181905260248201527f5361666542455032303a206c6f772d6c6576656c2063616c6c206661696c6564604482015290519081900360640190fd5b80511561172557808060200190516020811015611fed57600080fd5b50516117255760405162461bcd60e51b815260040180806020018281038252602a815260200180612578602a913960400191505060405180910390fd5b600081836120795760405162461bcd60e51b8152602060048201818152835160248401528351909283926044909101919085019080838360008315610f90578181015183820152602001610f78565b50600083858161208557fe5b0495945050505050565b604080518082019091526002815261035360f41b6020820152600090826120f75760405162461bcd60e51b8152602060048201818152835160248401528351909283926044909101919085019080838360008315610f90578181015183820152602001610f78565b5060408051808201909152600280825261068760f31b6020830152830490670de0b6b3a764000082190485111561216f5760405162461bcd60e51b8152602060048201818152835160248401528351909283926044909101919085019080838360008315610f90578181015183820152602001610f78565b508281670de0b6b3a764000086020181611afb57fe5b6000806121994264ffffffffff85166121d0565b90506119ff6121a661224b565b6301e133806121b58785611860565b816121bc57fe5b0490611902565b60006118b983834261225b565b60006118b983836040518060400160405280601e81526020017f536166654d6174683a207375627472616374696f6e206f766572666c6f770000815250612331565b6000813f7fc5d2460186f7233c927e7db2dcc703c0e500b653ca82273b7bfad8045d85a4708181148015906119ff575050151592915050565b6b033b2e3c9fd0803ce800000090565b60008061226f8364ffffffffff86166121d0565b9050806122865761227e61224b565b9150506118b9565b600019810160006002831161229c5760006122a1565b600283035b90506301e13380870460006122b68280611db6565b905060006122c48284611db6565b9050600060026122d8846111d48a8a611860565b816122df57fe5b049050600060066122f6846111d489818d8d611860565b816122fd57fe5b0490506123218161231b84816123138a8e611860565b61231b61224b565b90611902565b9c9b505050505050505050505050565b600081848411156123835760405162461bcd60e51b8152602060048201818152835160248401528351909283926044909101919085019080838360008315610f90578181015183820152602001610f78565b505050900390565b604051806101e001604052806000815260200160008152602001600081526020016000815260200160008152602001600081526020016000815260200160008152602001600081526020016000815260200160006001600160a01b031681526020016000151581526020016000600181111561240357fe5b815260200160008152602001606081525090565b604051806102400160405280600081526020016000815260200160008152602001600081526020016000815260200160008152602001600081526020016000815260200160008152602001600081526020016000815260200160008152602001600081526020016000815260200160001515815260200160006001600160a01b031681526020016000151581526020016000151581525090565b6040518060e00160405280600081526020016000815260200160008152602001600081526020016000815260200160008152602001600081525090565b6040518060800160405280600081526020016000815260200160008152602001600081525090565b60405180610160016040528060008152602001600081526020016000815260200160008152602001600081526020016000815260200160008152602001600081526020016000815260200160008152602001600064ffffffffff168152509056fe5361666542455032303a204245503230206f7065726174696f6e20646964206e6f742073756363656564536166654d6174683a206d756c7469706c69636174696f6e206f766572666c6f77a264697066735822122091b72d9498fcd0266d009c5d543c17e24057441d8c73282721cbb9ba43f37e9a64736f6c634300060c0033",
  "linkReferences": {
    "contracts/protocol/libraries/logic/ValidationLogic.sol": {
      "ValidationLogic": [
        {
          "length": 20,
          "start": 597
        }
      ]
    }
  },
  "deployedLinkReferences": {
    "contracts/protocol/libraries/logic/ValidationLogic.sol": {
      "ValidationLogic": [
        {
          "length": 20,
          "start": 565
        }
      ]
    }
  }
}