{
  "_format": "hh-sol-artifact-1",
  "contractName": "LendingPool",
  "sourceName": "contracts/protocol/lendingpool/LendingPool.sol",
  "abi": [
    {
      "anonymous": false,
      "inputs": [
        {
          "indexed": true,
          "internalType": "address",
          "name": "reserve",
          "type": "address"
        },
        {
          "indexed": false,
          "internalType": "address",
          "name": "user",
          "type": "address"
        },
        {
          "indexed": true,
          "internalType": "address",
          "name": "onBehalfOf",
          "type": "address"
        },
        {
          "indexed": false,
          "internalType": "uint256",
          "name": "amount",
          "type": "uint256"
        },
        {
          "indexed": false,
          "internalType": "uint256",
          "name": "borrowRate",
          "type": "uint256"
        },
        {
          "indexed": true,
          "internalType": "uint16",
          "name": "referral",
          "type": "uint16"
        }
      ],
      "name": "Borrow",
      "type": "event"
    },
    {
      "anonymous": false,
      "inputs": [
        {
          "indexed": true,
          "internalType": "address",
          "name": "reserve",
          "type": "address"
        },
        {
          "indexed": false,
          "internalType": "address",
          "name": "user",
          "type": "address"
        },
        {
          "indexed": true,
          "internalType": "address",
          "name": "onBehalfOf",
          "type": "address"
        },
        {
          "indexed": false,
          "internalType": "uint256",
          "name": "amount",
          "type": "uint256"
        },
        {
          "indexed": true,
          "internalType": "uint16",
          "name": "referral",
          "type": "uint16"
        }
      ],
      "name": "Deposit",
      "type": "event"
    },
    {
      "anonymous": false,
      "inputs": [
        {
          "indexed": true,
          "internalType": "address",
          "name": "collateralAsset",
          "type": "address"
        },
        {
          "indexed": true,
          "internalType": "address",
          "name": "debtAsset",
          "type": "address"
        },
        {
          "indexed": true,
          "internalType": "address",
          "name": "user",
          "type": "address"
        },
        {
          "indexed": false,
          "internalType": "uint256",
          "name": "debtToCover",
          "type": "uint256"
        },
        {
          "indexed": false,
          "internalType": "uint256",
          "name": "liquidatedCollateralAmount",
          "type": "uint256"
        },
        {
          "indexed": false,
          "internalType": "address",
          "name": "liquidator",
          "type": "address"
        },
        {
          "indexed": false,
          "internalType": "bool",
          "name": "receiveTToken",
          "type": "bool"
        }
      ],
      "name": "LiquidationCall",
      "type": "event"
    },
    {
      "anonymous": false,
      "inputs": [],
      "name": "Paused",
      "type": "event"
    },
    {
      "anonymous": false,
      "inputs": [
        {
          "indexed": true,
          "internalType": "address",
          "name": "reserve",
          "type": "address"
        },
        {
          "indexed": true,
          "internalType": "address",
          "name": "user",
          "type": "address"
        },
        {
          "indexed": true,
          "internalType": "address",
          "name": "repayer",
          "type": "address"
        },
        {
          "indexed": false,
          "internalType": "uint256",
          "name": "amount",
          "type": "uint256"
        }
      ],
      "name": "Repay",
      "type": "event"
    },
    {
      "anonymous": false,
      "inputs": [
        {
          "indexed": true,
          "internalType": "address",
          "name": "reserve",
          "type": "address"
        },
        {
          "indexed": false,
          "internalType": "uint256",
          "name": "liquidityRate",
          "type": "uint256"
        },
        {
          "indexed": false,
          "internalType": "uint256",
          "name": "stableBorrowRate",
          "type": "uint256"
        },
        {
          "indexed": false,
          "internalType": "uint256",
          "name": "variableBorrowRate",
          "type": "uint256"
        },
        {
          "indexed": false,
          "internalType": "uint256",
          "name": "liquidityIndex",
          "type": "uint256"
        },
        {
          "indexed": false,
          "internalType": "uint256",
          "name": "variableBorrowIndex",
          "type": "uint256"
        }
      ],
      "name": "ReserveDataUpdated",
      "type": "event"
    },
    {
      "anonymous": false,
      "inputs": [
        {
          "indexed": true,
          "internalType": "address",
          "name": "reserve",
          "type": "address"
        },
        {
          "indexed": true,
          "internalType": "address",
          "name": "user",
          "type": "address"
        }
      ],
      "name": "ReserveUsedAsCollateralDisabled",
      "type": "event"
    },
    {
      "anonymous": false,
      "inputs": [
        {
          "indexed": true,
          "internalType": "address",
          "name": "reserve",
          "type": "address"
        },
        {
          "indexed": true,
          "internalType": "address",
          "name": "user",
          "type": "address"
        }
      ],
      "name": "ReserveUsedAsCollateralEnabled",
      "type": "event"
    },
    {
      "anonymous": false,
      "inputs": [
        {
          "indexed": true,
          "internalType": "address",
          "name": "asset",
          "type": "address"
        },
        {
          "indexed": false,
          "internalType": "uint256",
          "name": "indexedconfiguration",
          "type": "uint256"
        }
      ],
      "name": "SetConfiguration",
      "type": "event"
    },
    {
      "anonymous": false,
      "inputs": [],
      "name": "Unpaused",
      "type": "event"
    },
    {
      "anonymous": false,
      "inputs": [
        {
          "indexed": true,
          "internalType": "address",
          "name": "reserve",
          "type": "address"
        },
        {
          "indexed": true,
          "internalType": "address",
          "name": "user",
          "type": "address"
        },
        {
          "indexed": true,
          "internalType": "address",
          "name": "to",
          "type": "address"
        },
        {
          "indexed": false,
          "internalType": "uint256",
          "name": "amount",
          "type": "uint256"
        }
      ],
      "name": "Withdraw",
      "type": "event"
    },
    {
      "inputs": [],
      "name": "LENDINGPOOL_REVISION",
      "outputs": [
        {
          "internalType": "uint256",
          "name": "",
          "type": "uint256"
        }
      ],
      "stateMutability": "view",
      "type": "function"
    },
    {
      "inputs": [
        {
          "internalType": "address",
          "name": "asset",
          "type": "address"
        },
        {
          "internalType": "uint256",
          "name": "amount",
          "type": "uint256"
        },
        {
          "internalType": "uint16",
          "name": "referralCode",
          "type": "uint16"
        },
        {
          "internalType": "address",
          "name": "onBehalfOf",
          "type": "address"
        }
      ],
      "name": "borrow",
      "outputs": [],
      "stateMutability": "nonpayable",
      "type": "function"
    },
    {
      "inputs": [
        {
          "internalType": "address",
          "name": "asset",
          "type": "address"
        },
        {
          "internalType": "uint256",
          "name": "amount",
          "type": "uint256"
        },
        {
          "internalType": "address",
          "name": "onBehalfOf",
          "type": "address"
        },
        {
          "internalType": "uint16",
          "name": "referralCode",
          "type": "uint16"
        }
      ],
      "name": "deposit",
      "outputs": [],
      "stateMutability": "nonpayable",
      "type": "function"
    },
    {
      "inputs": [
        {
          "internalType": "address",
          "name": "asset",
          "type": "address"
        },
        {
          "internalType": "address",
          "name": "from",
          "type": "address"
        },
        {
          "internalType": "address",
          "name": "to",
          "type": "address"
        },
        {
          "internalType": "uint256",
          "name": "amount",
          "type": "uint256"
        },
        {
          "internalType": "uint256",
          "name": "balanceFromBefore",
          "type": "uint256"
        },
        {
          "internalType": "uint256",
          "name": "balanceToBefore",
          "type": "uint256"
        }
      ],
      "name": "finalizeTransfer",
      "outputs": [],
      "stateMutability": "nonpayable",
      "type": "function"
    },
    {
      "inputs": [],
      "name": "getAddressesProvider",
      "outputs": [
        {
          "internalType": "contract IAddressesProviderFactory",
          "name": "",
          "type": "address"
        }
      ],
      "stateMutability": "view",
      "type": "function"
    },
    {
      "inputs": [
        {
          "internalType": "address",
          "name": "asset",
          "type": "address"
        }
      ],
      "name": "getConfiguration",
      "outputs": [
        {
          "components": [
            {
              "internalType": "uint256",
              "name": "data",
              "type": "uint256"
            }
          ],
          "internalType": "struct DataTypes.ReserveConfigurationMap",
          "name": "",
          "type": "tuple"
        }
      ],
      "stateMutability": "view",
      "type": "function"
    },
    {
      "inputs": [
        {
          "internalType": "address",
          "name": "asset",
          "type": "address"
        }
      ],
      "name": "getReserveData",
      "outputs": [
        {
          "components": [
            {
              "components": [
                {
                  "internalType": "uint256",
                  "name": "data",
                  "type": "uint256"
                }
              ],
              "internalType": "struct DataTypes.ReserveConfigurationMap",
              "name": "configuration",
              "type": "tuple"
            },
            {
              "internalType": "uint128",
              "name": "liquidityIndex",
              "type": "uint128"
            },
            {
              "internalType": "uint128",
              "name": "variableBorrowIndex",
              "type": "uint128"
            },
            {
              "internalType": "uint128",
              "name": "currentLiquidityRate",
              "type": "uint128"
            },
            {
              "internalType": "uint128",
              "name": "currentVariableBorrowRate",
              "type": "uint128"
            },
            {
              "internalType": "uint40",
              "name": "lastUpdateTimestamp",
              "type": "uint40"
            },
            {
              "internalType": "address",
              "name": "tTokenAddress",
              "type": "address"
            },
            {
              "internalType": "address",
              "name": "variableDebtTokenAddress",
              "type": "address"
            },
            {
              "internalType": "address",
              "name": "interestRateStrategyAddress",
              "type": "address"
            },
            {
              "internalType": "uint8",
              "name": "id",
              "type": "uint8"
            }
          ],
          "internalType": "struct DataTypes.ReserveData",
          "name": "",
          "type": "tuple"
        }
      ],
      "stateMutability": "view",
      "type": "function"
    },
    {
      "inputs": [
        {
          "internalType": "address",
          "name": "asset",
          "type": "address"
        }
      ],
      "name": "getReserveNormalizedIncome",
      "outputs": [
        {
          "internalType": "uint256",
          "name": "",
          "type": "uint256"
        }
      ],
      "stateMutability": "view",
      "type": "function"
    },
    {
      "inputs": [
        {
          "internalType": "address",
          "name": "asset",
          "type": "address"
        }
      ],
      "name": "getReserveNormalizedVariableDebt",
      "outputs": [
        {
          "internalType": "uint256",
          "name": "",
          "type": "uint256"
        }
      ],
      "stateMutability": "view",
      "type": "function"
    },
    {
      "inputs": [],
      "name": "getReservesList",
      "outputs": [
        {
          "internalType": "address[]",
          "name": "",
          "type": "address[]"
        }
      ],
      "stateMutability": "view",
      "type": "function"
    },
    {
      "inputs": [
        {
          "internalType": "address",
          "name": "user",
          "type": "address"
        }
      ],
      "name": "getUserAccountData",
      "outputs": [
        {
          "internalType": "uint256",
          "name": "totalCollateralUSD",
          "type": "uint256"
        },
        {
          "internalType": "uint256",
          "name": "totalDebtUSD",
          "type": "uint256"
        },
        {
          "internalType": "uint256",
          "name": "availableBorrowsUSD",
          "type": "uint256"
        },
        {
          "internalType": "uint256",
          "name": "currentLiquidationThreshold",
          "type": "uint256"
        },
        {
          "internalType": "uint256",
          "name": "ltv",
          "type": "uint256"
        },
        {
          "internalType": "uint256",
          "name": "healthFactor",
          "type": "uint256"
        }
      ],
      "stateMutability": "view",
      "type": "function"
    },
    {
      "inputs": [
        {
          "internalType": "address",
          "name": "user",
          "type": "address"
        }
      ],
      "name": "getUserConfiguration",
      "outputs": [
        {
          "components": [
            {
              "internalType": "uint256",
              "name": "data",
              "type": "uint256"
            }
          ],
          "internalType": "struct DataTypes.UserConfigurationMap",
          "name": "",
          "type": "tuple"
        }
      ],
      "stateMutability": "view",
      "type": "function"
    },
    {
      "inputs": [
        {
          "internalType": "contract IBEP20",
          "name": "asset",
          "type": "address"
        },
        {
          "internalType": "address",
          "name": "tTokenAddress",
          "type": "address"
        },
        {
          "internalType": "address",
          "name": "variableDebtTokenAddress",
          "type": "address"
        },
        {
          "internalType": "address",
          "name": "reserveInterestRateStrategyAddress",
          "type": "address"
        }
      ],
      "name": "initReserve",
      "outputs": [],
      "stateMutability": "nonpayable",
      "type": "function"
    },
    {
      "inputs": [
        {
          "internalType": "contract IAddressesProviderFactory",
          "name": "provider",
          "type": "address"
        },
        {
          "internalType": "uint256",
          "name": "providerId",
          "type": "uint256"
        }
      ],
      "name": "initialize",
      "outputs": [],
      "stateMutability": "nonpayable",
      "type": "function"
    },
    {
      "inputs": [],
      "name": "isActiveCreditScore",
      "outputs": [
        {
          "internalType": "bool",
          "name": "",
          "type": "bool"
        }
      ],
      "stateMutability": "view",
      "type": "function"
    },
    {
      "inputs": [
        {
          "internalType": "address",
          "name": "collateralAsset",
          "type": "address"
        },
        {
          "internalType": "address",
          "name": "debtAsset",
          "type": "address"
        },
        {
          "internalType": "address",
          "name": "user",
          "type": "address"
        },
        {
          "internalType": "uint256",
          "name": "debtToCover",
          "type": "uint256"
        },
        {
          "internalType": "bool",
          "name": "receiveTToken",
          "type": "bool"
        }
      ],
      "name": "liquidationCall",
      "outputs": [],
      "stateMutability": "nonpayable",
      "type": "function"
    },
    {
      "inputs": [],
      "name": "paused",
      "outputs": [
        {
          "internalType": "bool",
          "name": "",
          "type": "bool"
        }
      ],
      "stateMutability": "view",
      "type": "function"
    },
    {
      "inputs": [
        {
          "internalType": "address",
          "name": "asset",
          "type": "address"
        },
        {
          "internalType": "uint256",
          "name": "amount",
          "type": "uint256"
        },
        {
          "internalType": "address",
          "name": "onBehalfOf",
          "type": "address"
        }
      ],
      "name": "repay",
      "outputs": [
        {
          "internalType": "uint256",
          "name": "",
          "type": "uint256"
        }
      ],
      "stateMutability": "nonpayable",
      "type": "function"
    },
    {
      "inputs": [
        {
          "internalType": "bool",
          "name": "val",
          "type": "bool"
        }
      ],
      "name": "setActiveCreditScore",
      "outputs": [],
      "stateMutability": "nonpayable",
      "type": "function"
    },
    {
      "inputs": [
        {
          "internalType": "address",
          "name": "asset",
          "type": "address"
        },
        {
          "internalType": "uint256",
          "name": "configuration",
          "type": "uint256"
        }
      ],
      "name": "setConfiguration",
      "outputs": [],
      "stateMutability": "nonpayable",
      "type": "function"
    },
    {
      "inputs": [
        {
          "internalType": "bool",
          "name": "val",
          "type": "bool"
        }
      ],
      "name": "setPause",
      "outputs": [],
      "stateMutability": "nonpayable",
      "type": "function"
    },
    {
      "inputs": [
        {
          "internalType": "address",
          "name": "asset",
          "type": "address"
        },
        {
          "internalType": "address",
          "name": "rateStrategyAddress",
          "type": "address"
        }
      ],
      "name": "setReserveInterestRateStrategyAddress",
      "outputs": [],
      "stateMutability": "nonpayable",
      "type": "function"
    },
    {
      "inputs": [
        {
          "internalType": "address",
          "name": "asset",
          "type": "address"
        },
        {
          "internalType": "bool",
          "name": "useAsCollateral",
          "type": "bool"
        }
      ],
      "name": "setUserUseReserveAsCollateral",
      "outputs": [],
      "stateMutability": "nonpayable",
      "type": "function"
    },
    {
      "inputs": [
        {
          "internalType": "address",
          "name": "asset",
          "type": "address"
        },
        {
          "internalType": "uint256",
          "name": "amount",
          "type": "uint256"
        },
        {
          "internalType": "address",
          "name": "to",
          "type": "address"
        }
      ],
      "name": "withdraw",
      "outputs": [
        {
          "internalType": "uint256",
          "name": "",
          "type": "uint256"
        }
      ],
      "stateMutability": "nonpayable",
      "type": "function"
    }
  ],
  "bytecode": "0x60806040526000805534801561001457600080fd5b506140b6806100246000396000f3fe608060405234801561001057600080fd5b50600436106101575760003560e01c80638afaff02116100c3578063cd6dc6871161007c578063cd6dc687146102e2578063d15e0053146102f5578063d1946dbc14610308578063d5ed39331461031d578063e8eda9df14610330578063fe65acfe1461034357610157565b80638afaff02146102695780638bd2567714610271578063b8d2927614610284578063bedb86fb14610297578063bf92857c146102aa578063c44b11f7146102cf57610157565b80634417a583116101155780634417a583146101f35780635a3b74b9146102135780635c975abb146102265780635ceae9c41461023b57806369328dec1461024e5780636cf5a6941461026157610157565b8062a718a91461015c5780630e5b17d0146101715780631d2118f9146101845780631d5d72371461019757806335ea6a75146101aa578063386497fd146101d3575b600080fd5b61016f61016a366004613695565b610358565b005b61016f61017f36600461389b565b610534565b61016f61019236600461365d565b61054f565b61016f6101a536600461384a565b610588565b6101bd6101b8366004613625565b610606565b6040516101ca9190613e6d565b60405180910390f35b6101e66101e1366004613625565b6106d3565b6040516101ca9190613fd9565b610206610201366004613625565b6106fa565b6040516101ca9190613e63565b61016f610221366004613760565b61072d565b61022e610980565b6040516101ca9190613ca9565b6101e66102493660046137b8565b61098e565b6101e661025c3660046137b8565b610bf9565b61022e610f9c565b6101e6610fa5565b61016f61027f3660046138d3565b610faa565b61016f61029236600461378d565b611091565b61016f6102a536600461389b565b6110f0565b6102bd6102b8366004613625565b611176565b6040516101ca96959493929190614009565b6102066102dd366004613625565b6112e0565b61016f6102f036600461378d565b611313565b6101e6610303366004613625565b6113b7565b6103106113d8565b6040516101ca9190613c5c565b61016f61032b3660046136fc565b61147d565b61016f61033e3660046137f9565b6117a7565b61034b6119db565b6040516101ca9190613a42565b6103606119ea565b6034546035546040516365c4014960e11b81526000926001600160a01b03169163cb880292916103939190600401613fd9565b60206040518083038186803b1580156103ab57600080fd5b505afa1580156103bf573d6000803e3d6000fd5b505050506040513d601f19601f820116820180604052508101906103e39190613641565b905060006060826001600160a01b0316888888888860405160240161040c959493929190613aba565b60408051601f198184030181529181526020820180516001600160e01b031662a718a960e01b179052516104409190613a26565b600060405180830381855af49150503d806000811461047b576040519150601f19603f3d011682016040523d82523d6000602084013e610480565b606091505b50915091508160405180604001604052806002815260200161323360f01b815250906104c85760405162461bcd60e51b81526004016104bf9190613cb4565b60405180910390fd5b5060006060828060200190518101906104e1919061392b565b9150915081600014816040516020016104fa9190613a26565b604051602081830303815290604052906105275760405162461bcd60e51b81526004016104bf9190613cb4565b5050505050505050505050565b61053c611a2d565b603a805460ff1916911515919091179055565b610557611a2d565b6001600160a01b03918216600090815260366020526040902060050180546001600160a01b03191691909216179055565b6105906119ea565b6001600160a01b03808516600081815260366020908152604091829020825160e081018452938452339184019190915284841691830191909152606082018690526003810154600160281b9004909216608082015261ffff841660a0820152600160c08201526105ff90611af2565b5050505050565b61060e613474565b506001600160a01b0381811660009081526036602090815260409182902082516101608101845281546101408201908152815260018201546001600160801b0380821694830194909452600160801b9081900484169482019490945260028201548084166060830152939093049091166080830152600381015464ffffffffff811660a0840152600160281b9004831660c08301526004810154831660e083015260050154918216610100820152600160a01b90910460ff166101208201525b919050565b6001600160a01b03811660009081526036602052604081206106f490611f7f565b92915050565b6107026134cf565b506001600160a01b031660009081526037602090815260409182902082519182019092529054815290565b6107356119ea565b6001600160a01b0380831660009081526036602081815260408084203385526037909252928390206039546034546035549551636909579b60e01b8152939673__$de8c0cf1a7d7c36c802af9a64fb9d86036$__966352be162e9689968c968c9692959094603894911691636909579b916107b291600401613fd9565b60206040518083038186803b1580156107ca57600080fd5b505afa1580156107de573d6000803e3d6000fd5b505050506040513d601f19601f820116820180604052508101906108029190613641565b603460009054906101000a90046001600160a01b03166001600160a01b03166385e468566040518163ffffffff1660e01b815260040160206040518083038186803b15801561085057600080fd5b505afa158015610864573d6000803e3d6000fd5b505050506040513d601f19601f820116820180604052508101906108889190613641565b6040518a63ffffffff1660e01b81526004016108ac99989796959493929190613f36565b60006040518083038186803b1580156108c457600080fd5b505af41580156108d8573d6000803e3d6000fd5b50505050600581015433600090815260376020526040902061090491600160a01b900460ff1684611ff5565b81156109445760405133906001600160a01b038516907e058a56ea94653cdf4f152d227ace22d4c00ad99e2a43f58cb7d9e3feb295f290600090a361097b565b60405133906001600160a01b038516907f44c58d81365b66dd4b1a7f36c25aa97b8c71c361ee4937adc1a00000227db5dd90600090a35b505050565b603a54610100900460ff1690565b60006109986119ea565b6001600160a01b0384166000908152603660205260408120906109bb848361206b565b604051630274777960e41b815290915073__$de8c0cf1a7d7c36c802af9a64fb9d86036$__906327477790906109fb908590899089908790600401613fb5565b60006040518083038186803b158015610a1357600080fd5b505af4158015610a27573d6000803e3d6000fd5b50839250505080861015610a385750845b610a41836120ef565b6004838101546001850154604051637a94c56560e11b81526001600160a01b039092169263f5298aca92610a8b928a928792600160801b9092046001600160801b03169101613be4565b600060405180830381600087803b158015610aa557600080fd5b505af1158015610ab9573d6000803e3d6000fd5b505050506003830154600160281b90046001600160a01b0316610ae08489838560006121c4565b610aea838361242d565b610b225760058401546001600160a01b0387166000908152603760205260408120610b22929091600160a01b90910460ff169061246f565b610b376001600160a01b0389163383856124df565b6040516388dd91a160e01b81526001600160a01b038216906388dd91a190610b659033908690600401613a87565b600060405180830381600087803b158015610b7f57600080fd5b505af1158015610b93573d6000803e3d6000fd5b50505050336001600160a01b0316866001600160a01b0316896001600160a01b03167f4cdde6e09bb755c9a5589ebaec640bbfedff1362d4b255ebf8339782b9942faa85604051610be49190613fd9565b60405180910390a450925050505b9392505050565b6000610c036119ea565b6001600160a01b03808516600090815260366020526040808220600381015491516370a0823160e01b81529093600160281b909204909116919082906370a0823190610c53903390600401613a42565b60206040518083038186803b158015610c6b57600080fd5b505afa158015610c7f573d6000803e3d6000fd5b505050506040513d601f19601f82011682018060405250810190610ca39190613913565b905085600019811415610cb35750805b33600090815260376020526040908190206039546034546035549351636909579b60e01b815273__$de8c0cf1a7d7c36c802af9a64fb9d86036$__9463105a9f67948e9488948a94603694603893926001600160a01b031691636909579b91610d1e91600401613fd9565b60206040518083038186803b158015610d3657600080fd5b505afa158015610d4a573d6000803e3d6000fd5b505050506040513d601f19601f82011682018060405250810190610d6e9190613641565b603460009054906101000a90046001600160a01b03166001600160a01b03166385e468566040518163ffffffff1660e01b815260040160206040518083038186803b158015610dbc57600080fd5b505afa158015610dd0573d6000803e3d6000fd5b505050506040513d601f19601f82011682018060405250810190610df49190613641565b6040518a63ffffffff1660e01b8152600401610e1899989796959493929190613c0e565b60006040518083038186803b158015610e3057600080fd5b505af4158015610e44573d6000803e3d6000fd5b50505050610e51846120ef565b610e5f8489856000856121c4565b81811415610ec9576005840154336000908152603760205260408120610e92929091600160a01b90910460ff1690611ff5565b60405133906001600160a01b038a16907f44c58d81365b66dd4b1a7f36c25aa97b8c71c361ee4937adc1a00000227db5dd90600090a35b6001840154604051636b81068560e11b81526001600160a01b0385169163d7020d0a91610f0a9133918b9187916001600160801b0390911690600401613a56565b600060405180830381600087803b158015610f2457600080fd5b505af1158015610f38573d6000803e3d6000fd5b50505050856001600160a01b0316336001600160a01b0316896001600160a01b03167f3115d1449a7b732c986cba18244e897a450f61e1bb8d589cd2e69e6c8924f9f784604051610f899190613fd9565b60405180910390a4979650505050505050565b603a5460ff1690565b600181565b610fb2611a2d565b610fbb84612537565b6040518060400160405280600281526020016106e760f31b81525090610ff45760405162461bcd60e51b81526004016104bf9190613cb4565b506001600160a01b038416600090815260366020526040908190209051632312b4d560e01b815284918491849173__$22cd43a9dda9ce44e9b92ba393b88fb9ac$__91632312b4d59161104f91879087908790600401613f80565b60006040518083038186803b15801561106757600080fd5b505af415801561107b573d6000803e3d6000fd5b5050505061108887612570565b50505050505050565b611099611a2d565b6001600160a01b03821660008181526036602052604090819020839055517f1222e128e7da4ff76a18fe252c63be3dab8d682b196a8c23575f08b9ef4f3b91906110e4908490613fd9565b60405180910390a25050565b6110f8611a2d565b603a805461ff0019166101008315158102919091179182905560ff91041615611149576040517f9e87fac88ff661f02d44f95383c817fece4bce600a3dab7a54406878b965e75290600090a1611173565b6040517fa45f47fdea8a1efdd9029a5691c7f759c32b7c698632b563573e155625d1693390600090a15b50565b6001600160a01b038082166000908152603760209081526040808320815192830182525482526039546034546035549251636909579b60e01b81529495869586958695869586956112bd958d95603695946038949390921691636909579b916111e29190600401613fd9565b60206040518083038186803b1580156111fa57600080fd5b505afa15801561120e573d6000803e3d6000fd5b505050506040513d601f19601f820116820180604052508101906112329190613641565b603460009054906101000a90046001600160a01b03166001600160a01b03166385e468566040518163ffffffff1660e01b815260040160206040518083038186803b15801561128057600080fd5b505afa158015611294573d6000803e3d6000fd5b505050506040513d601f19601f820116820180604052508101906112b89190613641565b612679565b939950919750909450925090506112d5868684612b7d565b935091939550919395565b6112e86134cf565b506001600160a01b031660009081526036602090815260409182902082519182019092529054815290565b600061131d612bb1565b60015490915060ff16806113345750611334612bb6565b80611340575060005481115b61135c5760405162461bcd60e51b81526004016104bf90613da9565b60015460ff1615801561137b576001805460ff19168117905560008290555b603480546001600160a01b0319166001600160a01b03861617905560358390556080603b5580156113b1576001805460ff191690555b50505050565b6001600160a01b03811660009081526036602052604081206106f490612bbc565b60608060395467ffffffffffffffff811180156113f457600080fd5b5060405190808252806020026020018201604052801561141e578160200160208202803683370190505b50905060005b6039548110156114775760008181526038602052604090205482516001600160a01b039091169083908390811061145757fe5b6001600160a01b0390921660209283029190910190910152600101611424565b50905090565b6114856119ea565b6001600160a01b038087166000908152603660209081526040918290206003015482518084019093526002835261363360f01b91830191909152909133600160281b90920416146114e95760405162461bcd60e51b81526004016104bf9190613cb4565b506001600160a01b03808616600090815260376020526040908190206039546034546035549351636909579b60e01b815273__$de8c0cf1a7d7c36c802af9a64fb9d86036$__9563e1c7a0d8958c95603695909460389491931691636909579b916115579190600401613fd9565b60206040518083038186803b15801561156f57600080fd5b505afa158015611583573d6000803e3d6000fd5b505050506040513d601f19601f820116820180604052508101906115a79190613641565b603460009054906101000a90046001600160a01b03166001600160a01b03166385e468566040518163ffffffff1660e01b815260040160206040518083038186803b1580156115f557600080fd5b505afa158015611609573d6000803e3d6000fd5b505050506040513d601f19601f8201168201806040525081019061162d9190613641565b6040518863ffffffff1660e01b815260040161164f9796959493929190613b48565b60006040518083038186803b15801561166757600080fd5b505af415801561167b573d6000803e3d6000fd5b505050506001600160a01b03868116600090815260366020526040902060050154600160a01b900460ff169085811690871614611088576116bc838561242d565b611728576001600160a01b0386166000908152603760205260408120906116e69082908490611ff5565b866001600160a01b0316886001600160a01b03167f44c58d81365b66dd4b1a7f36c25aa97b8c71c361ee4937adc1a00000227db5dd60405160405180910390a3505b8115801561173557508315155b15611088576001600160a01b038516600090815260376020526040902061175e81836001611ff5565b856001600160a01b0316886001600160a01b03167e058a56ea94653cdf4f152d227ace22d4c00ad99e2a43f58cb7d9e3feb295f260405160405180910390a35050505050505050565b6117af6119ea565b6001600160a01b038416600090815260366020526040908190209051630eca322b60e01b815273__$de8c0cf1a7d7c36c802af9a64fb9d86036$__90630eca322b906118019084908890600401613fa7565b60006040518083038186803b15801561181957600080fd5b505af415801561182d573d6000803e3d6000fd5b505050506003810154600160281b90046001600160a01b031661184f826120ef565b61185d8287838860006121c4565b6118726001600160a01b0387163383886124df565b6001820154604051630ab714fb60e11b81526000916001600160a01b0384169163156e29f6916118b49189918b916001600160801b0390911690600401613be4565b602060405180830381600087803b1580156118ce57600080fd5b505af11580156118e2573d6000803e3d6000fd5b505050506040513d601f19601f8201168201806040525081019061190691906138b7565b905080156119805760058301546001600160a01b038616600090815260376020526040902061194091600160a01b900460ff166001611ff5565b846001600160a01b0316876001600160a01b03167e058a56ea94653cdf4f152d227ace22d4c00ad99e2a43f58cb7d9e3feb295f260405160405180910390a35b8361ffff16856001600160a01b0316886001600160a01b03167fde6857219544bb5b7746f48ed30be6386fefc61b2f864cacf559893bf50fd951338a6040516119ca929190613a87565b60405180910390a450505050505050565b6034546001600160a01b031690565b603a546040805180820190915260028152610d8d60f21b602082015290610100900460ff16156111735760405162461bcd60e51b81526004016104bf9190613cb4565b60345460355460405163e77ab6f760e01b815233926001600160a01b03169163e77ab6f791611a5f9190600401613fd9565b60206040518083038186803b158015611a7757600080fd5b505afa158015611a8b573d6000803e3d6000fd5b505050506040513d601f19601f82011682018060405250810190611aaf9190613641565b6001600160a01b03161460405180604001604052806002815260200161323760f01b815250906111735760405162461bcd60e51b81526004016104bf9190613cb4565b80516001600160a01b039081166000908152603660209081526040808320818601518516845260379092528083206034546035549251636909579b60e01b81529395919493911691636909579b91611b4d9190600401613fd9565b60206040518083038186803b158015611b6557600080fd5b505afa158015611b79573d6000803e3d6000fd5b505050506040513d601f19601f82011682018060405250810190611b9d9190613641565b90506000611c44611bad85612c14565b600a0a611c3e8760600151856001600160a01b031663b3596f078a600001516040518263ffffffff1660e01b8152600401611be89190613a42565b60206040518083038186803b158015611c0057600080fd5b505afa158015611c14573d6000803e3d6000fd5b505050506040513d601f19601f82011682018060405250810190611c389190613913565b90612c1e565b90612c58565b905073__$de8c0cf1a7d7c36c802af9a64fb9d86036$__63caf7d245866000015186886040015189606001518660368a60386039548c603460009054906101000a90046001600160a01b03166001600160a01b03166385e468566040518163ffffffff1660e01b815260040160206040518083038186803b158015611cc857600080fd5b505afa158015611cdc573d6000803e3d6000fd5b505050506040513d601f19601f82011682018060405250810190611d009190613641565b6040518c63ffffffff1660e01b8152600401611d269b9a99989796959493929190613b87565b60006040518083038186803b158015611d3e57600080fd5b505af4158015611d52573d6000803e3d6000fd5b50505050611d5f846120ef565b600484810154602087015160408089015160608a015160018a0154925163b3f1c93d60e01b81526000966001600160a01b039096169563b3f1c93d95611dbb9590949392600160801b9091046001600160801b03169101613a56565b602060405180830381600087803b158015611dd557600080fd5b505af1158015611de9573d6000803e3d6000fd5b505050506040513d601f19601f82011682018060405250810190611e0d91906138b7565b90508015611e31576005850154611e31908590600160a01b900460ff16600161246f565b611e608660000151876080015160008960c00151611e50576000611e56565b89606001515b89939291906121c4565b8560c0015115611ef85785608001516001600160a01b0316634efecaa5876020015188606001516040518363ffffffff1660e01b8152600401611ea4929190613a87565b602060405180830381600087803b158015611ebe57600080fd5b505af1158015611ed2573d6000803e3d6000fd5b505050506040513d601f19601f82011682018060405250810190611ef69190613913565b505b8560a0015161ffff1686604001516001600160a01b031687600001516001600160a01b03167f39884ffb02602a13fb58b50134a8735509d9c8f846d749abcb003939e159f73389602001518a606001518a60020160109054906101000a90046001600160801b0316604051611f6f93929190613be4565b60405180910390a4505050505050565b600381015460009064ffffffffff908116904216811415611fb65750506001810154600160801b90046001600160801b03166106ce565b60018301546002840154600091611fed916001600160801b03600160801b92839004811692611fe792041685612c9a565b90612ca7565b949350505050565b604080518082019091526002815261373760f01b60208201526080831061202f5760405162461bcd60e51b81526004016104bf9190613cb4565b508160020260010181612043576000612046565b60015b60ff16901b826002026001016001901b19846000015416178360000181905550505050565b6004808201546040516370a0823160e01b81526000926001600160a01b03909216916370a082319161209f91879101613a42565b60206040518083038186803b1580156120b757600080fd5b505afa1580156120cb573d6000803e3d6000fd5b505050506040513d601f19601f82011682018060405250810190610bf29190613913565b60008160040160009054906101000a90046001600160a01b03166001600160a01b031663b1bf962d6040518163ffffffff1660e01b815260040160206040518083038186803b15801561214157600080fd5b505afa158015612155573d6000803e3d6000fd5b505050506040513d601f19601f820116820180604052508101906121799190613913565b600183015460038401549192506001600160801b03600160801b820481169291169064ffffffffff166000806121b28787868887612d3a565b91509150611088878787858588612e8e565b6121cc6134e2565b60018601546004808801546040805163b1bf962d60e01b8152905161226394600160801b90046001600160801b0316936001600160a01b039093169263b1bf962d92808201926020929091829003018186803b15801561222b57600080fd5b505afa15801561223f573d6000803e3d6000fd5b505050506040513d601f19601f82011682018060405250810190611fe79190613913565b6060820181905260058701546001600160a01b0316906381c8c9729087908790879087906122908d612f78565b6040518763ffffffff1660e01b81526004016122b196959493929190613b12565b604080518083038186803b1580156122c857600080fd5b505afa1580156122dc573d6000803e3d6000fd5b505050506040513d601f19601f8201168201806040525081019061230091906139d2565b604080840191909152602080840183905281518083019092526002825261353360f01b90820152906001600160801b03101561234f5760405162461bcd60e51b81526004016104bf9190613cb4565b50604080820151815180830190925260028252610d4d60f21b60208301526001600160801b0310156123945760405162461bcd60e51b81526004016104bf9190613cb4565b5060208101516002870180546040808501516001600160801b03818116600160801b9081028288166001600160801b03199096169590951782169490941790945560018b015491516001600160a01b038b16957f4063a2df84b66bb796eb32622851d833e57b2c4292900c18f963af8808b13e359561241d959194808216939290041690613fe2565b60405180910390a2505050505050565b6000610bf283836040518060400160405280601e81526020017f536166654d6174683a207375627472616374696f6e206f766572666c6f770000815250612f83565b604080518082019091526002815261373760f01b6020820152608083106124a95760405162461bcd60e51b81526004016104bf9190613cb4565b5081600202816124ba5760006124bd565b60015b60ff16901b826002026001901b19846000015416178360000181905550505050565b6113b1846323b872dd60e01b85858560405160240161250093929190613aee565b60408051601f198184030181529190526020810180516001600160e01b03166001600160e01b031990931692909217909152612faf565b6000813f7fc5d2460186f7233c927e7db2dcc703c0e500b653ca82273b7bfad8045d85a470818114801590611fed575050151592915050565b603954603b54604080518082019091526002815261363560f01b60208201529082106125af5760405162461bcd60e51b81526004016104bf9190613cb4565b506001600160a01b038216600090815260366020526040812060050154600160a01b900460ff1615158061261857506000805260386020527fe14cf4d84b2ff434db2c3d715ad03acb36d95ed6f766d46660154cee72012d71546001600160a01b038481169116145b90508061097b57506001600160a01b03919091166000818152603660209081526040808320600501805460ff60a01b1916600160a01b60ff8816021790558483526038909152902080546001600160a01b0319169091179055600101603955565b600080600080600061268961350a565b6126928b613094565b156126b0576000806000806000199550955095509550955050612b6e565b600060e08201525b888160e001511015612acd5760e08101516126d4908c90613099565b6126dd57612abd565b8960008260e00151815260200190815260200160002060009054906101000a90046001600160a01b0316816101e001906001600160a01b031690816001600160a01b031681525050866001600160a01b03166362fdc21a8e836101e001516040518363ffffffff1660e01b8152600401612758929190613aa0565b604080518083038186803b15801561276f57600080fd5b505afa158015612783573d6000803e3d6000fd5b505050506040513d601f19601f820116820180604052508101906127a791906139d2565b6102608301526102408201526101e08101516001600160a01b0316600090815260208d9052604090206127d9816130ea565b506080860181905260c08601929092525060a0840191909152600a0a60208301526101e082015160405163b3596f0760e01b81526001600160a01b038b169163b3596f079161282b9190600401613a42565b60206040518083038186803b15801561284357600080fd5b505afa158015612857573d6000803e3d6000fd5b505050506040513d601f19601f8201168201806040525081019061287b9190613913565b825260c08201511580159061289b575060e082015161289b908d90613115565b156129e0578060030160059054906101000a90046001600160a01b03166001600160a01b03166370a082318f6040518263ffffffff1660e01b81526004016128e39190613a42565b60206040518083038186803b1580156128fb57600080fd5b505afa15801561290f573d6000803e3d6000fd5b505050506040513d601f19601f820116820180604052508101906129339190613913565b60408301819052602083015183516000926129529291611c3e91612c1e565b610120840151909150612965908261316d565b61012084015261024083015160a08401516129a2916129969161298f9161271091611c3e91612c1e565b8390612c1e565b6101608501519061316d565b61016084015261026083015160c08401516129d8916129cc9161298f9161271091611c3e91612c1e565b6101808501519061316d565b610180840152505b60e08201516129f0908d90613192565b15612abb578060040160009054906101000a90046001600160a01b03166001600160a01b03166370a082318f6040518263ffffffff1660e01b8152600401612a389190613a42565b60206040518083038186803b158015612a5057600080fd5b505afa158015612a64573d6000803e3d6000fd5b505050506040513d601f19601f82011682018060405250810190612a889190613913565b6060830181905260208301518351612ab492612aa89291611c3e91612c1e565b6101408401519061316d565b6101408301525b505b60e08101805160010190526126b8565b600081610120015111612ae1576000612af6565b610120810151610160820151612af691612c58565b610160820152610120810151612b0d576000612b22565b610120810151610180820151612b2291612c58565b6101808201819052610120820151610140830151612b3f926131e3565b610100820181905261012082015161014083015161016084015161018090940151919850965091945090925090505b97509750975097509792505050565b600080612b8a8584613207565b905083811015612b9e576000915050610bf2565b612ba8818561242d565b95945050505050565b600190565b303b1590565b600381015460009064ffffffffff908116904216811415612bec57505060018101546001600160801b03166106ce565b60018301546002840154600091611fed916001600160801b0391821691611fe7911685613276565b5460301c60ff1690565b600082612c2d575060006106f4565b82820282848281612c3a57fe5b0414610bf25760405162461bcd60e51b81526004016104bf90613d68565b6000610bf283836040518060400160405280601a81526020017f536166654d6174683a206469766973696f6e206279207a65726f0000000000008152506132b4565b6000610bf28383426132eb565b6000821580612cb4575081155b15612cc1575060006106f4565b816b019d971e4fe8401e740000001981612cd757fe5b0483111560405180604001604052806002815260200161068760f31b81525090612d145760405162461bcd60e51b81526004016104bf9190613cb4565b506b033b2e3c9fd0803ce80000006002815b048385020181612d3257fe5b049392505050565b600285015460009081906001600160801b031685858215612e68576000612d618488613276565b9050612d6d818a612ca7565b604080518082019091526002815261353160f01b60208201529093506001600160801b03841115612db15760405162461bcd60e51b81526004016104bf9190613cb4565b5060018b0180546001600160801b0319166001600160801b0385161790558915612e665760028b0154600090612df790600160801b90046001600160801b031689612c9a565b9050612e03818a612ca7565b6040805180820190915260028152611a9960f11b60208201529093506001600160801b03841115612e475760405162461bcd60e51b81526004016104bf9190613cb4565b505060018b0180546001600160801b03808516600160801b0291161790555b505b600399909901805464ffffffffff19164264ffffffffff16179055989650505050505050565b612e966135b2565b612e9f87612f78565b6101208201819052612eb15750612f70565b612ebb8686612ca7565b6080820152612eca8684612ca7565b606082018190526080820151612ee0919061242d565b60e08201819052610120820151612ef79190613207565b610100820181905215611088576003870154610100820151604051637df5bd3b60e01b8152600160281b9092046001600160a01b031691637df5bd3b91612f42918890600401613fa7565b600060405180830381600087803b158015612f5c57600080fd5b505af1158015610527573d6000803e3d6000fd5b505050505050565b5460401c61ffff1690565b60008184841115612fa75760405162461bcd60e51b81526004016104bf9190613cb4565b505050900390565b612fc1826001600160a01b0316612537565b612fdd5760405162461bcd60e51b81526004016104bf90613e2c565b60006060836001600160a01b031683604051612ff99190613a26565b6000604051808303816000865af19150503d8060008114613036576040519150601f19603f3d011682016040523d82523d6000602084013e61303b565b606091505b50915091508161305d5760405162461bcd60e51b81526004016104bf90613df7565b8051156113b1578080602001905181019061307891906138b7565b6113b15760405162461bcd60e51b81526004016104bf90613ce7565b511590565b60006080821060405180604001604052806002815260200161373760f01b815250906130d85760405162461bcd60e51b81526004016104bf9190613cb4565b50509051600360029092021c16151590565b5461ffff80821692601083901c821692602081901c831692603082901c60ff169260409290921c1690565b60006080821060405180604001604052806002815260200161373760f01b815250906131545760405162461bcd60e51b81526004016104bf9190613cb4565b5050815160016002830281019190911c16151592915050565b600082820183811015610bf25760405162461bcd60e51b81526004016104bf90613d31565b60006080821060405180604001604052806002815260200161373760f01b815250906131d15760405162461bcd60e51b81526004016104bf9190613cb4565b50509051600160029092021c16151590565b6000826131f35750600019610bf2565b611fed836132018685613207565b906133c1565b6000821580613214575081155b15613221575060006106f4565b81611388198161322d57fe5b0483111560405180604001604052806002815260200161068760f31b8152509061326a5760405162461bcd60e51b81526004016104bf9190613cb4565b50612710600281612d26565b60008061328a4264ffffffffff851661242d565b9050611fed613297613464565b6301e133806132a68785612c1e565b816132ad57fe5b049061316d565b600081836132d55760405162461bcd60e51b81526004016104bf9190613cb4565b5060008385816132e157fe5b0495945050505050565b6000806132ff8364ffffffffff861661242d565b9050806133165761330e613464565b915050610bf2565b600019810160006002831161332c576000613331565b600283035b90506301e13380870460006133468280612ca7565b905060006133548284612ca7565b90506000600261336884611c388a8a612c1e565b8161336f57fe5b0490506000600661338684611c3889818d8d612c1e565b8161338d57fe5b0490506133b1816133ab84816133a38a8e612c1e565b6133ab613464565b9061316d565b9c9b505050505050505050505050565b604080518082019091526002815261035360f41b6020820152600090826133fb5760405162461bcd60e51b81526004016104bf9190613cb4565b5060408051808201909152600280825261068760f31b6020830152830490670de0b6b3a76400008219048511156134455760405162461bcd60e51b81526004016104bf9190613cb4565b508281670de0b6b3a76400008602018161345b57fe5b04949350505050565b6b033b2e3c9fd0803ce800000090565b6040518061014001604052806134886134cf565b815260006020820181905260408201819052606082018190526080820181905260a0820181905260c0820181905260e0820181905261010082018190526101209091015290565b6040518060200160405280600081525090565b6040518060800160405280600081526020016000815260200160008152602001600081525090565b604051806102800160405280600081526020016000815260200160008152602001600081526020016000815260200160008152602001600081526020016000815260200160008152602001600081526020016000815260200160008152602001600081526020016000815260200160001515815260200160006001600160a01b0316815260200160001515815260200160001515815260200160008152602001600081525090565b60405180610160016040528060008152602001600081526020016000815260200160008152602001600081526020016000815260200160008152602001600081526020016000815260200160008152602001600064ffffffffff1681525090565b803561ffff811681146106f457600080fd5b600060208284031215613636578081fd5b8135610bf28161405d565b600060208284031215613652578081fd5b8151610bf28161405d565b6000806040838503121561366f578081fd5b823561367a8161405d565b9150602083013561368a8161405d565b809150509250929050565b600080600080600060a086880312156136ac578081fd5b85356136b78161405d565b945060208601356136c78161405d565b935060408601356136d78161405d565b92506060860135915060808601356136ee81614072565b809150509295509295909350565b60008060008060008060c08789031215613714578081fd5b863561371f8161405d565b9550602087013561372f8161405d565b9450604087013561373f8161405d565b959894975094956060810135955060808101359460a0909101359350915050565b60008060408385031215613772578182fd5b823561377d8161405d565b9150602083013561368a81614072565b6000806040838503121561379f578182fd5b82356137aa8161405d565b946020939093013593505050565b6000806000606084860312156137cc578283fd5b83356137d78161405d565b92506020840135915060408401356137ee8161405d565b809150509250925092565b6000806000806080858703121561380e578384fd5b84356138198161405d565b93506020850135925060408501356138308161405d565b915061383f8660608701613613565b905092959194509250565b6000806000806080858703121561385f578384fd5b843561386a8161405d565b9350602085013592506138808660408701613613565b915060608501356138908161405d565b939692955090935050565b6000602082840312156138ac578081fd5b8135610bf281614072565b6000602082840312156138c8578081fd5b8151610bf281614072565b600080600080608085870312156138e8578182fd5b84356138f38161405d565b935060208501356139038161405d565b925060408501356138808161405d565b600060208284031215613924578081fd5b5051919050565b6000806040838503121561393d578182fd5b82519150602083015167ffffffffffffffff8082111561395b578283fd5b818501915085601f83011261396e578283fd5b81518181111561397c578384fd5b604051601f8201601f19168101602001838111828210171561399c578586fd5b6040528181528382016020018810156139b3578485fd5b6139c4826020830160208701614031565b809450505050509250929050565b600080604083850312156139e4578182fd5b505080516020909101519092909150565b6001600160a01b03169052565b519052565b6001600160801b03169052565b64ffffffffff169052565b60ff169052565b60008251613a38818460208701614031565b9190910192915050565b6001600160a01b0391909116815260200190565b6001600160a01b03948516815292909316602083015260408201526001600160801b03909116606082015260800190565b6001600160a01b03929092168252602082015260400190565b6001600160a01b0392831681529116602082015260400190565b6001600160a01b03958616815293851660208501529190931660408301526060820192909252901515608082015260a00190565b6001600160a01b039384168152919092166020820152604081019190915260600190565b6001600160a01b03968716815294909516602085015260408401929092526060830152608082015260a081019190915260c00190565b6001600160a01b0397881681526020810196909652604086019490945260608501929092526080840152831660a083015290911660c082015260e00190565b6001600160a01b039b8c168152602081019a909a52978a1660408a01526060890196909652608088019490945260a087019290925260c086015260e085015261010084015283166101208301529091166101408201526101600190565b6001600160a01b0393909316835260208301919091526001600160801b0316604082015260600190565b6001600160a01b03998a168152602081019890985260408801969096526060870194909452608086019290925260a085015260c0840152831660e08301529091166101008201526101200190565b6020808252825182820181905260009190848201906040850190845b81811015613c9d5783516001600160a01b031683529284019291840191600101613c78565b50909695505050505050565b901515815260200190565b6000602082528251806020840152613cd3816040850160208701614031565b601f01601f19169190910160400192915050565b6020808252602a908201527f5361666542455032303a204245503230206f7065726174696f6e20646964206e6040820152691bdd081cdd58d8d9595960b21b606082015260800190565b6020808252601b908201527f536166654d6174683a206164646974696f6e206f766572666c6f770000000000604082015260600190565b60208082526021908201527f536166654d6174683a206d756c7469706c69636174696f6e206f766572666c6f6040820152607760f81b606082015260800190565b6020808252602e908201527f436f6e747261637420696e7374616e63652068617320616c726561647920626560408201526d195b881a5b9a5d1a585b1a5e995960921b606082015260800190565b6020808252818101527f5361666542455032303a206c6f772d6c6576656c2063616c6c206661696c6564604082015260600190565b6020808252601f908201527f5361666542455032303a2063616c6c20746f206e6f6e2d636f6e747261637400604082015260600190565b9051815260200190565b600061014082019050613e81828451613a02565b6020830151613e936020840182613a07565b506040830151613ea66040840182613a07565b506060830151613eb96060840182613a07565b506080830151613ecc6080840182613a07565b5060a0830151613edf60a0840182613a14565b5060c0830151613ef260c08401826139f5565b5060e0830151613f0560e08401826139f5565b5061010080840151613f19828501826139f5565b505061012080840151613f2e82850182613a1f565b505092915050565b9889526001600160a01b0397881660208a015295151560408901526060880194909452608087019290925260a086015260c0850152821660e0840152166101008201526101200190565b9384526001600160a01b039283166020850152908216604084015216606082015260800190565b918252602082015260400190565b93845260208401929092526001600160a01b03166040830152606082015260800190565b90815260200190565b93845260208401929092526001600160801b03908116604084015216606082015260800190565b958652602086019490945260408501929092526060840152608083015260a082015260c00190565b60005b8381101561404c578181015183820152602001614034565b838111156113b15750506000910152565b6001600160a01b038116811461117357600080fd5b801515811461117357600080fdfea264697066735822122023e681869cf6ee784084f3ceb5534f88a71c6866246652b74956bc257465cddf64736f6c634300060c0033",
  "linkReferences": {
    "contracts/protocol/libraries/logic/ReserveLogic.sol": {
      "ReserveLogic": [
        {
          "length": 20,
          "start": 4167
        }
      ]
    },
    "contracts/protocol/libraries/logic/ValidationLogic.sol": {
      "ValidationLogic": [
        {
          "length": 20,
          "start": 1946
        },
        {
          "length": 20,
          "start": 2545
        },
        {
          "length": 20,
          "start": 3327
        },
        {
          "length": 20,
          "start": 5440
        },
        {
          "length": 20,
          "start": 6139
        },
        {
          "length": 20,
          "start": 7276
        }
      ]
    }
  },
  "deployedLinkReferences": {
    "contracts/protocol/libraries/logic/ReserveLogic.sol": {
      "ReserveLogic": [
        {
          "length": 20,
          "start": 4131
        }
      ]
    },
    "contracts/protocol/libraries/logic/ValidationLogic.sol": {
      "ValidationLogic": [
        {
          "length": 20,
          "start": 1910
        },
        {
          "length": 20,
          "start": 2509
        },
        {
          "length": 20,
          "start": 3291
        },
        {
          "length": 20,
          "start": 5404
        },
        {
          "length": 20,
          "start": 6103
        },
        {
          "length": 20,
          "start": 7240
        }
      ]
    }
  }
}