{
  "_format": "hh-sol-artifact-1",
  "contractName": "LendingPoolConfigurator",
  "sourceName": "contracts/protocol/lendingpool/LendingPoolConfigurator.sol",
  "abi": [
    {
      "anonymous": false,
      "inputs": [
        {
          "indexed": true,
          "internalType": "address",
          "name": "asset",
          "type": "address"
        }
      ],
      "name": "BorrowingDisabledOnReserve",
      "type": "event"
    },
    {
      "anonymous": false,
      "inputs": [
        {
          "indexed": true,
          "internalType": "address",
          "name": "asset",
          "type": "address"
        }
      ],
      "name": "BorrowingEnabledOnReserve",
      "type": "event"
    },
    {
      "anonymous": false,
      "inputs": [
        {
          "indexed": true,
          "internalType": "address",
          "name": "asset",
          "type": "address"
        },
        {
          "indexed": false,
          "internalType": "uint256",
          "name": "ltv",
          "type": "uint256"
        },
        {
          "indexed": false,
          "internalType": "uint256",
          "name": "liquidationThreshold",
          "type": "uint256"
        },
        {
          "indexed": false,
          "internalType": "uint256",
          "name": "liquidationBonus",
          "type": "uint256"
        }
      ],
      "name": "CollateralConfigurationChanged",
      "type": "event"
    },
    {
      "anonymous": false,
      "inputs": [
        {
          "indexed": true,
          "internalType": "address",
          "name": "asset",
          "type": "address"
        }
      ],
      "name": "ReserveActivated",
      "type": "event"
    },
    {
      "anonymous": false,
      "inputs": [
        {
          "indexed": true,
          "internalType": "address",
          "name": "asset",
          "type": "address"
        }
      ],
      "name": "ReserveDeactivated",
      "type": "event"
    },
    {
      "anonymous": false,
      "inputs": [
        {
          "indexed": true,
          "internalType": "address",
          "name": "asset",
          "type": "address"
        },
        {
          "indexed": false,
          "internalType": "uint256",
          "name": "decimals",
          "type": "uint256"
        }
      ],
      "name": "ReserveDecimalsChanged",
      "type": "event"
    },
    {
      "anonymous": false,
      "inputs": [
        {
          "indexed": true,
          "internalType": "address",
          "name": "asset",
          "type": "address"
        },
        {
          "indexed": false,
          "internalType": "uint256",
          "name": "factor",
          "type": "uint256"
        }
      ],
      "name": "ReserveFactorChanged",
      "type": "event"
    },
    {
      "anonymous": false,
      "inputs": [
        {
          "indexed": true,
          "internalType": "address",
          "name": "asset",
          "type": "address"
        }
      ],
      "name": "ReserveFrozen",
      "type": "event"
    },
    {
      "anonymous": false,
      "inputs": [
        {
          "indexed": true,
          "internalType": "address",
          "name": "asset",
          "type": "address"
        },
        {
          "indexed": true,
          "internalType": "address",
          "name": "tToken",
          "type": "address"
        },
        {
          "indexed": false,
          "internalType": "address",
          "name": "variableDebtToken",
          "type": "address"
        },
        {
          "indexed": false,
          "internalType": "address",
          "name": "interestRateStrategyAddress",
          "type": "address"
        }
      ],
      "name": "ReserveInitialized",
      "type": "event"
    },
    {
      "anonymous": false,
      "inputs": [
        {
          "indexed": true,
          "internalType": "address",
          "name": "asset",
          "type": "address"
        },
        {
          "indexed": false,
          "internalType": "address",
          "name": "strategy",
          "type": "address"
        }
      ],
      "name": "ReserveInterestRateStrategyChanged",
      "type": "event"
    },
    {
      "anonymous": false,
      "inputs": [
        {
          "indexed": true,
          "internalType": "address",
          "name": "asset",
          "type": "address"
        }
      ],
      "name": "ReserveUnfrozen",
      "type": "event"
    },
    {
      "anonymous": false,
      "inputs": [
        {
          "indexed": true,
          "internalType": "address",
          "name": "asset",
          "type": "address"
        },
        {
          "indexed": true,
          "internalType": "address",
          "name": "proxy",
          "type": "address"
        },
        {
          "indexed": true,
          "internalType": "address",
          "name": "implementation",
          "type": "address"
        }
      ],
      "name": "TTokenUpgraded",
      "type": "event"
    },
    {
      "anonymous": false,
      "inputs": [
        {
          "indexed": true,
          "internalType": "address",
          "name": "asset",
          "type": "address"
        },
        {
          "indexed": true,
          "internalType": "address",
          "name": "proxy",
          "type": "address"
        },
        {
          "indexed": true,
          "internalType": "address",
          "name": "implementation",
          "type": "address"
        }
      ],
      "name": "VariableDebtTokenUpgraded",
      "type": "event"
    },
    {
      "inputs": [
        {
          "internalType": "address",
          "name": "asset",
          "type": "address"
        }
      ],
      "name": "activateReserve",
      "outputs": [],
      "stateMutability": "nonpayable",
      "type": "function"
    },
    {
      "inputs": [
        {
          "components": [
            {
              "internalType": "address",
              "name": "tTokenImpl",
              "type": "address"
            },
            {
              "internalType": "address",
              "name": "variableDebtTokenImpl",
              "type": "address"
            },
            {
              "internalType": "uint8",
              "name": "underlyingAssetDecimals",
              "type": "uint8"
            },
            {
              "internalType": "address",
              "name": "interestRateStrategyAddress",
              "type": "address"
            },
            {
              "internalType": "address",
              "name": "underlyingAsset",
              "type": "address"
            },
            {
              "internalType": "address",
              "name": "treasury",
              "type": "address"
            },
            {
              "internalType": "address",
              "name": "incentivesController",
              "type": "address"
            },
            {
              "internalType": "string",
              "name": "underlyingAssetName",
              "type": "string"
            },
            {
              "internalType": "string",
              "name": "tTokenName",
              "type": "string"
            },
            {
              "internalType": "string",
              "name": "tTokenSymbol",
              "type": "string"
            },
            {
              "internalType": "string",
              "name": "variableDebtTokenName",
              "type": "string"
            },
            {
              "internalType": "string",
              "name": "variableDebtTokenSymbol",
              "type": "string"
            },
            {
              "internalType": "bytes",
              "name": "params",
              "type": "bytes"
            },
            {
              "internalType": "uint256",
              "name": "baseLTVAsCollateral",
              "type": "uint256"
            },
            {
              "internalType": "uint256",
              "name": "liquidationThreshold",
              "type": "uint256"
            },
            {
              "internalType": "uint256",
              "name": "liquidationBonus",
              "type": "uint256"
            },
            {
              "internalType": "uint256",
              "name": "reserveFactor",
              "type": "uint256"
            }
          ],
          "internalType": "struct ILendingPoolConfigurator.InitReserveInput[]",
          "name": "input",
          "type": "tuple[]"
        }
      ],
      "name": "batchInitReserve",
      "outputs": [],
      "stateMutability": "nonpayable",
      "type": "function"
    },
    {
      "inputs": [
        {
          "internalType": "address",
          "name": "asset",
          "type": "address"
        },
        {
          "internalType": "uint256",
          "name": "ltv",
          "type": "uint256"
        },
        {
          "internalType": "uint256",
          "name": "liquidationThreshold",
          "type": "uint256"
        },
        {
          "internalType": "uint256",
          "name": "liquidationBonus",
          "type": "uint256"
        }
      ],
      "name": "configureReserveAsCollateral",
      "outputs": [],
      "stateMutability": "nonpayable",
      "type": "function"
    },
    {
      "inputs": [
        {
          "internalType": "address",
          "name": "asset",
          "type": "address"
        }
      ],
      "name": "deactivateReserve",
      "outputs": [],
      "stateMutability": "nonpayable",
      "type": "function"
    },
    {
      "inputs": [
        {
          "internalType": "address",
          "name": "asset",
          "type": "address"
        }
      ],
      "name": "disableBorrowingOnReserve",
      "outputs": [],
      "stateMutability": "nonpayable",
      "type": "function"
    },
    {
      "inputs": [
        {
          "internalType": "address",
          "name": "asset",
          "type": "address"
        },
        {
          "internalType": "bool",
          "name": "stableBorrowRateEnabled",
          "type": "bool"
        }
      ],
      "name": "enableBorrowingOnReserve",
      "outputs": [],
      "stateMutability": "nonpayable",
      "type": "function"
    },
    {
      "inputs": [
        {
          "internalType": "address",
          "name": "asset",
          "type": "address"
        }
      ],
      "name": "freezeReserve",
      "outputs": [],
      "stateMutability": "nonpayable",
      "type": "function"
    },
    {
      "inputs": [
        {
          "internalType": "contract IAddressesProviderFactory",
          "name": "provider",
          "type": "address"
        },
        {
          "internalType": "uint256",
          "name": "providerId",
          "type": "uint256"
        }
      ],
      "name": "initialize",
      "outputs": [],
      "stateMutability": "nonpayable",
      "type": "function"
    },
    {
      "inputs": [
        {
          "internalType": "bool",
          "name": "val",
          "type": "bool"
        }
      ],
      "name": "setPoolPause",
      "outputs": [],
      "stateMutability": "nonpayable",
      "type": "function"
    },
    {
      "inputs": [
        {
          "internalType": "address",
          "name": "asset",
          "type": "address"
        },
        {
          "internalType": "uint256",
          "name": "reserveFactor",
          "type": "uint256"
        }
      ],
      "name": "setReserveFactor",
      "outputs": [],
      "stateMutability": "nonpayable",
      "type": "function"
    },
    {
      "inputs": [
        {
          "internalType": "address",
          "name": "asset",
          "type": "address"
        },
        {
          "internalType": "address",
          "name": "rateStrategyAddress",
          "type": "address"
        }
      ],
      "name": "setReserveInterestRateStrategyAddress",
      "outputs": [],
      "stateMutability": "nonpayable",
      "type": "function"
    },
    {
      "inputs": [
        {
          "internalType": "address",
          "name": "asset",
          "type": "address"
        }
      ],
      "name": "unfreezeReserve",
      "outputs": [],
      "stateMutability": "nonpayable",
      "type": "function"
    },
    {
      "inputs": [
        {
          "components": [
            {
              "internalType": "address",
              "name": "asset",
              "type": "address"
            },
            {
              "internalType": "address",
              "name": "treasury",
              "type": "address"
            },
            {
              "internalType": "address",
              "name": "incentivesController",
              "type": "address"
            },
            {
              "internalType": "string",
              "name": "name",
              "type": "string"
            },
            {
              "internalType": "string",
              "name": "symbol",
              "type": "string"
            },
            {
              "internalType": "address",
              "name": "implementation",
              "type": "address"
            },
            {
              "internalType": "bytes",
              "name": "params",
              "type": "bytes"
            }
          ],
          "internalType": "struct ILendingPoolConfigurator.UpdateTTokenInput",
          "name": "input",
          "type": "tuple"
        }
      ],
      "name": "updateTToken",
      "outputs": [],
      "stateMutability": "nonpayable",
      "type": "function"
    },
    {
      "inputs": [
        {
          "components": [
            {
              "internalType": "address",
              "name": "asset",
              "type": "address"
            },
            {
              "internalType": "address",
              "name": "incentivesController",
              "type": "address"
            },
            {
              "internalType": "string",
              "name": "name",
              "type": "string"
            },
            {
              "internalType": "string",
              "name": "symbol",
              "type": "string"
            },
            {
              "internalType": "address",
              "name": "implementation",
              "type": "address"
            },
            {
              "internalType": "bytes",
              "name": "params",
              "type": "bytes"
            }
          ],
          "internalType": "struct ILendingPoolConfigurator.UpdateDebtTokenInput",
          "name": "input",
          "type": "tuple"
        }
      ],
      "name": "updateVariableDebtToken",
      "outputs": [],
      "stateMutability": "nonpayable",
      "type": "function"
    }
  ],
  "bytecode": "0x60806040526000805534801561001457600080fd5b50613839806100246000396000f3fe608060405234801561001057600080fd5b50600436106100ea5760003560e01c80637c4e560b1161008c578063b75d6f3411610066578063b75d6f34146101af578063cd6dc687146101c2578063eede87c1146101d5578063ef1f9373146101e8576100ea565b80637c4e560b14610176578063a8dc0f4514610189578063ad4e64321461019c576100ea565b80634b4e6753116100c85780634b4e67531461012a578063558594341461013d5780637641f3d9146101505780637aca76eb14610163576100ea565b80631d2118f9146100ef578063366cbb18146101045780633e72a45414610117575b600080fd5b6101026100fd366004612994565b6101fb565b005b610102610112366004612a62565b61036d565b610102610125366004612955565b610579565b6101026101383660046129fd565b610774565b61010261014b366004612c19565b610842565b61010261015e366004612ad1565b610b79565b610102610171366004612955565b610c9e565b610102610184366004612a28565b610e96565b610102610197366004612955565b610f62565b6101026101aa366004612be1565b61115a565b6101026101bd366004612955565b611405565b6101026101d03660046129fd565b6115f7565b6101026101e33660046129cc565b61172f565b6101026101f6366004612955565b611932565b60345460408051634aa1bb7d60e11b8152905133926001600160a01b03169163954376fa916004808301926020929190829003018186803b15801561023f57600080fd5b505afa158015610253573d6000803e3d6000fd5b505050506040513d601f19601f820116820180604052508101906102779190612978565b6001600160a01b03161460405180604001604052806002815260200161333360f01b815250906102c35760405162461bcd60e51b81526004016102ba9190612f1e565b60405180910390fd5b50603654604051631d2118f960e01b81526001600160a01b0390911690631d2118f9906102f69085908590600401612d0e565b600060405180830381600087803b15801561031057600080fd5b505af1158015610324573d6000803e3d6000fd5b50505050816001600160a01b03167f5644b64ebb0ce18c4032248ca52f58355469092ff072866c3dcd8640e817d6a5826040516103619190612cfa565b60405180910390a25050565b603454603554604051631b8d2d3960e21b815233926001600160a01b031691636e34b4e49161039f9190600401612fa1565b60206040518083038186803b1580156103b757600080fd5b505afa1580156103cb573d6000803e3d6000fd5b505050506040513d601f19601f820116820180604052508101906103ef9190612978565b6001600160a01b03161460405180604001604052806002815260200161333360f01b815250906104325760405162461bcd60e51b81526004016102ba9190612f1e565b506036546001600160a01b031660005b82811015610573576104718285858481811061045a57fe5b905060200281019061046c9190613022565b611b2a565b61051184848381811061048057fe5b90506020028101906104929190613022565b6104a39060a0810190608001612955565b8585848181106104af57fe5b90506020028101906104c19190613022565b6101a001358686858181106104d257fe5b90506020028101906104e49190613022565b6101c001358787868181106104f557fe5b90506020028101906105079190613022565b6101e00135611ec7565b61056b84848381811061052057fe5b90506020028101906105329190613022565b6105439060a0810190608001612955565b85858481811061054f57fe5b90506020028101906105619190613022565b6102000135612130565b600101610442565b50505050565b60345460408051634aa1bb7d60e11b8152905133926001600160a01b03169163954376fa916004808301926020929190829003018186803b1580156105bd57600080fd5b505afa1580156105d1573d6000803e3d6000fd5b505050506040513d601f19601f820116820180604052508101906105f59190612978565b6001600160a01b03161460405180604001604052806002815260200161333360f01b815250906106385760405162461bcd60e51b81526004016102ba9190612f1e565b506106428161226f565b61064a612873565b60365460405163c44b11f760e01b81526001600160a01b039091169063c44b11f79061067a908590600401612cfa565b60206040518083038186803b15801561069257600080fd5b505afa1580156106a6573d6000803e3d6000fd5b505050506040513d601f19601f820116820180604052508101906106ca9190612af1565b90506106d781600061240f565b6036548151604051635c69493b60e11b81526001600160a01b039092169163b8d292769161070a91869190600401612d7f565b600060405180830381600087803b15801561072457600080fd5b505af1158015610738573d6000803e3d6000fd5b50506040516001600160a01b03851692507f6f60cf8bd0f218cabe1ea3150bd07b0b758c35c4cfdf7138017a283e65564d5e9150600090a25050565b60345460408051634aa1bb7d60e11b8152905133926001600160a01b03169163954376fa916004808301926020929190829003018186803b1580156107b857600080fd5b505afa1580156107cc573d6000803e3d6000fd5b505050506040513d601f19601f820116820180604052508101906107f09190612978565b6001600160a01b03161460405180604001604052806002815260200161333360f01b815250906108335760405162461bcd60e51b81526004016102ba9190612f1e565b5061083e8282612130565b5050565b60345460408051634aa1bb7d60e11b8152905133926001600160a01b03169163954376fa916004808301926020929190829003018186803b15801561088657600080fd5b505afa15801561089a573d6000803e3d6000fd5b505050506040513d601f19601f820116820180604052508101906108be9190612978565b6001600160a01b03161460405180604001604052806002815260200161333360f01b815250906109015760405162461bcd60e51b81526004016102ba9190612f1e565b506036546001600160a01b0316610916612886565b6001600160a01b0382166335ea6a756109326020860186612955565b6040518263ffffffff1660e01b815260040161094e9190612cfa565b6101406040518083038186803b15801561096757600080fd5b505afa15801561097b573d6000803e3d6000fd5b505050506040513d601f19601f8201168201806040525081019061099f9190612b0c565b90506000610a336001600160a01b03841663c44b11f76109c26020880188612955565b6040518263ffffffff1660e01b81526004016109de9190612cfa565b60206040518083038186803b1580156109f657600080fd5b505afa158015610a0a573d6000803e3d6000fd5b505050506040513d601f19601f82011682018060405250810190610a2e9190612af1565b61243d565b5093506060925063183fb41360e01b9150859050610a576040880160208901612955565b610a646020890189612955565b610a7460608a0160408b01612955565b86610a8260608c018c61300c565b610a8f60808e018e61300c565b8e8060c00190610a9f9190612fc0565b604051602401610ab99b9a99989796959493929190612da3565b60408051601f198184030181529190526020810180516001600160e01b03166001600160e01b03199093169290921790915260c080850151919250610b0e9190610b0890880160a08901612955565b83612468565b610b1e60c0860160a08701612955565b60c08401516001600160a01b039182169116610b3d6020880188612955565b6001600160a01b03167f716c0ee02bfc3eda4e3afac0c7c25fdb88f6c610fc5a3a254a0480c9fc736c8860405160405180910390a45050505050565b60345460408051634aa1bb7d60e11b8152905133926001600160a01b03169163954376fa916004808301926020929190829003018186803b158015610bbd57600080fd5b505afa158015610bd1573d6000803e3d6000fd5b505050506040513d601f19601f82011682018060405250810190610bf59190612978565b6001600160a01b03161460405180604001604052806002815260200161333360f01b81525090610c385760405162461bcd60e51b81526004016102ba9190612f1e565b5060365460405163bedb86fb60e01b81526001600160a01b039091169063bedb86fb90610c69908490600401612d98565b600060405180830381600087803b158015610c8357600080fd5b505af1158015610c97573d6000803e3d6000fd5b5050505050565b603454603554604051631b8d2d3960e21b815233926001600160a01b031691636e34b4e491610cd09190600401612fa1565b60206040518083038186803b158015610ce857600080fd5b505afa158015610cfc573d6000803e3d6000fd5b505050506040513d601f19601f82011682018060405250810190610d209190612978565b6001600160a01b03161460405180604001604052806002815260200161333360f01b81525090610d635760405162461bcd60e51b81526004016102ba9190612f1e565b50610d6c612873565b60365460405163c44b11f760e01b81526001600160a01b039091169063c44b11f790610d9c908590600401612cfa565b60206040518083038186803b158015610db457600080fd5b505afa158015610dc8573d6000803e3d6000fd5b505050506040513d601f19601f82011682018060405250810190610dec9190612af1565b9050610df98160016124d0565b6036548151604051635c69493b60e11b81526001600160a01b039092169163b8d2927691610e2c91869190600401612d7f565b600060405180830381600087803b158015610e4657600080fd5b505af1158015610e5a573d6000803e3d6000fd5b50506040516001600160a01b03851692507f85dc710add8a0914461a7dc5a63f6fc529a7700f8c6089a3faf5e93256ccf12a9150600090a25050565b60345460408051634aa1bb7d60e11b8152905133926001600160a01b03169163954376fa916004808301926020929190829003018186803b158015610eda57600080fd5b505afa158015610eee573d6000803e3d6000fd5b505050506040513d601f19601f82011682018060405250810190610f129190612978565b6001600160a01b03161460405180604001604052806002815260200161333360f01b81525090610f555760405162461bcd60e51b81526004016102ba9190612f1e565b5061057384848484611ec7565b603454603554604051631b8d2d3960e21b815233926001600160a01b031691636e34b4e491610f949190600401612fa1565b60206040518083038186803b158015610fac57600080fd5b505afa158015610fc0573d6000803e3d6000fd5b505050506040513d601f19601f82011682018060405250810190610fe49190612978565b6001600160a01b03161460405180604001604052806002815260200161333360f01b815250906110275760405162461bcd60e51b81526004016102ba9190612f1e565b50611030612873565b60365460405163c44b11f760e01b81526001600160a01b039091169063c44b11f790611060908590600401612cfa565b60206040518083038186803b15801561107857600080fd5b505afa15801561108c573d6000803e3d6000fd5b505050506040513d601f19601f820116820180604052508101906110b09190612af1565b90506110bd8160006124fe565b6036548151604051635c69493b60e11b81526001600160a01b039092169163b8d29276916110f091869190600401612d7f565b600060405180830381600087803b15801561110a57600080fd5b505af115801561111e573d6000803e3d6000fd5b50506040516001600160a01b03851692507fe9a7e5fd4fc8ea18e602350324bf48e8f05d12434af0ce0be05743e6a5fdcb9e9150600090a25050565b60345460408051634aa1bb7d60e11b8152905133926001600160a01b03169163954376fa916004808301926020929190829003018186803b15801561119e57600080fd5b505afa1580156111b2573d6000803e3d6000fd5b505050506040513d601f19601f820116820180604052508101906111d69190612978565b6001600160a01b03161460405180604001604052806002815260200161333360f01b815250906112195760405162461bcd60e51b81526004016102ba9190612f1e565b506036546001600160a01b031661122e612886565b6001600160a01b0382166335ea6a7561124a6020860186612955565b6040518263ffffffff1660e01b81526004016112669190612cfa565b6101406040518083038186803b15801561127f57600080fd5b505afa158015611293573d6000803e3d6000fd5b505050506040513d601f19601f820116820180604052508101906112b79190612b0c565b905060006112da6001600160a01b03841663c44b11f76109c26020880188612955565b50935060609250636111764560e11b91508590506112fb6020880188612955565b61130b6040890160208a01612955565b8561131960408b018b61300c565b61132660608d018d61300c565b61133360a08f018f612fc0565b60405160240161134c9a99989796959493929190612e6b565b60408051601f198184030181529190526020810180516001600160e01b03166001600160e01b03199093169290921790915260e084015190915061139a90610b0860a0880160808901612955565b6113aa60a0860160808701612955565b60e08401516001600160a01b0391821691166113c96020880188612955565b6001600160a01b03167f9439658a562a5c46b1173589df89cf001483d685bad28aedaff4a88656292d8160405160405180910390a45050505050565b60345460408051634aa1bb7d60e11b8152905133926001600160a01b03169163954376fa916004808301926020929190829003018186803b15801561144957600080fd5b505afa15801561145d573d6000803e3d6000fd5b505050506040513d601f19601f820116820180604052508101906114819190612978565b6001600160a01b03161460405180604001604052806002815260200161333360f01b815250906114c45760405162461bcd60e51b81526004016102ba9190612f1e565b506114cd612873565b60365460405163c44b11f760e01b81526001600160a01b039091169063c44b11f7906114fd908590600401612cfa565b60206040518083038186803b15801561151557600080fd5b505afa158015611529573d6000803e3d6000fd5b505050506040513d601f19601f8201168201806040525081019061154d9190612af1565b905061155a81600161240f565b6036548151604051635c69493b60e11b81526001600160a01b039092169163b8d292769161158d91869190600401612d7f565b600060405180830381600087803b1580156115a757600080fd5b505af11580156115bb573d6000803e3d6000fd5b50506040516001600160a01b03851692507f35b80cd8ea3440e9a8454f116fa658b858da1b64c86c48451f4559cefcdfb56c9150600090a25050565b600061160161252c565b60015490915060ff16806116185750611618612531565b80611624575060005481115b6116405760405162461bcd60e51b81526004016102ba90612f53565b60015460ff1615801561165f576001805460ff19168117905560008290555b603480546001600160a01b0319166001600160a01b0386811691909117918290556035859055604051630706547d60e21b8152911690631c1951f4906116a9908690600401612fa1565b60206040518083038186803b1580156116c157600080fd5b505afa1580156116d5573d6000803e3d6000fd5b505050506040513d601f19601f820116820180604052508101906116f99190612978565b603680546001600160a01b0319166001600160a01b03929092169190911790558015610573576001805460ff1916905550505050565b603454603554604051631b8d2d3960e21b815233926001600160a01b031691636e34b4e4916117619190600401612fa1565b60206040518083038186803b15801561177957600080fd5b505afa15801561178d573d6000803e3d6000fd5b505050506040513d601f19601f820116820180604052508101906117b19190612978565b6001600160a01b03161460405180604001604052806002815260200161333360f01b815250906117f45760405162461bcd60e51b81526004016102ba9190612f1e565b506117fd612873565b60365460405163c44b11f760e01b81526001600160a01b039091169063c44b11f79061182d908690600401612cfa565b60206040518083038186803b15801561184557600080fd5b505afa158015611859573d6000803e3d6000fd5b505050506040513d601f19601f8201168201806040525081019061187d9190612af1565b905061188a8160016124fe565b6118948183612537565b6036548151604051635c69493b60e11b81526001600160a01b039092169163b8d29276916118c791879190600401612d7f565b600060405180830381600087803b1580156118e157600080fd5b505af11580156118f5573d6000803e3d6000fd5b50506040516001600160a01b03861692507f9f32a339ab4590ec0a60d629f2322805ba6e57c9d862e1ef9f8555f6780ea2c69150600090a2505050565b603454603554604051631b8d2d3960e21b815233926001600160a01b031691636e34b4e4916119649190600401612fa1565b60206040518083038186803b15801561197c57600080fd5b505afa158015611990573d6000803e3d6000fd5b505050506040513d601f19601f820116820180604052508101906119b49190612978565b6001600160a01b03161460405180604001604052806002815260200161333360f01b815250906119f75760405162461bcd60e51b81526004016102ba9190612f1e565b50611a00612873565b60365460405163c44b11f760e01b81526001600160a01b039091169063c44b11f790611a30908590600401612cfa565b60206040518083038186803b158015611a4857600080fd5b505afa158015611a5c573d6000803e3d6000fd5b505050506040513d601f19601f82011682018060405250810190611a809190612af1565b9050611a8d8160006124d0565b6036548151604051635c69493b60e11b81526001600160a01b039092169163b8d2927691611ac091869190600401612d7f565b600060405180830381600087803b158015611ada57600080fd5b505af1158015611aee573d6000803e3d6000fd5b50506040516001600160a01b03851692507f838ecdc4709a31a26db48b0c853212cedde3f725f07030079d793fb0719647609150600090a25050565b6000611c00611b3c6020840184612955565b63183fb41360e01b85611b5560c0870160a08801612955565b611b6560a0880160808901612955565b611b7560e0890160c08a01612955565b611b8560608a0160408b01612c69565b611b936101008b018b61300c565b611ba16101208d018d61300c565b611baf6101808f018f612fc0565b604051602401611bc99b9a99989796959493929190612e24565b60408051601f198184030181529190526020810180516001600160e01b03166001600160e01b031990931692909217909152612565565b90506000611c93611c176040850160208601612955565b636111764560e11b86611c3060a0880160808901612955565b611c4060e0890160c08a01612955565b611c5060608a0160408b01612c69565b611c5e6101408b018b61300c565b611c6c6101608d018d61300c565b611c7a6101808f018f612fc0565b604051602401611bc99a99989796959493929190612ee0565b90506001600160a01b038416638bd25677611cb460a0860160808701612955565b8484611cc66080890160608a01612955565b6040518563ffffffff1660e01b8152600401611ce59493929190612d28565b600060405180830381600087803b158015611cff57600080fd5b505af1158015611d13573d6000803e3d6000fd5b50505050611d1f612873565b6001600160a01b03851663c44b11f7611d3e60a0870160808801612955565b6040518263ffffffff1660e01b8152600401611d5a9190612cfa565b60206040518083038186803b158015611d7257600080fd5b505afa158015611d86573d6000803e3d6000fd5b505050506040513d601f19601f82011682018060405250810190611daa9190612af1565b9050611dc9611dbf6060860160408701612c69565b829060ff16612609565b611dd481600161240f565b611ddf8160006124d0565b6001600160a01b03851663b8d29276611dfe60a0870160808801612955565b83516040516001600160e01b031960e085901b168152611e22929190600401612d7f565b600060405180830381600087803b158015611e3c57600080fd5b505af1158015611e50573d6000803e3d6000fd5b5050506001600160a01b0384169050611e6f60a0860160808701612955565b6001600160a01b03167f2a069b08eadd1ba3aeb05729cf22947a941b9f400cfc778be430b52a9463728284611eaa6080890160608a01612955565b604051611eb8929190612d0e565b60405180910390a35050505050565b611ecf612873565b60365460405163c44b11f760e01b81526001600160a01b039091169063c44b11f790611eff908890600401612cfa565b60206040518083038186803b158015611f1757600080fd5b505afa158015611f2b573d6000803e3d6000fd5b505050506040513d601f19601f82011682018060405250810190611f4f9190612af1565b90508284111560405180604001604052806002815260200161373560f01b81525090611f8e5760405162461bcd60e51b81526004016102ba9190612f1e565b50821561201f57604080518082019091526002815261373560f01b60208201526127108311611fd05760405162461bcd60e51b81526004016102ba9190612f1e565b50612710611fde848461265c565b111560405180604001604052806002815260200161373560f01b815250906120195760405162461bcd60e51b81526004016102ba9190612f1e565b50612061565b604080518082019091526002815261373560f01b602082015282156120575760405162461bcd60e51b81526004016102ba9190612f1e565b506120618561226f565b61206b81856126ce565b6120758184612717565b61207f8183612768565b6036548151604051635c69493b60e11b81526001600160a01b039092169163b8d29276916120b291899190600401612d7f565b600060405180830381600087803b1580156120cc57600080fd5b505af11580156120e0573d6000803e3d6000fd5b50505050846001600160a01b03167f637febbda9275aea2e85c0ff690444c8d87eb2e8339bbede9715abcc89cb099585858560405161212193929190612faa565b60405180910390a25050505050565b612138612873565b60365460405163c44b11f760e01b81526001600160a01b039091169063c44b11f790612168908690600401612cfa565b60206040518083038186803b15801561218057600080fd5b505afa158015612194573d6000803e3d6000fd5b505050506040513d601f19601f820116820180604052508101906121b89190612af1565b90506121c481836127bb565b6036548151604051635c69493b60e11b81526001600160a01b039092169163b8d29276916121f791879190600401612d7f565b600060405180830381600087803b15801561221157600080fd5b505af1158015612225573d6000803e3d6000fd5b50505050826001600160a01b03167f2694ccb0b585b6a54b8d8b4a47aa874b05c257b43d34e98aee50838be00d3405836040516122629190612fa1565b60405180910390a2505050565b612277612886565b6036546040516335ea6a7560e01b81526001600160a01b03909116906335ea6a75906122a7908590600401612cfa565b6101406040518083038186803b1580156122c057600080fd5b505afa1580156122d4573d6000803e3d6000fd5b505050506040513d601f19601f820116820180604052508101906122f89190612b0c565b90506000826001600160a01b03166370a082318360c001516040518263ffffffff1660e01b815260040161232c9190612cfa565b60206040518083038186803b15801561234457600080fd5b505afa158015612358573d6000803e3d6000fd5b505050506040513d601f19601f8201168201806040525081019061237c9190612c51565b90506123bd6040518060400160405280601781526020017f617661696c61626c654c6971756964697479203a20257300000000000000000081525082612812565b801580156123d6575060608201516001600160801b0316155b604051806040016040528060028152602001610ccd60f21b815250906105735760405162461bcd60e51b81526004016102ba9190612f1e565b60388161241d576000612420565b60015b8351670100000000000000191660ff9190911690911b1790915250565b5161ffff80821692601083901c821692602081901c831692603082901c60ff169260409290921c1690565b60405163278f794360e11b815283906001600160a01b03821690634f1ef286906124989086908690600401612d53565b600060405180830381600087803b1580156124b257600080fd5b505af11580156124c6573d6000803e3d6000fd5b5050505050505050565b6039816124de5760006124e1565b60015b8351670200000000000000191660ff9190911690911b1790915250565b603a8161250c57600061250f565b60015b8351670400000000000000191660ff9190911690911b1790915250565b600190565b303b1590565b603b81612545576000612548565b60015b8351670800000000000000191660ff9190911690911b1790915250565b60008030604051612575906128e1565b61257f9190612cfa565b604051809103906000f08015801561259b573d6000803e3d6000fd5b5060405163347d5e2560e21b81529091506001600160a01b0382169063d1f57894906125cd9087908790600401612d53565b600060405180830381600087803b1580156125e757600080fd5b505af11580156125fb573d6000803e3d6000fd5b509293505050505b92915050565b604080518082019091526002815261037360f41b602082015260ff8211156126445760405162461bcd60e51b81526004016102ba9190612f1e565b50815166ff000000000000191660309190911b179052565b6000821580612669575081155b1561267657506000612603565b81611388198161268257fe5b0483111560405180604001604052806002815260200161068760f31b815250906126bf5760405162461bcd60e51b81526004016102ba9190612f1e565b50506127109102611388010490565b604080518082019091526002815261363760f01b602082015261ffff82111561270a5760405162461bcd60e51b81526004016102ba9190612f1e565b50815161ffff1916179052565b60408051808201909152600281526106c760f31b602082015261ffff8211156127535760405162461bcd60e51b81526004016102ba9190612f1e565b50815163ffff0000191660109190911b179052565b604080518082019091526002815261363960f01b602082015261ffff8211156127a45760405162461bcd60e51b81526004016102ba9190612f1e565b50815165ffff00000000191660209190911b179052565b604080518082019091526002815261373160f01b602082015261ffff8211156127f75760405162461bcd60e51b81526004016102ba9190612f1e565b50815169ffff0000000000000000191660409190911b179052565b61083e8282604051602401612828929190612f31565b60408051601f198184030181529190526020810180516001600160e01b03166309710a9d60e41b17905280516a636f6e736f6c652e6c6f67602083016000808483855afa5050505050565b6040518060200160405280600081525090565b60405180610140016040528061289a612873565b815260006020820181905260408201819052606082018190526080820181905260a0820181905260c0820181905260e0820181905261010082018190526101209091015290565b6107738061309183390190565b805161260381613069565b60006020828403121561290a578081fd5b6129146020613042565b9151825250919050565b80516001600160801b038116811461260357600080fd5b805164ffffffffff8116811461260357600080fd5b805161260381613081565b600060208284031215612966578081fd5b813561297181613069565b9392505050565b600060208284031215612989578081fd5b815161297181613069565b600080604083850312156129a6578081fd5b82356129b181613069565b915060208301356129c181613069565b809150509250929050565b600080604083850312156129de578182fd5b82356129e981613069565b9150602083013580151581146129c1578182fd5b60008060408385031215612a0f578182fd5b8235612a1a81613069565b946020939093013593505050565b60008060008060808587031215612a3d578182fd5b8435612a4881613069565b966020860135965060408601359560600135945092505050565b60008060208385031215612a74578182fd5b823567ffffffffffffffff80821115612a8b578384fd5b818501915085601f830112612a9e578384fd5b813581811115612aac578485fd5b8660208083028501011115612abf578485fd5b60209290920196919550909350505050565b600060208284031215612ae2578081fd5b81358015158114612971578182fd5b600060208284031215612b02578081fd5b61297183836128f9565b6000610140808385031215612b1f578182fd5b612b2881613042565b9050612b3484846128f9565b8152612b43846020850161291e565b6020820152612b55846040850161291e565b6040820152612b67846060850161291e565b6060820152612b79846080850161291e565b6080820152612b8b8460a08501612935565b60a0820152612b9d8460c085016128ee565b60c0820152612baf8460e085016128ee565b60e0820152610100612bc3858286016128ee565b90820152610120612bd68585830161294a565b908201529392505050565b600060208284031215612bf2578081fd5b813567ffffffffffffffff811115612c08578182fd5b820160c08185031215612971578182fd5b600060208284031215612c2a578081fd5b813567ffffffffffffffff811115612c40578182fd5b820160e08185031215612971578182fd5b600060208284031215612c62578081fd5b5051919050565b600060208284031215612c7a578081fd5b813561297181613081565b60008284528282602086013780602084860101526020601f19601f85011685010190509392505050565b60008151808452815b81811015612cd457602081850181015186830182015201612cb8565b81811115612ce55782602083870101525b50601f01601f19169290920160200192915050565b6001600160a01b0391909116815260200190565b6001600160a01b0392831681529116602082015260400190565b6001600160a01b03948516815292841660208401529083166040830152909116606082015260800190565b6001600160a01b0383168152604060208201819052600090612d7790830184612caf565b949350505050565b6001600160a01b03929092168252602082015260400190565b901515815260200190565b6001600160a01b038c811682528b811660208301528a81166040830152891660608201526080810188905261010060a08201819052600090612de8838201898b612c85565b905082810360c0840152612dfd818789612c85565b905082810360e0840152612e12818587612c85565b9e9d5050505050505050505050505050565b6001600160a01b038c811682528b811660208301528a811660408301528916606082015260ff8816608082015261010060a08201819052600090612de8838201898b612c85565b6001600160a01b038b811682528a81166020830152891660408201526060810188905260e060808201819052600090612ea7908301888a612c85565b82810360a0840152612eba818789612c85565b905082810360c0840152612ecf818587612c85565b9d9c50505050505050505050505050565b6001600160a01b038b811682528a811660208301528916604082015260ff8816606082015260e060808201819052600090612ea7908301888a612c85565b6000602082526129716020830184612caf565b600060408252612f446040830185612caf565b90508260208301529392505050565b6020808252602e908201527f436f6e747261637420696e7374616e63652068617320616c726561647920626560408201526d195b881a5b9a5d1a585b1a5e995960921b606082015260800190565b90815260200190565b9283526020830191909152604082015260600190565b6000808335601e19843603018112612fd6578283fd5b83018035915067ffffffffffffffff821115612ff0578283fd5b60200191503681900382131561300557600080fd5b9250929050565b6000808335601e19843603018112612fd6578182fd5b6000823561021e19833603018112613038578182fd5b9190910192915050565b60405181810167ffffffffffffffff8111828210171561306157600080fd5b604052919050565b6001600160a01b038116811461307e57600080fd5b50565b60ff8116811461307e57600080fdfe60a060405234801561001057600080fd5b506040516107733803806107738339818101604052602081101561003357600080fd5b5051606081901b6001600160601b0319166080526001600160a01b03166106f36100806000398061022852806102725280610331528061045e528061048752806105af52506106f36000f3fe60806040526004361061004a5760003560e01c80633659cfe6146100545780634f1ef286146100875780635c60da1b14610107578063d1f5789414610138578063f851a440146101ee575b610052610203565b005b34801561006057600080fd5b506100526004803603602081101561007757600080fd5b50356001600160a01b031661021d565b6100526004803603604081101561009d57600080fd5b6001600160a01b0382351691908101906040810160208201356401000000008111156100c857600080fd5b8201836020820111156100da57600080fd5b803590602001918460018302840111640100000000831117156100fc57600080fd5b509092509050610267565b34801561011357600080fd5b5061011c610324565b604080516001600160a01b039092168252519081900360200190f35b6100526004803603604081101561014e57600080fd5b6001600160a01b03823516919081019060408101602082013564010000000081111561017957600080fd5b82018360208201111561018b57600080fd5b803590602001918460018302840111640100000000831117156101ad57600080fd5b91908080601f016020809104026020016040519081016040528093929190818152602001838380828437600092019190915250929550610371945050505050565b3480156101fa57600080fd5b5061011c610451565b61020b6104ab565b61021b6102166104b3565b6104d8565b565b336001600160a01b037f000000000000000000000000000000000000000000000000000000000000000016141561025c57610257816104fc565b610264565b610264610203565b50565b336001600160a01b037f0000000000000000000000000000000000000000000000000000000000000000161415610317576102a1836104fc565b6000836001600160a01b031683836040518083838082843760405192019450600093509091505080830381855af49150503d80600081146102fe576040519150601f19603f3d011682016040523d82523d6000602084013e610303565b606091505b505090508061031157600080fd5b5061031f565b61031f610203565b505050565b6000336001600160a01b037f00000000000000000000000000000000000000000000000000000000000000001614156103665761035f6104b3565b905061036e565b61036e610203565b90565b600061037b6104b3565b6001600160a01b03161461038e57600080fd5b6103978261053c565b80511561044d576000826001600160a01b0316826040518082805190602001908083835b602083106103da5780518252601f1990920191602091820191016103bb565b6001836020036101000a038019825116818451168082178552505050505050905001915050600060405180830381855af49150503d806000811461043a576040519150601f19603f3d011682016040523d82523d6000602084013e61043f565b606091505b505090508061031f57600080fd5b5050565b6000336001600160a01b037f000000000000000000000000000000000000000000000000000000000000000016141561036657507f000000000000000000000000000000000000000000000000000000000000000061036e565b61021b6105a4565b7f360894a13ba1a3210667c828492db98dca3e2076cc3735a920a3ca505d382bbc5490565b3660008037600080366000845af43d6000803e8080156104f7573d6000f35b3d6000fd5b6105058161053c565b6040516001600160a01b038216907fbc7cd75a20ee27fd9adebab32041f755214dbc6bffa90cc0225b39da2e5c2d3b90600090a250565b61054581610614565b6105805760405162461bcd60e51b815260040180806020018281038252603b815260200180610683603b913960400191505060405180910390fd5b7f360894a13ba1a3210667c828492db98dca3e2076cc3735a920a3ca505d382bbc55565b336001600160a01b037f000000000000000000000000000000000000000000000000000000000000000016141561060c5760405162461bcd60e51b81526004018080602001828103825260328152602001806106516032913960400191505060405180910390fd5b61021b61021b565b6000813f7fc5d2460186f7233c927e7db2dcc703c0e500b653ca82273b7bfad8045d85a47081811480159061064857508115155b94935050505056fe43616e6e6f742063616c6c2066616c6c6261636b2066756e6374696f6e2066726f6d207468652070726f78792061646d696e43616e6e6f742073657420612070726f787920696d706c656d656e746174696f6e20746f2061206e6f6e2d636f6e74726163742061646472657373a26469706673582212209fe063aef895149de25bd7ba48cbfa7177a51eea00e084511434dab4366720ac64736f6c634300060c0033a26469706673582212200e62edd9c0298b5a806a409822457bcf56ee39927bdb31e8bf1064dba986871e64736f6c634300060c0033",
  "linkReferences": {},
  "deployedLinkReferences": {}
}