{
  "_format": "hh-sol-artifact-1",
  "contractName": "DistributionManagerV2",
  "sourceName": "contracts/protocol/incentives/DistributionManagerV2.sol",
  "abi": [
    {
      "inputs": [
        {
          "internalType": "address",
          "name": "emissionManager",
          "type": "address"
        },
        {
          "internalType": "uint256",
          "name": "distributionDuration",
          "type": "uint256"
        }
      ],
      "stateMutability": "nonpayable",
      "type": "constructor"
    },
    {
      "anonymous": false,
      "inputs": [
        {
          "indexed": true,
          "internalType": "address",
          "name": "asset",
          "type": "address"
        },
        {
          "indexed": false,
          "internalType": "uint256",
          "name": "emission",
          "type": "uint256"
        }
      ],
      "name": "AssetConfigUpdated",
      "type": "event"
    },
    {
      "anonymous": false,
      "inputs": [
        {
          "indexed": true,
          "internalType": "address",
          "name": "asset",
          "type": "address"
        },
        {
          "indexed": false,
          "internalType": "uint256",
          "name": "index",
          "type": "uint256"
        }
      ],
      "name": "AssetIndexUpdated",
      "type": "event"
    },
    {
      "anonymous": false,
      "inputs": [
        {
          "indexed": true,
          "internalType": "address",
          "name": "user",
          "type": "address"
        },
        {
          "indexed": true,
          "internalType": "address",
          "name": "asset",
          "type": "address"
        },
        {
          "indexed": false,
          "internalType": "uint256",
          "name": "index",
          "type": "uint256"
        }
      ],
      "name": "UserIndexUpdated",
      "type": "event"
    },
    {
      "inputs": [],
      "name": "DISTRIBUTION_END",
      "outputs": [
        {
          "internalType": "uint256",
          "name": "",
          "type": "uint256"
        }
      ],
      "stateMutability": "view",
      "type": "function"
    },
    {
      "inputs": [],
      "name": "EMISSION_MANAGER",
      "outputs": [
        {
          "internalType": "address",
          "name": "",
          "type": "address"
        }
      ],
      "stateMutability": "view",
      "type": "function"
    },
    {
      "inputs": [],
      "name": "PRECISION",
      "outputs": [
        {
          "internalType": "uint8",
          "name": "",
          "type": "uint8"
        }
      ],
      "stateMutability": "view",
      "type": "function"
    },
    {
      "inputs": [
        {
          "internalType": "address",
          "name": "",
          "type": "address"
        }
      ],
      "name": "assets",
      "outputs": [
        {
          "internalType": "uint128",
          "name": "emissionPerSecond",
          "type": "uint128"
        },
        {
          "internalType": "uint128",
          "name": "lastUpdateTimestamp",
          "type": "uint128"
        },
        {
          "internalType": "uint256",
          "name": "index",
          "type": "uint256"
        }
      ],
      "stateMutability": "view",
      "type": "function"
    },
    {
      "inputs": [
        {
          "components": [
            {
              "internalType": "uint104",
              "name": "emissionPerSecond",
              "type": "uint104"
            },
            {
              "internalType": "uint256",
              "name": "totalStaked",
              "type": "uint256"
            },
            {
              "internalType": "address",
              "name": "underlyingAsset",
              "type": "address"
            }
          ],
          "internalType": "struct DistributionTypes.AssetConfigInput[]",
          "name": "assetsConfigInput",
          "type": "tuple[]"
        }
      ],
      "name": "configureAssets",
      "outputs": [],
      "stateMutability": "nonpayable",
      "type": "function"
    },
    {
      "inputs": [
        {
          "internalType": "address",
          "name": "user",
          "type": "address"
        },
        {
          "internalType": "address",
          "name": "asset",
          "type": "address"
        }
      ],
      "name": "getUserAssetData",
      "outputs": [
        {
          "internalType": "uint256",
          "name": "",
          "type": "uint256"
        }
      ],
      "stateMutability": "view",
      "type": "function"
    },
    {
      "inputs": [
        {
          "internalType": "uint256",
          "name": "_distributionEnd",
          "type": "uint256"
        }
      ],
      "name": "setDistributionEnd",
      "outputs": [],
      "stateMutability": "nonpayable",
      "type": "function"
    },
    {
      "inputs": [
        {
          "internalType": "address",
          "name": "_emissionManager",
          "type": "address"
        }
      ],
      "name": "setEmissionManager",
      "outputs": [],
      "stateMutability": "nonpayable",
      "type": "function"
    }
  ],
  "bytecode": "0x608060405234801561001057600080fd5b50604051610a5f380380610a5f83398101604081905261002f916100a4565b610046814261006f60201b6103df1790919060201c565b60005550600180546001600160a01b0319166001600160a01b0392909216919091179055610113565b60008282018381101561009d5760405162461bcd60e51b8152600401610094906100dc565b60405180910390fd5b9392505050565b600080604083850312156100b6578182fd5b82516001600160a01b03811681146100cc578283fd5b6020939093015192949293505050565b6020808252601b908201527f536166654d6174683a206164646974696f6e206f766572666c6f770000000000604082015260600190565b61093d806101226000396000f3fe608060405234801561001057600080fd5b50600436106100885760003560e01c8063aaf5eb681161005b578063aaf5eb68146100e6578063b8d0098d146100fb578063cbcbb5071461010e578063f11b81881461012357610088565b80633373ee4c1461008d57806339ccbdd3146100b65780634f7459d5146100cb578063919cd40f146100de575b600080fd5b6100a061009b3660046106c7565b610145565b6040516100ad91906108f0565b60405180910390f35b6100c96100c4366004610792565b610175565b005b6100c96100d93660046106ac565b6101ad565b6100a06101f9565b6100ee6101ff565b6040516100ad91906108f9565b6100c96101093660046106fb565b610204565b6101166103a2565b6040516100ad91906107aa565b6101366101313660046106ac565b6103b1565b6040516100ad939291906108cc565b6001600160a01b038082166000908152600260208181526040808420948716845293909101905220545b92915050565b6001546001600160a01b031633146101a85760405162461bcd60e51b815260040161019f90610889565b60405180910390fd5b600055565b6001546001600160a01b031633146101d75760405162461bcd60e51b815260040161019f90610889565b600180546001600160a01b0319166001600160a01b0392909216919091179055565b60005481565b601281565b6001546001600160a01b0316331461022e5760405162461bcd60e51b815260040161019f90610889565b60005b8181101561039d5760006002600085858581811061024b57fe5b905060600201604001602081019061026391906106ac565b6001600160a01b03166001600160a01b0316815260200190815260200160002090506102c884848481811061029457fe5b90506060020160400160208101906102ac91906106ac565b828686868181106102b957fe5b9050606002016020013561040b565b508383838181106102d557fe5b6102eb926020606090920201908101915061076b565b81546fffffffffffffffffffffffffffffffff19166001600160681b039190911617815583838381811061031b57fe5b905060600201604001602081019061033391906106ac565b6001600160a01b03167f87fa03892a0556cb6b8f97e6d533a150d4d55fcbf275fff5fa003fa636bcc7fa85858581811061036957fe5b61037f926020606090920201908101915061076b565b60405161038c91906108b8565b60405180910390a250600101610231565b505050565b6001546001600160a01b031681565b600260205260009081526040902080546001909101546001600160801b0380831692600160801b9004169083565b6000828201838110156104045760405162461bcd60e51b815260040161019f90610811565b9392505050565b6001820154825460009190600160801b90046001600160801b03164281141561043657509050610404565b84546000906104519084906001600160801b031684886104c8565b90508281146104a557808660010181905550866001600160a01b03167f5777ca300dfe5bead41006fbce4389794dbc0ed8d6cccebfaf94630aa04184bc8260405161049c91906108f0565b60405180910390a25b85546001600160801b03428116600160801b029116178655925050509392505050565b60008315806104d5575081155b806104e8575042836001600160801b0316145b806104fe5750600054836001600160801b031610155b1561050a57508361056c565b60008054421161051a574261051e565b6000545b90506000610535826001600160801b038716610574565b9050610567876105618661055b670de0b6b3a76400006105558c886105b6565b906105b6565b906105f0565b906103df565b925050505b949350505050565b600061040483836040518060400160405280601e81526020017f536166654d6174683a207375627472616374696f6e206f766572666c6f770000815250610632565b6000826105c55750600061016f565b828202828482816105d257fe5b04146104045760405162461bcd60e51b815260040161019f90610848565b600061040483836040518060400160405280601a81526020017f536166654d6174683a206469766973696f6e206279207a65726f00000000000081525061065e565b600081848411156106565760405162461bcd60e51b815260040161019f91906107be565b505050900390565b6000818361067f5760405162461bcd60e51b815260040161019f91906107be565b50600083858161068b57fe5b0495945050505050565b80356001600160a01b038116811461016f57600080fd5b6000602082840312156106bd578081fd5b6104048383610695565b600080604083850312156106d9578081fd5b6106e38484610695565b91506106f28460208501610695565b90509250929050565b6000806020838503121561070d578182fd5b823567ffffffffffffffff80821115610724578384fd5b818501915085601f830112610737578384fd5b813581811115610745578485fd5b866020606083028501011115610759578485fd5b60209290920196919550909350505050565b60006020828403121561077c578081fd5b81356001600160681b0381168114610404578182fd5b6000602082840312156107a3578081fd5b5035919050565b6001600160a01b0391909116815260200190565b6000602080835283518082850152825b818110156107ea578581018301518582016040015282016107ce565b818111156107fb5783604083870101525b50601f01601f1916929092016040019392505050565b6020808252601b908201527f536166654d6174683a206164646974696f6e206f766572666c6f770000000000604082015260600190565b60208082526021908201527f536166654d6174683a206d756c7469706c69636174696f6e206f766572666c6f6040820152607760f81b606082015260800190565b60208082526015908201527427a7262cafa2a6a4a9a9a4a7a72fa6a0a720a3a2a960591b604082015260600190565b6001600160681b0391909116815260200190565b6001600160801b039384168152919092166020820152604081019190915260600190565b90815260200190565b60ff9190911681526020019056fea2646970667358221220b4aa720863fb4dee4a046526b94e6368efaec105440376a43024989d25a6033f64736f6c634300060c0033",
  "linkReferences": {},
  "deployedLinkReferences": {}
}