{
  "_format": "hh-sol-artifact-1",
  "contractName": "InterestRateFactory",
  "sourceName": "contracts/protocol/factory/InterestRateFactory.sol",
  "abi": [
    {
      "inputs": [
        {
          "internalType": "uint256",
          "name": "providerId",
          "type": "uint256"
        }
      ],
      "name": "getListInterestRateAddress",
      "outputs": [
        {
          "internalType": "address[]",
          "name": "listInterestRateStrategies",
          "type": "address[]"
        }
      ],
      "stateMutability": "view",
      "type": "function"
    },
    {
      "inputs": [
        {
          "internalType": "address",
          "name": "providerAddress",
          "type": "address"
        },
        {
          "internalType": "uint256",
          "name": "providerId",
          "type": "uint256"
        },
        {
          "components": [
            {
              "internalType": "uint256",
              "name": "utilizationOptimal",
              "type": "uint256"
            },
            {
              "internalType": "uint256",
              "name": "BaseInterstRate",
              "type": "uint256"
            },
            {
              "internalType": "uint256",
              "name": "slope1",
              "type": "uint256"
            },
            {
              "internalType": "uint256",
              "name": "slope2",
              "type": "uint256"
            }
          ],
          "internalType": "struct InterestRateFactory.TokenInfor[]",
          "name": "tokenInput",
          "type": "tuple[]"
        }
      ],
      "name": "initInterestRateStrategy",
      "outputs": [
        {
          "internalType": "address[]",
          "name": "interestRateStrategies",
          "type": "address[]"
        }
      ],
      "stateMutability": "nonpayable",
      "type": "function"
    }
  ],
  "bytecode": "0x608060405234801561001057600080fd5b506110cf806100206000396000f3fe608060405234801561001057600080fd5b50600436106100365760003560e01c80632e00a9611461003b578063b13d9ed114610064575b600080fd5b61004e61004936600461031e565b610077565b60405161005b91906103bd565b60405180910390f35b61004e6100723660046103a5565b610284565b604051631b8d2d3960e21b815260609085906001600160a01b03821690636e34b4e4906100a8908890600401610479565b60206040518083038186803b1580156100c057600080fd5b505afa1580156100d4573d6000803e3d6000fd5b505050506040513d601f19601f820116820180604052508101906100f891906102fb565b6001600160a01b0316336001600160a01b0316146101315760405162461bcd60e51b815260040161012890610438565b60405180910390fd5b60005b838110156102175760008286868481811061014b57fe5b9050608002016000013587878581811061016157fe5b9050608002016020013588888681811061017757fe5b9050608002016040013589898781811061018d57fe5b905060800201606001356040516101a3906102ee565b6101b195949392919061040a565b604051809103906000f0801580156101cd573d6000803e3d6000fd5b506000888152602081815260408220805460018082018355918452919092200180546001600160a01b0319166001600160a01b039390931692909217909155919091019050610134565b50600085815260208181526040918290208054835181840281018401909452808452909183018282801561027457602002820191906000526020600020905b81546001600160a01b03168152600190910190602001808311610256575b5050505050915050949350505050565b600081815260208181526040918290208054835181840281018401909452808452606093928301828280156102e257602002820191906000526020600020905b81546001600160a01b031681526001909101906020018083116102c4575b50505050509050919050565b610bff8061049b83390190565b60006020828403121561030c578081fd5b815161031781610482565b9392505050565b60008060008060608587031215610333578283fd5b843561033e81610482565b935060208501359250604085013567ffffffffffffffff80821115610361578384fd5b818701915087601f830112610374578384fd5b813581811115610382578485fd5b886020608083028501011115610396578485fd5b95989497505060200194505050565b6000602082840312156103b6578081fd5b5035919050565b6020808252825182820181905260009190848201906040850190845b818110156103fe5783516001600160a01b0316835292840192918401916001016103d9565b50909695505050505050565b6001600160a01b03959095168552602085019390935260408401919091526060830152608082015260a00190565b60208082526021908201527f5468652043616c6c6572206d7573742062652074686520706f6f6c206f776e656040820152603960f91b606082015260800190565b90815260200190565b6001600160a01b038116811461049757600080fd5b5056fe61014060405234801561001157600080fd5b50604051610bff380380610bff833981810160405260a081101561003457600080fd5b5080516020808301516040840151606085015160809586015195839052939491939092909190610083908590610071906105c56100ad821b17901c565b6100bd60201b6105d51790919060201c565b60a05260609490941b6001600160601b03191660c05260e0919091526101005250610120526101a3565b6b033b2e3c9fd0803ce800000090565b600061010583836040518060400160405280601e81526020017f536166654d6174683a207375627472616374696f6e206f766572666c6f77000081525061010c60201b60201c565b9392505050565b6000818484111561019b5760405162461bcd60e51b81526004018080602001828103825283818151815260200191508051906020019080838360005b83811015610160578181015183820152602001610148565b50505050905090810190601f16801561018d5780820380516001836020036101000a031916815260200191505b509250505060405180910390fd5b505050900390565b60805160a05160c05160601c60e05161010051610120516109d461022b600039806101bd52806102bd5280610439525080610308528061037a5280610410528061047e5250806102e752806103a0528061045d528061057f5250806105a3525080610199528061025752508061022b528061027b528061034b528061055b52506109d46000f3fe608060405234801561001057600080fd5b50600436106100935760003560e01c806380031e371161006657806380031e371461011357806381c8c9721461011b578063a15f30ac14610163578063b25895441461016b578063c72c4d101461017357610093565b8063173198731461009857806365614f81146100b25780636ee082ca146100ba5780637b832f581461010b575b600080fd5b6100a0610197565b60408051918252519081900360200190f35b6100a06101bb565b6100f2600480360360808110156100d057600080fd5b506001600160a01b0381351690602081013590604081013590606001356101df565b6040805192835260208301919091528051918290030190f35b6100a061040e565b6100a0610432565b6100f2600480360360c081101561013157600080fd5b506001600160a01b03813581169160208101359091169060408101359060608101359060808101359060a001356104a7565b6100a0610559565b6100a061057d565b61017b6105a1565b604080516001600160a01b039092168252519081900360200190f35b7f000000000000000000000000000000000000000000000000000000000000000081565b7f000000000000000000000000000000000000000000000000000000000000000090565b6000806101ea610976565b8481526000602082018190526040820152841561021f57805161021a90610212908890610620565b82519061067a565b610222565b60005b606082018190527f0000000000000000000000000000000000000000000000000000000000000000101561033d5760006102b37f00000000000000000000000000000000000000000000000000000000000000006102ad7f000000000000000000000000000000000000000000000000000000000000000085606001516105d590919063ffffffff16565b9061067a565b90506103326102e27f0000000000000000000000000000000000000000000000000000000000000000836107be565b61032c7f00000000000000000000000000000000000000000000000000000000000000007f0000000000000000000000000000000000000000000000000000000000000000610620565b90610620565b6020830152506103cc565b606081015160009061036f907f000000000000000000000000000000000000000000000000000000000000000061067a565b90506103c561039e827f00000000000000000000000000000000000000000000000000000000000000006107be565b7f000000000000000000000000000000000000000000000000000000000000000090610620565b6020830152505b6103f46103db612710866105d5565b606083015160208401516103ee916107be565b9061087f565b604082018190526020909101519097909650945050505050565b7f000000000000000000000000000000000000000000000000000000000000000090565b60006104a27f000000000000000000000000000000000000000000000000000000000000000061032c7f00000000000000000000000000000000000000000000000000000000000000007f0000000000000000000000000000000000000000000000000000000000000000610620565b905090565b6000806000886001600160a01b03166370a08231896040518263ffffffff1660e01b815260040180826001600160a01b0316815260200191505060206040518083038186803b1580156104f957600080fd5b505afa15801561050d573d6000803e3d6000fd5b505050506040513d602081101561052357600080fd5b5051905061053b86610535838a610620565b906105d5565b9050610549898287876101df565b9250925050965096945050505050565b7f000000000000000000000000000000000000000000000000000000000000000081565b7f000000000000000000000000000000000000000000000000000000000000000090565b7f000000000000000000000000000000000000000000000000000000000000000081565b6b033b2e3c9fd0803ce800000090565b600061061783836040518060400160405280601e81526020017f536166654d6174683a207375627472616374696f6e206f766572666c6f77000081525061091c565b90505b92915050565b600082820183811015610617576040805162461bcd60e51b815260206004820152601b60248201527f536166654d6174683a206164646974696f6e206f766572666c6f770000000000604482015290519081900360640190fd5b604080518082019091526002815261035360f41b60208201526000908261071f5760405162461bcd60e51b81526004018080602001828103825283818151815260200191508051906020019080838360005b838110156106e45781810151838201526020016106cc565b50505050905090810190601f1680156107115780820380516001836020036101000a031916815260200191505b509250505060405180910390fd5b5060408051808201909152600280825261068760f31b60208301528304906b033b2e3c9fd0803ce800000082190485111561079b5760405162461bcd60e51b81526020600482018181528351602484015283519092839260449091019190850190808383600083156106e45781810151838201526020016106cc565b5082816b033b2e3c9fd0803ce8000000860201816107b557fe5b04949350505050565b60008215806107cb575081155b156107d85750600061061a565b816b019d971e4fe8401e7400000019816107ee57fe5b0483111560405180604001604052806002815260200161068760f31b815250906108595760405162461bcd60e51b81526020600482018181528351602484015283519092839260449091019190850190808383600083156106e45781810151838201526020016106cc565b506b033b2e3c9fd0803ce80000006002815b04838502018161087757fe5b049392505050565b600082158061088c575081155b156108995750600061061a565b8161138819816108a557fe5b0483111560405180604001604052806002815260200161068760f31b815250906109105760405162461bcd60e51b81526020600482018181528351602484015283519092839260449091019190850190808383600083156106e45781810151838201526020016106cc565b5061271060028161086b565b6000818484111561096e5760405162461bcd60e51b81526020600482018181528351602484015283519092839260449091019190850190808383600083156106e45781810151838201526020016106cc565b505050900390565b604051806080016040528060008152602001600081526020016000815260200160008152509056fea2646970667358221220ab5700a176620aee8753d09e5b3b8f719203370372e038b879d439a05c06b10464736f6c634300060c0033a2646970667358221220dc7d8723af0961611b41b95ede8b10add7f5ca6b334c8280b7c34d2fd64ca60164736f6c634300060c0033",
  "linkReferences": {},
  "deployedLinkReferences": {}
}