{
  "_format": "hh-sol-artifact-1",
  "contractName": "FactoryRegistry",
  "sourceName": "contracts/protocol/factory/FactoryRegistry.sol",
  "abi": [
    {
      "anonymous": false,
      "inputs": [
        {
          "indexed": false,
          "internalType": "bytes32",
          "name": "id",
          "type": "bytes32"
        },
        {
          "indexed": true,
          "internalType": "address",
          "name": "newAddress",
          "type": "address"
        },
        {
          "indexed": false,
          "internalType": "bool",
          "name": "hasProxy",
          "type": "bool"
        }
      ],
      "name": "AddressSet",
      "type": "event"
    },
    {
      "anonymous": false,
      "inputs": [
        {
          "indexed": true,
          "internalType": "address",
          "name": "newAddress",
          "type": "address"
        }
      ],
      "name": "AddressesProviderFactoryUpdated",
      "type": "event"
    },
    {
      "anonymous": false,
      "inputs": [
        {
          "indexed": false,
          "internalType": "uint256",
          "name": "providerId",
          "type": "uint256"
        },
        {
          "indexed": true,
          "internalType": "address",
          "name": "newAddress",
          "type": "address"
        }
      ],
      "name": "ConfigurationAdminUpdated",
      "type": "event"
    },
    {
      "anonymous": false,
      "inputs": [
        {
          "indexed": false,
          "internalType": "uint256",
          "name": "providerId",
          "type": "uint256"
        },
        {
          "indexed": true,
          "internalType": "address",
          "name": "newAddress",
          "type": "address"
        }
      ],
      "name": "EmergencyAdminUpdated",
      "type": "event"
    },
    {
      "anonymous": false,
      "inputs": [
        {
          "indexed": true,
          "internalType": "address",
          "name": "newAddress",
          "type": "address"
        }
      ],
      "name": "InterestRateFactoryUpdated",
      "type": "event"
    },
    {
      "anonymous": false,
      "inputs": [
        {
          "indexed": true,
          "internalType": "address",
          "name": "previousOwner",
          "type": "address"
        },
        {
          "indexed": true,
          "internalType": "address",
          "name": "newOwner",
          "type": "address"
        }
      ],
      "name": "OwnershipTransferred",
      "type": "event"
    },
    {
      "anonymous": false,
      "inputs": [
        {
          "indexed": false,
          "internalType": "bytes32",
          "name": "id",
          "type": "bytes32"
        },
        {
          "indexed": true,
          "internalType": "address",
          "name": "newAddress",
          "type": "address"
        }
      ],
      "name": "ProxyCreated",
      "type": "event"
    },
    {
      "inputs": [
        {
          "internalType": "bytes32",
          "name": "id",
          "type": "bytes32"
        }
      ],
      "name": "getAddress",
      "outputs": [
        {
          "internalType": "address",
          "name": "",
          "type": "address"
        }
      ],
      "stateMutability": "view",
      "type": "function"
    },
    {
      "inputs": [],
      "name": "getAddressesProviderFactory",
      "outputs": [
        {
          "internalType": "address",
          "name": "",
          "type": "address"
        }
      ],
      "stateMutability": "view",
      "type": "function"
    },
    {
      "inputs": [],
      "name": "getInterestRateFactory",
      "outputs": [
        {
          "internalType": "address",
          "name": "",
          "type": "address"
        }
      ],
      "stateMutability": "view",
      "type": "function"
    },
    {
      "inputs": [],
      "name": "owner",
      "outputs": [
        {
          "internalType": "address",
          "name": "",
          "type": "address"
        }
      ],
      "stateMutability": "view",
      "type": "function"
    },
    {
      "inputs": [],
      "name": "renounceOwnership",
      "outputs": [],
      "stateMutability": "nonpayable",
      "type": "function"
    },
    {
      "inputs": [
        {
          "internalType": "bytes32",
          "name": "id",
          "type": "bytes32"
        },
        {
          "internalType": "address",
          "name": "newAddress",
          "type": "address"
        }
      ],
      "name": "setAddress",
      "outputs": [],
      "stateMutability": "nonpayable",
      "type": "function"
    },
    {
      "inputs": [
        {
          "internalType": "bytes32",
          "name": "id",
          "type": "bytes32"
        },
        {
          "internalType": "address",
          "name": "implementationAddress",
          "type": "address"
        }
      ],
      "name": "setAddressAsProxy",
      "outputs": [],
      "stateMutability": "nonpayable",
      "type": "function"
    },
    {
      "inputs": [
        {
          "internalType": "address",
          "name": "addressesProviderFactoryAddress",
          "type": "address"
        }
      ],
      "name": "setAddressesProviderFactoryImpl",
      "outputs": [],
      "stateMutability": "nonpayable",
      "type": "function"
    },
    {
      "inputs": [
        {
          "internalType": "address",
          "name": "interestRateFactory",
          "type": "address"
        }
      ],
      "name": "setInterestRateFactoryImpl",
      "outputs": [],
      "stateMutability": "nonpayable",
      "type": "function"
    },
    {
      "inputs": [
        {
          "internalType": "address",
          "name": "newOwner",
          "type": "address"
        }
      ],
      "name": "transferOwnership",
      "outputs": [],
      "stateMutability": "nonpayable",
      "type": "function"
    }
  ],
  "bytecode": "0x608060405234801561001057600080fd5b50600061001b61006a565b600080546001600160a01b0319166001600160a01b0383169081178255604051929350917f8be0079c531659141344cd1fd0a4f28419497f9722a3daafe3b4186f6b6457e0908290a35061006e565b3390565b610ea08061007d6000396000f3fe608060405234801561001057600080fd5b506004361061009e5760003560e01c80638da5cb5b116100665780638da5cb5b14610140578063ca446dd914610148578063f2fde38b14610174578063f87285af1461019a578063fec39f6a146101a25761009e565b80630974f58f146100a357806321f8a721146100c757806358f109b0146100e45780635dcc528c1461010c578063715018a614610138575b600080fd5b6100ab6101c8565b604080516001600160a01b039092168252519081900360200190f35b6100ab600480360360208110156100dd57600080fd5b50356101f8565b61010a600480360360208110156100fa57600080fd5b50356001600160a01b0316610213565b005b61010a6004803603604081101561012257600080fd5b50803590602001356001600160a01b03166102cc565b61010a610375565b6100ab610417565b61010a6004803603604081101561015e57600080fd5b50803590602001356001600160a01b0316610426565b61010a6004803603602081101561018a57600080fd5b50356001600160a01b03166104e7565b6100ab6105df565b61010a600480360360208110156101b857600080fd5b50356001600160a01b0316610602565b60006101f37f4144445245535345535f50524f56494445525f464143544f52590000000000006101f8565b905090565b6000908152600160205260409020546001600160a01b031690565b61021b6106b3565b6000546001600160a01b0390811691161461026b576040805162461bcd60e51b81526020600482018190526024820152600080516020610e4b833981519152604482015290519081900360640190fd5b6102957f4144445245535345535f50524f56494445525f464143544f5259000000000000826106b7565b6040516001600160a01b038216907f620c01661a02e255068b751949c5df3c82419dc8807b87d281dd2167b7dad88a90600090a250565b6102d46106b3565b6000546001600160a01b03908116911614610324576040805162461bcd60e51b81526020600482018190526024820152600080516020610e4b833981519152604482015290519081900360640190fd5b61032e82826106b7565b604080518381526001602082015281516001600160a01b038416927ff2689d5d5cd0c639e137642cae5d40afced201a1a0327e7ac9358461dc9fff31928290030190a25050565b61037d6106b3565b6000546001600160a01b039081169116146103cd576040805162461bcd60e51b81526020600482018190526024820152600080516020610e4b833981519152604482015290519081900360640190fd5b600080546040516001600160a01b03909116907f8be0079c531659141344cd1fd0a4f28419497f9722a3daafe3b4186f6b6457e0908390a3600080546001600160a01b0319169055565b6000546001600160a01b031690565b61042e6106b3565b6000546001600160a01b0390811691161461047e576040805162461bcd60e51b81526020600482018190526024820152600080516020610e4b833981519152604482015290519081900360640190fd5b600082815260016020908152604080832080546001600160a01b0319166001600160a01b03861690811790915581518681529283019390935280517ff2689d5d5cd0c639e137642cae5d40afced201a1a0327e7ac9358461dc9fff319281900390910190a25050565b6104ef6106b3565b6000546001600160a01b0390811691161461053f576040805162461bcd60e51b81526020600482018190526024820152600080516020610e4b833981519152604482015290519081900360640190fd5b6001600160a01b0381166105845760405162461bcd60e51b8152600401808060200182810382526026815260200180610e256026913960400191505060405180910390fd5b600080546040516001600160a01b03808516939216917f8be0079c531659141344cd1fd0a4f28419497f9722a3daafe3b4186f6b6457e091a3600080546001600160a01b0319166001600160a01b0392909216919091179055565b60006101f374494e5445524553545f524154455f464143544f525960581b6101f8565b61060a6106b3565b6000546001600160a01b0390811691161461065a576040805162461bcd60e51b81526020600482018190526024820152600080516020610e4b833981519152604482015290519081900360640190fd5b61067c74494e5445524553545f524154455f464143544f525960581b826106b7565b6040516001600160a01b038216907f0390c20a98e4abfb035b30f930df418764a17e104b474e4c371e6f7fb66120ef90600090a250565b3290565b6000828152600160205260409020546001600160a01b031680806107df57306040516106e29061084d565b6001600160a01b03909116815260405190819003602001906000f08015801561070f573d6000803e3d6000fd5b509050806001600160a01b0316633659cfe6846040518263ffffffff1660e01b815260040180826001600160a01b03168152602001915050600060405180830381600087803b15801561076157600080fd5b505af1158015610775573d6000803e3d6000fd5b50505060008581526001602090815260409182902080546001600160a01b0319166001600160a01b038616908117909155825188815292519093507f1eb35cb4b5bbb23d152f3b4016a5a46c37a07ae930ed0956aba951e2311424389281900390910190a2610847565b806001600160a01b0316633659cfe6846040518263ffffffff1660e01b815260040180826001600160a01b03168152602001915050600060405180830381600087803b15801561082e57600080fd5b505af1158015610842573d6000803e3d6000fd5b505050505b50505050565b6105ca8061085b8339019056fe60a060405234801561001057600080fd5b506040516105ca3803806105ca8339818101604052602081101561003357600080fd5b5051606081901b6001600160601b0319166080526001600160a01b031661054a6100806000398061016752806101b1528061027052806102bd52806102e65280610315525061054a6000f3fe60806040526004361061003f5760003560e01c80633659cfe6146100495780634f1ef2861461007c5780635c60da1b146100fc578063f851a4401461012d575b610047610142565b005b34801561005557600080fd5b506100476004803603602081101561006c57600080fd5b50356001600160a01b031661015c565b6100476004803603604081101561009257600080fd5b6001600160a01b0382351691908101906040810160208201356401000000008111156100bd57600080fd5b8201836020820111156100cf57600080fd5b803590602001918460018302840111640100000000831117156100f157600080fd5b5090925090506101a6565b34801561010857600080fd5b50610111610263565b604080516001600160a01b039092168252519081900360200190f35b34801561013957600080fd5b506101116102b0565b61014a61030a565b61015a61015561037a565b61039f565b565b336001600160a01b037f000000000000000000000000000000000000000000000000000000000000000016141561019b57610196816103c3565b6101a3565b6101a3610142565b50565b336001600160a01b037f0000000000000000000000000000000000000000000000000000000000000000161415610256576101e0836103c3565b6000836001600160a01b031683836040518083838082843760405192019450600093509091505080830381855af49150503d806000811461023d576040519150601f19603f3d011682016040523d82523d6000602084013e610242565b606091505b505090508061025057600080fd5b5061025e565b61025e610142565b505050565b6000336001600160a01b037f00000000000000000000000000000000000000000000000000000000000000001614156102a55761029e61037a565b90506102ad565b6102ad610142565b90565b6000336001600160a01b037f00000000000000000000000000000000000000000000000000000000000000001614156102a557507f00000000000000000000000000000000000000000000000000000000000000006102ad565b336001600160a01b037f00000000000000000000000000000000000000000000000000000000000000001614156103725760405162461bcd60e51b81526004018080602001828103825260328152602001806104a86032913960400191505060405180910390fd5b61015a61015a565b7f360894a13ba1a3210667c828492db98dca3e2076cc3735a920a3ca505d382bbc5490565b3660008037600080366000845af43d6000803e8080156103be573d6000f35b3d6000fd5b6103cc81610403565b6040516001600160a01b038216907fbc7cd75a20ee27fd9adebab32041f755214dbc6bffa90cc0225b39da2e5c2d3b90600090a250565b61040c8161046b565b6104475760405162461bcd60e51b815260040180806020018281038252603b8152602001806104da603b913960400191505060405180910390fd5b7f360894a13ba1a3210667c828492db98dca3e2076cc3735a920a3ca505d382bbc55565b6000813f7fc5d2460186f7233c927e7db2dcc703c0e500b653ca82273b7bfad8045d85a47081811480159061049f57508115155b94935050505056fe43616e6e6f742063616c6c2066616c6c6261636b2066756e6374696f6e2066726f6d207468652070726f78792061646d696e43616e6e6f742073657420612070726f787920696d706c656d656e746174696f6e20746f2061206e6f6e2d636f6e74726163742061646472657373a2646970667358221220130018a9ac23311484f1545e7e1194d5cd85282084c0403c699bb02863ad826b64736f6c634300060c00334f776e61626c653a206e6577206f776e657220697320746865207a65726f20616464726573734f776e61626c653a2063616c6c6572206973206e6f7420746865206f776e6572a2646970667358221220ef87bbe08ff296b106d92fedfe5f4355564f9e9be9c5aa629ffb9dbd5306b5d464736f6c634300060c0033",
  "linkReferences": {},
  "deployedLinkReferences": {}
}