{
  "_format": "hh-sol-artifact-1",
  "contractName": "StakedTokenIncentivesController",
  "sourceName": "contracts/protocol/incentives/StakedTokenIncentivesController.sol",
  "abi": [
    {
      "inputs": [
        {
          "internalType": "contract IStakedTokenWithConfig",
          "name": "stakeToken",
          "type": "address"
        },
        {
          "internalType": "address",
          "name": "emissionManager",
          "type": "address"
        }
      ],
      "stateMutability": "nonpayable",
      "type": "constructor"
    },
    {
      "anonymous": false,
      "inputs": [
        {
          "indexed": true,
          "internalType": "address",
          "name": "asset",
          "type": "address"
        },
        {
          "indexed": false,
          "internalType": "uint256",
          "name": "emission",
          "type": "uint256"
        }
      ],
      "name": "AssetConfigUpdated",
      "type": "event"
    },
    {
      "anonymous": false,
      "inputs": [
        {
          "indexed": true,
          "internalType": "address",
          "name": "asset",
          "type": "address"
        },
        {
          "indexed": false,
          "internalType": "uint256",
          "name": "index",
          "type": "uint256"
        }
      ],
      "name": "AssetIndexUpdated",
      "type": "event"
    },
    {
      "anonymous": false,
      "inputs": [
        {
          "indexed": true,
          "internalType": "address",
          "name": "user",
          "type": "address"
        },
        {
          "indexed": true,
          "internalType": "address",
          "name": "claimer",
          "type": "address"
        }
      ],
      "name": "ClaimerSet",
      "type": "event"
    },
    {
      "anonymous": false,
      "inputs": [
        {
          "indexed": false,
          "internalType": "uint256",
          "name": "newDistributionEnd",
          "type": "uint256"
        }
      ],
      "name": "DistributionEndUpdated",
      "type": "event"
    },
    {
      "anonymous": false,
      "inputs": [
        {
          "indexed": true,
          "internalType": "address",
          "name": "user",
          "type": "address"
        },
        {
          "indexed": false,
          "internalType": "uint256",
          "name": "amount",
          "type": "uint256"
        }
      ],
      "name": "RewardsAccrued",
      "type": "event"
    },
    {
      "anonymous": false,
      "inputs": [
        {
          "indexed": true,
          "internalType": "address",
          "name": "user",
          "type": "address"
        },
        {
          "indexed": true,
          "internalType": "address",
          "name": "to",
          "type": "address"
        },
        {
          "indexed": true,
          "internalType": "address",
          "name": "claimer",
          "type": "address"
        },
        {
          "indexed": false,
          "internalType": "uint256",
          "name": "amount",
          "type": "uint256"
        }
      ],
      "name": "RewardsClaimed",
      "type": "event"
    },
    {
      "anonymous": false,
      "inputs": [
        {
          "indexed": true,
          "internalType": "address",
          "name": "user",
          "type": "address"
        },
        {
          "indexed": true,
          "internalType": "address",
          "name": "asset",
          "type": "address"
        },
        {
          "indexed": false,
          "internalType": "uint256",
          "name": "index",
          "type": "uint256"
        }
      ],
      "name": "UserIndexUpdated",
      "type": "event"
    },
    {
      "inputs": [],
      "name": "DISTRIBUTION_END",
      "outputs": [
        {
          "internalType": "uint256",
          "name": "",
          "type": "uint256"
        }
      ],
      "stateMutability": "view",
      "type": "function"
    },
    {
      "inputs": [],
      "name": "EMISSION_MANAGER",
      "outputs": [
        {
          "internalType": "address",
          "name": "",
          "type": "address"
        }
      ],
      "stateMutability": "view",
      "type": "function"
    },
    {
      "inputs": [],
      "name": "PRECISION",
      "outputs": [
        {
          "internalType": "uint8",
          "name": "",
          "type": "uint8"
        }
      ],
      "stateMutability": "view",
      "type": "function"
    },
    {
      "inputs": [],
      "name": "REVISION",
      "outputs": [
        {
          "internalType": "uint256",
          "name": "",
          "type": "uint256"
        }
      ],
      "stateMutability": "view",
      "type": "function"
    },
    {
      "inputs": [],
      "name": "REWARD_TOKEN",
      "outputs": [
        {
          "internalType": "address",
          "name": "",
          "type": "address"
        }
      ],
      "stateMutability": "view",
      "type": "function"
    },
    {
      "inputs": [],
      "name": "STAKE_TOKEN",
      "outputs": [
        {
          "internalType": "contract IStakedTokenWithConfig",
          "name": "",
          "type": "address"
        }
      ],
      "stateMutability": "view",
      "type": "function"
    },
    {
      "inputs": [
        {
          "internalType": "address",
          "name": "",
          "type": "address"
        }
      ],
      "name": "assets",
      "outputs": [
        {
          "internalType": "uint104",
          "name": "emissionPerSecond",
          "type": "uint104"
        },
        {
          "internalType": "uint104",
          "name": "index",
          "type": "uint104"
        },
        {
          "internalType": "uint40",
          "name": "lastUpdateTimestamp",
          "type": "uint40"
        }
      ],
      "stateMutability": "view",
      "type": "function"
    },
    {
      "inputs": [
        {
          "internalType": "address[]",
          "name": "assets",
          "type": "address[]"
        },
        {
          "internalType": "uint256",
          "name": "amount",
          "type": "uint256"
        },
        {
          "internalType": "address",
          "name": "to",
          "type": "address"
        }
      ],
      "name": "claimRewards",
      "outputs": [
        {
          "internalType": "uint256",
          "name": "",
          "type": "uint256"
        }
      ],
      "stateMutability": "nonpayable",
      "type": "function"
    },
    {
      "inputs": [
        {
          "internalType": "address[]",
          "name": "assets",
          "type": "address[]"
        },
        {
          "internalType": "uint256",
          "name": "amount",
          "type": "uint256"
        },
        {
          "internalType": "address",
          "name": "user",
          "type": "address"
        },
        {
          "internalType": "address",
          "name": "to",
          "type": "address"
        }
      ],
      "name": "claimRewardsOnBehalf",
      "outputs": [
        {
          "internalType": "uint256",
          "name": "",
          "type": "uint256"
        }
      ],
      "stateMutability": "nonpayable",
      "type": "function"
    },
    {
      "inputs": [
        {
          "internalType": "address[]",
          "name": "assets",
          "type": "address[]"
        },
        {
          "internalType": "uint256[]",
          "name": "emissionsPerSecond",
          "type": "uint256[]"
        }
      ],
      "name": "configureAssets",
      "outputs": [],
      "stateMutability": "nonpayable",
      "type": "function"
    },
    {
      "inputs": [
        {
          "internalType": "address",
          "name": "asset",
          "type": "address"
        }
      ],
      "name": "getAssetData",
      "outputs": [
        {
          "internalType": "uint256",
          "name": "",
          "type": "uint256"
        },
        {
          "internalType": "uint256",
          "name": "",
          "type": "uint256"
        },
        {
          "internalType": "uint256",
          "name": "",
          "type": "uint256"
        }
      ],
      "stateMutability": "view",
      "type": "function"
    },
    {
      "inputs": [
        {
          "internalType": "address",
          "name": "user",
          "type": "address"
        }
      ],
      "name": "getClaimer",
      "outputs": [
        {
          "internalType": "address",
          "name": "",
          "type": "address"
        }
      ],
      "stateMutability": "view",
      "type": "function"
    },
    {
      "inputs": [],
      "name": "getDistributionEnd",
      "outputs": [
        {
          "internalType": "uint256",
          "name": "",
          "type": "uint256"
        }
      ],
      "stateMutability": "view",
      "type": "function"
    },
    {
      "inputs": [
        {
          "internalType": "address[]",
          "name": "assets",
          "type": "address[]"
        },
        {
          "internalType": "address",
          "name": "user",
          "type": "address"
        }
      ],
      "name": "getRewardsBalance",
      "outputs": [
        {
          "internalType": "uint256",
          "name": "",
          "type": "uint256"
        }
      ],
      "stateMutability": "view",
      "type": "function"
    },
    {
      "inputs": [
        {
          "internalType": "address",
          "name": "user",
          "type": "address"
        },
        {
          "internalType": "address",
          "name": "asset",
          "type": "address"
        }
      ],
      "name": "getUserAssetData",
      "outputs": [
        {
          "internalType": "uint256",
          "name": "",
          "type": "uint256"
        }
      ],
      "stateMutability": "view",
      "type": "function"
    },
    {
      "inputs": [
        {
          "internalType": "address",
          "name": "_user",
          "type": "address"
        }
      ],
      "name": "getUserUnclaimedRewards",
      "outputs": [
        {
          "internalType": "uint256",
          "name": "",
          "type": "uint256"
        }
      ],
      "stateMutability": "view",
      "type": "function"
    },
    {
      "inputs": [
        {
          "internalType": "address",
          "name": "user",
          "type": "address"
        },
        {
          "internalType": "uint256",
          "name": "totalSupply",
          "type": "uint256"
        },
        {
          "internalType": "uint256",
          "name": "userBalance",
          "type": "uint256"
        }
      ],
      "name": "handleAction",
      "outputs": [],
      "stateMutability": "nonpayable",
      "type": "function"
    },
    {
      "inputs": [
        {
          "internalType": "address",
          "name": "addressesProvider",
          "type": "address"
        }
      ],
      "name": "initialize",
      "outputs": [],
      "stateMutability": "nonpayable",
      "type": "function"
    },
    {
      "inputs": [
        {
          "internalType": "address",
          "name": "user",
          "type": "address"
        },
        {
          "internalType": "address",
          "name": "caller",
          "type": "address"
        }
      ],
      "name": "setClaimer",
      "outputs": [],
      "stateMutability": "nonpayable",
      "type": "function"
    },
    {
      "inputs": [
        {
          "internalType": "uint256",
          "name": "distributionEnd",
          "type": "uint256"
        }
      ],
      "name": "setDistributionEnd",
      "outputs": [],
      "stateMutability": "nonpayable",
      "type": "function"
    }
  ],
  "bytecode": "0x60c0604052600080553480156200001557600080fd5b506040516200209938038062002099833981016040819052620000389162000058565b6001600160601b0319606091821b811660805291901b1660a052620000af565b600080604083850312156200006b578182fd5b8251620000788162000096565b60208401519092506200008b8162000096565b809150509250929050565b6001600160a01b0381168114620000ac57600080fd5b50565b60805160601c60a05160601c611f9d620000fc6000398061030552806109a85280610a3c5280610a605280610e70525080610442528061058d5280610b175280610b805250611f9d6000f3fe608060405234801561001057600080fd5b506004361061012c5760003560e01c80638b599f26116100ad578063cbcbb50711610071578063cbcbb50714610263578063cc69afec1461022b578063dde43cba1461026b578063f11b818814610273578063f5cf673b146102955761012c565b80638b599f2614610218578063919cd40f1461022b57806399248ea714610233578063aaf5eb681461023b578063c4d66de8146102505761012c565b80633373ee4c116100f45780633373ee4c146101b957806339ccbdd3146101cc5780636d34b96e146101df57806374d945ec146101f257806379f171b2146102055761012c565b80631652e7b714610131578063198fa81e1461015c5780631c39b6721461017c5780633111e7b31461019157806331873e2e146101a4575b600080fd5b61014461013f36600461189e565b6102a8565b60405161015393929190611eff565b60405180910390f35b61016f61016a36600461189e565b6102e8565b6040516101539190611ef6565b610184610303565b6040516101539190611b5e565b61016f61019f366004611a00565b610327565b6101b76101b236600461190e565b610371565b005b61016f6101c73660046118d6565b610406565b6101b76101da366004611aef565b610437565b61016f6101ed366004611a5d565b6104bf565b61018461020036600461189e565b610564565b6101b7610213366004611997565b610582565b61016f610226366004611942565b6107e7565b61016f6109a0565b6101846109a6565b6102436109ca565b6040516101539190611f15565b6101b761025e36600461189e565b6109cf565b610184610b15565b61016f610b39565b61028661028136600461189e565b610b3e565b60405161015393929190611ecc565b6101b76102a33660046118d6565b610b75565b6001600160a01b0316600090815260346020526040902054600160681b81046001600160681b039081169290821691600160d01b900464ffffffffff1690565b6001600160a01b031660009081526036602052604090205490565b7f000000000000000000000000000000000000000000000000000000000000000081565b60006001600160a01b0382166103585760405162461bcd60e51b815260040161034f90611c87565b60405180910390fd5b610366858585333387610c14565b90505b949350505050565b600061037f84338486610f3e565b90508015610400576001600160a01b0384166000908152603660205260409020546103aa9082610ffd565b6001600160a01b038516600081815260366020526040908190209290925590517f2468f9268c60ad90e2d49edb0032c8a001e733ae888b3ab8e982edf535be1a76906103f7908490611ef6565b60405180910390a25b50505050565b6001600160a01b03808216600090815260346020908152604080832093861683526001909301905220545b92915050565b336001600160a01b037f0000000000000000000000000000000000000000000000000000000000000000161461047f5760405162461bcd60e51b815260040161034f90611def565b60358190556040517f1cc1849a6602c3e91f2088cadea4381cc5717f2f28584197060ed2ebb434c16f906104b4908390611ef6565b60405180910390a150565b6001600160a01b038083166000908152603760205260408120549091339185911682146104fe5760405162461bcd60e51b815260040161034f90611e1e565b6001600160a01b0385166105245760405162461bcd60e51b815260040161034f90611c59565b6001600160a01b03841661054a5760405162461bcd60e51b815260040161034f90611c87565b610558888888338989610c14565b98975050505050505050565b6001600160a01b039081166000908152603760205260409020541690565b336001600160a01b037f000000000000000000000000000000000000000000000000000000000000000016146105ca5760405162461bcd60e51b815260040161034f90611def565b8281146105e95760405162461bcd60e51b815260040161034f90611cb3565b60608367ffffffffffffffff8111801561060257600080fd5b5060405190808252806020026020018201604052801561063c57816020015b61062961180b565b8152602001906001900390816106215790505b50905060005b848110156107d65785858281811061065657fe5b905060200201602081019061066b919061189e565b82828151811061067757fe5b6020026020010151604001906001600160a01b031690816001600160a01b0316815250508383828181106106a757fe5b905060200201358282815181106106ba57fe5b60209081029190910101516001600160681b0390911690528383828181106106de57fe5b905060200201358282815181106106f157fe5b6020026020010151600001516001600160681b0316146107235760405162461bcd60e51b815260040161034f90611cb3565b85858281811061072f57fe5b9050602002016020810190610744919061189e565b6001600160a01b031663b1bf962d6040518163ffffffff1660e01b815260040160206040518083038186803b15801561077c57600080fd5b505afa158015610790573d6000803e3d6000fd5b505050506040513d601f19601f820116820180604052508101906107b49190611b07565b8282815181106107c057fe5b6020908102919091018101510152600101610642565b506107e081611022565b5050505050565b6001600160a01b03811660009081526036602052604081205460608467ffffffffffffffff8111801561081957600080fd5b5060405190808252806020026020018201604052801561085357816020015b61084061182b565b8152602001906001900390816108385790505b50905060005b8581101561097f5786868281811061086d57fe5b9050602002016020810190610882919061189e565b82828151811061088e57fe5b60209081029190910101516001600160a01b0390911690528686828181106108b257fe5b90506020020160208101906108c7919061189e565b6001600160a01b0316630afbcdc9866040518263ffffffff1660e01b81526004016108f29190611b5e565b604080518083038186803b15801561090957600080fd5b505afa15801561091d573d6000803e3d6000fd5b505050506040513d601f19601f820116820180604052508101906109419190611b1f565b83838151811061094d57fe5b602002602001015160200184848151811061096457fe5b60209081029190910101516040019190915252600101610859565b5061099461098d858361115e565b8390610ffd565b925050505b9392505050565b60355490565b7f000000000000000000000000000000000000000000000000000000000000000090565b601281565b60006109d961125c565b60015490915060ff16806109f057506109f0611261565b806109fc575060005481115b610a185760405162461bcd60e51b815260040161034f90611da1565b60015460ff16158015610a37576001805460ff19168117905560008290555b610aff7f00000000000000000000000000000000000000000000000000000000000000006000197f00000000000000000000000000000000000000000000000000000000000000006001600160a01b031663312f6b836040518163ffffffff1660e01b815260040160206040518083038186803b158015610ab757600080fd5b505afa158015610acb573d6000803e3d6000fd5b505050506040513d601f19601f82011682018060405250810190610aef91906118ba565b6001600160a01b03169190611267565b8015610b10576001805460ff191690555b505050565b7f000000000000000000000000000000000000000000000000000000000000000081565b600181565b6034602052600090815260409020546001600160681b0380821691600160681b810490911690600160d01b900464ffffffffff1683565b336001600160a01b037f00000000000000000000000000000000000000000000000000000000000000001614610bbd5760405162461bcd60e51b815260040161034f90611def565b6001600160a01b0382811660008181526037602052604080822080546001600160a01b0319169486169485179055517f4925eafc82d0c4d67889898eeed64b18488ab19811e61620f387026dec126a289190a35050565b600084610c2357506000610f34565b6001600160a01b03831660009081526036602052604090205460608767ffffffffffffffff81118015610c5557600080fd5b50604051908082528060200260200182016040528015610c8f57816020015b610c7c61182b565b815260200190600190039081610c745790505b50905060005b88811015610dbb57898982818110610ca957fe5b9050602002016020810190610cbe919061189e565b828281518110610cca57fe5b60209081029190910101516001600160a01b039091169052898982818110610cee57fe5b9050602002016020810190610d03919061189e565b6001600160a01b0316630afbcdc9876040518263ffffffff1660e01b8152600401610d2e9190611b5e565b604080518083038186803b158015610d4557600080fd5b505afa158015610d59573d6000803e3d6000fd5b505050506040513d601f19601f82011682018060405250810190610d7d9190611b1f565b838381518110610d8957fe5b6020026020010151602001848481518110610da057fe5b60209081029190910101516040019190915252600101610c95565b506000610dc88683611361565b90508015610e1e57610dda8382610ffd565b9250856001600160a01b03167f2468f9268c60ad90e2d49edb0032c8a001e733ae888b3ab8e982edf535be1a7682604051610e159190611ef6565b60405180910390a25b82610e2f5760009350505050610f34565b6000838911610e3e5788610e40565b835b6001600160a01b03808916600090815260366020526040908190208388039055516356e4bb9760e11b81529192507f0000000000000000000000000000000000000000000000000000000000000000169063adc9772e90610ea79089908590600401611b8c565b600060405180830381600087803b158015610ec157600080fd5b505af1158015610ed5573d6000803e3d6000fd5b50505050876001600160a01b0316866001600160a01b0316886001600160a01b03167f5637d7f962248a7f05a7ab69eec6446e31f3d0a299d997f135a65c62806e789184604051610f269190611ef6565b60405180910390a493505050505b9695505050505050565b6001600160a01b0380841660009081526034602090815260408083209388168352600184019091528120549091908280610f798885886113cd565b9050808314610ff1578615610f9657610f938782856114fd565b91505b6001600160a01b03808a1660008181526001870160205260409081902084905551918a16917fbb123b5c06d5408bbea3c4fef481578175cfb432e3b482c6186f02ed9086585b90610fe8908590611ef6565b60405180910390a35b50979650505050505050565b6000828201838110156109995760405162461bcd60e51b815260040161034f90611c22565b60005b815181101561115a5760006034600084848151811061104057fe5b6020026020010151604001516001600160a01b03166001600160a01b0316815260200190815260200160002090506110a783838151811061107d57fe5b6020026020010151604001518285858151811061109657fe5b6020026020010151602001516113cd565b508282815181106110b457fe5b60209081029190910101515181546cffffffffffffffffffffffffff19166001600160681b0390911617815582518390839081106110ee57fe5b6020026020010151604001516001600160a01b03167f87fa03892a0556cb6b8f97e6d533a150d4d55fcbf275fff5fa003fa636bcc7fa84848151811061113057fe5b6020026020010151600001516040516111499190611eb8565b60405180910390a250600101611025565b5050565b600080805b83518110156112545760006034600086848151811061117e57fe5b602090810291909101810151516001600160a01b031682528101919091526040016000908120805487519193506111f391600160681b82046001600160681b039081169290811691600160d01b90910464ffffffffff16908a90889081106111e257fe5b60200260200101516040015161152c565b905061124861124187858151811061120757fe5b602002602001015160200151838560010160008c6001600160a01b03166001600160a01b03168152602001908152602001600020546114fd565b8590610ffd565b93505050600101611163565b509392505050565b600190565b303b1590565b8015806112ef5750604051636eb1769f60e11b81526001600160a01b0384169063dd62ed3e9061129d9030908690600401611b72565b60206040518083038186803b1580156112b557600080fd5b505afa1580156112c9573d6000803e3d6000fd5b505050506040513d601f19601f820116820180604052508101906112ed9190611b07565b155b61130b5760405162461bcd60e51b815260040161034f90611d4b565b610b108363095ea7b360e01b848460405160240161132a929190611b8c565b60408051601f198184030181529190526020810180516001600160e01b03166001600160e01b0319909316929092179091526115cc565b600080805b8351811015611254576113c361098d8686848151811061138257fe5b60200260200101516000015187858151811061139a57fe5b6020026020010151602001518886815181106113b257fe5b602002602001015160400151610f3e565b9150600101611366565b81546000906001600160681b03600160681b82048116919081169064ffffffffff600160d01b909104164281141561140a57829350505050610999565b60006114188484848961152c565b90508381146114d35780816001600160681b0316146114495760405162461bcd60e51b815260040161034f90611ce2565b86546cffffffffffffffffffffffffff60681b1916600160681b6001600160681b038316021764ffffffffff60d01b1916600160d01b4264ffffffffff16021787556040516001600160a01b038916907f5777ca300dfe5bead41006fbce4389794dbc0ed8d6cccebfaf94630aa04184bc906114c6908490611ef6565b60405180910390a26114f2565b865464ffffffffff60d01b1916600160d01b4264ffffffffff16021787555b979650505050505050565b6000670de0b6b3a764000061151c61151585856116b1565b86906116f3565b8161152357fe5b04949350505050565b60355460009084158061153d575082155b80611550575042846001600160801b0316145b80611564575080846001600160801b031610155b156115725785915050610369565b60008142116115815742611583565b815b9050600061159a826001600160801b0388166116b1565b9050610558886115c6876115c0670de0b6b3a76400006115ba8d886116f3565b906116f3565b9061172d565b90610ffd565b6115de826001600160a01b031661176f565b6115fa5760405162461bcd60e51b815260040161034f90611e81565b60006060836001600160a01b0316836040516116169190611b42565b6000604051808303816000865af19150503d8060008114611653576040519150601f19603f3d011682016040523d82523d6000602084013e611658565b606091505b50915091508161167a5760405162461bcd60e51b815260040161034f90611e4c565b80511561040057808060200190518101906116959190611acf565b6104005760405162461bcd60e51b815260040161034f90611bd8565b600061099983836040518060400160405280601e81526020017f536166654d6174683a207375627472616374696f6e206f766572666c6f7700008152506117a8565b60008261170257506000610431565b8282028284828161170f57fe5b04146109995760405162461bcd60e51b815260040161034f90611d0a565b600061099983836040518060400160405280601a81526020017f536166654d6174683a206469766973696f6e206279207a65726f0000000000008152506117d4565b6000813f7fc5d2460186f7233c927e7db2dcc703c0e500b653ca82273b7bfad8045d85a470818114801590610369575050151592915050565b600081848411156117cc5760405162461bcd60e51b815260040161034f9190611ba5565b505050900390565b600081836117f55760405162461bcd60e51b815260040161034f9190611ba5565b50600083858161180157fe5b0495945050505050565b604080516060810182526000808252602082018190529181019190915290565b604051806060016040528060006001600160a01b0316815260200160008152602001600081525090565b60008083601f840112611866578182fd5b50813567ffffffffffffffff81111561187d578182fd5b602083019150836020808302850101111561189757600080fd5b9250929050565b6000602082840312156118af578081fd5b813561099981611f4f565b6000602082840312156118cb578081fd5b815161099981611f4f565b600080604083850312156118e8578081fd5b82356118f381611f4f565b9150602083013561190381611f4f565b809150509250929050565b600080600060608486031215611922578081fd5b833561192d81611f4f565b95602085013595506040909401359392505050565b600080600060408486031215611956578283fd5b833567ffffffffffffffff81111561196c578384fd5b61197886828701611855565b909450925050602084013561198c81611f4f565b809150509250925092565b600080600080604085870312156119ac578081fd5b843567ffffffffffffffff808211156119c3578283fd5b6119cf88838901611855565b909650945060208701359150808211156119e7578283fd5b506119f487828801611855565b95989497509550505050565b60008060008060608587031215611a15578384fd5b843567ffffffffffffffff811115611a2b578485fd5b611a3787828801611855565b909550935050602085013591506040850135611a5281611f4f565b939692955090935050565b600080600080600060808688031215611a74578081fd5b853567ffffffffffffffff811115611a8a578182fd5b611a9688828901611855565b909650945050602086013592506040860135611ab181611f4f565b91506060860135611ac181611f4f565b809150509295509295909350565b600060208284031215611ae0578081fd5b81518015158114610999578182fd5b600060208284031215611b00578081fd5b5035919050565b600060208284031215611b18578081fd5b5051919050565b60008060408385031215611b31578182fd5b505080516020909101519092909150565b60008251611b54818460208701611f23565b9190910192915050565b6001600160a01b0391909116815260200190565b6001600160a01b0392831681529116602082015260400190565b6001600160a01b03929092168252602082015260400190565b6000602082528251806020840152611bc4816040850160208701611f23565b601f01601f19169190910160400192915050565b6020808252602a908201527f5361666542455032303a204245503230206f7065726174696f6e20646964206e6040820152691bdd081cdd58d8d9595960b21b606082015260800190565b6020808252601b908201527f536166654d6174683a206164646974696f6e206f766572666c6f770000000000604082015260600190565b602080825260149082015273494e56414c49445f555345525f4144445245535360601b604082015260600190565b602080825260129082015271494e56414c49445f544f5f4144445245535360701b604082015260600190565b60208082526015908201527424a72b20a624a22fa1a7a72324a3aaa920aa24a7a760591b604082015260600190565b6020808252600e908201526d496e646578206f766572666c6f7760901b604082015260600190565b60208082526021908201527f536166654d6174683a206d756c7469706c69636174696f6e206f766572666c6f6040820152607760f81b606082015260800190565b60208082526036908201527f5361666542455032303a20617070726f76652066726f6d206e6f6e2d7a65726f60408201527520746f206e6f6e2d7a65726f20616c6c6f77616e636560501b606082015260800190565b6020808252602e908201527f436f6e747261637420696e7374616e63652068617320616c726561647920626560408201526d195b881a5b9a5d1a585b1a5e995960921b606082015260800190565b60208082526015908201527427a7262cafa2a6a4a9a9a4a7a72fa6a0a720a3a2a960591b604082015260600190565b60208082526014908201527310d3105253515497d5539055551213d49256915160621b604082015260600190565b6020808252818101527f5361666542455032303a206c6f772d6c6576656c2063616c6c206661696c6564604082015260600190565b6020808252601f908201527f5361666542455032303a2063616c6c20746f206e6f6e2d636f6e747261637400604082015260600190565b6001600160681b0391909116815260200190565b6001600160681b03938416815291909216602082015264ffffffffff909116604082015260600190565b90815260200190565b9283526020830191909152604082015260600190565b60ff91909116815260200190565b60005b83811015611f3e578181015183820152602001611f26565b838111156104005750506000910152565b6001600160a01b0381168114611f6457600080fd5b5056fea2646970667358221220fbc9a6c1218a58c80a45d52e783d0274f50e363e4158ff3429b5a95adb399f0f64736f6c634300060c0033",
  "linkReferences": {},
  "deployedLinkReferences": {}
}