{
  "_format": "hh-sol-artifact-1",
  "contractName": "PoolUpdateControl",
  "sourceName": "contracts/protocol/factory/PoolUpdateControl.sol",
  "abi": [
    {
      "inputs": [
        {
          "internalType": "address",
          "name": "_addressesProviderFactory",
          "type": "address"
        },
        {
          "internalType": "uint256",
          "name": "_numRequired",
          "type": "uint256"
        }
      ],
      "stateMutability": "nonpayable",
      "type": "constructor"
    },
    {
      "anonymous": false,
      "inputs": [
        {
          "indexed": true,
          "internalType": "address",
          "name": "owner",
          "type": "address"
        },
        {
          "indexed": true,
          "internalType": "uint256",
          "name": "transactionId",
          "type": "uint256"
        }
      ],
      "name": "ConfirmTransaction",
      "type": "event"
    },
    {
      "anonymous": false,
      "inputs": [
        {
          "indexed": true,
          "internalType": "uint256",
          "name": "transactionId",
          "type": "uint256"
        }
      ],
      "name": "Execution",
      "type": "event"
    },
    {
      "anonymous": false,
      "inputs": [
        {
          "indexed": true,
          "internalType": "uint256",
          "name": "transactionId",
          "type": "uint256"
        }
      ],
      "name": "ExecutionFailure",
      "type": "event"
    },
    {
      "anonymous": false,
      "inputs": [
        {
          "indexed": true,
          "internalType": "address",
          "name": "owner",
          "type": "address"
        },
        {
          "indexed": true,
          "internalType": "uint256",
          "name": "transactionId",
          "type": "uint256"
        }
      ],
      "name": "RevokeConfirmation",
      "type": "event"
    },
    {
      "anonymous": false,
      "inputs": [
        {
          "indexed": true,
          "internalType": "address",
          "name": "owner",
          "type": "address"
        },
        {
          "indexed": true,
          "internalType": "uint256",
          "name": "transactionId",
          "type": "uint256"
        },
        {
          "indexed": false,
          "internalType": "bytes",
          "name": "data",
          "type": "bytes"
        }
      ],
      "name": "SubmitTransaction",
      "type": "event"
    },
    {
      "inputs": [
        {
          "internalType": "uint256",
          "name": "_transactionId",
          "type": "uint256"
        }
      ],
      "name": "confirmTransaction",
      "outputs": [],
      "stateMutability": "nonpayable",
      "type": "function"
    },
    {
      "inputs": [
        {
          "internalType": "uint256",
          "name": "_transactionId",
          "type": "uint256"
        }
      ],
      "name": "executeTransaction",
      "outputs": [],
      "stateMutability": "nonpayable",
      "type": "function"
    },
    {
      "inputs": [],
      "name": "getGovernance",
      "outputs": [
        {
          "internalType": "address",
          "name": "governance",
          "type": "address"
        }
      ],
      "stateMutability": "view",
      "type": "function"
    },
    {
      "inputs": [
        {
          "internalType": "uint256",
          "name": "_transactionId",
          "type": "uint256"
        }
      ],
      "name": "getTransaction",
      "outputs": [
        {
          "internalType": "uint256",
          "name": "providerId",
          "type": "uint256"
        },
        {
          "internalType": "bytes",
          "name": "data",
          "type": "bytes"
        },
        {
          "internalType": "bool",
          "name": "executed",
          "type": "bool"
        },
        {
          "internalType": "uint256",
          "name": "numConfirmations",
          "type": "uint256"
        }
      ],
      "stateMutability": "view",
      "type": "function"
    },
    {
      "inputs": [],
      "name": "getTransactionCount",
      "outputs": [
        {
          "internalType": "uint256",
          "name": "",
          "type": "uint256"
        }
      ],
      "stateMutability": "view",
      "type": "function"
    },
    {
      "inputs": [
        {
          "internalType": "uint256",
          "name": "",
          "type": "uint256"
        },
        {
          "internalType": "address",
          "name": "",
          "type": "address"
        }
      ],
      "name": "isConfirmed",
      "outputs": [
        {
          "internalType": "bool",
          "name": "",
          "type": "bool"
        }
      ],
      "stateMutability": "view",
      "type": "function"
    },
    {
      "inputs": [
        {
          "internalType": "uint256",
          "name": "_transactionId",
          "type": "uint256"
        }
      ],
      "name": "revokeConfirmation",
      "outputs": [],
      "stateMutability": "nonpayable",
      "type": "function"
    },
    {
      "inputs": [
        {
          "internalType": "address",
          "name": "_governance",
          "type": "address"
        }
      ],
      "name": "setGovernance",
      "outputs": [],
      "stateMutability": "nonpayable",
      "type": "function"
    },
    {
      "inputs": [
        {
          "internalType": "uint256",
          "name": "_providerId",
          "type": "uint256"
        },
        {
          "internalType": "bytes",
          "name": "_data",
          "type": "bytes"
        }
      ],
      "name": "submitTransaction",
      "outputs": [
        {
          "internalType": "uint256",
          "name": "transactionId",
          "type": "uint256"
        }
      ],
      "stateMutability": "nonpayable",
      "type": "function"
    },
    {
      "inputs": [
        {
          "internalType": "uint256",
          "name": "",
          "type": "uint256"
        }
      ],
      "name": "transactions",
      "outputs": [
        {
          "internalType": "uint256",
          "name": "providerId",
          "type": "uint256"
        },
        {
          "internalType": "bytes",
          "name": "data",
          "type": "bytes"
        },
        {
          "internalType": "bool",
          "name": "executed",
          "type": "bool"
        },
        {
          "internalType": "uint256",
          "name": "numConfirmations",
          "type": "uint256"
        }
      ],
      "stateMutability": "view",
      "type": "function"
    }
  ],
  "bytecode": "0x608060405234801561001057600080fd5b506040516113b93803806113b98339818101604052604081101561003357600080fd5b5080516020909101516001600160a01b038216610097576040805162461bcd60e51b815260206004820152601360248201527f4164647265737320313a202030206572726f7200000000000000000000000000604482015290519081900360640190fd5b600081116100d65760405162461bcd60e51b81526004018080602001828103825260288152602001806113916028913960400191505060405180910390fd5b60028054336001600160a01b031991821617909155600380549091166001600160a01b03939093169290921790915560015561127a806101176000396000f3fe608060405234801561001057600080fd5b506004361061009e5760003560e01c806380f59a651161006657806380f59a65146102595780639ace38c214610299578063ab033ea9146102b6578063c01a8c84146102dc578063ee22610b146102f95761009e565b806320ea8d86146100a3578063289b3c0d146100c25780632e7700f0146100e657806333ea3dc8146101005780636028f099146101ac575b600080fd5b6100c0600480360360208110156100b957600080fd5b5035610316565b005b6100ca6104d4565b604080516001600160a01b039092168252519081900360200190f35b6100ee6104d9565b60408051918252519081900360200190f35b61011d6004803603602081101561011657600080fd5b50356104df565b60405180858152602001806020018415158152602001838152602001828103825285818151815260200191508051906020019080838360005b8381101561016e578181015183820152602001610156565b50505050905090810190601f16801561019b5780820380516001836020036101000a031916815260200191505b509550505050505060405180910390f35b6100ee600480360360408110156101c257600080fd5b813591908101906040810160208201356401000000008111156101e457600080fd5b8201836020820111156101f657600080fd5b8035906020019184600183028401116401000000008311171561021857600080fd5b91908080601f0160208091040260200160405190810160405280939291908181526020018383808284376000920191909152509295506105c1945050505050565b6102856004803603604081101561026f57600080fd5b50803590602001356001600160a01b03166107b0565b604080519115158252519081900360200190f35b61011d600480360360208110156102af57600080fd5b50356107cd565b6100c0600480360360208110156102cc57600080fd5b50356001600160a01b03166108a6565b6100c0600480360360208110156102f257600080fd5b5035610918565b6100c06004803603602081101561030f57600080fd5b5035610ae2565b6004548190811061036b576040805162461bcd60e51b815260206004820152601a6024820152791d1c985b9cd858dd1a5bdb88191bd95cc81b9bdd08195e1a5cdd60321b604482015290519081900360640190fd5b816004818154811061037957fe5b600091825260209091206002600490920201015460ff16156103e2576040805162461bcd60e51b815260206004820152601c60248201527f7472616e73616374696f6e20616c726561647920657865637574656400000000604482015290519081900360640190fd5b6000600484815481106103f157fe5b60009182526020909120600490910201805490915061040f81610e80565b60008581526020818152604080832033845290915290205460ff1661047b576040805162461bcd60e51b815260206004820152601960248201527f7472616e73616374696f6e206e6f7420636f6e6669726d656400000000000000604482015290519081900360640190fd5b600382018054600019019055600085815260208181526040808320338085529252808320805460ff191690555187927ff0dca620e2e81f7841d07bcc105e1704fb01475b278a9d4c236e1c62945edd5591a35050505050565b600090565b60045490565b600060606000806000600486815481106104f557fe5b6000918252602091829020600490910201805460028083015460038401546001808601805460408051601f60001995841615610100029590950190921696909604928301899004890281018901909552818552959750939560ff909216939092918591908301828280156105aa5780601f1061057f576101008083540402835291602001916105aa565b820191906000526020600020905b81548152906001019060200180831161058d57829003601f168201915b505050505092509450945094509450509193509193565b60006105cc83610e80565b600480546040805160808101825286815260208082018781526000938301849052606083018490526001850186559285905281517f8a35acfbc15ff81a39ae7d344fd709f28e8600b4aa8c65c6b64bfe7fe36bd19b9585029586019081559251805194959294610663937f8a35acfbc15ff81a39ae7d344fd709f28e8600b4aa8c65c6b64bfe7fe36bd19c01929190910190611190565b50604082015160028201805460ff191691151591909117905560609091015160039091015560048054600091908390811061069a57fe5b6000918252602080832060049290920290910160038101805460019081019091558584528383526040808520338087529452808520805460ff19169092179091555190935084927f5cbe105e36805f7820e291f799d5794ff948af2a5f664e580382defb6339004191a381336001600160a01b03167feb45f38ad35cf41b4f9be8cfcca269ef78ea04216dbc8b8a38f28491c84d005a866040518080602001828103825283818151815260200191508051906020019080838360005b8381101561076e578181015183820152602001610756565b50505050905090810190601f16801561079b5780820380516001836020036101000a031916815260200191505b509250505060405180910390a3509392505050565b600060208181529281526040808220909352908152205460ff1681565b600481815481106107da57fe5b9060005260206000209060040201600091509050806000015490806001018054600181600116156101000203166002900480601f01602080910402602001604051908101604052809291908181526020018280546001816001161561010002031660029004801561088c5780601f106108615761010080835404028352916020019161088c565b820191906000526020600020905b81548152906001019060200180831161086f57829003601f168201915b505050506002830154600390930154919260ff1691905084565b6002546001600160a01b031633146108f6576040805162461bcd60e51b815260206004820152600e60248201526d4e6f7420676f7665726e616e636560901b604482015290519081900360640190fd5b600280546001600160a01b0319166001600160a01b0392909216919091179055565b6004548190811061096d576040805162461bcd60e51b815260206004820152601a6024820152791d1c985b9cd858dd1a5bdb88191bd95cc81b9bdd08195e1a5cdd60321b604482015290519081900360640190fd5b816004818154811061097b57fe5b600091825260209091206002600490920201015460ff16156109e4576040805162461bcd60e51b815260206004820152601c60248201527f7472616e73616374696f6e20616c726561647920657865637574656400000000604482015290519081900360640190fd5b600083815260208181526040808320338452909152902054839060ff1615610a53576040805162461bcd60e51b815260206004820152601d60248201527f7472616e73616374696f6e20616c726561647920636f6e6669726d6564000000604482015290519081900360640190fd5b600060048581548110610a6257fe5b600091825260209091206004909102018054909150610a8081610e80565b6003820180546001908101909155600087815260208181526040808320338085529252808320805460ff191690941790935591518892917f5cbe105e36805f7820e291f799d5794ff948af2a5f664e580382defb6339004191a3505050505050565b60045481908110610b37576040805162461bcd60e51b815260206004820152601a6024820152791d1c985b9cd858dd1a5bdb88191bd95cc81b9bdd08195e1a5cdd60321b604482015290519081900360640190fd5b8160048181548110610b4557fe5b600091825260209091206002600490920201015460ff1615610bae576040805162461bcd60e51b815260206004820152601c60248201527f7472616e73616374696f6e20616c726561647920657865637574656400000000604482015290519081900360640190fd5b610bcf60405180606001604052806021815260200161122460219139610f67565b600060048481548110610bde57fe5b90600052602060002090600402019050600081600001549050610c2c604051806040016040528060138152602001723d3d3d205f70726f76696465724964203d3d3d60681b8152508261100d565b610c3581610e80565b60015482600301541015610c90576040805162461bcd60e51b815260206004820152601a60248201527f63616e6e6f742065786563757465207472616e73616374696f6e000000000000604482015290519081900360640190fd5b60028201805460ff191660011790556003546040805163e77ab6f760e01b81526004810184905290516000926001600160a01b03169163e77ab6f7916024808301926020929190829003018186803b158015610ceb57600080fd5b505afa158015610cff573d6000803e3d6000fd5b505050506040513d6020811015610d1557600080fd5b810190808051906020019092919050505090506000816001600160a01b0316846001016040518082805460018160011615610100020316600290048015610d935780601f10610d71576101008083540402835291820191610d93565b820191906000526020600020905b815481529060010190602001808311610d7f575b50509150506000604051808303816000865af19150503d8060008114610dd5576040519150601f19603f3d011682016040523d82523d6000602084013e610dda565b606091505b50509050610e0960405180604001604052806009815260200168039bab1b1b2b9b99d160bd1b815250826110bf565b8015610e3f5760405187907f33e13ecb54c3076d8e8bb8c2881800a4d972b792045ffae98fdf46df365fed7590600090a2610e77565b60405187907f526441bb6c1aba3c9a4a6ca1d6545da9c2333c8c48343ef398eb858d72b7923690600090a260028401805460ff191690555b50505050505050565b600354604080516301cdc3c960e01b81523360048201526024810184905290516001600160a01b03909216916301cdc3c991604480820192602092909190829003018186803b158015610ed257600080fd5b505afa158015610ee6573d6000803e3d6000fd5b505050506040513d6020811015610efc57600080fd5b505180610f1357506002546001600160a01b031633145b610f64576040805162461bcd60e51b815260206004820152601760248201527f4e6f74206f776e6572206f7220676f7665726e616e6365000000000000000000604482015290519081900360640190fd5b50565b610f64816040516024018080602001828103825283818151815260200191508051906020019080838360005b83811015610fab578181015183820152602001610f93565b50505050905090810190601f168015610fd85780820380516001836020036101000a031916815260200191505b5060408051601f198184030181529190526020810180516001600160e01b031663104c13eb60e21b179052925061116f915050565b6110bb82826040516024018080602001838152602001828103825284818151815260200191508051906020019080838360005b83811015611058578181015183820152602001611040565b50505050905090810190601f1680156110855780820380516001836020036101000a031916815260200191505b5060408051601f198184030181529190526020810180516001600160e01b03166309710a9d60e41b179052935061116f92505050565b5050565b6110bb828260405160240180806020018315158152602001828103825284818151815260200191508051906020019080838360005b8381101561110c5781810151838201526020016110f4565b50505050905090810190601f1680156111395780820380516001836020036101000a031916815260200191505b5060408051601f198184030181529190526020810180516001600160e01b031663c3b5563560e01b179052935061116f92505050565b80516a636f6e736f6c652e6c6f67602083016000808483855afa5050505050565b828054600181600116156101000203166002900490600052602060002090601f016020900481019282601f106111d157805160ff19168380011785556111fe565b828001600101855582156111fe579182015b828111156111fe5782518255916020019190600101906111e3565b5061120a92915061120e565b5090565b5b8082111561120a576000815560010161120f56fe3d3d3d2073746172742065786563757465207472616e73616374696f6e203d3d3da264697066735822122042961ad292317a642f548e28a5c88fdbc1e9e46900f62884eb61162c1495c60b64736f6c634300060c0033696e76616c6964206e756d626572206f6620726571756972656420636f6e6669726d6174696f6e73",
  "linkReferences": {},
  "deployedLinkReferences": {}
}