{
  "_format": "hh-sol-artifact-1",
  "contractName": "HardhatOracle",
  "sourceName": "contracts/misc/hardhatOracle.sol",
  "abi": [
    {
      "inputs": [
        {
          "internalType": "address[]",
          "name": "assets",
          "type": "address[]"
        },
        {
          "internalType": "address[]",
          "name": "sources",
          "type": "address[]"
        },
        {
          "internalType": "address",
          "name": "fallbackOracle",
          "type": "address"
        },
        {
          "internalType": "address",
          "name": "weth",
          "type": "address"
        }
      ],
      "stateMutability": "nonpayable",
      "type": "constructor"
    },
    {
      "anonymous": false,
      "inputs": [
        {
          "indexed": true,
          "internalType": "address",
          "name": "asset",
          "type": "address"
        },
        {
          "indexed": true,
          "internalType": "address",
          "name": "source",
          "type": "address"
        }
      ],
      "name": "AssetSourceUpdated",
      "type": "event"
    },
    {
      "anonymous": false,
      "inputs": [
        {
          "indexed": true,
          "internalType": "address",
          "name": "fallbackOracle",
          "type": "address"
        }
      ],
      "name": "FallbackOracleUpdated",
      "type": "event"
    },
    {
      "anonymous": false,
      "inputs": [
        {
          "indexed": true,
          "internalType": "address",
          "name": "previousOwner",
          "type": "address"
        },
        {
          "indexed": true,
          "internalType": "address",
          "name": "newOwner",
          "type": "address"
        }
      ],
      "name": "OwnershipTransferred",
      "type": "event"
    },
    {
      "anonymous": false,
      "inputs": [
        {
          "indexed": true,
          "internalType": "address",
          "name": "weth",
          "type": "address"
        }
      ],
      "name": "WethSet",
      "type": "event"
    },
    {
      "inputs": [],
      "name": "WETH",
      "outputs": [
        {
          "internalType": "address",
          "name": "",
          "type": "address"
        }
      ],
      "stateMutability": "view",
      "type": "function"
    },
    {
      "inputs": [
        {
          "internalType": "address",
          "name": "asset",
          "type": "address"
        }
      ],
      "name": "getAssetPrice",
      "outputs": [
        {
          "internalType": "uint256",
          "name": "",
          "type": "uint256"
        }
      ],
      "stateMutability": "view",
      "type": "function"
    },
    {
      "inputs": [
        {
          "internalType": "address[]",
          "name": "assets",
          "type": "address[]"
        }
      ],
      "name": "getAssetsPrices",
      "outputs": [
        {
          "internalType": "uint256[]",
          "name": "",
          "type": "uint256[]"
        }
      ],
      "stateMutability": "view",
      "type": "function"
    },
    {
      "inputs": [],
      "name": "getFallbackOracle",
      "outputs": [
        {
          "internalType": "address",
          "name": "",
          "type": "address"
        }
      ],
      "stateMutability": "view",
      "type": "function"
    },
    {
      "inputs": [
        {
          "internalType": "address",
          "name": "asset",
          "type": "address"
        }
      ],
      "name": "getSourceOfAsset",
      "outputs": [
        {
          "internalType": "address",
          "name": "",
          "type": "address"
        }
      ],
      "stateMutability": "view",
      "type": "function"
    },
    {
      "inputs": [],
      "name": "owner",
      "outputs": [
        {
          "internalType": "address",
          "name": "",
          "type": "address"
        }
      ],
      "stateMutability": "view",
      "type": "function"
    },
    {
      "inputs": [],
      "name": "renounceOwnership",
      "outputs": [],
      "stateMutability": "nonpayable",
      "type": "function"
    },
    {
      "inputs": [
        {
          "internalType": "address[]",
          "name": "assets",
          "type": "address[]"
        },
        {
          "internalType": "address[]",
          "name": "sources",
          "type": "address[]"
        }
      ],
      "name": "setAssetSources",
      "outputs": [],
      "stateMutability": "nonpayable",
      "type": "function"
    },
    {
      "inputs": [
        {
          "internalType": "address",
          "name": "fallbackOracle",
          "type": "address"
        }
      ],
      "name": "setFallbackOracle",
      "outputs": [],
      "stateMutability": "nonpayable",
      "type": "function"
    },
    {
      "inputs": [
        {
          "internalType": "address",
          "name": "newOwner",
          "type": "address"
        }
      ],
      "name": "transferOwnership",
      "outputs": [],
      "stateMutability": "nonpayable",
      "type": "function"
    }
  ],
  "bytecode": "0x60a060405234801561001057600080fd5b50604051610cac380380610cac8339818101604052608081101561003357600080fd5b810190808051604051939291908464010000000082111561005357600080fd5b90830190602082018581111561006857600080fd5b825186602082028301116401000000008211171561008557600080fd5b82525081516020918201928201910280838360005b838110156100b257818101518382015260200161009a565b50505050905001604052602001805160405193929190846401000000008211156100db57600080fd5b9083019060208201858111156100f057600080fd5b825186602082028301116401000000008211171561010d57600080fd5b82525081516020918201928201910280838360005b8381101561013a578181015183820152602001610122565b5050505091909101604090815260208301519201519193509091506000905061016161020d565b600080546001600160a01b0319166001600160a01b0383169081178255604051929350917f8be0079c531659141344cd1fd0a4f28419497f9722a3daafe3b4186f6b6457e0908290a3506101b482610211565b6101be848461025b565b6001600160601b0319606082901b166080526040516001600160a01b038216907f13a533084dcbb1cfe0dbea708ea977223c27c44d94f2fa3867a167c9cd340bf990600090a2505050506103a0565b3390565b600280546001600160a01b0319166001600160a01b0383169081179091556040517fce7a780d33665b1ea097af5f155e3821b809ecbaa839d3b33aa83ba28168cefb90600090a250565b80518251146102b1576040805162461bcd60e51b815260206004820152601a60248201527f494e434f4e53495354454e545f504152414d535f4c454e475448000000000000604482015290519081900360640190fd5b60005b825181101561039b578181815181106102c957fe5b6020026020010151600160008584815181106102e157fe5b60200260200101516001600160a01b03166001600160a01b0316815260200190815260200160002060006101000a8154816001600160a01b0302191690836001600160a01b0316021790555081818151811061033957fe5b60200260200101516001600160a01b031683828151811061035657fe5b60200260200101516001600160a01b03167f22c5b7b2d8561d39f7f210b6b326a1aa69f15311163082308ac4877db6339dc160405160405180910390a36001016102b4565b505050565b60805160601c6108ef6103bd600039806105b952506108ef6000f3fe608060405234801561001057600080fd5b506004361061009e5760003560e01c80639d23d9f2116100665780639d23d9f214610125578063abfd5310146101e5578063ad5c4648146102a7578063b3596f07146102af578063f2fde38b146102e75761009e565b8063170aee73146100a35780636210308c146100cb578063715018a6146100ef5780638da5cb5b146100f757806392bf2be0146100ff575b600080fd5b6100c9600480360360208110156100b957600080fd5b50356001600160a01b031661030d565b005b6100d3610371565b604080516001600160a01b039092168252519081900360200190f35b6100c9610380565b6100d3610422565b6100d36004803603602081101561011557600080fd5b50356001600160a01b0316610431565b6101956004803603602081101561013b57600080fd5b81019060208101813564010000000081111561015657600080fd5b82018360208201111561016857600080fd5b8035906020019184602083028401116401000000008311171561018a57600080fd5b50909250905061044f565b60408051602080825283518183015283519192839290830191858101910280838360005b838110156101d15781810151838201526020016101b9565b505050509050019250505060405180910390f35b6100c9600480360360408110156101fb57600080fd5b81019060208101813564010000000081111561021657600080fd5b82018360208201111561022857600080fd5b8035906020019184602083028401116401000000008311171561024a57600080fd5b91939092909160208101903564010000000081111561026857600080fd5b82018360208201111561027a57600080fd5b8035906020019184602083028401116401000000008311171561029c57600080fd5b5090925090506104ec565b6100d36105b7565b6102d5600480360360208110156102c557600080fd5b50356001600160a01b03166105db565b60408051918252519081900360200190f35b6100c9600480360360208110156102fd57600080fd5b50356001600160a01b03166105e8565b6103156106e0565b6000546001600160a01b03908116911614610365576040805162461bcd60e51b8152602060048201819052602482015260008051602061089a833981519152604482015290519081900360640190fd5b61036e816106e4565b50565b6002546001600160a01b031690565b6103886106e0565b6000546001600160a01b039081169116146103d8576040805162461bcd60e51b8152602060048201819052602482015260008051602061089a833981519152604482015290519081900360640190fd5b600080546040516001600160a01b03909116907f8be0079c531659141344cd1fd0a4f28419497f9722a3daafe3b4186f6b6457e0908390a3600080546001600160a01b0319169055565b6000546001600160a01b031690565b6001600160a01b039081166000908152600160205260409020541690565b6060808267ffffffffffffffff8111801561046957600080fd5b50604051908082528060200260200182016040528015610493578160200160208202803683370190505b50905060005b838110156104e4576104c58585838181106104b057fe5b905060200201356001600160a01b03166105db565b8282815181106104d157fe5b6020908102919091010152600101610499565b509392505050565b6104f46106e0565b6000546001600160a01b03908116911614610544576040805162461bcd60e51b8152602060048201819052602482015260008051602061089a833981519152604482015290519081900360640190fd5b6105b18484808060200260200160405190810160405280939291908181526020018383602002808284376000920191909152505060408051602080880282810182019093528782529093508792508691829185019084908082843760009201919091525061072e92505050565b50505050565b7f000000000000000000000000000000000000000000000000000000000000000081565b50670de0b6b3a764000090565b6105f06106e0565b6000546001600160a01b03908116911614610640576040805162461bcd60e51b8152602060048201819052602482015260008051602061089a833981519152604482015290519081900360640190fd5b6001600160a01b0381166106855760405162461bcd60e51b81526004018080602001828103825260268152602001806108746026913960400191505060405180910390fd5b600080546040516001600160a01b03808516939216917f8be0079c531659141344cd1fd0a4f28419497f9722a3daafe3b4186f6b6457e091a3600080546001600160a01b0319166001600160a01b0392909216919091179055565b3290565b600280546001600160a01b0319166001600160a01b0383169081179091556040517fce7a780d33665b1ea097af5f155e3821b809ecbaa839d3b33aa83ba28168cefb90600090a250565b8051825114610784576040805162461bcd60e51b815260206004820152601a60248201527f494e434f4e53495354454e545f504152414d535f4c454e475448000000000000604482015290519081900360640190fd5b60005b825181101561086e5781818151811061079c57fe5b6020026020010151600160008584815181106107b457fe5b60200260200101516001600160a01b03166001600160a01b0316815260200190815260200160002060006101000a8154816001600160a01b0302191690836001600160a01b0316021790555081818151811061080c57fe5b60200260200101516001600160a01b031683828151811061082957fe5b60200260200101516001600160a01b03167f22c5b7b2d8561d39f7f210b6b326a1aa69f15311163082308ac4877db6339dc160405160405180910390a3600101610787565b50505056fe4f776e61626c653a206e6577206f776e657220697320746865207a65726f20616464726573734f776e61626c653a2063616c6c6572206973206e6f7420746865206f776e6572a26469706673582212209ae4f727ba7d5f3c945f735b75d6f9f2a42b0df02c945f33cc3b61df48f12d2e64736f6c634300060c0033",
  "linkReferences": {},
  "deployedLinkReferences": {}
}