{
  "_format": "hh-sol-artifact-1",
  "contractName": "BNBGateway",
  "sourceName": "contracts/protocol/incentives/BNBGateway.sol",
  "abi": [
    {
      "inputs": [
        {
          "internalType": "address",
          "name": "wbnb",
          "type": "address"
        }
      ],
      "stateMutability": "nonpayable",
      "type": "constructor"
    },
    {
      "anonymous": false,
      "inputs": [
        {
          "indexed": true,
          "internalType": "address",
          "name": "previousOwner",
          "type": "address"
        },
        {
          "indexed": true,
          "internalType": "address",
          "name": "newOwner",
          "type": "address"
        }
      ],
      "name": "OwnershipTransferred",
      "type": "event"
    },
    {
      "stateMutability": "payable",
      "type": "fallback"
    },
    {
      "inputs": [
        {
          "internalType": "address",
          "name": "lendingPool",
          "type": "address"
        }
      ],
      "name": "authorizeLendingPool",
      "outputs": [],
      "stateMutability": "nonpayable",
      "type": "function"
    },
    {
      "inputs": [
        {
          "internalType": "address",
          "name": "lendingPool",
          "type": "address"
        },
        {
          "internalType": "uint256",
          "name": "amount",
          "type": "uint256"
        },
        {
          "internalType": "uint16",
          "name": "referralCode",
          "type": "uint16"
        }
      ],
      "name": "borrowBNB",
      "outputs": [],
      "stateMutability": "nonpayable",
      "type": "function"
    },
    {
      "inputs": [
        {
          "internalType": "address",
          "name": "lendingPool",
          "type": "address"
        },
        {
          "internalType": "address",
          "name": "onBehalfOf",
          "type": "address"
        },
        {
          "internalType": "uint16",
          "name": "referralCode",
          "type": "uint16"
        }
      ],
      "name": "depositBNB",
      "outputs": [],
      "stateMutability": "payable",
      "type": "function"
    },
    {
      "inputs": [
        {
          "internalType": "address",
          "name": "to",
          "type": "address"
        },
        {
          "internalType": "uint256",
          "name": "amount",
          "type": "uint256"
        }
      ],
      "name": "emergencyBNBTransfer",
      "outputs": [],
      "stateMutability": "nonpayable",
      "type": "function"
    },
    {
      "inputs": [
        {
          "internalType": "address",
          "name": "token",
          "type": "address"
        },
        {
          "internalType": "address",
          "name": "to",
          "type": "address"
        },
        {
          "internalType": "uint256",
          "name": "amount",
          "type": "uint256"
        }
      ],
      "name": "emergencyTokenTransfer",
      "outputs": [],
      "stateMutability": "nonpayable",
      "type": "function"
    },
    {
      "inputs": [],
      "name": "getWBNBAddress",
      "outputs": [
        {
          "internalType": "address",
          "name": "",
          "type": "address"
        }
      ],
      "stateMutability": "view",
      "type": "function"
    },
    {
      "inputs": [],
      "name": "owner",
      "outputs": [
        {
          "internalType": "address",
          "name": "",
          "type": "address"
        }
      ],
      "stateMutability": "view",
      "type": "function"
    },
    {
      "inputs": [],
      "name": "renounceOwnership",
      "outputs": [],
      "stateMutability": "nonpayable",
      "type": "function"
    },
    {
      "inputs": [
        {
          "internalType": "address",
          "name": "lendingPool",
          "type": "address"
        },
        {
          "internalType": "uint256",
          "name": "amount",
          "type": "uint256"
        },
        {
          "internalType": "address",
          "name": "onBehalfOf",
          "type": "address"
        }
      ],
      "name": "repayBNB",
      "outputs": [],
      "stateMutability": "payable",
      "type": "function"
    },
    {
      "inputs": [
        {
          "internalType": "address",
          "name": "newOwner",
          "type": "address"
        }
      ],
      "name": "transferOwnership",
      "outputs": [],
      "stateMutability": "nonpayable",
      "type": "function"
    },
    {
      "inputs": [
        {
          "internalType": "address",
          "name": "lendingPool",
          "type": "address"
        },
        {
          "internalType": "uint256",
          "name": "amount",
          "type": "uint256"
        },
        {
          "internalType": "address",
          "name": "to",
          "type": "address"
        }
      ],
      "name": "withdrawBNB",
      "outputs": [],
      "stateMutability": "nonpayable",
      "type": "function"
    },
    {
      "stateMutability": "payable",
      "type": "receive"
    }
  ],
  "bytecode": "0x60a060405234801561001057600080fd5b5060405161159038038061159083398101604081905261002f9161009c565b6000610039610098565b600080546001600160a01b0319166001600160a01b0383169081178255604051929350917f8be0079c531659141344cd1fd0a4f28419497f9722a3daafe3b4186f6b6457e0908290a35060601b6001600160601b0319166080526100ca565b3390565b6000602082840312156100ad578081fd5b81516001600160a01b03811681146100c3578182fd5b9392505050565b60805160601c61146e6101226000398060b05280610298528061033852806103fe52806105b2528061064852806106c352806106e7528061077d5280610a3b5280610afc5280610b925280610c78525061146e6000f3fe6080604052600436106100a05760003560e01c80638da5cb5b116100645780638da5cb5b146101a3578063a3d5b255146101b8578063e9ad7a58146101d8578063f2fde38b146101f8578063f82d7d9114610218578063fd1495291461022b576100f8565b80631a443f5314610110578063374ce0bd1461013057806356fa50d0146101505780636b2125821461017b578063715018a61461018e576100f8565b366100f857336001600160a01b037f000000000000000000000000000000000000000000000000000000000000000016146100f65760405162461bcd60e51b81526004016100ed906112e1565b60405180910390fd5b005b60405162461bcd60e51b81526004016100ed9061126d565b34801561011c57600080fd5b506100f661012b36600461100b565b61024b565b34801561013c57600080fd5b506100f661014b366004610fd5565b6103d7565b34801561015c57600080fd5b506101656106c1565b604051610172919061116a565b60405180910390f35b6100f6610189366004610f20565b6106e5565b34801561019a57600080fd5b506100f66107e2565b3480156101af57600080fd5b50610165610861565b3480156101c457600080fd5b506100f66101d3366004610f6a565b610870565b3480156101e457600080fd5b506100f66101f3366004610faa565b61092b565b34801561020457600080fd5b506100f6610213366004610efd565b61096e565b6100f6610226366004610fd5565b610a24565b34801561023757600080fd5b506100f6610246366004610efd565b610c2c565b61027460405180604001604052806008815260200167737563636573733160c01b815250610d03565b604051631d5d723760e01b81526001600160a01b03841690631d5d7237906102c6907f00000000000000000000000000000000000000000000000000000000000000009086908690339060040161120b565b600060405180830381600087803b1580156102e057600080fd5b505af11580156102f4573d6000803e3d6000fd5b505050506103216040518060400160405280600881526020016739bab1b1b2b9b99960c11b815250610d03565b604051632e1a7d4d60e01b81526001600160a01b037f00000000000000000000000000000000000000000000000000000000000000001690632e1a7d4d9061036d9085906004016113b7565b600060405180830381600087803b15801561038757600080fd5b505af115801561039b573d6000803e3d6000fd5b505050506103c860405180604001604052806008815260200167737563636573733360c01b815250610d03565b6103d23383610d49565b505050565b6040516335ea6a7560e01b81526000906001600160a01b038516906335ea6a7590610426907f00000000000000000000000000000000000000000000000000000000000000009060040161116a565b6101406040518083038186803b15801561043f57600080fd5b505afa158015610453573d6000803e3d6000fd5b505050506040513d601f19601f820116820180604052508101906104779190611061565b60c0015190506000816001600160a01b03166370a08231336040518263ffffffff1660e01b81526004016104ab919061116a565b60206040518083038186803b1580156104c357600080fd5b505afa1580156104d7573d6000803e3d6000fd5b505050506040513d601f19601f820116820180604052508101906104fb9190611136565b90508360001981141561050b5750805b6040516323b872dd60e01b81526001600160a01b038416906323b872dd9061053b9033903090869060040161117e565b602060405180830381600087803b15801561055557600080fd5b505af1158015610569573d6000803e3d6000fd5b505050506040513d601f19601f8201168201806040525081019061058d9190611041565b50604051631a4ca37b60e21b81526001600160a01b038716906369328dec906105de907f000000000000000000000000000000000000000000000000000000000000000090859030906004016111bb565b602060405180830381600087803b1580156105f857600080fd5b505af115801561060c573d6000803e3d6000fd5b505050506040513d601f19601f820116820180604052508101906106309190611136565b50604051632e1a7d4d60e01b81526001600160a01b037f00000000000000000000000000000000000000000000000000000000000000001690632e1a7d4d9061067d9084906004016113b7565b600060405180830381600087803b15801561069757600080fd5b505af11580156106ab573d6000803e3d6000fd5b505050506106b98482610d49565b505050505050565b7f000000000000000000000000000000000000000000000000000000000000000090565b7f00000000000000000000000000000000000000000000000000000000000000006001600160a01b031663d0e30db0346040518263ffffffff1660e01b81526004016000604051808303818588803b15801561074057600080fd5b505af1158015610754573d6000803e3d6000fd5b505060405163e8eda9df60e01b81526001600160a01b038716935063e8eda9df92506107ab91507f0000000000000000000000000000000000000000000000000000000000000000903490879087906004016111de565b600060405180830381600087803b1580156107c557600080fd5b505af11580156107d9573d6000803e3d6000fd5b50505050505050565b6107ea610dd6565b6000546001600160a01b039081169116146108175760405162461bcd60e51b81526004016100ed9061133b565b600080546040516001600160a01b03909116907f8be0079c531659141344cd1fd0a4f28419497f9722a3daafe3b4186f6b6457e0908390a3600080546001600160a01b0319169055565b6000546001600160a01b031690565b610878610dd6565b6000546001600160a01b039081169116146108a55760405162461bcd60e51b81526004016100ed9061133b565b60405163a9059cbb60e01b81526001600160a01b0384169063a9059cbb906108d390859085906004016111a2565b602060405180830381600087803b1580156108ed57600080fd5b505af1158015610901573d6000803e3d6000fd5b505050506040513d601f19601f820116820180604052508101906109259190611041565b50505050565b610933610dd6565b6000546001600160a01b039081169116146109605760405162461bcd60e51b81526004016100ed9061133b565b61096a8282610d49565b5050565b610976610dd6565b6000546001600160a01b039081169116146109a35760405162461bcd60e51b81526004016100ed9061133b565b6001600160a01b0381166109c95760405162461bcd60e51b81526004016100ed9061129b565b600080546040516001600160a01b03808516939216917f8be0079c531659141344cd1fd0a4f28419497f9722a3daafe3b4186f6b6457e091a3600080546001600160a01b0319166001600160a01b0392909216919091179055565b6000610acc82856001600160a01b03166335ea6a757f00000000000000000000000000000000000000000000000000000000000000006040518263ffffffff1660e01b8152600401610a76919061116a565b6101406040518083038186803b158015610a8f57600080fd5b505afa158015610aa3573d6000803e3d6000fd5b505050506040513d601f19601f82011682018060405250810190610ac79190611061565b610dda565b90508080841015610ada5750825b80341015610afa5760405162461bcd60e51b81526004016100ed90611370565b7f00000000000000000000000000000000000000000000000000000000000000006001600160a01b031663d0e30db0826040518263ffffffff1660e01b81526004016000604051808303818588803b158015610b5557600080fd5b505af1158015610b69573d6000803e3d6000fd5b505060405163173aba7160e21b81526001600160a01b0389169350635ceae9c49250610bbe91507f000000000000000000000000000000000000000000000000000000000000000090349088906004016111bb565b602060405180830381600087803b158015610bd857600080fd5b505af1158015610bec573d6000803e3d6000fd5b505050506040513d601f19601f82011682018060405250810190610c109190611136565b5080341115610c2557610c2533823403610d49565b5050505050565b610c34610dd6565b6000546001600160a01b03908116911614610c615760405162461bcd60e51b81526004016100ed9061133b565b60405163095ea7b360e01b81526001600160a01b037f0000000000000000000000000000000000000000000000000000000000000000169063095ea7b390610cb1908490600019906004016111a2565b602060405180830381600087803b158015610ccb57600080fd5b505af1158015610cdf573d6000803e3d6000fd5b505050506040513d601f19601f8201168201806040525081019061096a9190611041565b610d4681604051602401610d17919061123a565b60408051601f198184030181529190526020810180516001600160e01b031663104c13eb60e21b179052610e66565b50565b604080516000808252602082019092526001600160a01b038416908390604051610d73919061114e565b60006040518083038185875af1925050503d8060008114610db0576040519150601f19603f3d011682016040523d82523d6000602084013e610db5565b606091505b50509050806103d25760405162461bcd60e51b81526004016100ed9061130e565b3290565b60e08101516040516370a0823160e01b81526000916001600160a01b0316906370a0823190610e0d90869060040161116a565b60206040518083038186803b158015610e2557600080fd5b505afa158015610e39573d6000803e3d6000fd5b505050506040513d601f19601f82011682018060405250810190610e5d9190611136565b90505b92915050565b80516a636f6e736f6c652e6c6f67602083016000808483855afa5050505050565b8051610e6081611413565b600060208284031215610ea3578081fd5b610ead60206113c0565b9151825250919050565b80516fffffffffffffffffffffffffffffffff81168114610e6057600080fd5b805164ffffffffff81168114610e6057600080fd5b805160ff81168114610e6057600080fd5b600060208284031215610f0e578081fd5b8135610f1981611413565b9392505050565b600080600060608486031215610f34578182fd5b8335610f3f81611413565b92506020840135610f4f81611413565b91506040840135610f5f81611428565b809150509250925092565b600080600060608486031215610f7e578283fd5b8335610f8981611413565b92506020840135610f9981611413565b929592945050506040919091013590565b60008060408385031215610fbc578182fd5b8235610fc781611413565b946020939093013593505050565b600080600060608486031215610fe9578283fd5b8335610ff481611413565b9250602084013591506040840135610f5f81611413565b60008060006060848603121561101f578283fd5b833561102a81611413565b9250602084013591506040840135610f5f81611428565b600060208284031215611052578081fd5b81518015158114610f19578182fd5b6000610140808385031215611074578182fd5b61107d816113c0565b90506110898484610e92565b81526110988460208501610eb7565b60208201526110aa8460408501610eb7565b60408201526110bc8460608501610eb7565b60608201526110ce8460808501610eb7565b60808201526110e08460a08501610ed7565b60a08201526110f28460c08501610e87565b60c08201526111048460e08501610e87565b60e082015261010061111885828601610e87565b9082015261012061112b85858301610eec565b908201529392505050565b600060208284031215611147578081fd5b5051919050565b600082516111608184602087016113e7565b9190910192915050565b6001600160a01b0391909116815260200190565b6001600160a01b039384168152919092166020820152604081019190915260600190565b6001600160a01b03929092168252602082015260400190565b6001600160a01b0393841681526020810192909252909116604082015260600190565b6001600160a01b03948516815260208101939093529216604082015261ffff909116606082015260800190565b6001600160a01b039485168152602081019390935261ffff919091166040830152909116606082015260800190565b60006020825282518060208401526112598160408501602087016113e7565b601f01601f19169190910160400192915050565b60208082526014908201527311985b1b189858dac81b9bdd08185b1b1bddd95960621b604082015260600190565b60208082526026908201527f4f776e61626c653a206e6577206f776e657220697320746865207a65726f206160408201526564647265737360d01b606082015260800190565b602080825260139082015272149958d95a5d99481b9bdd08185b1b1bddd959606a1b604082015260600190565b60208082526013908201527210939097d514905394d1915497d19052531151606a1b604082015260600190565b6020808252818101527f4f776e61626c653a2063616c6c6572206973206e6f7420746865206f776e6572604082015260600190565b60208082526027908201527f6d73672e76616c7565206973206c657373207468616e2072657061796d656e7460408201526608185b5bdd5b9d60ca1b606082015260800190565b90815260200190565b60405181810167ffffffffffffffff811182821017156113df57600080fd5b604052919050565b60005b838110156114025781810151838201526020016113ea565b838111156109255750506000910152565b6001600160a01b0381168114610d4657600080fd5b61ffff81168114610d4657600080fdfea2646970667358221220b7e972551e7a58d29960692fb7bbf0aa22c5512a3c9e09486fd5130162f4539a64736f6c634300060c0033",
  "linkReferences": {},
  "deployedLinkReferences": {}
}