{
  "_format": "hh-sol-artifact-1",
  "contractName": "CreditScoring",
  "sourceName": "contracts/protocol/incentives/CreditScoring.sol",
  "abi": [
    {
      "inputs": [
        {
          "internalType": "contract IStakedTokenWithConfig",
          "name": "stakeToken",
          "type": "address"
        },
        {
          "internalType": "address",
          "name": "emissionManager",
          "type": "address"
        }
      ],
      "stateMutability": "nonpayable",
      "type": "constructor"
    },
    {
      "anonymous": false,
      "inputs": [
        {
          "indexed": true,
          "internalType": "address",
          "name": "asset",
          "type": "address"
        },
        {
          "indexed": false,
          "internalType": "uint256",
          "name": "emission",
          "type": "uint256"
        }
      ],
      "name": "AssetConfigUpdated",
      "type": "event"
    },
    {
      "anonymous": false,
      "inputs": [
        {
          "indexed": true,
          "internalType": "address",
          "name": "asset",
          "type": "address"
        },
        {
          "indexed": false,
          "internalType": "uint256",
          "name": "index",
          "type": "uint256"
        }
      ],
      "name": "AssetIndexUpdated",
      "type": "event"
    },
    {
      "anonymous": false,
      "inputs": [
        {
          "indexed": true,
          "internalType": "address",
          "name": "user",
          "type": "address"
        },
        {
          "indexed": true,
          "internalType": "address",
          "name": "claimer",
          "type": "address"
        }
      ],
      "name": "ClaimerSet",
      "type": "event"
    },
    {
      "anonymous": false,
      "inputs": [
        {
          "indexed": false,
          "internalType": "uint256",
          "name": "newDistributionEnd",
          "type": "uint256"
        }
      ],
      "name": "DistributionEndUpdated",
      "type": "event"
    },
    {
      "anonymous": false,
      "inputs": [
        {
          "indexed": true,
          "internalType": "address",
          "name": "user",
          "type": "address"
        },
        {
          "indexed": false,
          "internalType": "uint256",
          "name": "amount",
          "type": "uint256"
        }
      ],
      "name": "RewardsAccrued",
      "type": "event"
    },
    {
      "anonymous": false,
      "inputs": [
        {
          "indexed": true,
          "internalType": "address",
          "name": "user",
          "type": "address"
        },
        {
          "indexed": true,
          "internalType": "address",
          "name": "to",
          "type": "address"
        },
        {
          "indexed": true,
          "internalType": "address",
          "name": "claimer",
          "type": "address"
        },
        {
          "indexed": false,
          "internalType": "uint256",
          "name": "amount",
          "type": "uint256"
        }
      ],
      "name": "RewardsClaimed",
      "type": "event"
    },
    {
      "anonymous": false,
      "inputs": [
        {
          "indexed": true,
          "internalType": "address",
          "name": "user",
          "type": "address"
        },
        {
          "indexed": true,
          "internalType": "address",
          "name": "asset",
          "type": "address"
        },
        {
          "indexed": false,
          "internalType": "uint256",
          "name": "index",
          "type": "uint256"
        }
      ],
      "name": "UserIndexUpdated",
      "type": "event"
    },
    {
      "inputs": [],
      "name": "DISTRIBUTION_END",
      "outputs": [
        {
          "internalType": "uint256",
          "name": "",
          "type": "uint256"
        }
      ],
      "stateMutability": "view",
      "type": "function"
    },
    {
      "inputs": [],
      "name": "EMISSION_MANAGER",
      "outputs": [
        {
          "internalType": "address",
          "name": "",
          "type": "address"
        }
      ],
      "stateMutability": "view",
      "type": "function"
    },
    {
      "inputs": [],
      "name": "PRECISION",
      "outputs": [
        {
          "internalType": "uint8",
          "name": "",
          "type": "uint8"
        }
      ],
      "stateMutability": "view",
      "type": "function"
    },
    {
      "inputs": [],
      "name": "REVISION",
      "outputs": [
        {
          "internalType": "uint256",
          "name": "",
          "type": "uint256"
        }
      ],
      "stateMutability": "view",
      "type": "function"
    },
    {
      "inputs": [],
      "name": "REWARD_TOKEN",
      "outputs": [
        {
          "internalType": "address",
          "name": "",
          "type": "address"
        }
      ],
      "stateMutability": "view",
      "type": "function"
    },
    {
      "inputs": [],
      "name": "STAKE_TOKEN",
      "outputs": [
        {
          "internalType": "contract IStakedTokenWithConfig",
          "name": "",
          "type": "address"
        }
      ],
      "stateMutability": "view",
      "type": "function"
    },
    {
      "inputs": [
        {
          "internalType": "address",
          "name": "",
          "type": "address"
        }
      ],
      "name": "assets",
      "outputs": [
        {
          "internalType": "uint104",
          "name": "emissionPerSecond",
          "type": "uint104"
        },
        {
          "internalType": "uint104",
          "name": "index",
          "type": "uint104"
        },
        {
          "internalType": "uint40",
          "name": "lastUpdateTimestamp",
          "type": "uint40"
        }
      ],
      "stateMutability": "view",
      "type": "function"
    },
    {
      "inputs": [
        {
          "internalType": "address[]",
          "name": "assets",
          "type": "address[]"
        },
        {
          "internalType": "uint256",
          "name": "amount",
          "type": "uint256"
        },
        {
          "internalType": "address",
          "name": "to",
          "type": "address"
        }
      ],
      "name": "claimRewards",
      "outputs": [
        {
          "internalType": "uint256",
          "name": "",
          "type": "uint256"
        }
      ],
      "stateMutability": "nonpayable",
      "type": "function"
    },
    {
      "inputs": [
        {
          "internalType": "address[]",
          "name": "assets",
          "type": "address[]"
        },
        {
          "internalType": "uint256",
          "name": "amount",
          "type": "uint256"
        },
        {
          "internalType": "address",
          "name": "user",
          "type": "address"
        },
        {
          "internalType": "address",
          "name": "to",
          "type": "address"
        }
      ],
      "name": "claimRewardsOnBehalf",
      "outputs": [
        {
          "internalType": "uint256",
          "name": "",
          "type": "uint256"
        }
      ],
      "stateMutability": "nonpayable",
      "type": "function"
    },
    {
      "inputs": [
        {
          "internalType": "address[]",
          "name": "assets",
          "type": "address[]"
        },
        {
          "internalType": "uint256[]",
          "name": "emissionsPerSecond",
          "type": "uint256[]"
        }
      ],
      "name": "configureAssets",
      "outputs": [],
      "stateMutability": "nonpayable",
      "type": "function"
    },
    {
      "inputs": [
        {
          "internalType": "address",
          "name": "asset",
          "type": "address"
        }
      ],
      "name": "getAssetData",
      "outputs": [
        {
          "internalType": "uint256",
          "name": "",
          "type": "uint256"
        },
        {
          "internalType": "uint256",
          "name": "",
          "type": "uint256"
        },
        {
          "internalType": "uint256",
          "name": "",
          "type": "uint256"
        }
      ],
      "stateMutability": "view",
      "type": "function"
    },
    {
      "inputs": [
        {
          "internalType": "address",
          "name": "user",
          "type": "address"
        }
      ],
      "name": "getClaimer",
      "outputs": [
        {
          "internalType": "address",
          "name": "",
          "type": "address"
        }
      ],
      "stateMutability": "view",
      "type": "function"
    },
    {
      "inputs": [
        {
          "internalType": "address",
          "name": "user",
          "type": "address"
        }
      ],
      "name": "getCreditScore",
      "outputs": [
        {
          "internalType": "uint256",
          "name": "",
          "type": "uint256"
        }
      ],
      "stateMutability": "view",
      "type": "function"
    },
    {
      "inputs": [],
      "name": "getDistributionEnd",
      "outputs": [
        {
          "internalType": "uint256",
          "name": "",
          "type": "uint256"
        }
      ],
      "stateMutability": "view",
      "type": "function"
    },
    {
      "inputs": [
        {
          "internalType": "address[]",
          "name": "assets",
          "type": "address[]"
        },
        {
          "internalType": "address",
          "name": "user",
          "type": "address"
        }
      ],
      "name": "getRewardsBalance",
      "outputs": [
        {
          "internalType": "uint256",
          "name": "",
          "type": "uint256"
        }
      ],
      "stateMutability": "view",
      "type": "function"
    },
    {
      "inputs": [
        {
          "internalType": "address",
          "name": "user",
          "type": "address"
        },
        {
          "internalType": "address",
          "name": "asset",
          "type": "address"
        }
      ],
      "name": "getUserAssetData",
      "outputs": [
        {
          "internalType": "uint256",
          "name": "",
          "type": "uint256"
        }
      ],
      "stateMutability": "view",
      "type": "function"
    },
    {
      "inputs": [
        {
          "internalType": "address",
          "name": "_user",
          "type": "address"
        }
      ],
      "name": "getUserUnclaimedRewards",
      "outputs": [
        {
          "internalType": "uint256",
          "name": "",
          "type": "uint256"
        }
      ],
      "stateMutability": "view",
      "type": "function"
    },
    {
      "inputs": [
        {
          "internalType": "address",
          "name": "user",
          "type": "address"
        },
        {
          "internalType": "uint256",
          "name": "totalSupply",
          "type": "uint256"
        },
        {
          "internalType": "uint256",
          "name": "userBalance",
          "type": "uint256"
        }
      ],
      "name": "handleAction",
      "outputs": [],
      "stateMutability": "nonpayable",
      "type": "function"
    },
    {
      "inputs": [
        {
          "internalType": "address",
          "name": "addressesProvider",
          "type": "address"
        }
      ],
      "name": "initialize",
      "outputs": [],
      "stateMutability": "nonpayable",
      "type": "function"
    },
    {
      "inputs": [
        {
          "internalType": "address",
          "name": "user",
          "type": "address"
        },
        {
          "internalType": "address",
          "name": "caller",
          "type": "address"
        }
      ],
      "name": "setClaimer",
      "outputs": [],
      "stateMutability": "nonpayable",
      "type": "function"
    },
    {
      "inputs": [
        {
          "internalType": "address",
          "name": "user",
          "type": "address"
        },
        {
          "internalType": "uint256",
          "name": "score",
          "type": "uint256"
        }
      ],
      "name": "setCreditScore",
      "outputs": [],
      "stateMutability": "nonpayable",
      "type": "function"
    },
    {
      "inputs": [
        {
          "internalType": "uint256",
          "name": "distributionEnd",
          "type": "uint256"
        }
      ],
      "name": "setDistributionEnd",
      "outputs": [],
      "stateMutability": "nonpayable",
      "type": "function"
    }
  ],
  "bytecode": "0x60c0604052600080553480156200001557600080fd5b50604051620022d6380380620022d6833981016040819052620000389162000058565b6001600160601b0319606091821b811660805291901b1660a052620000af565b600080604083850312156200006b578182fd5b8251620000788162000096565b60208401519092506200008b8162000096565b809150509250929050565b6001600160a01b0381168114620000ac57600080fd5b50565b60805160601c60a05160601c6121d562000101600039806103415280610ad65280610b6a5280610b8e5280610fc552508061047e52806105c95280610a7b5280610c455280610cc952506121d56000f3fe608060405234801561001057600080fd5b50600436106101425760003560e01c8063919cd40f116100b8578063cbcbb5071161007c578063cbcbb5071461028c578063cc69afec14610241578063d3dd2bdf14610294578063dde43cba146102a7578063f11b8188146102af578063f5cf673b146102d157610142565b8063919cd40f1461024157806397ed81cf1461024957806399248ea71461025c578063aaf5eb6814610264578063c4d66de81461027957610142565b80633373ee4c1161010a5780633373ee4c146101cf57806339ccbdd3146101e25780636d34b96e146101f557806374d945ec1461020857806379f171b21461021b5780638b599f261461022e57610142565b80631652e7b714610147578063198fa81e146101725780631c39b672146101925780633111e7b3146101a757806331873e2e146101ba575b600080fd5b61015a610155366004611a7d565b6102e4565b60405161016993929190612137565b60405180910390f35b610185610180366004611a7d565b610324565b604051610169919061212e565b61019a61033f565b6040516101699190611d94565b6101856101b5366004611c0a565b610363565b6101cd6101c8366004611b18565b6103ad565b005b6101856101dd366004611ab5565b610442565b6101cd6101f0366004611cf9565b610473565b610185610203366004611c67565b6104fb565b61019a610216366004611a7d565b6105a0565b6101cd610229366004611ba1565b6105be565b61018561023c366004611b4c565b610823565b610185610a6a565b6101cd610257366004611aed565b610a70565b61019a610ad4565b61026c610af8565b604051610169919061214d565b6101cd610287366004611a7d565b610afd565b61019a610c43565b6101856102a2366004611a7d565b610c67565b610185610c82565b6102c26102bd366004611a7d565b610c87565b60405161016993929190612104565b6101cd6102df366004611ab5565b610cbe565b6001600160a01b0316600090815260346020526040902054600160681b81046001600160681b039081169290821691600160d01b900464ffffffffff1690565b6001600160a01b031660009081526037602052604090205490565b7f000000000000000000000000000000000000000000000000000000000000000081565b60006001600160a01b0382166103945760405162461bcd60e51b815260040161038b90611ebf565b60405180910390fd5b6103a2858585333387610d5d565b90505b949350505050565b60006103bb843384866110b7565b9050801561043c576001600160a01b0384166000908152603760205260409020546103e69082611176565b6001600160a01b038516600081815260376020526040908190209290925590517f2468f9268c60ad90e2d49edb0032c8a001e733ae888b3ab8e982edf535be1a769061043390849061212e565b60405180910390a25b50505050565b6001600160a01b03808216600090815260346020908152604080832093861683526001909301905220545b92915050565b336001600160a01b037f000000000000000000000000000000000000000000000000000000000000000016146104bb5760405162461bcd60e51b815260040161038b90612027565b60358190556040517f1cc1849a6602c3e91f2088cadea4381cc5717f2f28584197060ed2ebb434c16f906104f090839061212e565b60405180910390a150565b6001600160a01b0380831660009081526038602052604081205490913391859116821461053a5760405162461bcd60e51b815260040161038b90612056565b6001600160a01b0385166105605760405162461bcd60e51b815260040161038b90611e91565b6001600160a01b0384166105865760405162461bcd60e51b815260040161038b90611ebf565b610594888888338989610d5d565b98975050505050505050565b6001600160a01b039081166000908152603860205260409020541690565b336001600160a01b037f000000000000000000000000000000000000000000000000000000000000000016146106065760405162461bcd60e51b815260040161038b90612027565b8281146106255760405162461bcd60e51b815260040161038b90611eeb565b60608367ffffffffffffffff8111801561063e57600080fd5b5060405190808252806020026020018201604052801561067857816020015b6106656119ea565b81526020019060019003908161065d5790505b50905060005b848110156108125785858281811061069257fe5b90506020020160208101906106a79190611a7d565b8282815181106106b357fe5b6020026020010151604001906001600160a01b031690816001600160a01b0316815250508383828181106106e357fe5b905060200201358282815181106106f657fe5b60209081029190910101516001600160681b03909116905283838281811061071a57fe5b9050602002013582828151811061072d57fe5b6020026020010151600001516001600160681b03161461075f5760405162461bcd60e51b815260040161038b90611eeb565b85858281811061076b57fe5b90506020020160208101906107809190611a7d565b6001600160a01b031663b1bf962d6040518163ffffffff1660e01b815260040160206040518083038186803b1580156107b857600080fd5b505afa1580156107cc573d6000803e3d6000fd5b505050506040513d601f19601f820116820180604052508101906107f09190611d11565b8282815181106107fc57fe5b602090810291909101810151015260010161067e565b5061081c8161119b565b5050505050565b6001600160a01b03811660009081526037602052604081205460608467ffffffffffffffff8111801561085557600080fd5b5060405190808252806020026020018201604052801561088f57816020015b61087c611a0a565b8152602001906001900390816108745790505b50905060005b858110156109bb578686828181106108a957fe5b90506020020160208101906108be9190611a7d565b8282815181106108ca57fe5b60209081029190910101516001600160a01b0390911690528686828181106108ee57fe5b90506020020160208101906109039190611a7d565b6001600160a01b0316630afbcdc9866040518263ffffffff1660e01b815260040161092e9190611d94565b604080518083038186803b15801561094557600080fd5b505afa158015610959573d6000803e3d6000fd5b505050506040513d601f19601f8201168201806040525081019061097d9190611d29565b83838151811061098957fe5b60200260200101516020018484815181106109a057fe5b60209081029190910101516040019190915252600101610895565b506109f06040518060400160405280601281526020017103ab731b630b4b6b2b22932bbb0b932399d160751b815250836112d7565b610a046109fd858361131c565b8390611176565b9150610a456040518060400160405280601881526020017f756e636c61696d6564526577617264732061667465723a200000000000000000815250836112d7565b506001600160a01b0383166000908152603660205260409020540290505b9392505050565b60355490565b336001600160a01b037f00000000000000000000000000000000000000000000000000000000000000001614610ab85760405162461bcd60e51b815260040161038b90612027565b6001600160a01b03909116600090815260366020526040902055565b7f000000000000000000000000000000000000000000000000000000000000000090565b601281565b6000610b0761141a565b60015490915060ff1680610b1e5750610b1e61141f565b80610b2a575060005481115b610b465760405162461bcd60e51b815260040161038b90611fd9565b60015460ff16158015610b65576001805460ff19168117905560008290555b610c2d7f00000000000000000000000000000000000000000000000000000000000000006000197f00000000000000000000000000000000000000000000000000000000000000006001600160a01b031663312f6b836040518163ffffffff1660e01b815260040160206040518083038186803b158015610be557600080fd5b505afa158015610bf9573d6000803e3d6000fd5b505050506040513d601f19601f82011682018060405250810190610c1d9190611a99565b6001600160a01b03169190611425565b8015610c3e576001805460ff191690555b505050565b7f000000000000000000000000000000000000000000000000000000000000000081565b6001600160a01b031660009081526036602052604090205490565b600181565b6034602052600090815260409020546001600160681b0380821691600160681b810490911690600160d01b900464ffffffffff1683565b336001600160a01b037f00000000000000000000000000000000000000000000000000000000000000001614610d065760405162461bcd60e51b815260040161038b90612027565b6001600160a01b0382811660008181526038602052604080822080546001600160a01b0319169486169485179055517f4925eafc82d0c4d67889898eeed64b18488ab19811e61620f387026dec126a289190a35050565b600084610d6c575060006110ad565b6001600160a01b03831660009081526037602052604090205460608767ffffffffffffffff81118015610d9e57600080fd5b50604051908082528060200260200182016040528015610dd857816020015b610dc5611a0a565b815260200190600190039081610dbd5790505b50905060005b88811015610f0457898982818110610df257fe5b9050602002016020810190610e079190611a7d565b828281518110610e1357fe5b60209081029190910101516001600160a01b039091169052898982818110610e3757fe5b9050602002016020810190610e4c9190611a7d565b6001600160a01b0316630afbcdc9876040518263ffffffff1660e01b8152600401610e779190611d94565b604080518083038186803b158015610e8e57600080fd5b505afa158015610ea2573d6000803e3d6000fd5b505050506040513d601f19601f82011682018060405250810190610ec69190611d29565b838381518110610ed257fe5b6020026020010151602001848481518110610ee957fe5b60209081029190910101516040019190915252600101610dde565b506000610f11868361151f565b90508015610f6757610f238382611176565b9250856001600160a01b03167f2468f9268c60ad90e2d49edb0032c8a001e733ae888b3ab8e982edf535be1a7682604051610f5e919061212e565b60405180910390a25b82610f7857600093505050506110ad565b6000838911610f875788610f89565b835b6001600160a01b038089166000908152603760209081526040808320858a0390556036909152908190205490516356e4bb9760e11b81529293507f00000000000000000000000000000000000000000000000000000000000000009091169163adc9772e91610fff918a91860290600401611dc2565b600060405180830381600087803b15801561101957600080fd5b505af115801561102d573d6000803e3d6000fd5b505050506001600160a01b0387811660008181526036602052604090819020549051838c16938a1692917f5637d7f962248a7f05a7ab69eec6446e31f3d0a299d997f135a65c62806e7891916110859187029061212e565b60405180910390a46001600160a01b0387166000908152603660205260409020540293505050505b9695505050505050565b6001600160a01b03808416600090815260346020908152604080832093881683526001840190915281205490919082806110f288858861158b565b905080831461116a57861561110f5761110c8782856116bb565b91505b6001600160a01b03808a1660008181526001870160205260409081902084905551918a16917fbb123b5c06d5408bbea3c4fef481578175cfb432e3b482c6186f02ed9086585b9061116190859061212e565b60405180910390a35b50979650505050505050565b600082820183811015610a635760405162461bcd60e51b815260040161038b90611e5a565b60005b81518110156112d3576000603460008484815181106111b957fe5b6020026020010151604001516001600160a01b03166001600160a01b0316815260200190815260200160002090506112208383815181106111f657fe5b6020026020010151604001518285858151811061120f57fe5b60200260200101516020015161158b565b5082828151811061122d57fe5b60209081029190910101515181546cffffffffffffffffffffffffff19166001600160681b03909116178155825183908390811061126757fe5b6020026020010151604001516001600160a01b03167f87fa03892a0556cb6b8f97e6d533a150d4d55fcbf275fff5fa003fa636bcc7fa8484815181106112a957fe5b6020026020010151600001516040516112c291906120f0565b60405180910390a25060010161119e565b5050565b6112d382826040516024016112ed929190611dee565b60408051601f198184030181529190526020810180516001600160e01b03166309710a9d60e41b1790526116ea565b600080805b83518110156114125760006034600086848151811061133c57fe5b602090810291909101810151516001600160a01b031682528101919091526040016000908120805487519193506113b191600160681b82046001600160681b039081169290811691600160d01b90910464ffffffffff16908a90889081106113a057fe5b60200260200101516040015161170b565b90506114066113ff8785815181106113c557fe5b602002602001015160200151838560010160008c6001600160a01b03166001600160a01b03168152602001908152602001600020546116bb565b8590611176565b93505050600101611321565b509392505050565b600190565b303b1590565b8015806114ad5750604051636eb1769f60e11b81526001600160a01b0384169063dd62ed3e9061145b9030908690600401611da8565b60206040518083038186803b15801561147357600080fd5b505afa158015611487573d6000803e3d6000fd5b505050506040513d601f19601f820116820180604052508101906114ab9190611d11565b155b6114c95760405162461bcd60e51b815260040161038b90611f83565b610c3e8363095ea7b360e01b84846040516024016114e8929190611dc2565b60408051601f198184030181529190526020810180516001600160e01b03166001600160e01b0319909316929092179091526117ab565b600080805b8351811015611412576115816109fd8686848151811061154057fe5b60200260200101516000015187858151811061155857fe5b60200260200101516020015188868151811061157057fe5b6020026020010151604001516110b7565b9150600101611524565b81546000906001600160681b03600160681b82048116919081169064ffffffffff600160d01b90910416428114156115c857829350505050610a63565b60006115d68484848961170b565b90508381146116915780816001600160681b0316146116075760405162461bcd60e51b815260040161038b90611f1a565b86546cffffffffffffffffffffffffff60681b1916600160681b6001600160681b038316021764ffffffffff60d01b1916600160d01b4264ffffffffff16021787556040516001600160a01b038916907f5777ca300dfe5bead41006fbce4389794dbc0ed8d6cccebfaf94630aa04184bc9061168490849061212e565b60405180910390a26116b0565b865464ffffffffff60d01b1916600160d01b4264ffffffffff16021787555b979650505050505050565b6000670de0b6b3a76400006116da6116d38585611890565b86906118d2565b816116e157fe5b04949350505050565b80516a636f6e736f6c652e6c6f67602083016000808483855afa5050505050565b60355460009084158061171c575082155b8061172f575042846001600160801b0316145b80611743575080846001600160801b031610155b1561175157859150506103a5565b60008142116117605742611762565b815b90506000611779826001600160801b038816611890565b9050610594886117a58761179f670de0b6b3a76400006117998d886118d2565b906118d2565b9061190c565b90611176565b6117bd826001600160a01b031661194e565b6117d95760405162461bcd60e51b815260040161038b906120b9565b60006060836001600160a01b0316836040516117f59190611d78565b6000604051808303816000865af19150503d8060008114611832576040519150601f19603f3d011682016040523d82523d6000602084013e611837565b606091505b5091509150816118595760405162461bcd60e51b815260040161038b90612084565b80511561043c57808060200190518101906118749190611cd9565b61043c5760405162461bcd60e51b815260040161038b90611e10565b6000610a6383836040518060400160405280601e81526020017f536166654d6174683a207375627472616374696f6e206f766572666c6f770000815250611987565b6000826118e15750600061046d565b828202828482816118ee57fe5b0414610a635760405162461bcd60e51b815260040161038b90611f42565b6000610a6383836040518060400160405280601a81526020017f536166654d6174683a206469766973696f6e206279207a65726f0000000000008152506119b3565b6000813f7fc5d2460186f7233c927e7db2dcc703c0e500b653ca82273b7bfad8045d85a4708181148015906103a5575050151592915050565b600081848411156119ab5760405162461bcd60e51b815260040161038b9190611ddb565b505050900390565b600081836119d45760405162461bcd60e51b815260040161038b9190611ddb565b5060008385816119e057fe5b0495945050505050565b604080516060810182526000808252602082018190529181019190915290565b604051806060016040528060006001600160a01b0316815260200160008152602001600081525090565b60008083601f840112611a45578182fd5b50813567ffffffffffffffff811115611a5c578182fd5b6020830191508360208083028501011115611a7657600080fd5b9250929050565b600060208284031215611a8e578081fd5b8135610a6381612187565b600060208284031215611aaa578081fd5b8151610a6381612187565b60008060408385031215611ac7578081fd5b8235611ad281612187565b91506020830135611ae281612187565b809150509250929050565b60008060408385031215611aff578182fd5b8235611b0a81612187565b946020939093013593505050565b600080600060608486031215611b2c578081fd5b8335611b3781612187565b95602085013595506040909401359392505050565b600080600060408486031215611b60578283fd5b833567ffffffffffffffff811115611b76578384fd5b611b8286828701611a34565b9094509250506020840135611b9681612187565b809150509250925092565b60008060008060408587031215611bb6578081fd5b843567ffffffffffffffff80821115611bcd578283fd5b611bd988838901611a34565b90965094506020870135915080821115611bf1578283fd5b50611bfe87828801611a34565b95989497509550505050565b60008060008060608587031215611c1f578384fd5b843567ffffffffffffffff811115611c35578485fd5b611c4187828801611a34565b909550935050602085013591506040850135611c5c81612187565b939692955090935050565b600080600080600060808688031215611c7e578081fd5b853567ffffffffffffffff811115611c94578182fd5b611ca088828901611a34565b909650945050602086013592506040860135611cbb81612187565b91506060860135611ccb81612187565b809150509295509295909350565b600060208284031215611cea578081fd5b81518015158114610a63578182fd5b600060208284031215611d0a578081fd5b5035919050565b600060208284031215611d22578081fd5b5051919050565b60008060408385031215611d3b578182fd5b505080516020909101519092909150565b60008151808452611d6481602086016020860161215b565b601f01601f19169290920160200192915050565b60008251611d8a81846020870161215b565b9190910192915050565b6001600160a01b0391909116815260200190565b6001600160a01b0392831681529116602082015260400190565b6001600160a01b03929092168252602082015260400190565b600060208252610a636020830184611d4c565b600060408252611e016040830185611d4c565b90508260208301529392505050565b6020808252602a908201527f5361666542455032303a204245503230206f7065726174696f6e20646964206e6040820152691bdd081cdd58d8d9595960b21b606082015260800190565b6020808252601b908201527f536166654d6174683a206164646974696f6e206f766572666c6f770000000000604082015260600190565b602080825260149082015273494e56414c49445f555345525f4144445245535360601b604082015260600190565b602080825260129082015271494e56414c49445f544f5f4144445245535360701b604082015260600190565b60208082526015908201527424a72b20a624a22fa1a7a72324a3aaa920aa24a7a760591b604082015260600190565b6020808252600e908201526d496e646578206f766572666c6f7760901b604082015260600190565b60208082526021908201527f536166654d6174683a206d756c7469706c69636174696f6e206f766572666c6f6040820152607760f81b606082015260800190565b60208082526036908201527f5361666542455032303a20617070726f76652066726f6d206e6f6e2d7a65726f60408201527520746f206e6f6e2d7a65726f20616c6c6f77616e636560501b606082015260800190565b6020808252602e908201527f436f6e747261637420696e7374616e63652068617320616c726561647920626560408201526d195b881a5b9a5d1a585b1a5e995960921b606082015260800190565b60208082526015908201527427a7262cafa2a6a4a9a9a4a7a72fa6a0a720a3a2a960591b604082015260600190565b60208082526014908201527310d3105253515497d5539055551213d49256915160621b604082015260600190565b6020808252818101527f5361666542455032303a206c6f772d6c6576656c2063616c6c206661696c6564604082015260600190565b6020808252601f908201527f5361666542455032303a2063616c6c20746f206e6f6e2d636f6e747261637400604082015260600190565b6001600160681b0391909116815260200190565b6001600160681b03938416815291909216602082015264ffffffffff909116604082015260600190565b90815260200190565b9283526020830191909152604082015260600190565b60ff91909116815260200190565b60005b8381101561217657818101518382015260200161215e565b8381111561043c5750506000910152565b6001600160a01b038116811461219c57600080fd5b5056fea264697066735822122099f1a542d5874914358d458430d6f29bf3e470724da36749ad6f66df21e3bbb964736f6c634300060c0033",
  "linkReferences": {},
  "deployedLinkReferences": {}
}