{
  "_format": "hh-sol-artifact-1",
  "contractName": "TToken",
  "sourceName": "contracts/protocol/tokenization/TToken.sol",
  "abi": [
    {
      "anonymous": false,
      "inputs": [
        {
          "indexed": true,
          "internalType": "address",
          "name": "owner",
          "type": "address"
        },
        {
          "indexed": true,
          "internalType": "address",
          "name": "spender",
          "type": "address"
        },
        {
          "indexed": false,
          "internalType": "uint256",
          "name": "value",
          "type": "uint256"
        }
      ],
      "name": "Approval",
      "type": "event"
    },
    {
      "anonymous": false,
      "inputs": [
        {
          "indexed": true,
          "internalType": "address",
          "name": "from",
          "type": "address"
        },
        {
          "indexed": true,
          "internalType": "address",
          "name": "to",
          "type": "address"
        },
        {
          "indexed": false,
          "internalType": "uint256",
          "name": "value",
          "type": "uint256"
        },
        {
          "indexed": false,
          "internalType": "uint256",
          "name": "index",
          "type": "uint256"
        }
      ],
      "name": "BalanceTransfer",
      "type": "event"
    },
    {
      "anonymous": false,
      "inputs": [
        {
          "indexed": true,
          "internalType": "address",
          "name": "from",
          "type": "address"
        },
        {
          "indexed": true,
          "internalType": "address",
          "name": "target",
          "type": "address"
        },
        {
          "indexed": false,
          "internalType": "uint256",
          "name": "value",
          "type": "uint256"
        },
        {
          "indexed": false,
          "internalType": "uint256",
          "name": "index",
          "type": "uint256"
        }
      ],
      "name": "Burn",
      "type": "event"
    },
    {
      "anonymous": false,
      "inputs": [
        {
          "indexed": true,
          "internalType": "address",
          "name": "underlyingAsset",
          "type": "address"
        },
        {
          "indexed": true,
          "internalType": "address",
          "name": "pool",
          "type": "address"
        },
        {
          "indexed": false,
          "internalType": "address",
          "name": "treasury",
          "type": "address"
        },
        {
          "indexed": false,
          "internalType": "address",
          "name": "incentivesController",
          "type": "address"
        },
        {
          "indexed": false,
          "internalType": "uint8",
          "name": "tTokenDecimals",
          "type": "uint8"
        },
        {
          "indexed": false,
          "internalType": "string",
          "name": "tTokenName",
          "type": "string"
        },
        {
          "indexed": false,
          "internalType": "string",
          "name": "tTokenSymbol",
          "type": "string"
        },
        {
          "indexed": false,
          "internalType": "bytes",
          "name": "params",
          "type": "bytes"
        }
      ],
      "name": "Initialized",
      "type": "event"
    },
    {
      "anonymous": false,
      "inputs": [
        {
          "indexed": true,
          "internalType": "address",
          "name": "from",
          "type": "address"
        },
        {
          "indexed": false,
          "internalType": "uint256",
          "name": "value",
          "type": "uint256"
        },
        {
          "indexed": false,
          "internalType": "uint256",
          "name": "index",
          "type": "uint256"
        }
      ],
      "name": "Mint",
      "type": "event"
    },
    {
      "anonymous": false,
      "inputs": [
        {
          "indexed": true,
          "internalType": "address",
          "name": "from",
          "type": "address"
        },
        {
          "indexed": true,
          "internalType": "address",
          "name": "to",
          "type": "address"
        },
        {
          "indexed": false,
          "internalType": "uint256",
          "name": "value",
          "type": "uint256"
        }
      ],
      "name": "Transfer",
      "type": "event"
    },
    {
      "inputs": [],
      "name": "DOMAIN_SEPARATOR",
      "outputs": [
        {
          "internalType": "bytes32",
          "name": "",
          "type": "bytes32"
        }
      ],
      "stateMutability": "view",
      "type": "function"
    },
    {
      "inputs": [],
      "name": "EIP712_REVISION",
      "outputs": [
        {
          "internalType": "bytes",
          "name": "",
          "type": "bytes"
        }
      ],
      "stateMutability": "view",
      "type": "function"
    },
    {
      "inputs": [],
      "name": "PERMIT_TYPEHASH",
      "outputs": [
        {
          "internalType": "bytes32",
          "name": "",
          "type": "bytes32"
        }
      ],
      "stateMutability": "view",
      "type": "function"
    },
    {
      "inputs": [],
      "name": "POOL",
      "outputs": [
        {
          "internalType": "contract ILendingPool",
          "name": "",
          "type": "address"
        }
      ],
      "stateMutability": "view",
      "type": "function"
    },
    {
      "inputs": [],
      "name": "RESERVE_TREASURY_ADDRESS",
      "outputs": [
        {
          "internalType": "address",
          "name": "",
          "type": "address"
        }
      ],
      "stateMutability": "view",
      "type": "function"
    },
    {
      "inputs": [],
      "name": "TTOKEN_REVISION",
      "outputs": [
        {
          "internalType": "uint256",
          "name": "",
          "type": "uint256"
        }
      ],
      "stateMutability": "view",
      "type": "function"
    },
    {
      "inputs": [],
      "name": "UNDERLYING_ASSET_ADDRESS",
      "outputs": [
        {
          "internalType": "address",
          "name": "",
          "type": "address"
        }
      ],
      "stateMutability": "view",
      "type": "function"
    },
    {
      "inputs": [
        {
          "internalType": "address",
          "name": "",
          "type": "address"
        }
      ],
      "name": "_nonces",
      "outputs": [
        {
          "internalType": "uint256",
          "name": "",
          "type": "uint256"
        }
      ],
      "stateMutability": "view",
      "type": "function"
    },
    {
      "inputs": [
        {
          "internalType": "address",
          "name": "owner",
          "type": "address"
        },
        {
          "internalType": "address",
          "name": "spender",
          "type": "address"
        }
      ],
      "name": "allowance",
      "outputs": [
        {
          "internalType": "uint256",
          "name": "",
          "type": "uint256"
        }
      ],
      "stateMutability": "view",
      "type": "function"
    },
    {
      "inputs": [
        {
          "internalType": "address",
          "name": "spender",
          "type": "address"
        },
        {
          "internalType": "uint256",
          "name": "amount",
          "type": "uint256"
        }
      ],
      "name": "approve",
      "outputs": [
        {
          "internalType": "bool",
          "name": "",
          "type": "bool"
        }
      ],
      "stateMutability": "nonpayable",
      "type": "function"
    },
    {
      "inputs": [
        {
          "internalType": "address",
          "name": "user",
          "type": "address"
        }
      ],
      "name": "balanceOf",
      "outputs": [
        {
          "internalType": "uint256",
          "name": "",
          "type": "uint256"
        }
      ],
      "stateMutability": "view",
      "type": "function"
    },
    {
      "inputs": [
        {
          "internalType": "address",
          "name": "user",
          "type": "address"
        },
        {
          "internalType": "address",
          "name": "receiverOfUnderlying",
          "type": "address"
        },
        {
          "internalType": "uint256",
          "name": "amount",
          "type": "uint256"
        },
        {
          "internalType": "uint256",
          "name": "index",
          "type": "uint256"
        }
      ],
      "name": "burn",
      "outputs": [],
      "stateMutability": "nonpayable",
      "type": "function"
    },
    {
      "inputs": [],
      "name": "decimals",
      "outputs": [
        {
          "internalType": "uint8",
          "name": "",
          "type": "uint8"
        }
      ],
      "stateMutability": "view",
      "type": "function"
    },
    {
      "inputs": [
        {
          "internalType": "address",
          "name": "spender",
          "type": "address"
        },
        {
          "internalType": "uint256",
          "name": "subtractedValue",
          "type": "uint256"
        }
      ],
      "name": "decreaseAllowance",
      "outputs": [
        {
          "internalType": "bool",
          "name": "",
          "type": "bool"
        }
      ],
      "stateMutability": "nonpayable",
      "type": "function"
    },
    {
      "inputs": [],
      "name": "getIncentivesController",
      "outputs": [
        {
          "internalType": "contract ITravaIncentivesController",
          "name": "",
          "type": "address"
        }
      ],
      "stateMutability": "view",
      "type": "function"
    },
    {
      "inputs": [],
      "name": "getOwner",
      "outputs": [
        {
          "internalType": "address",
          "name": "",
          "type": "address"
        }
      ],
      "stateMutability": "view",
      "type": "function"
    },
    {
      "inputs": [
        {
          "internalType": "address",
          "name": "user",
          "type": "address"
        }
      ],
      "name": "getScaledUserBalanceAndSupply",
      "outputs": [
        {
          "internalType": "uint256",
          "name": "",
          "type": "uint256"
        },
        {
          "internalType": "uint256",
          "name": "",
          "type": "uint256"
        }
      ],
      "stateMutability": "view",
      "type": "function"
    },
    {
      "inputs": [
        {
          "internalType": "address",
          "name": "user",
          "type": "address"
        },
        {
          "internalType": "uint256",
          "name": "amount",
          "type": "uint256"
        }
      ],
      "name": "handleRepayment",
      "outputs": [],
      "stateMutability": "nonpayable",
      "type": "function"
    },
    {
      "inputs": [
        {
          "internalType": "address",
          "name": "spender",
          "type": "address"
        },
        {
          "internalType": "uint256",
          "name": "addedValue",
          "type": "uint256"
        }
      ],
      "name": "increaseAllowance",
      "outputs": [
        {
          "internalType": "bool",
          "name": "",
          "type": "bool"
        }
      ],
      "stateMutability": "nonpayable",
      "type": "function"
    },
    {
      "inputs": [
        {
          "internalType": "contract ILendingPool",
          "name": "pool",
          "type": "address"
        },
        {
          "internalType": "address",
          "name": "treasury",
          "type": "address"
        },
        {
          "internalType": "address",
          "name": "underlyingAsset",
          "type": "address"
        },
        {
          "internalType": "contract ITravaIncentivesController",
          "name": "incentivesController",
          "type": "address"
        },
        {
          "internalType": "uint8",
          "name": "tTokenDecimals",
          "type": "uint8"
        },
        {
          "internalType": "string",
          "name": "tTokenName",
          "type": "string"
        },
        {
          "internalType": "string",
          "name": "tTokenSymbol",
          "type": "string"
        },
        {
          "internalType": "bytes",
          "name": "params",
          "type": "bytes"
        }
      ],
      "name": "initialize",
      "outputs": [],
      "stateMutability": "nonpayable",
      "type": "function"
    },
    {
      "inputs": [
        {
          "internalType": "address",
          "name": "user",
          "type": "address"
        },
        {
          "internalType": "uint256",
          "name": "amount",
          "type": "uint256"
        },
        {
          "internalType": "uint256",
          "name": "index",
          "type": "uint256"
        }
      ],
      "name": "mint",
      "outputs": [
        {
          "internalType": "bool",
          "name": "",
          "type": "bool"
        }
      ],
      "stateMutability": "nonpayable",
      "type": "function"
    },
    {
      "inputs": [
        {
          "internalType": "uint256",
          "name": "amount",
          "type": "uint256"
        },
        {
          "internalType": "uint256",
          "name": "index",
          "type": "uint256"
        }
      ],
      "name": "mintToTreasury",
      "outputs": [],
      "stateMutability": "nonpayable",
      "type": "function"
    },
    {
      "inputs": [],
      "name": "name",
      "outputs": [
        {
          "internalType": "string",
          "name": "",
          "type": "string"
        }
      ],
      "stateMutability": "view",
      "type": "function"
    },
    {
      "inputs": [
        {
          "internalType": "address",
          "name": "owner",
          "type": "address"
        },
        {
          "internalType": "address",
          "name": "spender",
          "type": "address"
        },
        {
          "internalType": "uint256",
          "name": "value",
          "type": "uint256"
        },
        {
          "internalType": "uint256",
          "name": "deadline",
          "type": "uint256"
        },
        {
          "internalType": "uint8",
          "name": "v",
          "type": "uint8"
        },
        {
          "internalType": "bytes32",
          "name": "r",
          "type": "bytes32"
        },
        {
          "internalType": "bytes32",
          "name": "s",
          "type": "bytes32"
        }
      ],
      "name": "permit",
      "outputs": [],
      "stateMutability": "nonpayable",
      "type": "function"
    },
    {
      "inputs": [
        {
          "internalType": "address",
          "name": "user",
          "type": "address"
        }
      ],
      "name": "scaledBalanceOf",
      "outputs": [
        {
          "internalType": "uint256",
          "name": "",
          "type": "uint256"
        }
      ],
      "stateMutability": "view",
      "type": "function"
    },
    {
      "inputs": [],
      "name": "scaledTotalSupply",
      "outputs": [
        {
          "internalType": "uint256",
          "name": "",
          "type": "uint256"
        }
      ],
      "stateMutability": "view",
      "type": "function"
    },
    {
      "inputs": [],
      "name": "symbol",
      "outputs": [
        {
          "internalType": "string",
          "name": "",
          "type": "string"
        }
      ],
      "stateMutability": "view",
      "type": "function"
    },
    {
      "inputs": [],
      "name": "totalSupply",
      "outputs": [
        {
          "internalType": "uint256",
          "name": "",
          "type": "uint256"
        }
      ],
      "stateMutability": "view",
      "type": "function"
    },
    {
      "inputs": [
        {
          "internalType": "address",
          "name": "recipient",
          "type": "address"
        },
        {
          "internalType": "uint256",
          "name": "amount",
          "type": "uint256"
        }
      ],
      "name": "transfer",
      "outputs": [
        {
          "internalType": "bool",
          "name": "",
          "type": "bool"
        }
      ],
      "stateMutability": "nonpayable",
      "type": "function"
    },
    {
      "inputs": [
        {
          "internalType": "address",
          "name": "sender",
          "type": "address"
        },
        {
          "internalType": "address",
          "name": "recipient",
          "type": "address"
        },
        {
          "internalType": "uint256",
          "name": "amount",
          "type": "uint256"
        }
      ],
      "name": "transferFrom",
      "outputs": [
        {
          "internalType": "bool",
          "name": "",
          "type": "bool"
        }
      ],
      "stateMutability": "nonpayable",
      "type": "function"
    },
    {
      "inputs": [
        {
          "internalType": "address",
          "name": "from",
          "type": "address"
        },
        {
          "internalType": "address",
          "name": "to",
          "type": "address"
        },
        {
          "internalType": "uint256",
          "name": "value",
          "type": "uint256"
        }
      ],
      "name": "transferOnLiquidation",
      "outputs": [],
      "stateMutability": "nonpayable",
      "type": "function"
    },
    {
      "inputs": [
        {
          "internalType": "address",
          "name": "target",
          "type": "address"
        },
        {
          "internalType": "uint256",
          "name": "amount",
          "type": "uint256"
        }
      ],
      "name": "transferUnderlyingTo",
      "outputs": [
        {
          "internalType": "uint256",
          "name": "",
          "type": "uint256"
        }
      ],
      "stateMutability": "nonpayable",
      "type": "function"
    }
  ],
  "bytecode": "0x6080604052600080553480156200001557600080fd5b50604080518082018252600b8082526a151513d2d15397d253541360aa1b602080840182815285518087019096529285528401528151919291600091620000609160379190620000a5565b50815162000076906038906020850190620000a5565b506039805460ff191660ff9290921691909117610100600160a81b031916610100330217905550620001419050565b828054600181600116156101000203166002900490600052602060002090601f016020900481019282601f10620000e857805160ff191683800117855562000118565b8280016001018555821562000118579182015b8281111562000118578251825591602001919060010190620000fb565b50620001269291506200012a565b5090565b5b808211156200012657600081556001016200012b565b6126e380620001516000396000f3fe608060405234801561001057600080fd5b50600436106101f05760003560e01c8063781603761161010f578063ae167335116100a2578063d505accf11610071578063d505accf146103c9578063d7020d0a146103dc578063dd62ed3e146103ef578063f866c31914610402576101f0565b8063ae1673351461039e578063b16a19de146103a6578063b1bf962d146103ae578063b9844d8d146103b6576101f0565b806395d89b41116100de57806395d89b4114610368578063a457c2d714610370578063a9059cbb14610383578063aa3437a414610396576101f0565b806378160376146103325780637df5bd3b1461033a57806388dd91a11461034d578063893d20e814610360576101f0565b806330adf81f116101875780634efecaa5116101565780634efecaa5146102ef57806370a08231146103025780637535d2461461031557806375d264131461032a576101f0565b806330adf81f146102b7578063313ce567146102bf5780633644e515146102d457806339509351146102dc576101f0565b806318160ddd116101c357806318160ddd14610267578063183fb4131461027c5780631da24f3e1461029157806323b872dd146102a4576101f0565b806306fdde03146101f5578063095ea7b3146102135780630afbcdc914610233578063156e29f614610254575b600080fd5b6101fd610415565b60405161020a9190612246565b60405180910390f35b610226610221366004611e75565b6104ac565b60405161020a91906121b4565b610246610241366004611d2e565b6104ca565b60405161020a929190612598565b610226610262366004611ea0565b6104e7565b61026f610630565b60405161020a91906121bf565b61028f61028a366004611ef4565b6106e2565b005b61026f61029f366004611d2e565b610982565b6102266102b2366004611d82565b61098d565b61026f610a4d565b6102c7610a71565b60405161020a91906125a6565b61026f610a7a565b6102266102ea366004611e75565b610a80565b61026f6102fd366004611e75565b610ace565b61026f610310366004611d2e565b610b46565b61031d610bdf565b60405161020a91906120bf565b61031d610bee565b6101fd610bfd565b61028f610348366004612001565b610c1a565b61028f61035b366004611e75565b610d1e565b61031d610d7a565b6101fd610d8e565b61022661037e366004611e75565b610def565b610226610391366004611e75565b610e57565b61026f610eb4565b61031d610eb9565b61031d610ec8565b61026f610ed7565b61026f6103c4366004611d2e565b610ee1565b61028f6103d7366004611e07565b610ef3565b61028f6103ea366004611dc2565b61108b565b61026f6103fd366004611d4a565b6111d9565b61028f610410366004611d82565b611204565b60378054604080516020601f60026000196101006001881615020190951694909404938401819004810282018101909252828152606093909290918301828280156104a15780601f10610476576101008083540402835291602001916104a1565b820191906000526020600020905b81548152906001019060200180831161048457829003601f168201915b505050505090505b90565b60006104c06104b96112a7565b84846112ab565b5060015b92915050565b6000806104d683611352565b6104de61136d565b91509150915091565b603c546000906001600160a01b03166104fe6112a7565b6001600160a01b03161460405180604001604052806002815260200161323960f01b8152509061054a5760405162461bcd60e51b81526004016105419190612246565b60405180910390fd5b50600061055685611352565b905060006105648585611373565b6040805180820190915260028152611a9b60f11b60208201529091508161059e5760405162461bcd60e51b81526004016105419190612246565b506105a9868261141e565b856001600160a01b031660006001600160a01b0316600080516020612669833981519152876040516105db91906121bf565b60405180910390a3856001600160a01b03167f4c209b5fc8ad50758f13e2e1088ba56a560dff690a1c6fef26394f4c03821c4f868660405161061e929190612598565b60405180910390a25015949350505050565b60008061063b61136d565b90508061064c5760009150506104a9565b603c54603e5460405163d15e005360e01b81526106dc926001600160a01b039081169263d15e00539261068592909116906004016120bf565b60206040518083038186803b15801561069d57600080fd5b505afa1580156106b1573d6000803e3d6000fd5b505050506040513d601f19601f820116820180604052508101906106d59190611fe9565b8290611525565b91505090565b60006106ec6115b5565b60015490915060ff168061070357506107036115ba565b8061070f575060005481115b61072b5760405162461bcd60e51b81526004016105419061238a565b60015460ff1615801561074a576001805460ff19168117905560008290555b60405146907f8b73c3c69bb8fe3d512ecc4cf759cc79239f7b179b0ffacaa9a75d522b39400f9061077e908b908b90612078565b60408051918290038220828201825260018352603160f81b60209384015290516107cf93927fc89efdaa54c0f20c7adf612882df0950f5a951637e0307cdcb4c672f298b8bc69186913091016121fc565b60408051601f198184030181528282528051602091820120603b55601f8b0181900481028301810190915289825261082291908b908b90819084018382808284376000920191909152506115c092505050565b61086187878080601f0160208091040260200160405190810160405280939291908181526020018383808284376000920191909152506115d392505050565b61086a8a6115e6565b8d603c60006101000a8154816001600160a01b0302191690836001600160a01b031602179055508c603d60006101000a8154816001600160a01b0302191690836001600160a01b031602179055508b603e60006101000a8154816001600160a01b0302191690836001600160a01b031602179055508a603f60006101000a8154816001600160a01b0302191690836001600160a01b031602179055508d6001600160a01b03168c6001600160a01b03167fb19e051f8af41150ccccb3fc2c2d8d15f4a4cf434f32a559ba75fe73d6eea20b8f8e8e8e8e8e8e8e8e6040516109599998979695949392919061210c565b60405180910390a3508015610973576001805460ff191690555b50505050505050505050505050565b60006104c482611352565b600061099a8484846115fc565b610a0a846109a66112a7565b610a0585604051806060016040528060288152602001612641602891396001600160a01b038a166000908152603560205260408120906109e46112a7565b6001600160a01b031681526020810191909152604001600020549190611609565b6112ab565b826001600160a01b0316846001600160a01b031660008051602061266983398151915284604051610a3b91906121bf565b60405180910390a35060019392505050565b7f6e71edae12b1b97f4d1f60370fef10105fa2faae0126114a169c64845d6126c981565b60395460ff1690565b603b5481565b60006104c0610a8d6112a7565b84610a058560356000610a9e6112a7565b6001600160a01b03908116825260208083019390935260409182016000908120918c168152925290205490611635565b603c546000906001600160a01b0316610ae56112a7565b6001600160a01b03161460405180604001604052806002815260200161323960f01b81525090610b285760405162461bcd60e51b81526004016105419190612246565b50603e54610b40906001600160a01b03168484611661565b50919050565b603c54603e5460405163d15e005360e01b81526000926104c4926001600160a01b039182169263d15e005392610b809216906004016120bf565b60206040518083038186803b158015610b9857600080fd5b505afa158015610bac573d6000803e3d6000fd5b505050506040513d601f19601f82011682018060405250810190610bd09190611fe9565b610bd984611352565b90611525565b603c546001600160a01b031690565b6000610bf86116b7565b905090565b604051806040016040528060018152602001603160f81b81525081565b603c546001600160a01b0316610c2e6112a7565b6001600160a01b03161460405180604001604052806002815260200161323960f01b81525090610c715760405162461bcd60e51b81526004016105419190612246565b5081610c7c57610d1a565b603d546001600160a01b0316610c9b81610c968585611373565b61141e565b806001600160a01b031660006001600160a01b031660008051602061266983398151915285604051610ccd91906121bf565b60405180910390a3806001600160a01b03167f4c209b5fc8ad50758f13e2e1088ba56a560dff690a1c6fef26394f4c03821c4f8484604051610d10929190612598565b60405180910390a2505b5050565b603c546001600160a01b0316610d326112a7565b6001600160a01b03161460405180604001604052806002815260200161323960f01b81525090610d755760405162461bcd60e51b81526004016105419190612246565b505050565b60395461010090046001600160a01b031690565b60388054604080516020601f60026000196101006001881615020190951694909404938401819004810282018101909252828152606093909290918301828280156104a15780601f10610476576101008083540402835291602001916104a1565b60006104c0610dfc6112a7565b84610a05856040518060600160405280602581526020016126896025913960356000610e266112a7565b6001600160a01b03908116825260208083019390935260409182016000908120918d16815292529020549190611609565b6000610e6b610e646112a7565b84846115fc565b826001600160a01b0316610e7d6112a7565b6001600160a01b031660008051602061266983398151915284604051610ea391906121bf565b60405180910390a350600192915050565b600181565b603d546001600160a01b031690565b603e546001600160a01b031690565b6000610bf861136d565b603a6020526000908152604090205481565b6001600160a01b038716610f195760405162461bcd60e51b815260040161054190612404565b83421115610f395760405162461bcd60e51b8152600401610541906123d8565b6001600160a01b0387166000908152603a6020908152604080832054603b549151909392610f93917f6e71edae12b1b97f4d1f60370fef10105fa2faae0126114a169c64845d6126c9918d918d918d9189918e91016121c8565b60405160208183030381529060405280519060200120604051602001610fba9291906120a4565b60405160208183030381529060405280519060200120905060018186868660405160008152602001604052604051610ff59493929190612228565b6020604051602081039080840390855afa158015611017573d6000803e3d6000fd5b505050602060405103516001600160a01b0316896001600160a01b0316146110515760405162461bcd60e51b81526004016105419061235f565b61105c826001611635565b6001600160a01b038a166000908152603a60205260409020556110808989896112ab565b505050505050505050565b603c546001600160a01b031661109f6112a7565b6001600160a01b03161460405180604001604052806002815260200161323960f01b815250906110e25760405162461bcd60e51b81526004016105419190612246565b5060006110ef8383611373565b60408051808201909152600281526106a760f31b6020820152909150816111295760405162461bcd60e51b81526004016105419190612246565b5061113485826116c6565b603e5461114b906001600160a01b03168585611661565b60006001600160a01b0316856001600160a01b03166000805160206126698339815191528560405161117d91906121bf565b60405180910390a3836001600160a01b0316856001600160a01b03167f5d624aa9c148153ab3446c1b154f660ee7701e549fe9b62dab7171b1c80e6fa285856040516111ca929190612598565b60405180910390a35050505050565b6001600160a01b03918216600090815260356020908152604080832093909416825291909152205490565b603c546001600160a01b03166112186112a7565b6001600160a01b03161460405180604001604052806002815260200161323960f01b8152509061125b5760405162461bcd60e51b81526004016105419190612246565b50611269838383600061174b565b816001600160a01b0316836001600160a01b03166000805160206126698339815191528360405161129a91906121bf565b60405180910390a3505050565b3390565b6001600160a01b0383166112d15760405162461bcd60e51b8152600401610541906124b1565b6001600160a01b0382166112f75760405162461bcd60e51b8152600401610541906122e6565b6001600160a01b0380841660008181526035602090815260408083209487168084529490915290819020849055517f8c5be1e5ebec7d5bd14f71427d1e84f3dd0314c0f7b2291e5b200ac8c7c3b9259061129a9085906121bf565b6001600160a01b031660009081526034602052604090205490565b60365490565b604080518082019091526002815261035360f41b6020820152600090826113ad5760405162461bcd60e51b81526004016105419190612246565b5060408051808201909152600280825261068760f31b60208301528304906b033b2e3c9fd0803ce80000008219048511156113fb5760405162461bcd60e51b81526004016105419190612246565b5082816b033b2e3c9fd0803ce80000008602018161141557fe5b04949350505050565b6001600160a01b0382166114445760405162461bcd60e51b815260040161054190612561565b61145060008383610d75565b60365461145d8183611635565b6036556001600160a01b0383166000908152603460205260409020546114838184611635565b6001600160a01b0385166000908152603460205260408120919091556114a76116b7565b6001600160a01b03161461151f576114bd6116b7565b6001600160a01b03166331873e2e8584846040518463ffffffff1660e01b81526004016114ec93929190612193565b600060405180830381600087803b15801561150657600080fd5b505af115801561151a573d6000803e3d6000fd5b505050505b50505050565b6000821580611532575081155b1561153f575060006104c4565b816b019d971e4fe8401e74000000198161155557fe5b0483111560405180604001604052806002815260200161068760f31b815250906115925760405162461bcd60e51b81526004016105419190612246565b50506b033b2e3c9fd0803ce800000091026b019d971e4fe8401e74000000010490565b600190565b303b1590565b8051610d1a906037906020840190611c38565b8051610d1a906038906020840190611c38565b6039805460ff191660ff92909216919091179055565b610d75838383600161174b565b6000818484111561162d5760405162461bcd60e51b81526004016105419190612246565b505050900390565b60008282018381101561165a5760405162461bcd60e51b815260040161054190612328565b9392505050565b610d758363a9059cbb60e01b848460405160240161168092919061217a565b60408051601f198184030181529190526020810180516001600160e01b03166001600160e01b0319909316929092179091526118d6565b603f546001600160a01b031690565b6001600160a01b0382166116ec5760405162461bcd60e51b81526004016105419061242b565b6116f882600083610d75565b60365461170581836119bb565b6036556001600160a01b0383166000908152603460209081526040918290205482516060810190935260228084529092611483928692906125f990830139839190611609565b603e54603c5460405163d15e005360e01b81526001600160a01b039283169290911690600090829063d15e0053906117879086906004016120bf565b60206040518083038186803b15801561179f57600080fd5b505afa1580156117b3573d6000803e3d6000fd5b505050506040513d601f19601f820116820180604052508101906117d79190611fe9565b905060006117e882610bd98a611352565b905060006117f983610bd98a611352565b905061180f898961180a8a87611373565b6119fd565b851561187e5760405163d5ed393360e01b81526001600160a01b0385169063d5ed39339061184b9088908d908d908d90899089906004016120d3565b600060405180830381600087803b15801561186557600080fd5b505af1158015611879573d6000803e3d6000fd5b505050505b876001600160a01b0316896001600160a01b03167f4beccb90f994c31aced7a23b5611020728a23d8ec5cddd1a3e9d97b96fda866689866040516118c3929190612598565b60405180910390a3505050505050505050565b6118e8826001600160a01b0316611bfc565b6119045760405162461bcd60e51b81526004016105419061252a565b60006060836001600160a01b0316836040516119209190612088565b6000604051808303816000865af19150503d806000811461195d576040519150601f19603f3d011682016040523d82523d6000602084013e611962565b606091505b5091509150816119845760405162461bcd60e51b8152600401610541906124f5565b80511561151f578080602001905181019061199f9190611ed4565b61151f5760405162461bcd60e51b81526004016105419061229c565b600061165a83836040518060400160405280601e81526020017f536166654d6174683a207375627472616374696f6e206f766572666c6f770000815250611609565b6001600160a01b038316611a235760405162461bcd60e51b81526004016105419061246c565b6001600160a01b038216611a495760405162461bcd60e51b815260040161054190612259565b611a54838383610d75565b600060346000856001600160a01b03166001600160a01b03168152602001908152602001600020549050611aa38260405180606001604052806026815260200161261b60269139839190611609565b6001600160a01b038086166000908152603460205260408082209390935590851681522054611ad28184611635565b6001600160a01b038516600090815260346020526040812091909155611af66116b7565b6001600160a01b031614611bf557603654611b0f6116b7565b6001600160a01b03166331873e2e8783866040518463ffffffff1660e01b8152600401611b3e93929190612193565b600060405180830381600087803b158015611b5857600080fd5b505af1158015611b6c573d6000803e3d6000fd5b50505050846001600160a01b0316866001600160a01b031614611bf357611b916116b7565b6001600160a01b03166331873e2e8683856040518463ffffffff1660e01b8152600401611bc093929190612193565b600060405180830381600087803b158015611bda57600080fd5b505af1158015611bee573d6000803e3d6000fd5b505050505b505b5050505050565b6000813f7fc5d2460186f7233c927e7db2dcc703c0e500b653ca82273b7bfad8045d85a470818114801590611c3057508115155b949350505050565b828054600181600116156101000203166002900490600052602060002090601f016020900481019282601f10611c7957805160ff1916838001178555611ca6565b82800160010185558215611ca6579182015b82811115611ca6578251825591602001919060010190611c8b565b50611cb2929150611cb6565b5090565b5b80821115611cb25760008155600101611cb7565b80356104c4816125e0565b60008083601f840112611ce7578182fd5b50813567ffffffffffffffff811115611cfe578182fd5b602083019150836020828501011115611d1657600080fd5b9250929050565b803560ff811681146104c457600080fd5b600060208284031215611d3f578081fd5b813561165a816125e0565b60008060408385031215611d5c578081fd5b8235611d67816125e0565b91506020830135611d77816125e0565b809150509250929050565b600080600060608486031215611d96578081fd5b8335611da1816125e0565b92506020840135611db1816125e0565b929592945050506040919091013590565b60008060008060808587031215611dd7578081fd5b8435611de2816125e0565b93506020850135611df2816125e0565b93969395505050506040820135916060013590565b600080600080600080600060e0888a031215611e21578283fd5b8735611e2c816125e0565b96506020880135611e3c816125e0565b95506040880135945060608801359350611e598960808a01611d1d565b925060a0880135915060c0880135905092959891949750929550565b60008060408385031215611e87578182fd5b8235611e92816125e0565b946020939093013593505050565b600080600060608486031215611eb4578283fd5b8335611ebf816125e0565b95602085013595506040909401359392505050565b600060208284031215611ee5578081fd5b8151801515811461165a578182fd5b60008060008060008060008060008060006101008c8e031215611f15578384fd5b611f1f8d8d611ccb565b9a50611f2e8d60208e01611ccb565b9950611f3d8d60408e01611ccb565b9850611f4c8d60608e01611ccb565b9750611f5b8d60808e01611d1d565b965067ffffffffffffffff8060a08e01351115611f76578485fd5b611f868e60a08f01358f01611cd6565b909750955060c08d0135811015611f9b578485fd5b611fab8e60c08f01358f01611cd6565b909550935060e08d0135811015611fc0578283fd5b50611fd18d60e08e01358e01611cd6565b81935080925050509295989b509295989b9093969950565b600060208284031215611ffa578081fd5b5051919050565b60008060408385031215612013578182fd5b50508035926020909101359150565b60008284528282602086013780602084860101526020601f19601f85011685010190509392505050565b600081518084526120648160208601602086016125b4565b601f01601f19169290920160200192915050565b6000828483379101908152919050565b6000825161209a8184602087016125b4565b9190910192915050565b61190160f01b81526002810192909252602282015260420190565b6001600160a01b0391909116815260200190565b6001600160a01b03968716815294861660208601529290941660408401526060830152608082019290925260a081019190915260c00190565b6001600160a01b038a811682528916602082015260ff8816604082015260c060608201819052600090612142908301888a612022565b8281036080840152612155818789612022565b905082810360a084015261216a818587612022565b9c9b505050505050505050505050565b6001600160a01b03929092168252602082015260400190565b6001600160a01b039390931683526020830191909152604082015260600190565b901515815260200190565b90815260200190565b9586526001600160a01b0394851660208701529290931660408501526060840152608083019190915260a082015260c00190565b9485526020850193909352604084019190915260608301526001600160a01b0316608082015260a00190565b93845260ff9290921660208401526040830152606082015260800190565b60006020825261165a602083018461204c565b60208082526023908201527f45524332303a207472616e7366657220746f20746865207a65726f206164647260408201526265737360e81b606082015260800190565b6020808252602a908201527f5361666542455032303a204245503230206f7065726174696f6e20646964206e6040820152691bdd081cdd58d8d9595960b21b606082015260800190565b60208082526022908201527f45524332303a20617070726f766520746f20746865207a65726f206164647265604082015261737360f01b606082015260800190565b6020808252601b908201527f536166654d6174683a206164646974696f6e206f766572666c6f770000000000604082015260600190565b602080825260119082015270494e56414c49445f5349474e415455524560781b604082015260600190565b6020808252602e908201527f436f6e747261637420696e7374616e63652068617320616c726561647920626560408201526d195b881a5b9a5d1a585b1a5e995960921b606082015260800190565b60208082526012908201527124a72b20a624a22fa2ac2824a920aa24a7a760711b604082015260600190565b6020808252600d908201526c24a72b20a624a22fa7aba722a960991b604082015260600190565b60208082526021908201527f45524332303a206275726e2066726f6d20746865207a65726f206164647265736040820152607360f81b606082015260800190565b60208082526025908201527f45524332303a207472616e736665722066726f6d20746865207a65726f206164604082015264647265737360d81b606082015260800190565b60208082526024908201527f45524332303a20617070726f76652066726f6d20746865207a65726f206164646040820152637265737360e01b606082015260800190565b6020808252818101527f5361666542455032303a206c6f772d6c6576656c2063616c6c206661696c6564604082015260600190565b6020808252601f908201527f5361666542455032303a2063616c6c20746f206e6f6e2d636f6e747261637400604082015260600190565b6020808252601f908201527f45524332303a206d696e7420746f20746865207a65726f206164647265737300604082015260600190565b918252602082015260400190565b60ff91909116815260200190565b60005b838110156125cf5781810151838201526020016125b7565b8381111561151f5750506000910152565b6001600160a01b03811681146125f557600080fd5b5056fe45524332303a206275726e20616d6f756e7420657863656564732062616c616e636545524332303a207472616e7366657220616d6f756e7420657863656564732062616c616e636545524332303a207472616e7366657220616d6f756e74206578636565647320616c6c6f77616e6365ddf252ad1be2c89b69c2b068fc378daa952ba7f163c4a11628f55a4df523b3ef45524332303a2064656372656173656420616c6c6f77616e63652062656c6f77207a65726fa2646970667358221220173fb4ff47ea4a1dc43e2a8418a5dea59e9be39732c503dec5f2bde96cfa898664736f6c634300060c0033",
  "linkReferences": {},
  "deployedLinkReferences": {}
}