{
  "_format": "hh-sol-artifact-1",
  "contractName": "ValidationLogic",
  "sourceName": "contracts/protocol/libraries/logic/ValidationLogic.sol",
  "abi": [
    {
      "inputs": [],
      "name": "REBALANCE_UP_LIQUIDITY_RATE_THRESHOLD",
      "outputs": [
        {
          "internalType": "uint256",
          "name": "",
          "type": "uint256"
        }
      ],
      "stateMutability": "view",
      "type": "function"
    },
    {
      "inputs": [],
      "name": "REBALANCE_UP_USAGE_RATIO_THRESHOLD",
      "outputs": [
        {
          "internalType": "uint256",
          "name": "",
          "type": "uint256"
        }
      ],
      "stateMutability": "view",
      "type": "function"
    }
  ],
  "bytecode": "0x6114a6610026600b82828239805160001a60731461001957fe5b30600052607381538281f3fe73000000000000000000000000000000000000000030146080604052600436106100875760003560e01c8063abfcc86a11610065578063abfcc86a146100d2578063b2b8f2ea146100da578063b84c52c2146100ed578063d09db04a1461010e57610087565b80630eca322b1461008c57806327477790146100a15780635494eb8a146100b4575b600080fd5b61009f61009a366004611291565b610121565b005b61009f6100af3660046112b2565b6101e8565b6100bc6102f8565b6040516100c99190611436565b60405180910390f35b6100bc610308565b61009f6100e836600461113a565b61030e565b6101006100fb366004611257565b610516565b6040516100c992919061143f565b61009f61011c3660046111c5565b610646565b60008061012d846107ef565b506040805180820190915260018152603160f81b60208201529193509150836101725760405162461bcd60e51b815260040161016991906113ab565b60405180910390fd5b506040805180820190915260018152601960f91b6020820152826101a95760405162461bcd60e51b815260040161016991906113ab565b506040805180820190915260018152603360f81b602082015281156101e15760405162461bcd60e51b815260040161016991906113ab565b5050505050565b60006101f385610817565b905080604051806040016040528060018152602001601960f91b8152509061022e5760405162461bcd60e51b815260040161016991906113ab565b506040805180820190915260018152603160f81b6020820152846102655760405162461bcd60e51b815260040161016991906113ab565b50604080518082019091526002815261313560f01b60208201528261029d5760405162461bcd60e51b815260040161016991906113ab565b50600019841415806102b75750336001600160a01b038416145b60405180604001604052806002815260200161189b60f11b815250906102f05760405162461bcd60e51b815260040161016991906113ab565b505050505050565b6b0311d253316c79d37600000081565b610fa081565b610316611027565b61031f8a6107ef565b15156101208401521515610100830152151560e082018190526040805180820190915260018152601960f91b60208201529061036e5760405162461bcd60e51b815260040161016991906113ab565b5080610100015115604051806040016040528060018152602001603360f81b815250906103ae5760405162461bcd60e51b815260040161016991906113ab565b506040805180820190915260018152603160f81b6020820152886103e55760405162461bcd60e51b815260040161016991906113ab565b50604080516020810190915285548152610405908a908890878787610823565b60c08601526020808601919091529084526080840191909152606083018290526040805180820190915260018152603960f81b918101919091529061045d5760405162461bcd60e51b815260040161016991906113ab565b50670de0b6b3a76400008160c001511160405180604001604052806002815260200161031360f41b815250906104a65760405162461bcd60e51b815260040161016991906113ab565b50805160808201516104c391906104bd908a610c40565b90610c6e565b6040808301829052606083015181518083019092526002825261313160f01b6020830152909111156105085760405162461bcd60e51b815260040161016991906113ab565b505050505050505050505050565b6000606061052387610817565b1580610535575061053386610817565b155b1561055c5750506040805180820190915260018152601960f91b602082015260069061063c565b670de0b6b3a7640000841061058e5750506040805180820190915260028152611a1960f11b602082015260049061063c565b60008061059a89610d05565b1180156105c9575060058801546040805160208101909152875481526105c991600160a01b900460ff16610d10565b9050806105f357505060408051808201909152600280825261343360f01b6020830152915061063c565b8361061c5750506040805180820190915260028152610d0d60f21b60208201526003915061063c565b50506040805180820190915260028152611a1b60f11b6020820152600091505b9550959350505050565b6040805180820190915260018152603160f81b60208201528761067c5760405162461bcd60e51b815260040161016991906113ab565b506040805180820190915260018152603560f81b6020820152868811156106b65760405162461bcd60e51b815260040161016991906113ab565b506001600160a01b03881660009081526020869052604081206106d8906107ef565b5050905080604051806040016040528060018152602001601960f91b815250906107155760405162461bcd60e51b815260040161016991906113ab565b50604051633985c10960e21b815273__$52a8a86ab43135662ff256bbc95497e8e3$__9063e61704249061075b908c9033908d908c908c908c908c908c90600401611366565b60206040518083038186803b15801561077357600080fd5b505af4158015610787573d6000803e3d6000fd5b505050506040513d601f19601f820116820180604052508101906107ab9190611237565b604051806040016040528060018152602001601b60f91b815250906107e35760405162461bcd60e51b815260040161016991906113ab565b50505050505050505050565b54600160381b8116151591670200000000000000821615159167040000000000000016151590565b54600160381b16151590565b6000806000806000610833611089565b61083c8a610d68565b1561085a576000806000806000199550955095509550955050610c32565b600060e08201525b878160e001511015610b915760e081015161087e908b90610d6d565b61088757610b81565b60e0810151600090815260208a81526040808320546001600160a01b03166101e085018190528352908d905290206108be81610dbe565b506080860181905260c08601929092525060a0840191909152600a0a60208301526101e082015160405163b3596f0760e01b81526001600160a01b038a169163b3596f07916109109190600401611352565b60206040518083038186803b15801561092857600080fd5b505afa15801561093c573d6000803e3d6000fd5b505050506040513d601f19601f8201168201806040525081019061096091906112ef565b825260c082015115801590610980575060e0820151610980908c90610d10565b15610aa4578060030160059054906101000a90046001600160a01b03166001600160a01b03166370a082318e6040518263ffffffff1660e01b81526004016109c89190611352565b60206040518083038186803b1580156109e057600080fd5b505afa1580156109f4573d6000803e3d6000fd5b505050506040513d601f19601f82011682018060405250810190610a1891906112ef565b6040830181905260208301518351600092610a3d9291610a3791610de9565b90610e23565b610120840151909150610a509082610c40565b61012084015260a0830151610a7690610a6a908390610de9565b61016085015190610c40565b61016084015260c0830151610a9c90610a90908390610de9565b61018085015190610c40565b610180840152505b60e0820151610ab4908c90610e65565b15610b7f578060040160009054906101000a90046001600160a01b03166001600160a01b03166370a082318e6040518263ffffffff1660e01b8152600401610afc9190611352565b60206040518083038186803b158015610b1457600080fd5b505afa158015610b28573d6000803e3d6000fd5b505050506040513d601f19601f82011682018060405250810190610b4c91906112ef565b6060830181905260208301518351610b7892610b6c9291610a3791610de9565b61014084015190610c40565b6101408301525b505b60e0810180516001019052610862565b600081610120015111610ba5576000610bba565b610120810151610160820151610bba91610e23565b610160820152610120810151610bd1576000610be6565b610120810151610180820151610be691610e23565b6101808201819052610120820151610140830151610c0392610eb6565b610100820181905261012082015161014083015161016084015161018090940151919850965091945090925090505b965096509650965096915050565b600082820183811015610c655760405162461bcd60e51b8152600401610169906113be565b90505b92915050565b604080518082019091526002815261035360f41b602082015260009082610ca85760405162461bcd60e51b815260040161016991906113ab565b5060408051808201909152600280825261068760f31b6020830152830490612710821904851115610cec5760405162461bcd60e51b815260040161016991906113ab565b50828161271086020181610cfc57fe5b04949350505050565b5460101c61ffff1690565b60006080821060405180604001604052806002815260200161373760f01b81525090610d4f5760405162461bcd60e51b815260040161016991906113ab565b5050815160016002830281019190911c16151592915050565b511590565b60006080821060405180604001604052806002815260200161373760f01b81525090610dac5760405162461bcd60e51b815260040161016991906113ab565b50509051600360029092021c16151590565b5461ffff80821692601083901c821692602081901c831692603082901c60ff169260409290921c1690565b600082610df857506000610c68565b82820282848281610e0557fe5b0414610c655760405162461bcd60e51b8152600401610169906113f5565b6000610c6583836040518060400160405280601a81526020017f536166654d6174683a206469766973696f6e206279207a65726f000000000000815250610ee4565b60006080821060405180604001604052806002815260200161373760f01b81525090610ea45760405162461bcd60e51b815260040161016991906113ab565b50509051600160029092021c16151590565b600082610ec65750600019610edd565b610eda83610ed48685610f1b565b90610f8d565b90505b9392505050565b60008183610f055760405162461bcd60e51b815260040161016991906113ab565b506000838581610f1157fe5b0495945050505050565b6000821580610f28575081155b15610f3557506000610c68565b816113881981610f4157fe5b0483111560405180604001604052806002815260200161068760f31b81525090610f7e5760405162461bcd60e51b815260040161016991906113ab565b50506127109102611388010490565b604080518082019091526002815261035360f41b602082015260009082610fc75760405162461bcd60e51b815260040161016991906113ab565b5060408051808201909152600280825261068760f31b6020830152830490670de0b6b3a76400008219048511156110115760405162461bcd60e51b815260040161016991906113ab565b508281670de0b6b3a764000086020181610cfc57fe5b604051806101600160405280600081526020016000815260200160008152602001600081526020016000815260200160008152602001600081526020016000151581526020016000151581526020016000151581526020016000151581525090565b604051806102400160405280600081526020016000815260200160008152602001600081526020016000815260200160008152602001600081526020016000815260200160008152602001600081526020016000815260200160008152602001600081526020016000815260200160001515815260200160006001600160a01b031681526020016000151581526020016000151581525090565b80356001600160a01b0381168114610c6857600080fd5b6000806000806000806000806000806101408b8d031215611159578586fd5b6111638c8c611123565b995060208b013598506111798c60408d01611123565b975060608b0135965060808b0135955060a08b0135945060c08b0135935060e08b013592506101008b013591506111b48c6101208d01611123565b90509295989b9194979a5092959850565b600080600080600080600080610100898b0312156111e1578384fd5b88356111ec81611458565b97506020890135965060408901359550606089013594506080890135935060a0890135925060c0890135915060e089013561122681611458565b809150509295985092959890939650565b600060208284031215611248578081fd5b81518015158114610c65578182fd5b600080600080600060a0868803121561126e578081fd5b505083359560208501359550604085013594606081013594506080013592509050565b600080604083850312156112a3578182fd5b50508035926020909101359150565b600080600080608085870312156112c7578384fd5b84359350602085013592506112df8660408701611123565b9396929550929360600135925050565b600060208284031215611300578081fd5b5051919050565b60008151808452815b8181101561132c57602081850181015186830182015201611310565b8181111561133d5782602083870101525b50601f01601f19169290920160200192915050565b6001600160a01b0391909116815260200190565b6001600160a01b0398891681529688166020880152604087019590955260608601939093529054608085015260a084015260c083015290911660e08201526101000190565b600060208252610c656020830184611307565b6020808252601b908201527f536166654d6174683a206164646974696f6e206f766572666c6f770000000000604082015260600190565b60208082526021908201527f536166654d6174683a206d756c7469706c69636174696f6e206f766572666c6f6040820152607760f81b606082015260800190565b90815260200190565b600083825260406020830152610eda6040830184611307565b6001600160a01b038116811461146d57600080fd5b5056fea264697066735822122054b26372e50bd38fb338237225ab2a7164bd34aab71b36fcc8a6a35dd03cd7e964736f6c634300060c0033",
  "linkReferences": {
    "contracts/protocol/libraries/logic/GenericLogic.sol": {
      "GenericLogic": [
        {
          "length": 20,
          "start": 1867
        }
      ]
    }
  },
  "deployedLinkReferences": {
    "contracts/protocol/libraries/logic/GenericLogic.sol": {
      "GenericLogic": [
        {
          "length": 20,
          "start": 1829
        }
      ]
    }
  }
}