{
  "_format": "hh-sol-artifact-1",
  "contractName": "AddressesProviderFactory",
  "sourceName": "contracts/protocol/factory/AddressesProviderFactory.sol",
  "abi": [
    {
      "anonymous": false,
      "inputs": [
        {
          "indexed": false,
          "internalType": "uint256",
          "name": "providerId",
          "type": "uint256"
        },
        {
          "indexed": false,
          "internalType": "bytes32",
          "name": "id",
          "type": "bytes32"
        },
        {
          "indexed": true,
          "internalType": "address",
          "name": "newAddress",
          "type": "address"
        },
        {
          "indexed": false,
          "internalType": "bool",
          "name": "hasProxy",
          "type": "bool"
        }
      ],
      "name": "AddressSet",
      "type": "event"
    },
    {
      "anonymous": false,
      "inputs": [
        {
          "indexed": false,
          "internalType": "uint256",
          "name": "providerId",
          "type": "uint256"
        },
        {
          "indexed": true,
          "internalType": "address",
          "name": "newAddress",
          "type": "address"
        }
      ],
      "name": "ConfigurationAdminUpdated",
      "type": "event"
    },
    {
      "anonymous": false,
      "inputs": [
        {
          "indexed": false,
          "internalType": "uint256",
          "name": "providerId",
          "type": "uint256"
        },
        {
          "indexed": true,
          "internalType": "address",
          "name": "newAddress",
          "type": "address"
        }
      ],
      "name": "EmergencyAdminUpdated",
      "type": "event"
    },
    {
      "anonymous": false,
      "inputs": [
        {
          "indexed": false,
          "internalType": "uint256",
          "name": "providerId",
          "type": "uint256"
        },
        {
          "indexed": true,
          "internalType": "address",
          "name": "newAddress",
          "type": "address"
        }
      ],
      "name": "LendingPoolCollateralManagerUpdated",
      "type": "event"
    },
    {
      "anonymous": false,
      "inputs": [
        {
          "indexed": false,
          "internalType": "uint256",
          "name": "providerId",
          "type": "uint256"
        },
        {
          "indexed": true,
          "internalType": "address",
          "name": "newAddress",
          "type": "address"
        }
      ],
      "name": "LendingPoolConfiguratorUpdated",
      "type": "event"
    },
    {
      "anonymous": false,
      "inputs": [
        {
          "indexed": false,
          "internalType": "uint256",
          "name": "providerId",
          "type": "uint256"
        },
        {
          "indexed": true,
          "internalType": "address",
          "name": "newAddress",
          "type": "address"
        }
      ],
      "name": "LendingPoolUpdated",
      "type": "event"
    },
    {
      "anonymous": false,
      "inputs": [
        {
          "indexed": false,
          "internalType": "uint256",
          "name": "providerId",
          "type": "uint256"
        },
        {
          "indexed": true,
          "internalType": "address",
          "name": "newAddress",
          "type": "address"
        }
      ],
      "name": "LendingRateOracleUpdated",
      "type": "event"
    },
    {
      "anonymous": false,
      "inputs": [
        {
          "indexed": true,
          "internalType": "address",
          "name": "previousOwner",
          "type": "address"
        },
        {
          "indexed": true,
          "internalType": "address",
          "name": "newOwner",
          "type": "address"
        }
      ],
      "name": "OwnershipTransferred",
      "type": "event"
    },
    {
      "anonymous": false,
      "inputs": [
        {
          "indexed": false,
          "internalType": "address",
          "name": "pool",
          "type": "address"
        },
        {
          "indexed": false,
          "internalType": "uint256",
          "name": "",
          "type": "uint256"
        }
      ],
      "name": "PoolConfigured",
      "type": "event"
    },
    {
      "anonymous": false,
      "inputs": [
        {
          "indexed": false,
          "internalType": "uint256",
          "name": "providerId",
          "type": "uint256"
        },
        {
          "indexed": true,
          "internalType": "address",
          "name": "newAddress",
          "type": "address"
        }
      ],
      "name": "PriceOracleUpdated",
      "type": "event"
    },
    {
      "anonymous": false,
      "inputs": [
        {
          "indexed": false,
          "internalType": "uint256",
          "name": "providerId",
          "type": "uint256"
        },
        {
          "indexed": false,
          "internalType": "bytes32",
          "name": "id",
          "type": "bytes32"
        },
        {
          "indexed": true,
          "internalType": "address",
          "name": "newAddress",
          "type": "address"
        }
      ],
      "name": "ProxyCreated",
      "type": "event"
    },
    {
      "inputs": [
        {
          "internalType": "uint256",
          "name": "",
          "type": "uint256"
        }
      ],
      "name": "addressesProviders",
      "outputs": [
        {
          "internalType": "uint256",
          "name": "",
          "type": "uint256"
        }
      ],
      "stateMutability": "view",
      "type": "function"
    },
    {
      "inputs": [
        {
          "internalType": "address",
          "name": "Owner",
          "type": "address"
        },
        {
          "internalType": "uint256",
          "name": "providerId",
          "type": "uint256"
        }
      ],
      "name": "checkOwner",
      "outputs": [
        {
          "internalType": "bool",
          "name": "",
          "type": "bool"
        }
      ],
      "stateMutability": "view",
      "type": "function"
    },
    {
      "inputs": [
        {
          "internalType": "uint256",
          "name": "providerId",
          "type": "uint256"
        },
        {
          "internalType": "bytes32",
          "name": "id",
          "type": "bytes32"
        }
      ],
      "name": "getAddress",
      "outputs": [
        {
          "internalType": "address",
          "name": "",
          "type": "address"
        }
      ],
      "stateMutability": "view",
      "type": "function"
    },
    {
      "inputs": [],
      "name": "getAllPools",
      "outputs": [
        {
          "internalType": "uint256[]",
          "name": "",
          "type": "uint256[]"
        }
      ],
      "stateMutability": "view",
      "type": "function"
    },
    {
      "inputs": [],
      "name": "getGovernance",
      "outputs": [
        {
          "internalType": "address",
          "name": "",
          "type": "address"
        }
      ],
      "stateMutability": "view",
      "type": "function"
    },
    {
      "inputs": [
        {
          "internalType": "uint256",
          "name": "providerId",
          "type": "uint256"
        }
      ],
      "name": "getLendingPool",
      "outputs": [
        {
          "internalType": "address",
          "name": "",
          "type": "address"
        }
      ],
      "stateMutability": "view",
      "type": "function"
    },
    {
      "inputs": [
        {
          "internalType": "uint256",
          "name": "providerId",
          "type": "uint256"
        }
      ],
      "name": "getLendingPoolCollateralManager",
      "outputs": [
        {
          "internalType": "address",
          "name": "",
          "type": "address"
        }
      ],
      "stateMutability": "view",
      "type": "function"
    },
    {
      "inputs": [
        {
          "internalType": "uint256",
          "name": "providerId",
          "type": "uint256"
        }
      ],
      "name": "getLendingPoolConfigurator",
      "outputs": [
        {
          "internalType": "address",
          "name": "",
          "type": "address"
        }
      ],
      "stateMutability": "view",
      "type": "function"
    },
    {
      "inputs": [
        {
          "internalType": "uint256",
          "name": "providerId",
          "type": "uint256"
        }
      ],
      "name": "getLendingRateOracle",
      "outputs": [
        {
          "internalType": "address",
          "name": "",
          "type": "address"
        }
      ],
      "stateMutability": "view",
      "type": "function"
    },
    {
      "inputs": [
        {
          "internalType": "uint256",
          "name": "providerId",
          "type": "uint256"
        }
      ],
      "name": "getPoolOwner",
      "outputs": [
        {
          "internalType": "address",
          "name": "",
          "type": "address"
        }
      ],
      "stateMutability": "view",
      "type": "function"
    },
    {
      "inputs": [],
      "name": "getPoolUpdateController",
      "outputs": [
        {
          "internalType": "address",
          "name": "",
          "type": "address"
        }
      ],
      "stateMutability": "view",
      "type": "function"
    },
    {
      "inputs": [
        {
          "internalType": "uint256",
          "name": "providerId",
          "type": "uint256"
        }
      ],
      "name": "getPriceOracle",
      "outputs": [
        {
          "internalType": "address",
          "name": "",
          "type": "address"
        }
      ],
      "stateMutability": "view",
      "type": "function"
    },
    {
      "inputs": [],
      "name": "getProviderId",
      "outputs": [
        {
          "internalType": "uint256",
          "name": "",
          "type": "uint256"
        }
      ],
      "stateMutability": "view",
      "type": "function"
    },
    {
      "inputs": [
        {
          "internalType": "address",
          "name": "user",
          "type": "address"
        }
      ],
      "name": "getProvidersByUser",
      "outputs": [
        {
          "internalType": "uint256[]",
          "name": "",
          "type": "uint256[]"
        }
      ],
      "stateMutability": "view",
      "type": "function"
    },
    {
      "inputs": [
        {
          "internalType": "address",
          "name": "lendingPool",
          "type": "address"
        },
        {
          "internalType": "address",
          "name": "priceOracle",
          "type": "address"
        },
        {
          "internalType": "address",
          "name": "lendingPoolConfigurator",
          "type": "address"
        }
      ],
      "name": "initPool",
      "outputs": [
        {
          "internalType": "uint256",
          "name": "providerId",
          "type": "uint256"
        }
      ],
      "stateMutability": "nonpayable",
      "type": "function"
    },
    {
      "inputs": [
        {
          "internalType": "address",
          "name": "",
          "type": "address"
        },
        {
          "internalType": "uint256",
          "name": "",
          "type": "uint256"
        }
      ],
      "name": "isContained",
      "outputs": [
        {
          "internalType": "bool",
          "name": "",
          "type": "bool"
        }
      ],
      "stateMutability": "view",
      "type": "function"
    },
    {
      "inputs": [],
      "name": "owner",
      "outputs": [
        {
          "internalType": "address",
          "name": "",
          "type": "address"
        }
      ],
      "stateMutability": "view",
      "type": "function"
    },
    {
      "inputs": [],
      "name": "poolFactoryCollateralManager",
      "outputs": [
        {
          "internalType": "address",
          "name": "",
          "type": "address"
        }
      ],
      "stateMutability": "view",
      "type": "function"
    },
    {
      "inputs": [],
      "name": "renounceOwnership",
      "outputs": [],
      "stateMutability": "nonpayable",
      "type": "function"
    },
    {
      "inputs": [
        {
          "internalType": "uint256",
          "name": "providerId",
          "type": "uint256"
        },
        {
          "internalType": "bytes32",
          "name": "id",
          "type": "bytes32"
        },
        {
          "internalType": "address",
          "name": "newAddress",
          "type": "address"
        }
      ],
      "name": "setAddress",
      "outputs": [],
      "stateMutability": "nonpayable",
      "type": "function"
    },
    {
      "inputs": [
        {
          "internalType": "address",
          "name": "manager",
          "type": "address"
        }
      ],
      "name": "setCollateralManagerImpl",
      "outputs": [],
      "stateMutability": "nonpayable",
      "type": "function"
    },
    {
      "inputs": [
        {
          "internalType": "address",
          "name": "_governance",
          "type": "address"
        }
      ],
      "name": "setGovernance",
      "outputs": [],
      "stateMutability": "nonpayable",
      "type": "function"
    },
    {
      "inputs": [
        {
          "internalType": "uint256",
          "name": "providerId",
          "type": "uint256"
        },
        {
          "internalType": "address",
          "name": "lendingPoolCollateralManager",
          "type": "address"
        }
      ],
      "name": "setLendingPoolCollateralManager",
      "outputs": [],
      "stateMutability": "nonpayable",
      "type": "function"
    },
    {
      "inputs": [
        {
          "internalType": "uint256",
          "name": "providerId",
          "type": "uint256"
        },
        {
          "internalType": "address",
          "name": "lendingPoolConfigurator",
          "type": "address"
        }
      ],
      "name": "setLendingPoolConfiguratorImpl",
      "outputs": [],
      "stateMutability": "nonpayable",
      "type": "function"
    },
    {
      "inputs": [
        {
          "internalType": "uint256",
          "name": "providerId",
          "type": "uint256"
        },
        {
          "internalType": "address",
          "name": "pool",
          "type": "address"
        }
      ],
      "name": "setLendingPoolImpl",
      "outputs": [],
      "stateMutability": "nonpayable",
      "type": "function"
    },
    {
      "inputs": [
        {
          "internalType": "uint256",
          "name": "providerId",
          "type": "uint256"
        },
        {
          "internalType": "address",
          "name": "lendingRateOracle",
          "type": "address"
        }
      ],
      "name": "setLendingRateOracle",
      "outputs": [],
      "stateMutability": "nonpayable",
      "type": "function"
    },
    {
      "inputs": [
        {
          "internalType": "address",
          "name": "_poolUpdateController",
          "type": "address"
        }
      ],
      "name": "setPoolUpdateController",
      "outputs": [],
      "stateMutability": "nonpayable",
      "type": "function"
    },
    {
      "inputs": [
        {
          "internalType": "uint256",
          "name": "providerId",
          "type": "uint256"
        },
        {
          "internalType": "address",
          "name": "priceOracle",
          "type": "address"
        }
      ],
      "name": "setPriceOracle",
      "outputs": [],
      "stateMutability": "nonpayable",
      "type": "function"
    },
    {
      "inputs": [
        {
          "internalType": "address",
          "name": "newOwner",
          "type": "address"
        }
      ],
      "name": "transferOwnership",
      "outputs": [],
      "stateMutability": "nonpayable",
      "type": "function"
    },
    {
      "inputs": [
        {
          "internalType": "address",
          "name": "",
          "type": "address"
        },
        {
          "internalType": "uint256",
          "name": "",
          "type": "uint256"
        }
      ],
      "name": "userProviders",
      "outputs": [
        {
          "internalType": "uint256",
          "name": "",
          "type": "uint256"
        }
      ],
      "stateMutability": "view",
      "type": "function"
    }
  ],
  "bytecode": "0x6080604052600060015534801561001557600080fd5b50600061002061006f565b600080546001600160a01b0319166001600160a01b0383169081178255604051929350917f8be0079c531659141344cd1fd0a4f28419497f9722a3daafe3b4186f6b6457e0908290a350610073565b3390565b611e50806100826000396000f3fe608060405234801561001057600080fd5b50600436106101da5760003560e01c80638da5cb5b11610104578063cb880292116100a2578063e0f4edd511610071578063e0f4edd514610586578063e77ab6f7146105b2578063ea7e7b4e146105cf578063f2fde38b146105fb576101da565b8063cb88029214610512578063d2f438361461052f578063d88ff1f41461054c578063decd8e3914610554576101da565b80639b6d9d61116100de5780639b6d9d611461046e578063a7e2d5461461049a578063ab033ea9146104c0578063b47ab19e146104e6576101da565b80638da5cb5b146104385780638f7f6a0f14610440578063954376fa14610466576101da565b80635f3310911161017c578063715018a61161014b578063715018a61461037a5780637b9f5c74146103825780637cbe9e491461038a5780637dee705f14610400576101da565b80635f33109114610315578063656b06a41461031d5780636909579b146103405780636e34b4e41461035d576101da565b8063289b3c0d116101b8578063289b3c0d146102865780632ba8f32f1461028e5780633086038f146102ba57806354e3aa58146102d7576101da565b806301cdc3c9146101df57806316e7bfa21461021f5780631c1951f41461024d575b600080fd5b61020b600480360360408110156101f557600080fd5b506001600160a01b038135169060200135610621565b604080519115158252519081900360200190f35b61024b6004803603604081101561023557600080fd5b50803590602001356001600160a01b031661064c565b005b61026a6004803603602081101561026357600080fd5b503561072b565b604080516001600160a01b039092168252519081900360200190f35b61026a61074c565b61020b600480360360408110156102a457600080fd5b506001600160a01b03813516906020013561075b565b61026a600480360360208110156102d057600080fd5b503561077b565b610303600480360360408110156102ed57600080fd5b506001600160a01b03813516906020013561079d565b60408051918252519081900360200190f35b6103036107cb565b61026a6004803603604081101561033357600080fd5b50803590602001356107d1565b61026a6004803603602081101561035657600080fd5b50356107f7565b61026a6004803603602081101561037357600080fd5b5035610812565b61024b61082b565b61026a6108df565b6103b0600480360360208110156103a057600080fd5b50356001600160a01b03166108ee565b60408051602080825283518183015283519192839290830191858101910280838360005b838110156103ec5781810151838201526020016103d4565b505050509050019250505060405180910390f35b6103036004803603606081101561041657600080fd5b506001600160a01b03813581169160208101358216916040909101351661095a565b61026a610c12565b61024b6004803603602081101561045657600080fd5b50356001600160a01b0316610c21565b61026a610ca1565b61024b6004803603604081101561048457600080fd5b50803590602001356001600160a01b0316610cb0565b61024b600480360360208110156104b057600080fd5b50356001600160a01b0316610d78565b61024b600480360360208110156104d657600080fd5b50356001600160a01b0316610df8565b61024b600480360360408110156104fc57600080fd5b50803590602001356001600160a01b0316610e78565b61026a6004803603602081101561052857600080fd5b5035610f51565b6103036004803603602081101561054557600080fd5b5035610f72565b6103b0610f90565b61024b6004803603606081101561056a57600080fd5b50803590602081013590604001356001600160a01b0316610fe8565b61024b6004803603604081101561059c57600080fd5b50803590602001356001600160a01b03166110bf565b61026a600480360360208110156105c857600080fd5b503561119f565b61024b600480360360408110156105e557600080fd5b50803590602001356001600160a01b03166111c7565b61024b6004803603602081101561061157600080fd5b50356001600160a01b0316611282565b6001600160a01b03919091166000908152600560209081526040808320938352929052205460ff1690565b6008546001600160a01b0316156106aa576008546001600160a01b031633146106aa576040805162461bcd60e51b815260206004820152601d6024820152600080516020611dd5833981519152604482015290519081900360640190fd5b60008281526002602090815260408083207121a7a62620aa22a920a62fa6a0a720a3a2a960711b845282529182902080546001600160a01b0319166001600160a01b0385169081179091558251858152925190927fd4ae065e0214c9946d254c0b021a41405567fa0ce546e2167b974f236c3a13ef92908290030190a25050565b6000610746826b13115391125391d7d413d3d360a21b6107d1565b92915050565b6008546001600160a01b031690565b600560209081526000928352604080842090915290825290205460ff1681565b600061074682724c454e44494e475f524154455f4f5241434c4560681b6107d1565b600460205281600052604060002081815481106107b657fe5b90600052602060002001600091509150505481565b60015490565b60009182526002602090815260408084209284529190529020546001600160a01b031690565b6000610746826b50524943455f4f5241434c4560a01b6107d1565b600061074682692827a7a62fa7aba722a960b11b6107d1565b61083361138c565b6000546001600160a01b03908116911614610895576040805162461bcd60e51b815260206004820181905260248201527f4f776e61626c653a2063616c6c6572206973206e6f7420746865206f776e6572604482015290519081900360640190fd5b600080546040516001600160a01b03909116907f8be0079c531659141344cd1fd0a4f28419497f9722a3daafe3b4186f6b6457e0908390a3600080546001600160a01b0319169055565b6006546001600160a01b031681565b6001600160a01b03811660009081526004602090815260409182902080548351818402810184019094528084526060939283018282801561094e57602002820191906000526020600020905b81548152602001906001019080831161093a575b50505050509050919050565b600180548101908190556000818152600260209081526040808320692827a7a62fa7aba722a960b11b8452909152812080546001600160a01b03191633179055906109b5816b13115391125391d7d413d3d360a21b87611390565b60008181526002602090815260408083206b50524943455f4f5241434c4560a01b8452909152902080546001600160a01b0319166001600160a01b038616179055610a1d81782622a72224a723afa827a7a62fa1a7a72324a3aaa920aa27a960391b85611390565b60065460008281526002602090815260408083207121a7a62620aa22a920a62fa6a0a720a3a2a960711b8452825280832080546001600160a01b0319166001600160a01b039586161790556003805460018181019092557fc2575a0e9e593c00f959f8c92f12db2869c3395a3b0502d05e2516446f71f85b0186905533808552600484528285208054808401825590865284862001879055845260058352818420868552835292819020805460ff191690931790925581519288168352820183905280517f456e4d86c7ba8a48eb66332cb6b9999bb016b386f8a81b9ba02aaec015eb52229281900390910190a16040805182815290516001600160a01b038716917fea9aae01d990f31ad3dafea182aef9c26be3d92ee011ea4ffdb07bd933edf538919081900360200190a26040805182815290516001600160a01b038616917f531e46962eee40e771569f155e9706a5189635763c3cd2d67deb048d931207de919081900360200190a26040805182815290516001600160a01b038516917f15887a054c172a98738b3a7b60f84b39f8f16a87254f7c1e942c6bfabce8d481919081900360200190a26006546040805183815290516001600160a01b03909216917fd4ae065e0214c9946d254c0b021a41405567fa0ce546e2167b974f236c3a13ef9181900360200190a2949350505050565b6000546001600160a01b031690565b6008546001600160a01b031615610c7f576008546001600160a01b03163314610c7f576040805162461bcd60e51b815260206004820152601d6024820152600080516020611dd5833981519152604482015290519081900360640190fd5b600680546001600160a01b0319166001600160a01b0392909216919091179055565b6007546001600160a01b031690565b6008546001600160a01b031615610d0e576008546001600160a01b03163314610d0e576040805162461bcd60e51b815260206004820152601d6024820152600080516020611dd5833981519152604482015290519081900360640190fd5b610d3582782622a72224a723afa827a7a62fa1a7a72324a3aaa920aa27a960391b83611390565b6040805183815290516001600160a01b038316917f15887a054c172a98738b3a7b60f84b39f8f16a87254f7c1e942c6bfabce8d481919081900360200190a25050565b6008546001600160a01b031615610dd6576008546001600160a01b03163314610dd6576040805162461bcd60e51b815260206004820152601d6024820152600080516020611dd5833981519152604482015290519081900360640190fd5b600780546001600160a01b0319166001600160a01b0392909216919091179055565b6008546001600160a01b031615610e56576008546001600160a01b03163314610e56576040805162461bcd60e51b815260206004820152601d6024820152600080516020611dd5833981519152604482015290519081900360640190fd5b600880546001600160a01b0319166001600160a01b0392909216919091179055565b6008546001600160a01b031615610ed6576008546001600160a01b03163314610ed6576040805162461bcd60e51b815260206004820152601d6024820152600080516020611dd5833981519152604482015290519081900360640190fd5b60008281526002602090815260408083206b50524943455f4f5241434c4560a01b845282529182902080546001600160a01b0319166001600160a01b0385169081179091558251858152925190927f531e46962eee40e771569f155e9706a5189635763c3cd2d67deb048d931207de92908290030190a25050565b6000610746827121a7a62620aa22a920a62fa6a0a720a3a2a960711b6107d1565b60038181548110610f7f57fe5b600091825260209091200154905081565b60606003805480602002602001604051908101604052809291908181526020018280548015610fde57602002820191906000526020600020905b815481526020019060010190808311610fca575b5050505050905090565b6008546001600160a01b031615611046576008546001600160a01b03163314611046576040805162461bcd60e51b815260206004820152601d6024820152600080516020611dd5833981519152604482015290519081900360640190fd5b600083815260026020908152604080832085845282529182902080546001600160a01b0385166001600160a01b03199091168117909155825186815291820185905260018284015291517f527f057e675d88f9fc1b2394159b6f779002bd14b0a24bd0a9bd4fde17bc5bc49181900360600190a2505050565b6008546001600160a01b03161561111d576008546001600160a01b0316331461111d576040805162461bcd60e51b815260206004820152601d6024820152600080516020611dd5833981519152604482015290519081900360640190fd5b6000828152600260209081526040808320724c454e44494e475f524154455f4f5241434c4560681b845282529182902080546001600160a01b0319166001600160a01b0385169081179091558251858152925190927ff78a6b0055a5b83c9ffbff1188aa04dc56fb41dec04c6b09b51b6a427802af7e92908290030190a25050565b600061074682782622a72224a723afa827a7a62fa1a7a72324a3aaa920aa27a960391b6107d1565b6008546001600160a01b031615611225576008546001600160a01b03163314611225576040805162461bcd60e51b815260206004820152601d6024820152600080516020611dd5833981519152604482015290519081900360640190fd5b61123f826b13115391125391d7d413d3d360a21b83611390565b6040805183815290516001600160a01b038316917fea9aae01d990f31ad3dafea182aef9c26be3d92ee011ea4ffdb07bd933edf538919081900360200190a25050565b61128a61138c565b6000546001600160a01b039081169116146112ec576040805162461bcd60e51b815260206004820181905260248201527f4f776e61626c653a2063616c6c6572206973206e6f7420746865206f776e6572604482015290519081900360640190fd5b6001600160a01b0381166113315760405162461bcd60e51b8152600401808060200182810382526026815260200180611df56026913960400191505060405180910390fd5b600080546040516001600160a01b03808516939216917f8be0079c531659141344cd1fd0a4f28419497f9722a3daafe3b4186f6b6457e091a3600080546001600160a01b0319166001600160a01b0392909216919091179055565b3290565b6000838152600260209081526040808320858452825291829020548251306024820152604480820188905284518083039091018152606490910190935290820180516001600160e01b031663cd6dc68760e01b1790526001600160a01b03169081908161157a573060405161140490611654565b6001600160a01b03909116815260405190819003602001906000f080158015611431573d6000803e3d6000fd5b509150816001600160a01b031663d1f5789485836040518363ffffffff1660e01b815260040180836001600160a01b0316815260200180602001828103825283818151815260200191508051906020019080838360005b838110156114a0578181015183820152602001611488565b50505050905090810190601f1680156114cd5780820380516001836020036101000a031916815260200191505b509350505050600060405180830381600087803b1580156114ed57600080fd5b505af1158015611501573d6000803e3d6000fd5b505050600087815260026020908152604080832089845282529182902080546001600160a01b0319166001600160a01b03871690811790915582518a815291820189905282519093507f38c40984cc8b009e14ec8831cc8e08d27a4bd1257a102f281de648cc92692f39929181900390910190a261164c565b816001600160a01b0316634f1ef28685836040518363ffffffff1660e01b815260040180836001600160a01b0316815260200180602001828103825283818151815260200191508051906020019080838360005b838110156115e65781810151838201526020016115ce565b50505050905090810190601f1680156116135780820380516001836020036101000a031916815260200191505b509350505050600060405180830381600087803b15801561163357600080fd5b505af1158015611647573d6000803e3d6000fd5b505050505b505050505050565b610773806116628339019056fe60a060405234801561001057600080fd5b506040516107733803806107738339818101604052602081101561003357600080fd5b5051606081901b6001600160601b0319166080526001600160a01b03166106f36100806000398061022852806102725280610331528061045e528061048752806105af52506106f36000f3fe60806040526004361061004a5760003560e01c80633659cfe6146100545780634f1ef286146100875780635c60da1b14610107578063d1f5789414610138578063f851a440146101ee575b610052610203565b005b34801561006057600080fd5b506100526004803603602081101561007757600080fd5b50356001600160a01b031661021d565b6100526004803603604081101561009d57600080fd5b6001600160a01b0382351691908101906040810160208201356401000000008111156100c857600080fd5b8201836020820111156100da57600080fd5b803590602001918460018302840111640100000000831117156100fc57600080fd5b509092509050610267565b34801561011357600080fd5b5061011c610324565b604080516001600160a01b039092168252519081900360200190f35b6100526004803603604081101561014e57600080fd5b6001600160a01b03823516919081019060408101602082013564010000000081111561017957600080fd5b82018360208201111561018b57600080fd5b803590602001918460018302840111640100000000831117156101ad57600080fd5b91908080601f016020809104026020016040519081016040528093929190818152602001838380828437600092019190915250929550610371945050505050565b3480156101fa57600080fd5b5061011c610451565b61020b6104ab565b61021b6102166104b3565b6104d8565b565b336001600160a01b037f000000000000000000000000000000000000000000000000000000000000000016141561025c57610257816104fc565b610264565b610264610203565b50565b336001600160a01b037f0000000000000000000000000000000000000000000000000000000000000000161415610317576102a1836104fc565b6000836001600160a01b031683836040518083838082843760405192019450600093509091505080830381855af49150503d80600081146102fe576040519150601f19603f3d011682016040523d82523d6000602084013e610303565b606091505b505090508061031157600080fd5b5061031f565b61031f610203565b505050565b6000336001600160a01b037f00000000000000000000000000000000000000000000000000000000000000001614156103665761035f6104b3565b905061036e565b61036e610203565b90565b600061037b6104b3565b6001600160a01b03161461038e57600080fd5b6103978261053c565b80511561044d576000826001600160a01b0316826040518082805190602001908083835b602083106103da5780518252601f1990920191602091820191016103bb565b6001836020036101000a038019825116818451168082178552505050505050905001915050600060405180830381855af49150503d806000811461043a576040519150601f19603f3d011682016040523d82523d6000602084013e61043f565b606091505b505090508061031f57600080fd5b5050565b6000336001600160a01b037f000000000000000000000000000000000000000000000000000000000000000016141561036657507f000000000000000000000000000000000000000000000000000000000000000061036e565b61021b6105a4565b7f360894a13ba1a3210667c828492db98dca3e2076cc3735a920a3ca505d382bbc5490565b3660008037600080366000845af43d6000803e8080156104f7573d6000f35b3d6000fd5b6105058161053c565b6040516001600160a01b038216907fbc7cd75a20ee27fd9adebab32041f755214dbc6bffa90cc0225b39da2e5c2d3b90600090a250565b61054581610614565b6105805760405162461bcd60e51b815260040180806020018281038252603b815260200180610683603b913960400191505060405180910390fd5b7f360894a13ba1a3210667c828492db98dca3e2076cc3735a920a3ca505d382bbc55565b336001600160a01b037f000000000000000000000000000000000000000000000000000000000000000016141561060c5760405162461bcd60e51b81526004018080602001828103825260328152602001806106516032913960400191505060405180910390fd5b61021b61021b565b6000813f7fc5d2460186f7233c927e7db2dcc703c0e500b653ca82273b7bfad8045d85a47081811480159061064857508115155b94935050505056fe43616e6e6f742063616c6c2066616c6c6261636b2066756e6374696f6e2066726f6d207468652070726f78792061646d696e43616e6e6f742073657420612070726f787920696d706c656d656e746174696f6e20746f2061206e6f6e2d636f6e74726163742061646472657373a26469706673582212209fe063aef895149de25bd7ba48cbfa7177a51eea00e084511434dab4366720ac64736f6c634300060c00335468652043616c6c6572206d75737420626520476f7665726e616e63650000004f776e61626c653a206e6577206f776e657220697320746865207a65726f2061646472657373a2646970667358221220d504c382811af05f354e58ddc636377d266f19b4c219a52f263b9cdedc02f9e464736f6c634300060c0033",
  "linkReferences": {},
  "deployedLinkReferences": {}
}